{
  "contractName": "FlightSuretyApp",
  "abi": [
    {
      "inputs": [
        {
          "internalType": "address",
          "name": "_contractOwner",
          "type": "address"
        },
        {
          "internalType": "address",
          "name": "dataContractAddress",
          "type": "address"
        },
        {
          "internalType": "address",
          "name": "firstAirlineAddress",
          "type": "address"
        }
      ],
      "stateMutability": "nonpayable",
      "type": "constructor"
    },
    {
      "anonymous": false,
      "inputs": [
        {
          "indexed": false,
          "internalType": "address",
          "name": "airline",
          "type": "address"
        },
        {
          "indexed": false,
          "internalType": "string",
          "name": "flight",
          "type": "string"
        },
        {
          "indexed": false,
          "internalType": "uint256",
          "name": "timestamp",
          "type": "uint256"
        },
        {
          "indexed": false,
          "internalType": "uint8",
          "name": "status",
          "type": "uint8"
        }
      ],
      "name": "FlightStatusInfo",
      "type": "event"
    },
    {
      "anonymous": false,
      "inputs": [
        {
          "indexed": false,
          "internalType": "address",
          "name": "airlineAddress",
          "type": "address"
        },
        {
          "indexed": false,
          "internalType": "uint256",
          "name": "amount",
          "type": "uint256"
        }
      ],
      "name": "FundedAirline",
      "type": "event"
    },
    {
      "anonymous": false,
      "inputs": [
        {
          "indexed": false,
          "internalType": "address",
          "name": "sender",
          "type": "address"
        }
      ],
      "name": "OracleRegistered",
      "type": "event"
    },
    {
      "anonymous": false,
      "inputs": [
        {
          "indexed": false,
          "internalType": "address",
          "name": "oracle",
          "type": "address"
        },
        {
          "indexed": false,
          "internalType": "address",
          "name": "airline",
          "type": "address"
        },
        {
          "indexed": false,
          "internalType": "string",
          "name": "flight",
          "type": "string"
        },
        {
          "indexed": false,
          "internalType": "uint256",
          "name": "timestamp",
          "type": "uint256"
        },
        {
          "indexed": false,
          "internalType": "uint8",
          "name": "status",
          "type": "uint8"
        }
      ],
      "name": "OracleReport",
      "type": "event"
    },
    {
      "anonymous": false,
      "inputs": [
        {
          "indexed": false,
          "internalType": "uint8",
          "name": "index",
          "type": "uint8"
        },
        {
          "indexed": false,
          "internalType": "address",
          "name": "airline",
          "type": "address"
        },
        {
          "indexed": false,
          "internalType": "string",
          "name": "flight",
          "type": "string"
        },
        {
          "indexed": false,
          "internalType": "uint256",
          "name": "timestamp",
          "type": "uint256"
        }
      ],
      "name": "OracleRequest",
      "type": "event"
    },
    {
      "anonymous": false,
      "inputs": [
        {
          "components": [
            {
              "internalType": "address",
              "name": "airlineAddress",
              "type": "address"
            },
            {
              "internalType": "bool",
              "name": "isRegistered",
              "type": "bool"
            },
            {
              "internalType": "bool",
              "name": "isFunded",
              "type": "bool"
            },
            {
              "internalType": "bool",
              "name": "isActive",
              "type": "bool"
            }
          ],
          "indexed": false,
          "internalType": "struct FlightSuretyApp.Airline",
          "name": "airline",
          "type": "tuple"
        }
      ],
      "name": "RegisteredAirline",
      "type": "event"
    },
    {
      "inputs": [],
      "name": "REGISTRATION_FEE",
      "outputs": [
        {
          "internalType": "uint256",
          "name": "",
          "type": "uint256"
        }
      ],
      "stateMutability": "view",
      "type": "function"
    },
    {
      "inputs": [
        {
          "internalType": "uint256",
          "name": "mode",
          "type": "uint256"
        }
      ],
      "name": "setOperatingStatus",
      "outputs": [],
      "stateMutability": "nonpayable",
      "type": "function"
    },
    {
      "inputs": [],
      "name": "isOperational",
      "outputs": [
        {
          "internalType": "bool",
          "name": "",
          "type": "bool"
        }
      ],
      "stateMutability": "view",
      "type": "function"
    },
    {
      "inputs": [],
      "name": "isOperationalTest",
      "outputs": [
        {
          "internalType": "bool",
          "name": "",
          "type": "bool"
        }
      ],
      "stateMutability": "view",
      "type": "function"
    },
    {
      "inputs": [
        {
          "internalType": "address",
          "name": "airlineAddress",
          "type": "address"
        }
      ],
      "name": "registerAirline",
      "outputs": [
        {
          "internalType": "bool",
          "name": "",
          "type": "bool"
        }
      ],
      "stateMutability": "nonpayable",
      "type": "function"
    },
    {
      "inputs": [],
      "name": "getRegisteredAirlines",
      "outputs": [
        {
          "internalType": "address[]",
          "name": "",
          "type": "address[]"
        }
      ],
      "stateMutability": "view",
      "type": "function"
    },
    {
      "inputs": [
        {
          "internalType": "address",
          "name": "_airline",
          "type": "address"
        }
      ],
      "name": "isAirlineRegistered",
      "outputs": [
        {
          "internalType": "bool",
          "name": "",
          "type": "bool"
        }
      ],
      "stateMutability": "view",
      "type": "function"
    },
    {
      "inputs": [],
      "name": "fundAirline",
      "outputs": [],
      "stateMutability": "payable",
      "type": "function"
    },
    {
      "inputs": [
        {
          "internalType": "address",
          "name": "airline",
          "type": "address"
        }
      ],
      "name": "isAirlineFunded",
      "outputs": [
        {
          "internalType": "bool",
          "name": "",
          "type": "bool"
        }
      ],
      "stateMutability": "view",
      "type": "function"
    },
    {
      "inputs": [
        {
          "internalType": "address",
          "name": "airlineAddress",
          "type": "address"
        },
        {
          "internalType": "string",
          "name": "flight",
          "type": "string"
        },
        {
          "internalType": "uint256",
          "name": "timestamp",
          "type": "uint256"
        }
      ],
      "name": "pay",
      "outputs": [],
      "stateMutability": "nonpayable",
      "type": "function"
    },
    {
      "inputs": [
        {
          "internalType": "address",
          "name": "airlineAddress",
          "type": "address"
        },
        {
          "internalType": "string",
          "name": "flight",
          "type": "string"
        },
        {
          "internalType": "uint256",
          "name": "timestamp",
          "type": "uint256"
        }
      ],
      "name": "buyInsurance",
      "outputs": [],
      "stateMutability": "payable",
      "type": "function"
    },
    {
      "inputs": [
        {
          "internalType": "address",
          "name": "insuredAddress",
          "type": "address"
        }
      ],
      "name": "getCreditForInsured",
      "outputs": [
        {
          "internalType": "uint256",
          "name": "",
          "type": "uint256"
        }
      ],
      "stateMutability": "view",
      "type": "function"
    },
    {
      "inputs": [
        {
          "internalType": "address",
          "name": "airlineAddress",
          "type": "address"
        },
        {
          "internalType": "string",
          "name": "flightName",
          "type": "string"
        },
        {
          "internalType": "uint256",
          "name": "timestamp",
          "type": "uint256"
        }
      ],
      "name": "registerFlight",
      "outputs": [],
      "stateMutability": "nonpayable",
      "type": "function"
    },
    {
      "inputs": [
        {
          "internalType": "address",
          "name": "airline",
          "type": "address"
        },
        {
          "internalType": "string",
          "name": "flight",
          "type": "string"
        },
        {
          "internalType": "uint256",
          "name": "timestamp",
          "type": "uint256"
        }
      ],
      "name": "fetchFlightStatus",
      "outputs": [],
      "stateMutability": "nonpayable",
      "type": "function"
    },
    {
      "inputs": [
        {
          "internalType": "uint8",
          "name": "index",
          "type": "uint8"
        },
        {
          "internalType": "address",
          "name": "airline",
          "type": "address"
        },
        {
          "internalType": "string",
          "name": "flight",
          "type": "string"
        },
        {
          "internalType": "uint256",
          "name": "timestamp",
          "type": "uint256"
        },
        {
          "internalType": "uint8",
          "name": "statusCode",
          "type": "uint8"
        }
      ],
      "name": "submitOracleResponse",
      "outputs": [],
      "stateMutability": "nonpayable",
      "type": "function"
    },
    {
      "inputs": [],
      "name": "registerOracle",
      "outputs": [],
      "stateMutability": "payable",
      "type": "function"
    },
    {
      "inputs": [],
      "name": "getMyIndexes",
      "outputs": [
        {
          "internalType": "uint8[3]",
          "name": "",
          "type": "uint8[3]"
        }
      ],
      "stateMutability": "view",
      "type": "function"
    }
  ],
  "bytecode": "0x608060405260018060146101000a81548160ff0219169083151502179055506005600160156101000a81548160ff021916908360ff160217905550600067ffffffffffffffff8111156200005857620000576200044c565b5b604051908082528060200260200182016040528015620000875781602001602082028036833780820191505090505b50600690805190602001906200009f9291906200039e565b50348015620000ad57600080fd5b5060405162003743380380620037438339818101604052810190620000d39190620004e5565b826000806101000a81548173ffffffffffffffffffffffffffffffffffffffff021916908373ffffffffffffffffffffffffffffffffffffffff16021790555081600160006101000a81548173ffffffffffffffffffffffffffffffffffffffff021916908373ffffffffffffffffffffffffffffffffffffffff16021790555062000165816200016f60201b60201c565b5050505062000692565b600060011515600160149054906101000a900460ff16151514620001ca576040517f08c379a0000000000000000000000000000000000000000000000000000000008152600401620001c190620005c8565b60405180910390fd5b600060405180608001604052808473ffffffffffffffffffffffffffffffffffffffff16815260200160011515815260200160001515815260200160001515815250905080600360008573ffffffffffffffffffffffffffffffffffffffff1673ffffffffffffffffffffffffffffffffffffffff16815260200190815260200160002060008201518160000160006101000a81548173ffffffffffffffffffffffffffffffffffffffff021916908373ffffffffffffffffffffffffffffffffffffffff16021790555060208201518160000160146101000a81548160ff02191690831515021790555060408201518160000160156101000a81548160ff02191690831515021790555060608201518160000160166101000a81548160ff0219169083151502179055509050506002839080600181540180825580915050600190039060005260206000200160009091909190916101000a81548173ffffffffffffffffffffffffffffffffffffffff021916908373ffffffffffffffffffffffffffffffffffffffff1602179055507ff674fc37aef3b3d1f2edee9f9ded3c8a455aac9170016d0f197775a920f9cd32816040516200038c919062000675565b60405180910390a16001915050919050565b8280548282559060005260206000209081019282156200041a579160200282015b82811115620004195782518260006101000a81548173ffffffffffffffffffffffffffffffffffffffff021916908373ffffffffffffffffffffffffffffffffffffffff16021790555091602001919060010190620003bf565b5b5090506200042991906200042d565b5090565b5b80821115620004485760008160009055506001016200042e565b5090565b7f4e487b7100000000000000000000000000000000000000000000000000000000600052604160045260246000fd5b600080fd5b600073ffffffffffffffffffffffffffffffffffffffff82169050919050565b6000620004ad8262000480565b9050919050565b620004bf81620004a0565b8114620004cb57600080fd5b50565b600081519050620004df81620004b4565b92915050565b6000806000606084860312156200050157620005006200047b565b5b60006200051186828701620004ce565b93505060206200052486828701620004ce565b92505060406200053786828701620004ce565b9150509250925092565b600082825260208201905092915050565b7f436f6e74726163742069732063757272656e746c79206e6f74206f706572617460008201527f696f6e616c000000000000000000000000000000000000000000000000000000602082015250565b6000620005b060258362000541565b9150620005bd8262000552565b604082019050919050565b60006020820190508181036000830152620005e381620005a1565b9050919050565b620005f581620004a0565b82525050565b60008115159050919050565b6200061281620005fb565b82525050565b608082016000820151620006306000850182620005ea565b50602082015162000645602085018262000607565b5060408201516200065a604085018262000607565b5060608201516200066f606085018262000607565b50505050565b60006080820190506200068c600083018462000618565b92915050565b6130a180620006a26000396000f3fe6080604052600436106100fe5760003560e01c806384e7bb2d11610095578063c23bcf0911610064578063c23bcf09146102e6578063c962d4a214610311578063cd905dff1461033a578063f53b6d6514610365578063f83f11c0146103a2576100fe565b806384e7bb2d146102395780639ed1892714610276578063bdfd987714610280578063c10f2700146102bd576100fe565b80633dd19e6a116100d15780633dd19e6a1461018f5780635741e092146101b85780635f1cc0e6146101e357806364b4f7511461020e576100fe565b8063010c5c97146101035780632f6721d014610140578063339d25901461015c5780633cc0be9c14610166575b600080fd5b34801561010f57600080fd5b5061012a6004803603810190610125919061200f565b6103cb565b6040516101379190612057565b60405180910390f35b61015a600480360381019061015591906121ee565b610479565b005b61016461056a565b005b34801561017257600080fd5b5061018d600480360381019061018891906121ee565b61068e565b005b34801561019b57600080fd5b506101b660048036038101906101b1919061225d565b61085d565b005b3480156101c457600080fd5b506101cd610940565b6040516101da9190612057565b60405180910390f35b3480156101ef57600080fd5b506101f86109a5565b6040516102059190612342565b60405180910390f35b34801561021a57600080fd5b50610223610ae5565b604051610230919061236c565b60405180910390f35b34801561024557600080fd5b50610260600480360381019061025b919061200f565b610af1565b60405161026d919061236c565b60405180910390f35b61027e610bec565b005b34801561028c57600080fd5b506102a760048036038101906102a2919061200f565b610e88565b6040516102b49190612057565b60405180910390f35b3480156102c957600080fd5b506102e460048036038101906102df91906123b3565b611149565b005b3480156102f257600080fd5b506102fb611503565b6040516103089190612508565b60405180910390f35b34801561031d57600080fd5b50610338600480360381019061033391906121ee565b611591565b005b34801561034657600080fd5b5061034f611637565b60405161035c9190612057565b60405180910390f35b34801561037157600080fd5b5061038c6004803603810190610387919061200f565b61164e565b6040516103999190612057565b60405180910390f35b3480156103ae57600080fd5b506103c960048036038101906103c491906121ee565b6116a7565b005b600080600090505b60028054905081101561046e578273ffffffffffffffffffffffffffffffffffffffff166002828154811061040b5761040a61252a565b5b9060005260206000200160009054906101000a900473ffffffffffffffffffffffffffffffffffffffff1673ffffffffffffffffffffffffffffffffffffffff160361045b576001915050610474565b808061046690612588565b9150506103d3565b50600090505b919050565b34670de0b6b3a76400008111156104c5576040517f08c379a00000000000000000000000000000000000000000000000000000000081526004016104bc90612653565b60405180910390fd5b60006104d28585856117d4565b9050600160009054906101000a900473ffffffffffffffffffffffffffffffffffffffff1673ffffffffffffffffffffffffffffffffffffffff1663adf8ae7a86836040518363ffffffff1660e01b815260040161053192919061269b565b600060405180830381600087803b15801561054b57600080fd5b505af115801561055f573d6000803e3d6000fd5b505050505050505050565b670de0b6b3a76400003410156105b5576040517f08c379a00000000000000000000000000000000000000000000000000000000081526004016105ac90612710565b60405180910390fd5b60006105c03361180a565b9050604051806040016040528060011515815260200182815250600760003373ffffffffffffffffffffffffffffffffffffffff1673ffffffffffffffffffffffffffffffffffffffff16815260200190815260200160002060008201518160000160006101000a81548160ff021916908315150217905550602082015181600101906003610650929190611e3a565b509050507fd9d9fdcc9f936c76b5aafe54fc3db5dcec0c6583c9ccc4abe91d17575c5145a5336040516106839190612730565b60405180910390a150565b60011515600160149054906101000a900460ff161515146106e4576040517f08c379a00000000000000000000000000000000000000000000000000000000081526004016106db906127bd565b60405180910390fd5b82600360008273ffffffffffffffffffffffffffffffffffffffff1673ffffffffffffffffffffffffffffffffffffffff16815260200190815260200160002060000160149054906101000a900460ff16610774576040517f08c379a000000000000000000000000000000000000000000000000000000000815260040161076b9061284f565b60405180910390fd5b60006107818585856117d4565b905060006040518060800160405280838152602001600060ff1681526020018581526020018773ffffffffffffffffffffffffffffffffffffffff16815250905080600560008481526020019081526020016000206000820151816000015560208201518160010160006101000a81548160ff021916908360ff1602179055506040820151816002015560608201518160030160006101000a81548173ffffffffffffffffffffffffffffffffffffffff021916908373ffffffffffffffffffffffffffffffffffffffff160217905550905050505050505050565b60008111156108855760018060146101000a81548160ff0219169083151502179055506108a1565b6000600160146101000a81548160ff0219169083151502179055505b600160009054906101000a900473ffffffffffffffffffffffffffffffffffffffff1673ffffffffffffffffffffffffffffffffffffffff1663110466ed600160149054906101000a900460ff166040518263ffffffff1660e01b815260040161090b9190612057565b600060405180830381600087803b15801561092557600080fd5b505af1158015610939573d6000803e3d6000fd5b5050505050565b600060011515600160149054906101000a900460ff16151514610998576040517f08c379a000000000000000000000000000000000000000000000000000000000815260040161098f906127bd565b60405180910390fd5b6109a0611637565b905090565b6109ad611ed4565b600760003373ffffffffffffffffffffffffffffffffffffffff1673ffffffffffffffffffffffffffffffffffffffff16815260200190815260200160002060000160009054906101000a900460ff16610a3c576040517f08c379a0000000000000000000000000000000000000000000000000000000008152600401610a33906128bb565b60405180910390fd5b600760003373ffffffffffffffffffffffffffffffffffffffff1673ffffffffffffffffffffffffffffffffffffffff168152602001908152602001600020600101600380602002604051908101604052809291908260038015610adb576020028201916000905b82829054906101000a900460ff1660ff1681526020019060010190602082600001049283019260010382029150808411610aa45790505b5050505050905090565b670de0b6b3a764000081565b600060011515600160149054906101000a900460ff16151514610b49576040517f08c379a0000000000000000000000000000000000000000000000000000000008152600401610b40906127bd565b60405180910390fd5b600160009054906101000a900473ffffffffffffffffffffffffffffffffffffffff1673ffffffffffffffffffffffffffffffffffffffff166384e7bb2d836040518263ffffffff1660e01b8152600401610ba49190612730565b602060405180830381865afa158015610bc1573d6000803e3d6000fd5b505050506040513d601f19601f82011682018060405250810190610be591906128f0565b9050919050565b60011515600160149054906101000a900460ff16151514610c42576040517f08c379a0000000000000000000000000000000000000000000000000000000008152600401610c39906127bd565b60405180910390fd5b33600360008273ffffffffffffffffffffffffffffffffffffffff1673ffffffffffffffffffffffffffffffffffffffff16815260200190815260200160002060000160149054906101000a900460ff16610cd2576040517f08c379a0000000000000000000000000000000000000000000000000000000008152600401610cc99061298f565b60405180910390fd5b600160009054906101000a900473ffffffffffffffffffffffffffffffffffffffff1673ffffffffffffffffffffffffffffffffffffffff16637b1837de33346040518363ffffffff1660e01b8152600401610d2f9291906129af565b600060405180830381600087803b158015610d4957600080fd5b505af1158015610d5d573d6000803e3d6000fd5b50505050600360003373ffffffffffffffffffffffffffffffffffffffff1673ffffffffffffffffffffffffffffffffffffffff16815260200190815260200160002060000160149054906101000a900460ff1615610e85576001600360003373ffffffffffffffffffffffffffffffffffffffff1673ffffffffffffffffffffffffffffffffffffffff16815260200190815260200160002060000160166101000a81548160ff0219169083151502179055506001600360003373ffffffffffffffffffffffffffffffffffffffff1673ffffffffffffffffffffffffffffffffffffffff16815260200190815260200160002060000160156101000a81548160ff02191690831515021790555060046000815480929190610e7f90612588565b91905055505b50565b600060011515600160149054906101000a900460ff16151514610ee0576040517f08c379a0000000000000000000000000000000000000000000000000000000008152600401610ed7906127bd565b60405180910390fd5b33600360008273ffffffffffffffffffffffffffffffffffffffff1673ffffffffffffffffffffffffffffffffffffffff16815260200190815260200160002060000160169054906101000a900460ff16610f70576040517f08c379a0000000000000000000000000000000000000000000000000000000008152600401610f6790612a4a565b60405180910390fd5b60011515600360003373ffffffffffffffffffffffffffffffffffffffff1673ffffffffffffffffffffffffffffffffffffffff16815260200190815260200160002060000160169054906101000a900460ff16151514610fd45760009150611143565b60011515600360003373ffffffffffffffffffffffffffffffffffffffff1673ffffffffffffffffffffffffffffffffffffffff16815260200190815260200160002060000160149054906101000a900460ff161515146110385760009150611143565b60006004805410156110545761104d846119f0565b905061113e565b6006339080600181540180825580915050600190039060005260206000200160009091909190916101000a81548173ffffffffffffffffffffffffffffffffffffffff021916908373ffffffffffffffffffffffffffffffffffffffff16021790555060026004546110c69190612a99565b6006805490501061113d57600067ffffffffffffffff8111156110ec576110eb61208d565b5b60405190808252806020026020018201604052801561111a5781602001602082028036833780820191505090505b5060069080519060200190611130929190611ef6565b5061113a846119f0565b90505b5b809250505b50919050565b6000858585856040516020016111629493929190612be3565b6040516020818303038152906040528051906020012090506008600082815260200190815260200160002060000160149054906101000a900460ff166111dd576040517f08c379a00000000000000000000000000000000000000000000000000000000081526004016111d490612c79565b60405180910390fd5b8560ff16600760003373ffffffffffffffffffffffffffffffffffffffff1673ffffffffffffffffffffffffffffffffffffffff1681526020019081526020016000206001016000600381106112365761123561252a565b5b602091828204019190069054906101000a900460ff1660ff1614806112ca57508560ff16600760003373ffffffffffffffffffffffffffffffffffffffff1673ffffffffffffffffffffffffffffffffffffffff1681526020019081526020016000206001016001600381106112af576112ae61252a565b5b602091828204019190069054906101000a900460ff1660ff16145b8061134457508560ff16600760003373ffffffffffffffffffffffffffffffffffffffff1673ffffffffffffffffffffffffffffffffffffffff1681526020019081526020016000206001016002600381106113295761132861252a565b5b602091828204019190069054906101000a900460ff1660ff16145b611383576040517f08c379a000000000000000000000000000000000000000000000000000000000815260040161137a90612d0b565b60405180910390fd5b6009600082815260200190815260200160002060008360ff1660ff168152602001908152602001600020339080600181540180825580915050600190039060005260206000200160009091909190916101000a81548173ffffffffffffffffffffffffffffffffffffffff021916908373ffffffffffffffffffffffffffffffffffffffff1602179055507f257dccc1fd472d66cce2826f12a70912f497d3505f06930e7c6f050afece00343386868686604051611445959493929190612d73565b60405180910390a160026009600083815260200190815260200160002060008460ff1660ff16815260200190815260200160002080549050106114fb5760006008600083815260200190815260200160002060000160146101000a81548160ff0219169083151502179055507fe23f5229de535c091e3b7bec2665f5d698192d3b31393066e8987b7a05076b6c858585856040516114e69493929190612dcd565b60405180910390a16114fa85858585611c1a565b5b505050505050565b6060600280548060200260200160405190810160405280929190818152602001828054801561158757602002820191906000526020600020905b8160009054906101000a900473ffffffffffffffffffffffffffffffffffffffff1673ffffffffffffffffffffffffffffffffffffffff168152602001906001019080831161153d575b5050505050905090565b600061159e8484846117d4565b9050600160009054906101000a900473ffffffffffffffffffffffffffffffffffffffff1673ffffffffffffffffffffffffffffffffffffffff1663df7a7e2d8583336040518463ffffffff1660e01b81526004016115ff93929190612e3a565b600060405180830381600087803b15801561161957600080fd5b505af115801561162d573d6000803e3d6000fd5b5050505050505050565b6000600160149054906101000a900460ff16905090565b6000600360008373ffffffffffffffffffffffffffffffffffffffff1673ffffffffffffffffffffffffffffffffffffffff16815260200190815260200160002060000160159054906101000a900460ff169050919050565b60006116b233611d6e565b90506000818585856040516020016116cd9493929190612be3565b60405160208183030381529060405280519060200120905060405180604001604052803373ffffffffffffffffffffffffffffffffffffffff168152602001600115158152506008600083815260200190815260200160002060008201518160000160006101000a81548173ffffffffffffffffffffffffffffffffffffffff021916908373ffffffffffffffffffffffffffffffffffffffff16021790555060208201518160000160146101000a81548160ff0219169083151502179055509050507f3ed01f2c3fc24c6b329d931e35b03e390d23497d22b3f90e15b600343e93df11828686866040516117c59493929190612e71565b60405180910390a15050505050565b60008383836040516020016117eb93929190612ebd565b6040516020818303038152906040528051906020012090509392505050565b611812611ed4565b61181a611ed4565b61182383611d6e565b816000600381106118375761183661252a565b5b602002019060ff16908160ff16815250508060006003811061185c5761185b61252a565b5b6020020151816001600381106118755761187461252a565b5b602002019060ff16908160ff16815250505b8060006003811061189b5761189a61252a565b5b602002015160ff16816001600381106118b7576118b661252a565b5b602002015160ff16036118f7576118cd83611d6e565b816001600381106118e1576118e061252a565b5b602002019060ff16908160ff1681525050611887565b8060016003811061190b5761190a61252a565b5b6020020151816002600381106119245761192361252a565b5b602002019060ff16908160ff16815250505b8060006003811061194a5761194961252a565b5b602002015160ff16816002600381106119665761196561252a565b5b602002015160ff1614806119af5750806001600381106119895761198861252a565b5b602002015160ff16816002600381106119a5576119a461252a565b5b602002015160ff16145b156119e7576119bd83611d6e565b816002600381106119d1576119d061252a565b5b602002019060ff16908160ff1681525050611936565b80915050919050565b600060011515600160149054906101000a900460ff16151514611a48576040517f08c379a0000000000000000000000000000000000000000000000000000000008152600401611a3f906127bd565b60405180910390fd5b600060405180608001604052808473ffffffffffffffffffffffffffffffffffffffff16815260200160011515815260200160001515815260200160001515815250905080600360008573ffffffffffffffffffffffffffffffffffffffff1673ffffffffffffffffffffffffffffffffffffffff16815260200190815260200160002060008201518160000160006101000a81548173ffffffffffffffffffffffffffffffffffffffff021916908373ffffffffffffffffffffffffffffffffffffffff16021790555060208201518160000160146101000a81548160ff02191690831515021790555060408201518160000160156101000a81548160ff02191690831515021790555060608201518160000160166101000a81548160ff0219169083151502179055509050506002839080600181540180825580915050600190039060005260206000200160009091909190916101000a81548173ffffffffffffffffffffffffffffffffffffffff021916908373ffffffffffffffffffffffffffffffffffffffff1602179055507ff674fc37aef3b3d1f2edee9f9ded3c8a455aac9170016d0f197775a920f9cd3281604051611c089190612f5a565b60405180910390a16001915050919050565b6000611c278585856117d4565b9050600060ff168260ff1603611c3d5750611d68565b601460ff168260ff1603611cd957600160009054906101000a900473ffffffffffffffffffffffffffffffffffffffff1673ffffffffffffffffffffffffffffffffffffffff1663d157ba27826040518263ffffffff1660e01b8152600401611ca69190612f75565b600060405180830381600087803b158015611cc057600080fd5b505af1158015611cd4573d6000803e3d6000fd5b505050505b600160009054906101000a900473ffffffffffffffffffffffffffffffffffffffff1673ffffffffffffffffffffffffffffffffffffffff1663be6547ae826040518263ffffffff1660e01b8152600401611d349190612f75565b600060405180830381600087803b158015611d4e57600080fd5b505af1158015611d62573d6000803e3d6000fd5b50505050505b50505050565b600080600a905060008160ff166001601581819054906101000a900460ff1680929190611d9a90612f90565b91906101000a81548160ff021916908360ff16021790555060ff1643611dc09190612fb9565b4085604051602001611dd392919061300e565b6040516020818303038152906040528051906020012060001c611df6919061303a565b905060fa600160159054906101000a900460ff1660ff161115611e30576000600160156101000a81548160ff021916908360ff1602179055505b8092505050919050565b826003601f01602090048101928215611ec35791602002820160005b83821115611e9457835183826101000a81548160ff021916908360ff1602179055509260200192600101602081600001049283019260010302611e56565b8015611ec15782816101000a81549060ff0219169055600101602081600001049283019260010302611e94565b505b509050611ed09190611f80565b5090565b6040518060600160405280600390602082028036833780820191505090505090565b828054828255906000526020600020908101928215611f6f579160200282015b82811115611f6e5782518260006101000a81548173ffffffffffffffffffffffffffffffffffffffff021916908373ffffffffffffffffffffffffffffffffffffffff16021790555091602001919060010190611f16565b5b509050611f7c9190611f80565b5090565b5b80821115611f99576000816000905550600101611f81565b5090565b6000604051905090565b600080fd5b600080fd5b600073ffffffffffffffffffffffffffffffffffffffff82169050919050565b6000611fdc82611fb1565b9050919050565b611fec81611fd1565b8114611ff757600080fd5b50565b60008135905061200981611fe3565b92915050565b60006020828403121561202557612024611fa7565b5b600061203384828501611ffa565b91505092915050565b60008115159050919050565b6120518161203c565b82525050565b600060208201905061206c6000830184612048565b92915050565b600080fd5b600080fd5b6000601f19601f8301169050919050565b7f4e487b7100000000000000000000000000000000000000000000000000000000600052604160045260246000fd5b6120c58261207c565b810181811067ffffffffffffffff821117156120e4576120e361208d565b5b80604052505050565b60006120f7611f9d565b905061210382826120bc565b919050565b600067ffffffffffffffff8211156121235761212261208d565b5b61212c8261207c565b9050602081019050919050565b82818337600083830152505050565b600061215b61215684612108565b6120ed565b90508281526020810184848401111561217757612176612077565b5b612182848285612139565b509392505050565b600082601f83011261219f5761219e612072565b5b81356121af848260208601612148565b91505092915050565b6000819050919050565b6121cb816121b8565b81146121d657600080fd5b50565b6000813590506121e8816121c2565b92915050565b60008060006060848603121561220757612206611fa7565b5b600061221586828701611ffa565b935050602084013567ffffffffffffffff81111561223657612235611fac565b5b6122428682870161218a565b9250506040612253868287016121d9565b9150509250925092565b60006020828403121561227357612272611fa7565b5b6000612281848285016121d9565b91505092915050565b600060039050919050565b600081905092915050565b6000819050919050565b600060ff82169050919050565b6122c0816122aa565b82525050565b60006122d283836122b7565b60208301905092915050565b6000602082019050919050565b6122f48161228a565b6122fe8184612295565b9250612309826122a0565b8060005b8381101561233a57815161232187826122c6565b965061232c836122de565b92505060018101905061230d565b505050505050565b600060608201905061235760008301846122eb565b92915050565b612366816121b8565b82525050565b6000602082019050612381600083018461235d565b92915050565b612390816122aa565b811461239b57600080fd5b50565b6000813590506123ad81612387565b92915050565b600080600080600060a086880312156123cf576123ce611fa7565b5b60006123dd8882890161239e565b95505060206123ee88828901611ffa565b945050604086013567ffffffffffffffff81111561240f5761240e611fac565b5b61241b8882890161218a565b935050606061242c888289016121d9565b925050608061243d8882890161239e565b9150509295509295909350565b600081519050919050565b600082825260208201905092915050565b6000819050602082019050919050565b61247f81611fd1565b82525050565b60006124918383612476565b60208301905092915050565b6000602082019050919050565b60006124b58261244a565b6124bf8185612455565b93506124ca83612466565b8060005b838110156124fb5781516124e28882612485565b97506124ed8361249d565b9250506001810190506124ce565b5085935050505092915050565b6000602082019050818103600083015261252281846124aa565b905092915050565b7f4e487b7100000000000000000000000000000000000000000000000000000000600052603260045260246000fd5b7f4e487b7100000000000000000000000000000000000000000000000000000000600052601160045260246000fd5b6000612593826121b8565b91507fffffffffffffffffffffffffffffffffffffffffffffffffffffffffffffffff82036125c5576125c4612559565b5b600182019050919050565b600082825260208201905092915050565b7f43616e6e6f7420696e7375726520666f72206d6f7265207468616e206f6e652060008201527f65746865722e0000000000000000000000000000000000000000000000000000602082015250565b600061263d6026836125d0565b9150612648826125e1565b604082019050919050565b6000602082019050818103600083015261266c81612630565b9050919050565b61267c81611fd1565b82525050565b6000819050919050565b61269581612682565b82525050565b60006040820190506126b06000830185612673565b6126bd602083018461268c565b9392505050565b7f526567697374726174696f6e2066656520697320726571756972656400000000600082015250565b60006126fa601c836125d0565b9150612705826126c4565b602082019050919050565b60006020820190508181036000830152612729816126ed565b9050919050565b60006020820190506127456000830184612673565b92915050565b7f436f6e74726163742069732063757272656e746c79206e6f74206f706572617460008201527f696f6e616c000000000000000000000000000000000000000000000000000000602082015250565b60006127a76025836125d0565b91506127b28261274b565b604082019050919050565b600060208201905081810360008301526127d68161279a565b9050919050565b7f4169726c696e65206d757374206265205245474953544552454420746f20524560008201527f474953544552206120464c494748542e00000000000000000000000000000000602082015250565b60006128396030836125d0565b9150612844826127dd565b604082019050919050565b600060208201905081810360008301526128688161282c565b9050919050565b7f54686973204f7261636c65206973206e6f742052454749535445524544000000600082015250565b60006128a5601d836125d0565b91506128b08261286f565b602082019050919050565b600060208201905081810360008301526128d481612898565b9050919050565b6000815190506128ea816121c2565b92915050565b60006020828403121561290657612905611fa7565b5b6000612914848285016128db565b91505092915050565b7f4169726c696e65206d757374206265205245474953544552454420746f20465560008201527f4e442e0000000000000000000000000000000000000000000000000000000000602082015250565b60006129796023836125d0565b91506129848261291d565b604082019050919050565b600060208201905081810360008301526129a88161296c565b9050919050565b60006040820190506129c46000830185612673565b6129d1602083018461235d565b9392505050565b7f4169726c696e65206d7573742062652041435449564520746f206d616b65207460008201527f6869732063616c6c2e0000000000000000000000000000000000000000000000602082015250565b6000612a346029836125d0565b9150612a3f826129d8565b604082019050919050565b60006020820190508181036000830152612a6381612a27565b9050919050565b7f4e487b7100000000000000000000000000000000000000000000000000000000600052601260045260246000fd5b6000612aa4826121b8565b9150612aaf836121b8565b925082612abf57612abe612a6a565b5b828204905092915050565b60008160f81b9050919050565b6000612ae282612aca565b9050919050565b612afa612af5826122aa565b612ad7565b82525050565b60008160601b9050919050565b6000612b1882612b00565b9050919050565b6000612b2a82612b0d565b9050919050565b612b42612b3d82611fd1565b612b1f565b82525050565b600081519050919050565b600081905092915050565b60005b83811015612b7c578082015181840152602081019050612b61565b83811115612b8b576000848401525b50505050565b6000612b9c82612b48565b612ba68185612b53565b9350612bb6818560208601612b5e565b80840191505092915050565b6000819050919050565b612bdd612bd8826121b8565b612bc2565b82525050565b6000612bef8287612ae9565b600182019150612bff8286612b31565b601482019150612c0f8285612b91565b9150612c1b8284612bcc565b60208201915081905095945050505050565b7f4f7261636c6552657175657374206973206e6f74204f50454e00000000000000600082015250565b6000612c636019836125d0565b9150612c6e82612c2d565b602082019050919050565b60006020820190508181036000830152612c9281612c56565b9050919050565b7f4f7261636c6520686173206e6f206d61746368696e6720496e64657820666f7260008201527f2074686973204f7261636c655265717565737400000000000000000000000000602082015250565b6000612cf56033836125d0565b9150612d0082612c99565b604082019050919050565b60006020820190508181036000830152612d2481612ce8565b9050919050565b6000612d3682612b48565b612d4081856125d0565b9350612d50818560208601612b5e565b612d598161207c565b840191505092915050565b612d6d816122aa565b82525050565b600060a082019050612d886000830188612673565b612d956020830187612673565b8181036040830152612da78186612d2b565b9050612db6606083018561235d565b612dc36080830184612d64565b9695505050505050565b6000608082019050612de26000830187612673565b8181036020830152612df48186612d2b565b9050612e03604083018561235d565b612e106060830184612d64565b95945050505050565b6000612e2482611fb1565b9050919050565b612e3481612e19565b82525050565b6000606082019050612e4f6000830186612673565b612e5c602083018561268c565b612e696040830184612e2b565b949350505050565b6000608082019050612e866000830187612d64565b612e936020830186612673565b8181036040830152612ea58185612d2b565b9050612eb4606083018461235d565b95945050505050565b6000612ec98286612b31565b601482019150612ed98285612b91565b9150612ee58284612bcc565b602082019150819050949350505050565b612eff8161203c565b82525050565b608082016000820151612f1b6000850182612476565b506020820151612f2e6020850182612ef6565b506040820151612f416040850182612ef6565b506060820151612f546060850182612ef6565b50505050565b6000608082019050612f6f6000830184612f05565b92915050565b6000602082019050612f8a600083018461268c565b92915050565b6000612f9b826122aa565b915060ff8203612fae57612fad612559565b5b600182019050919050565b6000612fc4826121b8565b9150612fcf836121b8565b925082821015612fe257612fe1612559565b5b828203905092915050565b6000819050919050565b61300861300382612682565b612fed565b82525050565b600061301a8285612ff7565b60208201915061302a8284612b31565b6014820191508190509392505050565b6000613045826121b8565b9150613050836121b8565b9250826130605761305f612a6a565b5b82820690509291505056fea2646970667358221220380717981c6a8a0250bba960651ca94d7ce03cf04ab3599117047b155af4954f64736f6c634300080e0033",
  "immutableReferences": {},
  "source": "// SPDX-License-Identifier: MIT\npragma solidity >=0.4.22 <0.9.0;\n\nimport \"../node_modules/@openzeppelin/contracts/utils/math/SafeMath.sol\";\nimport \"./FlightSuretyData.sol\";\n\ncontract FlightSuretyApp {\n    using SafeMath for uint256;\n    address private contractOwner;          // Account used to deploy contract\n    //    address private dataContractAddress;\n    FlightSuretyData private dataContract;\n    bool operational = true;\n\n\n    uint8 private constant STATUS_CODE_UNKNOWN = 0;\n    uint8 private constant STATUS_CODE_ON_TIME = 10;\n    uint8 private constant STATUS_CODE_LATE_AIRLINE = 20; // << This is the only one relevant to payouts\n    uint8 private constant STATUS_CODE_LATE_WEATHER = 30;\n    uint8 private constant STATUS_CODE_LATE_TECHNICAL = 40;\n    uint8 private constant STATUS_CODE_LATE_OTHER = 50;\n    uint8 private nonce = 5;                            // Incremented to add pseudo-randomness at various points\n    uint256 public constant REGISTRATION_FEE = 1 ether; // Fee to be paid when registering oracle\n    uint256 private constant MIN_RESPONSES = 2;         // Number of oracles that must respond for valid status\n\n\n    struct Airline {\n        address airlineAddress;\n        bool isRegistered;\n        bool isFunded;\n        bool isActive; // both isRegisterd and isFunded. Not needed as we can calculate it, but is simple.\n    }\n\n    address[] airlineAddresses;\n    mapping(address => Airline) airlines;\n    // easy way for m of n once we have more than 4\n    uint256 activeAirlinesCount;\n\n    struct Flight {\n        bytes32 flightKey;\n        //        bool isRegistered;\n        uint8 statusCode;\n        uint256 timestamp;\n        address airline;\n    }\n\n    mapping(bytes32 => Flight) private flightsByFlightKey;\n\n    struct OracleRegistration {\n        bool isRegistered;\n        uint8[3] indexes;\n    }\n\n\n\n    /********************************************************************************************/\n    /*                                     SMART CONTRACT FUNCTIONS                             */\n    /********************************************************************************************/\n\n    // implies Data Contract has already been deployed\n    constructor(address _contractOwner, address dataContractAddress, address firstAirlineAddress){\n        contractOwner = _contractOwner;\n        dataContract = FlightSuretyData(dataContractAddress);\n        _registerAirline(firstAirlineAddress);\n    }\n\n    function setOperatingStatus(uint256 mode) external\n//    requireContractOwner\n    {\n        if (mode > 0) {\n            operational = true;\n        } else {\n            operational = false;\n        }\n        dataContract.setOperatingStatus(operational);\n    }\n    function isOperational() public view\n    returns (bool)\n    {\n        return operational;\n    }\n    // a simple way to test the isOperational modifier\n    function isOperationalTest() public view\n    requireIsOperational\n    returns (bool)\n    {\n        return isOperational();\n    }\n    /**\n     * Assuming only one registration at a time\n     * @dev Add an airline to the registration queue\n    *      Can only be called from FlightSuretyApp contract\n    *      M of N Multi-party Consensus is required\n    *        - M is 1/2 of N\n\n    *       NOTE: Will only allowing one airline to be added at a time.\n            Otherwise, would need an M of N for each airline which was\n            being added in parallel. No requirement for that.\n    */\n\n    address[] mofnConsensusToRegisterAnAirline = new address[](0);\n\n    function registerAirline(address airlineAddress)\n    external\n    requireIsOperational\n    requireNominatingAirlineIsActive(msg.sender)\n//    requireNominatedAirlineIsNotYetRegistered(airlineAddress)\n//    returns (bool success, uint256 votes) {\n    returns (bool) {\n        if (airlines[msg.sender].isActive != true){\n            return false;\n        }\n        if (airlines[msg.sender].isRegistered!= true){\n            return false;\n        }\n        // check if it is already registered\n        // no requirement to prevent an airline from voting twice,\n        //but will not do this in the test anyway\n        //        if (bAlreadyVoted == false) {\n\n        //        }\n\n        bool bRegistered = false;\n        // only do M of N if N > 4\n        // M by the way is only to be greater than 50%\n        if (activeAirlinesCount < 4) {\n            bRegistered = _registerAirline(airlineAddress);\n        }\n        else {\n            // am assuming only one airline is being registered at a time\n            // yes, this is a hack so I can finish this, and so is a hack not having\n            // multisig built into a ethereum's core contract class definition\n\n            mofnConsensusToRegisterAnAirline.push(msg.sender);\n\n            if (mofnConsensusToRegisterAnAirline.length >= activeAirlinesCount / 2) {\n                // ok, majority has been reached\n                mofnConsensusToRegisterAnAirline = new address[](0);\n                bRegistered = _registerAirline(airlineAddress);\n            }\n        }\n        return bRegistered;\n    }\n\n    event RegisteredAirline(Airline airline);\n    event FundedAirline(address airlineAddress, uint256 amount);\n\n    function _registerAirline(address newAirlineAddress)\n    private\n        // this requireOperational modifier doesn't feel right as it is an internal call\n        // and should executed because the call has passed a previous modifier\n        // so out it goes\n        requireIsOperational\n    returns (bool) {\n        Airline memory newAirline = Airline\n        ({airlineAddress : newAirlineAddress,\n        isActive : false,\n        isFunded : false,\n        isRegistered : true\n        });\n        airlines[newAirlineAddress] = newAirline;\n        airlineAddresses.push(newAirlineAddress);\n        emit RegisteredAirline(newAirline);\n        return true;\n    }\n\n    function getRegisteredAirlines() external view returns (address[] memory){\n        return airlineAddresses;\n    }\n\n    function isAirlineRegistered(address _airline) external view\n    returns (bool) {\n        for (uint256 i = 0; i < airlineAddresses.length; i++) {\n            if (airlineAddresses[i] == _airline) {\n                return true;\n            }\n        }\n        return false;\n    }\n\n    function fundAirline()\n    public\n    payable\n    requireIsOperational\n    requireAirlineIsRegisteredToFund(msg.sender)\n    {\n\n        dataContract.fund(msg.sender, msg.value);\n\n        if (airlines[msg.sender].isRegistered) {\n            airlines[msg.sender].isActive = true;\n            airlines[msg.sender].isFunded = true;\n            activeAirlinesCount++;\n        }\n\n//        emit FundedAirline(msg.sender, msg.value);\n    }\n    function isAirlineFunded(address airline) external view returns (bool){\n        return airlines[airline].isFunded;\n    }\n\n    function pay(address airlineAddress, string memory flight, uint256 timestamp) external {\n        bytes32 flightKey = getFlightKey(airlineAddress, flight, timestamp);\n        dataContract.pay(airlineAddress, flightKey, payable(msg.sender));\n    }\n\n    function buyInsurance(address airlineAddress, string memory flight, uint256 timestamp)\n    external payable\n    requireLessThanOrEqualToOneEther(msg.value) {\n        bytes32 flightKey = getFlightKey(airlineAddress, flight, timestamp);\n        dataContract.buyInsurance(airlineAddress, flightKey);\n    }\n\n//    function getInsurancePoliciesForFlight(address airlineAddress, string memory flight, uint256 timestamp)\n//    public view returns (FlightSuretyData.InsurancePolicy[] calldata){\n//        bytes32 flightKey = getFlightKey(airlineAddress, flight, timestamp);\n//        return dataContract.getInsurancePoliciesByFlightKey(flightKey);\n//    }\n    function getCreditForInsured(address insuredAddress)\n    external view\n    requireIsOperational\n    returns (uint256){\n        return dataContract.getCreditForInsured(insuredAddress);\n    }\n\n    function getFlightKey(address airline, string memory flight, uint256 timestamp) pure internal returns (bytes32) {\n        return keccak256(abi.encodePacked(airline, flight, timestamp));\n    }\n\n    // what is the point of this?\n    // is it required that the airline is registered? Makes sense.\n    function registerFlight(address airlineAddress, string memory flightName, uint256 timestamp) external\n    requireIsOperational\n    requireAirlineIsRegisteredToRegisterAFlight(airlineAddress) {\n        // do we check to see if the flight has already been registered?\n        // not a requirement and also idempotent\n        bytes32 flightKey = getFlightKey(airlineAddress, flightName, timestamp);\n        Flight memory flight = Flight(\n        {flightKey : flightKey,\n        timestamp : timestamp,\n        airline : airlineAddress,\n        statusCode : STATUS_CODE_UNKNOWN});\n\n        flightsByFlightKey[flightKey] = flight;\n    }\n\n\n    ///////// ORACLE STUFF /////////////\n\n    // Track all registered oracles\n    mapping(address => OracleRegistration) private oracleRegistrationsByAddress;\n\n    // Model for responses from oracles\n    struct ResponseInfo {\n        address requester; // Account that requested status\n        bool isOpen;       // If open, oracle responses are accepted\n    }\n    // Track all oracle responses\n    // Key = hash(index, airline, flight, timestamp)\n    mapping(bytes32 => ResponseInfo) private responseInfoByKey;\n    mapping(bytes32 => mapping(uint8 => address[])) private responseInfoByKeyAndStatusCode;\n\n    // Event fired each time an oracle submits a response\n    event FlightStatusInfo(address airline, string flight, uint256 timestamp, uint8 status);\n    event OracleReport(address oracle, address airline, string flight, uint256 timestamp, uint8 status);\n\n    // Event fired when flight status request is submitted. Oracles track this and if they have a matching index. they fetch data and submit a response\n    event OracleRequest(uint8 index, address airline, string flight, uint256 timestamp);\n\n    // Triggered from the UI\n    function fetchFlightStatus(address airline, string memory flight, uint256 timestamp) external {\n        // Generate a request for oracles to fetch flight information\n        uint8 index = getRandomIndex(msg.sender);\n\n        // Generate a unique key for storing the request\n        bytes32 key = keccak256(abi.encodePacked(index, airline, flight, timestamp));\n        responseInfoByKey[key] = ResponseInfo({requester : msg.sender, isOpen : true});\n        emit OracleRequest(index, airline, flight, timestamp);\n    }\n    /**\n    * @dev Called after oracle has updated flight status\n    *\n    */\n    function processFlightStatus(address airline, string memory flight, uint256 timestamp, uint8 statusCode) internal  {\n        bytes32 flightKey = getFlightKey(airline, flight, timestamp);\n        // if status code is not 20, do nothing\n        if (statusCode == STATUS_CODE_UNKNOWN) {\n            return;\n        } else if (statusCode == STATUS_CODE_LATE_AIRLINE) {\n            // if status code is 20, then pay out all passengers who are insured for this flight\n            dataContract.creditInsureds(flightKey);\n        }\n        // no matter what, close down the policy for this flight\n        dataContract.closeInsurancePolicy(flightKey);\n    }\n\n    function submitOracleResponse(uint8 index, address airline, string memory flight, uint256 timestamp, uint8 statusCode) external {\n\n        bytes32 key = keccak256(abi.encodePacked(index, airline, flight, timestamp));\n        //        require(responseInfoByKey[key].isOpen, \"OracleRequest with index (\" + index + \"), airline (\" + airline + \"), flight (\" + flight + \") and timestamp (\" + timestamp + \") is not OPEN\");\n        require(responseInfoByKey[key].isOpen, \"OracleRequest is not OPEN\");\n        require((oracleRegistrationsByAddress[msg.sender].indexes[0] == index) ||\n        (oracleRegistrationsByAddress[msg.sender].indexes[1] == index) ||\n            (oracleRegistrationsByAddress[msg.sender].indexes[2] == index), \"Oracle has no matching Index for this OracleRequest\");\n\n        responseInfoByKeyAndStatusCode[key][statusCode].push(msg.sender);\n\n        // Information isn't considered verified until at least MIN_RESPONSES\n        // oracles respond with the *** same *** information\n        emit OracleReport(msg.sender, airline, flight, timestamp, statusCode);\n\n        if (responseInfoByKeyAndStatusCode[key][statusCode].length >= MIN_RESPONSES) {\n            // CODE EXERCISE 3: Prevent any more responses since MIN_RESPONSE threshold has been reached\n            /* Enter code here */\n            responseInfoByKey[key].isOpen = false;\n\n            emit FlightStatusInfo(airline, flight, timestamp, statusCode);\n\n            // Handle flight status as appropriate\n            processFlightStatus(airline, flight, timestamp, statusCode);\n        }\n    }\n\n    event    OracleRegistered(address sender);\n\n    function registerOracle() external payable {\n        // Require registration fee\n        require(msg.value >= REGISTRATION_FEE, \"Registration fee is required\");\n\n        uint8[3] memory indexes = generateIndexes(msg.sender);\n\n        oracleRegistrationsByAddress[msg.sender] = OracleRegistration({\n        isRegistered : true,\n        indexes : indexes\n        });\n        emit OracleRegistered(msg.sender);\n\n    }\n\n\n    function generateIndexes(address account) internal returns (uint8[3] memory) {\n        // Returns array of three non-duplicating integers from 0-9\n        uint8[3] memory indexes;\n        indexes[0] = getRandomIndex(account);\n\n        indexes[1] = indexes[0];\n        while (indexes[1] == indexes[0]) {\n            indexes[1] = getRandomIndex(account);\n        }\n\n        indexes[2] = indexes[1];\n        while ((indexes[2] == indexes[0]) || (indexes[2] == indexes[1])) {\n            indexes[2] = getRandomIndex(account);\n        }\n        return indexes;\n    }\n\n    function getMyIndexes() view external returns (uint8[3] memory) {\n        require(oracleRegistrationsByAddress[msg.sender].isRegistered, \"This Oracle is not REGISTERED\");\n        return oracleRegistrationsByAddress[msg.sender].indexes;\n    }\n\n    function getRandomIndex(address account) internal returns (uint8) {\n        uint8 maxValue = 10;\n        // Pseudo random number...the incrementing nonce adds variation\n        uint8 random = uint8(uint256(keccak256(abi.encodePacked(blockhash(block.number - nonce++), account))) % maxValue);\n        if (nonce > 250) {\n            nonce = 0;\n            // Can only fetch blockhashes for last 256 blocks so we adapt\n        }\n        return random;\n    }\n\n    modifier requireIsOperational()     {\n        // used on all state changing functions\n        // Modify to call data contract's status\n        require(operational == true, \"Contract is currently not operational\");\n        _;\n    }\n    modifier requireContractOwner()    {\n        require(msg.sender == contractOwner, \"Caller must be contract owner to make this call.\");\n        _;\n    }\n    modifier requireNominatedAirlineIsNotYetRegistered(address airlineAddress) {\n        require(!airlines[airlineAddress].isRegistered, \"Airline must not yet be REGISTERED.\");\n        _;\n    }\n    modifier requireAirlineIsFunded(address airlineAddress) {\n        require(airlines[airlineAddress].isFunded, \"Airline must be FUNDED to make this call.\");\n        _;\n    }\n    modifier requireAirlineIsRegisteredToRegisterAFlight(address airlineAddress) {\n        require(airlines[airlineAddress].isRegistered, \"Airline must be REGISTERED to REGISTER a FLIGHT.\");\n        _;\n    }\n    modifier requireAirlineIsRegisteredToFund(address airlineAddress) {\n        require(airlines[airlineAddress].isRegistered, \"Airline must be REGISTERED to FUND.\");\n        _;\n    }\n    // require an airline is active in order to vote on registering an airline\n    modifier requireNominatingAirlineIsActive(address airlineAddress) {\n        require(airlines[airlineAddress].isActive, \"Airline must be ACTIVE to make this call.\");\n        _;\n    }\n    modifier requireLessThanOrEqualToOneEther(uint256 value){\n        require(value <= 1 ether, \"Cannot insure for more than one ether.\");\n        _;\n    }\n}\n",
  "sourcePath": "/Users/thomaswhitehill/IdeaProjects/BlockchainProjects/FlightSuretyProjects/FlightSurety/contracts/FlightSuretyApp.sol",
  "compiler": {
    "name": "solc",
    "version": "0.8.14+commit.80d49f37.Emscripten.clang"
  },
  "schemaVersion": "3.4.4",
  "updatedAt": "2022-06-06T14:49:24.586Z",
  "devdoc": {
    "kind": "dev",
    "methods": {},
    "stateVariables": {
      "mofnConsensusToRegisterAnAirline": {
        "details": "Add an airline to the registration queue      Can only be called from FlightSuretyApp contract      M of N Multi-party Consensus is required        - M is 1/2 of N       NOTE: Will only allowing one airline to be added at a time. Otherwise, would need an M of N for each airline which was being added in parallel. No requirement for that."
      }
    },
    "version": 1
  },
  "userdoc": {
    "kind": "user",
    "methods": {},
    "version": 1
  }
}