{
  "contractName": "FlightSuretyData",
  "abi": [
    {
      "inputs": [],
      "stateMutability": "nonpayable",
      "type": "constructor"
    },
    {
      "inputs": [
        {
          "internalType": "address",
          "name": "_airline",
          "type": "address"
        },
        {
          "internalType": "bytes32",
          "name": "_flightKey",
          "type": "bytes32"
        }
      ],
      "name": "buyInsurance",
      "outputs": [],
      "stateMutability": "payable",
      "type": "function",
      "payable": true
    },
    {
      "inputs": [
        {
          "internalType": "bytes32",
          "name": "flightKey",
          "type": "bytes32"
        }
      ],
      "name": "creditInsureds",
      "outputs": [],
      "stateMutability": "view",
      "type": "function",
      "constant": true
    },
    {
      "inputs": [
        {
          "internalType": "bytes32",
          "name": "flightKey",
          "type": "bytes32"
        }
      ],
      "name": "closeInsurancePolicy",
      "outputs": [],
      "stateMutability": "view",
      "type": "function",
      "constant": true
    },
    {
      "inputs": [
        {
          "internalType": "address",
          "name": "airlineAddress",
          "type": "address"
        },
        {
          "internalType": "bytes32",
          "name": "flightKey",
          "type": "bytes32"
        },
        {
          "internalType": "address payable",
          "name": "insuredAddress",
          "type": "address"
        }
      ],
      "name": "pay",
      "outputs": [],
      "stateMutability": "nonpayable",
      "type": "function"
    },
    {
      "inputs": [
        {
          "internalType": "address",
          "name": "airlineAddress",
          "type": "address"
        }
      ],
      "name": "fund",
      "outputs": [],
      "stateMutability": "payable",
      "type": "function",
      "payable": true
    },
    {
      "inputs": [
        {
          "internalType": "bool",
          "name": "mode",
          "type": "bool"
        }
      ],
      "name": "setOperatingStatus",
      "outputs": [],
      "stateMutability": "nonpayable",
      "type": "function"
    },
    {
      "inputs": [],
      "name": "isOperational",
      "outputs": [
        {
          "internalType": "bool",
          "name": "",
          "type": "bool"
        }
      ],
      "stateMutability": "view",
      "type": "function",
      "constant": true
    }
  ],
  "bytecode": "0x60806040526001600060146101000a81548160ff02191690831515021790555034801561002b57600080fd5b50336000806101000a81548173ffffffffffffffffffffffffffffffffffffffff021916908373ffffffffffffffffffffffffffffffffffffffff1602179055506112fe8061007b6000396000f3fe6080604052600436106100705760003560e01c8063be6547ae1161004e578063be6547ae146100d6578063cd905dff146100ff578063d157ba271461012a578063df7a7e2d1461015357610070565b8063110466ed14610075578063230244081461009e578063adf8ae7a146100ba575b600080fd5b34801561008157600080fd5b5061009c60048036038101906100979190610daf565b61017c565b005b6100b860048036038101906100b39190610e3a565b610199565b005b6100d460048036038101906100cf9190610e9d565b61023e565b005b3480156100e257600080fd5b506100fd60048036038101906100f89190610edd565b610427565b005b34801561010b57600080fd5b506101146106c6565b6040516101219190610f19565b60405180910390f35b34801561013657600080fd5b50610151600480360381019061014c9190610edd565b6106dc565b005b34801561015f57600080fd5b5061017a60048036038101906101759190610f72565b6109b2565b005b80600060146101000a81548160ff02191690831515021790555050565b600060149054906101000a900460ff166101e8576040517f08c379a00000000000000000000000000000000000000000000000000000000081526004016101df90611048565b60405180910390fd5b61023a34600160008473ffffffffffffffffffffffffffffffffffffffff1673ffffffffffffffffffffffffffffffffffffffff16815260200190815260200160002054610d4690919063ffffffff16565b5050565b600060149054906101000a900460ff1661028d576040517f08c379a000000000000000000000000000000000000000000000000000000000815260040161028490611048565b60405180910390fd5b60006040518060e001604052808381526020018473ffffffffffffffffffffffffffffffffffffffff1681526020013373ffffffffffffffffffffffffffffffffffffffff16815260200134815260200160008152602001600115158152602001600015158152509050600260008381526020019081526020016000208190806001815401808255809150506001900390600052602060002090600602016000909190919091506000820151816000015560208201518160010160006101000a81548173ffffffffffffffffffffffffffffffffffffffff021916908373ffffffffffffffffffffffffffffffffffffffff16021790555060408201518160020160006101000a81548173ffffffffffffffffffffffffffffffffffffffff021916908373ffffffffffffffffffffffffffffffffffffffff160217905550606082015181600301556080820151816004015560a08201518160050160006101000a81548160ff02191690831515021790555060c08201518160050160016101000a81548160ff0219169083151502179055505050505050565b60008054906101000a900473ffffffffffffffffffffffffffffffffffffffff1673ffffffffffffffffffffffffffffffffffffffff163373ffffffffffffffffffffffffffffffffffffffff16146104b5576040517f08c379a00000000000000000000000000000000000000000000000000000000081526004016104ac906110b4565b60405180910390fd5b600060149054906101000a900460ff16610504576040517f08c379a00000000000000000000000000000000000000000000000000000000081526004016104fb90611048565b60405180910390fd5b600060026000838152602001908152602001600020805480602002602001604051908101604052809291908181526020016000905b8282101561066b57838290600052602060002090600602016040518060e0016040529081600082015481526020016001820160009054906101000a900473ffffffffffffffffffffffffffffffffffffffff1673ffffffffffffffffffffffffffffffffffffffff1673ffffffffffffffffffffffffffffffffffffffff1681526020016002820160009054906101000a900473ffffffffffffffffffffffffffffffffffffffff1673ffffffffffffffffffffffffffffffffffffffff1673ffffffffffffffffffffffffffffffffffffffff16815260200160038201548152602001600482015481526020016005820160009054906101000a900460ff161515151581526020016005820160019054906101000a900460ff16151515158152505081526020019060010190610539565b50505050905060005b81518110156106c1576000828281518110610692576106916110d4565b5b6020026020010151905060008160a00190151590811515815250505080806106b99061113c565b915050610674565b505050565b60008060149054906101000a900460ff16905090565b60008054906101000a900473ffffffffffffffffffffffffffffffffffffffff1673ffffffffffffffffffffffffffffffffffffffff163373ffffffffffffffffffffffffffffffffffffffff161461076a576040517f08c379a0000000000000000000000000000000000000000000000000000000008152600401610761906110b4565b60405180910390fd5b600060149054906101000a900460ff166107b9576040517f08c379a00000000000000000000000000000000000000000000000000000000081526004016107b090611048565b60405180910390fd5b600060026000838152602001908152602001600020805480602002602001604051908101604052809291908181526020016000905b8282101561092057838290600052602060002090600602016040518060e0016040529081600082015481526020016001820160009054906101000a900473ffffffffffffffffffffffffffffffffffffffff1673ffffffffffffffffffffffffffffffffffffffff1673ffffffffffffffffffffffffffffffffffffffff1681526020016002820160009054906101000a900473ffffffffffffffffffffffffffffffffffffffff1673ffffffffffffffffffffffffffffffffffffffff1673ffffffffffffffffffffffffffffffffffffffff16815260200160038201548152602001600482015481526020016005820160009054906101000a900460ff161515151581526020016005820160019054906101000a900460ff161515151581525050815260200190600101906107ee565b50505050905060005b81518110156109ad576000828281518110610947576109466110d4565b5b60200260200101519050600115158160a0015115150361099957600a8160600151600f6109749190611184565b61097e919061120d565b81608001818152505060008160a00190151590811515815250505b5080806109a59061113c565b915050610929565b505050565b60008054906101000a900473ffffffffffffffffffffffffffffffffffffffff1673ffffffffffffffffffffffffffffffffffffffff163373ffffffffffffffffffffffffffffffffffffffff1614610a40576040517f08c379a0000000000000000000000000000000000000000000000000000000008152600401610a37906110b4565b60405180910390fd5b600060149054906101000a900460ff16610a8f576040517f08c379a0000000000000000000000000000000000000000000000000000000008152600401610a8690611048565b60405180910390fd5b600060026000848152602001908152602001600020805480602002602001604051908101604052809291908181526020016000905b82821015610bf657838290600052602060002090600602016040518060e0016040529081600082015481526020016001820160009054906101000a900473ffffffffffffffffffffffffffffffffffffffff1673ffffffffffffffffffffffffffffffffffffffff1673ffffffffffffffffffffffffffffffffffffffff1681526020016002820160009054906101000a900473ffffffffffffffffffffffffffffffffffffffff1673ffffffffffffffffffffffffffffffffffffffff1673ffffffffffffffffffffffffffffffffffffffff16815260200160038201548152602001600482015481526020016005820160009054906101000a900460ff161515151581526020016005820160019054906101000a900460ff16151515158152505081526020019060010190610ac4565b50505050905060005b8151811015610d3e576000828281518110610c1d57610c1c6110d4565b5b602002602001015190508373ffffffffffffffffffffffffffffffffffffffff16816040015173ffffffffffffffffffffffffffffffffffffffff1603610d2a57600115158160c00151151503610c7657505050610d41565b60018160c0019015159081151581525050610cdd8160800151600160008973ffffffffffffffffffffffffffffffffffffffff1673ffffffffffffffffffffffffffffffffffffffff16815260200190815260200160002054610d5c90919063ffffffff16565b508373ffffffffffffffffffffffffffffffffffffffff166108fc82608001519081150290604051600060405180830381858888f19350505050158015610d28573d6000803e3d6000fd5b505b508080610d369061113c565b915050610bff565b50505b505050565b60008183610d54919061123e565b905092915050565b60008183610d6a9190611294565b905092915050565b600080fd5b60008115159050919050565b610d8c81610d77565b8114610d9757600080fd5b50565b600081359050610da981610d83565b92915050565b600060208284031215610dc557610dc4610d72565b5b6000610dd384828501610d9a565b91505092915050565b600073ffffffffffffffffffffffffffffffffffffffff82169050919050565b6000610e0782610ddc565b9050919050565b610e1781610dfc565b8114610e2257600080fd5b50565b600081359050610e3481610e0e565b92915050565b600060208284031215610e5057610e4f610d72565b5b6000610e5e84828501610e25565b91505092915050565b6000819050919050565b610e7a81610e67565b8114610e8557600080fd5b50565b600081359050610e9781610e71565b92915050565b60008060408385031215610eb457610eb3610d72565b5b6000610ec285828601610e25565b9250506020610ed385828601610e88565b9150509250929050565b600060208284031215610ef357610ef2610d72565b5b6000610f0184828501610e88565b91505092915050565b610f1381610d77565b82525050565b6000602082019050610f2e6000830184610f0a565b92915050565b6000610f3f82610ddc565b9050919050565b610f4f81610f34565b8114610f5a57600080fd5b50565b600081359050610f6c81610f46565b92915050565b600080600060608486031215610f8b57610f8a610d72565b5b6000610f9986828701610e25565b9350506020610faa86828701610e88565b9250506040610fbb86828701610f5d565b9150509250925092565b600082825260208201905092915050565b7f436f6e74726163742069732063757272656e746c79206e6f74206f706572617460008201527f696f6e616c000000000000000000000000000000000000000000000000000000602082015250565b6000611032602583610fc5565b915061103d82610fd6565b604082019050919050565b6000602082019050818103600083015261106181611025565b9050919050565b7f43616c6c6572206973206e6f7420636f6e7472616374206f776e657200000000600082015250565b600061109e601c83610fc5565b91506110a982611068565b602082019050919050565b600060208201905081810360008301526110cd81611091565b9050919050565b7f4e487b7100000000000000000000000000000000000000000000000000000000600052603260045260246000fd5b7f4e487b7100000000000000000000000000000000000000000000000000000000600052601160045260246000fd5b6000819050919050565b600061114782611132565b91507fffffffffffffffffffffffffffffffffffffffffffffffffffffffffffffffff820361117957611178611103565b5b600182019050919050565b600061118f82611132565b915061119a83611132565b9250817fffffffffffffffffffffffffffffffffffffffffffffffffffffffffffffffff04831182151516156111d3576111d2611103565b5b828202905092915050565b7f4e487b7100000000000000000000000000000000000000000000000000000000600052601260045260246000fd5b600061121882611132565b915061122383611132565b925082611233576112326111de565b5b828204905092915050565b600061124982611132565b915061125483611132565b9250827fffffffffffffffffffffffffffffffffffffffffffffffffffffffffffffffff0382111561128957611288611103565b5b828201905092915050565b600061129f82611132565b91506112aa83611132565b9250828210156112bd576112bc611103565b5b82820390509291505056fea2646970667358221220267f3cf2386b4e94ada8591b2cc2aed86831ef0a83319351652aaa0b92b0d20a64736f6c634300080e0033",
  "immutableReferences": {},
  "source": "// SPDX-License-Identifier: MIT\npragma solidity >=0.4.22 <0.9.0;\n\nimport \"../node_modules/@openzeppelin/contracts/utils/math/SafeMath.sol\";\n\ncontract FlightSuretyData {\n    using SafeMath for uint256;\n\n    /********************************************************************************************/\n    /*                                       DATA VARIABLES                                     */\n    /********************************************************************************************/\n\n    address private contractOwner;                                      // Account used to deploy contract\n    bool private operational = true;                                    // Blocks all state changes throughout the contract if false\n\n    struct InsurancePolicy {\n        bytes32 flightKey;\n        address airline;\n        address insuredAddress;\n        uint256 amountInsuredFor; // 1 E >= how much is paid by Customer\n        uint256 amountCredited; // 1.5 x amountInsuredFor\n        bool isOpen; // if not open, will no longer issue credits. a bit of a hack.\n        bool isPaid;\n    }\n\n    mapping(address => uint256) private airlineFundingBalances;\n    // map by flightKey to InsurancePolicy array\n    mapping(bytes32 => InsurancePolicy[]) private insurancePoliciesByFlightKey;\n\n    /********************************************************************************************/\n    /*                                       EVENT DEFINITIONS                                  */\n    /********************************************************************************************/\n    /**\n    * @dev Constructor\n    *      The deploying account becomes contractOwner\n    */\n    constructor()  {\n        contractOwner = msg.sender;\n    }\n\n    /********************************************************************************************/\n    /*                                     SMART CONTRACT FUNCTIONS                             */\n    /********************************************************************************************/\n    /**\n     * @dev Buy insurance for a flight\n    *\n    */\n    function buyInsurance(address _airline, bytes32 _flightKey)\n    external payable\n    requireIsOperational {\n        InsurancePolicy memory ip = InsurancePolicy(\n        {flightKey : _flightKey,\n        airline : _airline,\n        insuredAddress : msg.sender,\n        amountInsuredFor : msg.value,\n        amountCredited : 0 ether,\n        isOpen : true,\n        isPaid : false});\n        insurancePoliciesByFlightKey[_flightKey].push(ip);\n    }\n\n    /**\n     *  @dev Credits payouts to insurees\n    */\n    function creditInsureds(bytes32 flightKey) external view\n    requireContractOwner\n    requireIsOperational\n    {\n\n        // for each insured in the policies for this flight\n        InsurancePolicy[] memory ipArray = insurancePoliciesByFlightKey[flightKey];\n\n        for (uint i = 0; i < ipArray.length; i++) {\n            InsurancePolicy memory ip = ipArray[i];\n            if (ip.isOpen == true) {\n                // credit them 1.5 x their premium\n                ip.amountCredited = (15 * ip.amountInsuredFor)/10;\n                // close this here, bit of a hack, but better than AppContract controlling our state\n                ip.isOpen = false;\n            }\n        }\n    }\n    /**\n     *  @dev Close this flights insurance policies one by one\n     Used when the flight has a status which needs not pay out\n        */\n    function closeInsurancePolicy(bytes32 flightKey) external view\n    requireContractOwner\n    requireIsOperational {\n\n        // close all policies for this flight\n        InsurancePolicy[] memory ipArray = insurancePoliciesByFlightKey[flightKey];\n\n        for (uint i = 0; i < ipArray.length; i++) {\n            InsurancePolicy memory ip = ipArray[i];\n            ip.isOpen = false;\n        }\n    }\n\n//    function getInsurancePoliciesByFlightKey(bytes32 flightKey)\n//    public view returns (InsurancePolicy[] calldata){\n\n//        return insurancePoliciesByFlightKey[flightKey];\n//    }\n\n    /**\n     *  @dev Transfers eligible payout funds to insuree\n     *\n    */\n    function pay(address airlineAddress, bytes32 flightKey, address payable insuredAddress)\n        external\n        requireContractOwner\n        requireIsOperational\n\n    {\n        // inefficient and gassy but ... whatever, it's a class not a commercial product\n        InsurancePolicy[] memory ipArray = insurancePoliciesByFlightKey[flightKey];\n\n        for (uint i = 0; i < ipArray.length; i++) {\n            InsurancePolicy memory ip = ipArray[i];\n            if (ip.insuredAddress == insuredAddress) {\n                if (ip.isPaid == true) {\n                    // don't pay again\n                    return;\n                }\n                ip.isPaid = true;\n                // is this a requirement? I don't recall it being one.\n                airlineFundingBalances[airlineAddress].sub(ip.amountCredited);\n                insuredAddress.transfer(ip.amountCredited);\n            }\n        }\n    }\n\n    /**\n     * @dev How Airlines fund their participation.\n    */\n    function fund(address airlineAddress) public payable\n    requireIsOperational {\n        // 10 eth is required but checked at interface of the App Contract, not here\n        // as business rules may change\n        airlineFundingBalances[airlineAddress].add(msg.value);\n    }\n\n\n//    fallback() external payable {\n//        fund(msg.sender);\n//    }\n\n//    receive() external payable\n//    {\n//        fund(msg.sender);\n//    }\n    /********************************************************************************************/\n    /*                                       FUNCTION MODIFIERS                                 */\n    /********************************************************************************************/\n\n    modifier requireIsOperational()  {\n        require(operational, \"Contract is currently not operational\");\n        _;\n    }\n    modifier requireContractOwner() {\n        require(msg.sender == contractOwner, \"Caller is not contract owner\");\n        _;\n    }\n\n\n    /********************************************************************************************/\n    /*                                       UTILITY FUNCTIONS                                  */\n    /********************************************************************************************/\n\n    /**\n     * @dev Sets contract operations on/off\n    *\n    * When operational mode is disabled, all write transactions except for this one will fail\n    */\n    function setOperatingStatus(bool mode) external //requireContractOwner\n    {\n        // no multi consensus required here\n        operational = mode;\n\n    }\n\n    function isOperational() public view returns (bool)  {\n        return operational;\n    }\n\n\n}\n\n",
  "sourcePath": "/Users/thomaswhitehill/IdeaProjects/BlockchainProjects/FlightSuretyProjects/FlightSurety/contracts/FlightSuretyData.sol",
  "compiler": {
    "name": "solc",
    "version": "0.8.14+commit.80d49f37.Emscripten.clang"
  },
  "schemaVersion": "3.4.4",
  "updatedAt": "2022-05-29T10:45:02.517Z",
  "networkType": "ethereum",
  "devdoc": {
    "kind": "dev",
    "methods": {
      "buyInsurance(address,bytes32)": {
        "details": "Buy insurance for a flight"
      },
      "closeInsurancePolicy(bytes32)": {
        "details": "Close this flights insurance policies one by one Used when the flight has a status which needs not pay out"
      },
      "constructor": {
        "details": "Constructor      The deploying account becomes contractOwner"
      },
      "creditInsureds(bytes32)": {
        "details": "Credits payouts to insurees"
      },
      "fund(address)": {
        "details": "How Airlines fund their participation."
      },
      "pay(address,bytes32,address)": {
        "details": "Transfers eligible payout funds to insuree"
      },
      "setOperatingStatus(bool)": {
        "details": "Sets contract operations on/off When operational mode is disabled, all write transactions except for this one will fail"
      }
    },
    "version": 1
  },
  "userdoc": {
    "kind": "user",
    "methods": {},
    "version": 1
  }
}