{
  "contractName": "FlightSuretyApp",
  "abi": [
    {
      "inputs": [
        {
          "internalType": "address",
          "name": "dataContractAddress",
          "type": "address"
        },
        {
          "internalType": "address",
          "name": "firstAirlineAddress",
          "type": "address"
        }
      ],
      "stateMutability": "nonpayable",
      "type": "constructor"
    },
    {
      "anonymous": false,
      "inputs": [
        {
          "indexed": false,
          "internalType": "address",
          "name": "airline",
          "type": "address"
        },
        {
          "indexed": false,
          "internalType": "string",
          "name": "flight",
          "type": "string"
        },
        {
          "indexed": false,
          "internalType": "uint256",
          "name": "timestamp",
          "type": "uint256"
        },
        {
          "indexed": false,
          "internalType": "uint8",
          "name": "status",
          "type": "uint8"
        }
      ],
      "name": "FlightStatusInfo",
      "type": "event"
    },
    {
      "anonymous": false,
      "inputs": [
        {
          "indexed": false,
          "internalType": "address",
          "name": "sender",
          "type": "address"
        }
      ],
      "name": "OracleRegistered",
      "type": "event"
    },
    {
      "anonymous": false,
      "inputs": [
        {
          "indexed": false,
          "internalType": "address",
          "name": "oracle",
          "type": "address"
        },
        {
          "indexed": false,
          "internalType": "address",
          "name": "airline",
          "type": "address"
        },
        {
          "indexed": false,
          "internalType": "string",
          "name": "flight",
          "type": "string"
        },
        {
          "indexed": false,
          "internalType": "uint256",
          "name": "timestamp",
          "type": "uint256"
        },
        {
          "indexed": false,
          "internalType": "uint8",
          "name": "status",
          "type": "uint8"
        }
      ],
      "name": "OracleReport",
      "type": "event"
    },
    {
      "anonymous": false,
      "inputs": [
        {
          "indexed": false,
          "internalType": "uint8",
          "name": "index",
          "type": "uint8"
        },
        {
          "indexed": false,
          "internalType": "address",
          "name": "airline",
          "type": "address"
        },
        {
          "indexed": false,
          "internalType": "string",
          "name": "flight",
          "type": "string"
        },
        {
          "indexed": false,
          "internalType": "uint256",
          "name": "timestamp",
          "type": "uint256"
        }
      ],
      "name": "OracleRequest",
      "type": "event"
    },
    {
      "anonymous": false,
      "inputs": [
        {
          "components": [
            {
              "internalType": "address",
              "name": "airlineAddress",
              "type": "address"
            },
            {
              "internalType": "bool",
              "name": "isRegistered",
              "type": "bool"
            },
            {
              "internalType": "bool",
              "name": "isFunded",
              "type": "bool"
            },
            {
              "internalType": "bool",
              "name": "isActive",
              "type": "bool"
            }
          ],
          "indexed": false,
          "internalType": "struct FlightSuretyApp.Airline",
          "name": "airline",
          "type": "tuple"
        }
      ],
      "name": "RegisteredAirline",
      "type": "event"
    },
    {
      "inputs": [],
      "name": "REGISTRATION_FEE",
      "outputs": [
        {
          "internalType": "uint256",
          "name": "",
          "type": "uint256"
        }
      ],
      "stateMutability": "view",
      "type": "function",
      "constant": true
    },
    {
      "inputs": [
        {
          "internalType": "bool",
          "name": "mode",
          "type": "bool"
        }
      ],
      "name": "setOperatingStatus",
      "outputs": [],
      "stateMutability": "nonpayable",
      "type": "function"
    },
    {
      "inputs": [
        {
          "internalType": "address",
          "name": "airlineAddress",
          "type": "address"
        }
      ],
      "name": "registerAirline",
      "outputs": [
        {
          "internalType": "bool",
          "name": "success",
          "type": "bool"
        },
        {
          "internalType": "uint256",
          "name": "votes",
          "type": "uint256"
        }
      ],
      "stateMutability": "nonpayable",
      "type": "function"
    },
    {
      "inputs": [],
      "name": "fund",
      "outputs": [],
      "stateMutability": "payable",
      "type": "function",
      "payable": true
    },
    {
      "inputs": [
        {
          "internalType": "address",
          "name": "airlineAddress",
          "type": "address"
        },
        {
          "internalType": "string",
          "name": "flight",
          "type": "string"
        },
        {
          "internalType": "uint256",
          "name": "timestamp",
          "type": "uint256"
        }
      ],
      "name": "pay",
      "outputs": [],
      "stateMutability": "nonpayable",
      "type": "function"
    },
    {
      "inputs": [
        {
          "internalType": "address",
          "name": "airlineAddress",
          "type": "address"
        },
        {
          "internalType": "string",
          "name": "flight",
          "type": "string"
        },
        {
          "internalType": "uint256",
          "name": "timestamp",
          "type": "uint256"
        }
      ],
      "name": "buyInsurance",
      "outputs": [],
      "stateMutability": "payable",
      "type": "function",
      "payable": true
    },
    {
      "inputs": [
        {
          "internalType": "address",
          "name": "airlineAddress",
          "type": "address"
        },
        {
          "internalType": "string",
          "name": "flightName",
          "type": "string"
        },
        {
          "internalType": "uint256",
          "name": "timestamp",
          "type": "uint256"
        }
      ],
      "name": "registerFlight",
      "outputs": [],
      "stateMutability": "nonpayable",
      "type": "function"
    },
    {
      "inputs": [
        {
          "internalType": "address",
          "name": "airline",
          "type": "address"
        },
        {
          "internalType": "string",
          "name": "flight",
          "type": "string"
        },
        {
          "internalType": "uint256",
          "name": "timestamp",
          "type": "uint256"
        }
      ],
      "name": "fetchFlightStatus",
      "outputs": [],
      "stateMutability": "nonpayable",
      "type": "function"
    },
    {
      "inputs": [
        {
          "internalType": "uint8",
          "name": "index",
          "type": "uint8"
        },
        {
          "internalType": "address",
          "name": "airline",
          "type": "address"
        },
        {
          "internalType": "string",
          "name": "flight",
          "type": "string"
        },
        {
          "internalType": "uint256",
          "name": "timestamp",
          "type": "uint256"
        },
        {
          "internalType": "uint8",
          "name": "statusCode",
          "type": "uint8"
        }
      ],
      "name": "submitOracleResponse",
      "outputs": [],
      "stateMutability": "nonpayable",
      "type": "function"
    },
    {
      "inputs": [],
      "name": "registerOracle",
      "outputs": [],
      "stateMutability": "payable",
      "type": "function",
      "payable": true
    },
    {
      "inputs": [],
      "name": "getMyIndexes",
      "outputs": [
        {
          "internalType": "uint8[3]",
          "name": "",
          "type": "uint8[3]"
        }
      ],
      "stateMutability": "view",
      "type": "function",
      "constant": true
    }
  ],
  "bytecode": "0x608060405260018060146101000a81548160ff0219169083151502179055506005600160156101000a81548160ff021916908360ff160217905550600067ffffffffffffffff8111156200005857620000576200038e565b5b604051908082528060200260200182016040528015620000875781602001602082028036833780820191505090505b50600590805190602001906200009f929190620002e0565b50348015620000ad57600080fd5b5060405162002f7f38038062002f7f8339818101604052810190620000d3919062000427565b336000806101000a81548173ffffffffffffffffffffffffffffffffffffffff021916908373ffffffffffffffffffffffffffffffffffffffff16021790555081600160006101000a81548173ffffffffffffffffffffffffffffffffffffffff021916908373ffffffffffffffffffffffffffffffffffffffff16021790555062000165816200016e60201b60201c565b50505062000516565b60008060405180608001604052808473ffffffffffffffffffffffffffffffffffffffff16815260200160011515815260200160001515815260200160001515815250905080600260008573ffffffffffffffffffffffffffffffffffffffff1673ffffffffffffffffffffffffffffffffffffffff16815260200190815260200160002060008201518160000160006101000a81548173ffffffffffffffffffffffffffffffffffffffff021916908373ffffffffffffffffffffffffffffffffffffffff16021790555060208201518160000160146101000a81548160ff02191690831515021790555060408201518160000160156101000a81548160ff02191690831515021790555060608201518160000160166101000a81548160ff0219169083151502179055509050507ff674fc37aef3b3d1f2edee9f9ded3c8a455aac9170016d0f197775a920f9cd3281604051620002ce9190620004f9565b60405180910390a16001915050919050565b8280548282559060005260206000209081019282156200035c579160200282015b828111156200035b5782518260006101000a81548173ffffffffffffffffffffffffffffffffffffffff021916908373ffffffffffffffffffffffffffffffffffffffff1602179055509160200191906001019062000301565b5b5090506200036b91906200036f565b5090565b5b808211156200038a57600081600090555060010162000370565b5090565b7f4e487b7100000000000000000000000000000000000000000000000000000000600052604160045260246000fd5b600080fd5b600073ffffffffffffffffffffffffffffffffffffffff82169050919050565b6000620003ef82620003c2565b9050919050565b6200040181620003e2565b81146200040d57600080fd5b50565b6000815190506200042181620003f6565b92915050565b60008060408385031215620004415762000440620003bd565b5b6000620004518582860162000410565b9250506020620004648582860162000410565b9150509250929050565b6200047981620003e2565b82525050565b60008115159050919050565b62000496816200047f565b82525050565b608082016000820151620004b460008501826200046e565b506020820151620004c960208501826200048b565b506040820151620004de60408501826200048b565b506060820151620004f360608501826200048b565b50505050565b60006080820190506200051060008301846200049c565b92915050565b612a5980620005266000396000f3fe60806040526004361061009c5760003560e01c806364b4f7511161006457806364b4f75114610144578063b60d42881461016f578063bdfd987714610179578063c10f2700146101b7578063c962d4a2146101e0578063f83f11c0146102095761009c565b8063110466ed146100a15780632f6721d0146100ca578063339d2590146100e65780633cc0be9c146100f05780635f1cc0e614610119575b600080fd5b3480156100ad57600080fd5b506100c860048036038101906100c391906119cb565b610232565b005b6100e460048036038101906100df9190611bd2565b6102dd565b005b6100ee6103ce565b005b3480156100fc57600080fd5b5061011760048036038101906101129190611bd2565b6104f2565b005b34801561012557600080fd5b5061012e6105da565b60405161013b9190611cf9565b60405180910390f35b34801561015057600080fd5b5061015961071a565b6040516101669190611d23565b60405180910390f35b610177610726565b005b34801561018557600080fd5b506101a0600480360381019061019b9190611d3e565b6109c8565b6040516101ae929190611d7a565b60405180910390f35b3480156101c357600080fd5b506101de60048036038101906101d99190611dcf565b610ce7565b005b3480156101ec57600080fd5b5061020760048036038101906102029190611bd2565b6110a1565b005b34801561021557600080fd5b50610230600480360381019061022b9190611bd2565b611147565b005b60008054906101000a900473ffffffffffffffffffffffffffffffffffffffff1673ffffffffffffffffffffffffffffffffffffffff163373ffffffffffffffffffffffffffffffffffffffff16146102c0576040517f08c379a00000000000000000000000000000000000000000000000000000000081526004016102b790611ec3565b60405180910390fd5b80600160146101000a81548160ff02191690831515021790555050565b34670de0b6b3a7640000811115610329576040517f08c379a000000000000000000000000000000000000000000000000000000000815260040161032090611f55565b60405180910390fd5b6000610336858585611274565b9050600160009054906101000a900473ffffffffffffffffffffffffffffffffffffffff1673ffffffffffffffffffffffffffffffffffffffff1663adf8ae7a86836040518363ffffffff1660e01b8152600401610395929190611f9d565b600060405180830381600087803b1580156103af57600080fd5b505af11580156103c3573d6000803e3d6000fd5b505050505050505050565b670de0b6b3a7640000341015610419576040517f08c379a000000000000000000000000000000000000000000000000000000000815260040161041090612012565b60405180910390fd5b6000610424336112aa565b9050604051806040016040528060011515815260200182815250600660003373ffffffffffffffffffffffffffffffffffffffff1673ffffffffffffffffffffffffffffffffffffffff16815260200190815260200160002060008201518160000160006101000a81548160ff0219169083151502179055506020820151816001019060036104b492919061181c565b509050507fd9d9fdcc9f936c76b5aafe54fc3db5dcec0c6583c9ccc4abe91d17575c5145a5336040516104e79190612032565b60405180910390a150565b60006104ff848484611274565b905060006040518060800160405280838152602001600060ff1681526020018481526020018673ffffffffffffffffffffffffffffffffffffffff16815250905080600460008481526020019081526020016000206000820151816000015560208201518160010160006101000a81548160ff021916908360ff1602179055506040820151816002015560608201518160030160006101000a81548173ffffffffffffffffffffffffffffffffffffffff021916908373ffffffffffffffffffffffffffffffffffffffff1602179055509050505050505050565b6105e26118b6565b600660003373ffffffffffffffffffffffffffffffffffffffff1673ffffffffffffffffffffffffffffffffffffffff16815260200190815260200160002060000160009054906101000a900460ff16610671576040517f08c379a000000000000000000000000000000000000000000000000000000000815260040161066890612099565b60405180910390fd5b600660003373ffffffffffffffffffffffffffffffffffffffff1673ffffffffffffffffffffffffffffffffffffffff168152602001908152602001600020600101600380602002604051908101604052809291908260038015610710576020028201916000905b82829054906101000a900460ff1660ff16815260200190600101906020826000010492830192600103820291508084116106d95790505b5050505050905090565b670de0b6b3a764000081565b60011515600160149054906101000a900460ff1615151461077c576040517f08c379a00000000000000000000000000000000000000000000000000000000081526004016107739061212b565b60405180910390fd5b33600260008273ffffffffffffffffffffffffffffffffffffffff1673ffffffffffffffffffffffffffffffffffffffff16815260200190815260200160002060000160149054906101000a900460ff1661080c576040517f08c379a0000000000000000000000000000000000000000000000000000000008152600401610803906121bd565b60405180910390fd5b678ac7230489e80000341461082057600080fd5b600260003373ffffffffffffffffffffffffffffffffffffffff1673ffffffffffffffffffffffffffffffffffffffff16815260200190815260200160002060000160159054906101000a905050600260003373ffffffffffffffffffffffffffffffffffffffff1673ffffffffffffffffffffffffffffffffffffffff16815260200190815260200160002060000160149054906101000a900460ff1615610937576001600260003373ffffffffffffffffffffffffffffffffffffffff1673ffffffffffffffffffffffffffffffffffffffff16815260200190815260200160002060000160166101000a81548160ff021916908315150217905550600360008154809291906109319061220c565b91905055505b600160009054906101000a900473ffffffffffffffffffffffffffffffffffffffff1673ffffffffffffffffffffffffffffffffffffffff16632302440834336040518363ffffffff1660e01b81526004016109939190612032565b6000604051808303818588803b1580156109ac57600080fd5b505af11580156109c0573d6000803e3d6000fd5b505050505050565b60008060011515600160149054906101000a900460ff16151514610a21576040517f08c379a0000000000000000000000000000000000000000000000000000000008152600401610a189061212b565b60405180910390fd5b33600260008273ffffffffffffffffffffffffffffffffffffffff1673ffffffffffffffffffffffffffffffffffffffff16815260200190815260200160002060000160169054906101000a900460ff16610ab1576040517f08c379a0000000000000000000000000000000000000000000000000000000008152600401610aa8906122c6565b60405180910390fd5b83600260008273ffffffffffffffffffffffffffffffffffffffff1673ffffffffffffffffffffffffffffffffffffffff16815260200190815260200160002060000160149054906101000a900460ff1615610b42576040517f08c379a0000000000000000000000000000000000000000000000000000000008152600401610b3990612358565b60405180910390fd5b600260003373ffffffffffffffffffffffffffffffffffffffff1673ffffffffffffffffffffffffffffffffffffffff16815260200190815260200160002060000160149054906101000a900460ff1615610bd2576040517f08c379a0000000000000000000000000000000000000000000000000000000008152600401610bc9906123c4565b60405180910390fd5b60046003541015610bec57610be685611490565b50610cd5565b6005339080600181540180825580915050600190039060005260206000200160009091909190916101000a81548173ffffffffffffffffffffffffffffffffffffffff021916908373ffffffffffffffffffffffffffffffffffffffff1602179055506002600354610c5e9190612413565b60058054905010610cd457600067ffffffffffffffff811115610c8457610c83611a71565b5b604051908082528060200260200182016040528015610cb25781602001602082028036833780820191505090505b5060059080519060200190610cc89291906118d8565b50610cd285611490565b505b5b83600580549050935093505050915091565b600085858585604051602001610d00949392919061255d565b6040516020818303038152906040528051906020012090506007600082815260200190815260200160002060000160149054906101000a900460ff16610d7b576040517f08c379a0000000000000000000000000000000000000000000000000000000008152600401610d72906125f3565b60405180910390fd5b8560ff16600660003373ffffffffffffffffffffffffffffffffffffffff1673ffffffffffffffffffffffffffffffffffffffff168152602001908152602001600020600101600060038110610dd457610dd3612613565b5b602091828204019190069054906101000a900460ff1660ff161480610e6857508560ff16600660003373ffffffffffffffffffffffffffffffffffffffff1673ffffffffffffffffffffffffffffffffffffffff168152602001908152602001600020600101600160038110610e4d57610e4c612613565b5b602091828204019190069054906101000a900460ff1660ff16145b80610ee257508560ff16600660003373ffffffffffffffffffffffffffffffffffffffff1673ffffffffffffffffffffffffffffffffffffffff168152602001908152602001600020600101600260038110610ec757610ec6612613565b5b602091828204019190069054906101000a900460ff1660ff16145b610f21576040517f08c379a0000000000000000000000000000000000000000000000000000000008152600401610f18906126b4565b60405180910390fd5b6008600082815260200190815260200160002060008360ff1660ff168152602001908152602001600020339080600181540180825580915050600190039060005260206000200160009091909190916101000a81548173ffffffffffffffffffffffffffffffffffffffff021916908373ffffffffffffffffffffffffffffffffffffffff1602179055507f257dccc1fd472d66cce2826f12a70912f497d3505f06930e7c6f050afece00343386868686604051610fe395949392919061271c565b60405180910390a160026008600083815260200190815260200160002060008460ff1660ff16815260200190815260200160002080549050106110995760006007600083815260200190815260200160002060000160146101000a81548160ff0219169083151502179055507fe23f5229de535c091e3b7bec2665f5d698192d3b31393066e8987b7a05076b6c858585856040516110849493929190612776565b60405180910390a161109885858585611600565b5b505050505050565b60006110ae848484611274565b9050600160009054906101000a900473ffffffffffffffffffffffffffffffffffffffff1673ffffffffffffffffffffffffffffffffffffffff1663df7a7e2d8583336040518463ffffffff1660e01b815260040161110f939291906127e3565b600060405180830381600087803b15801561112957600080fd5b505af115801561113d573d6000803e3d6000fd5b5050505050505050565b600061115233611750565b905060008185858560405160200161116d949392919061255d565b60405160208183030381529060405280519060200120905060405180604001604052803373ffffffffffffffffffffffffffffffffffffffff168152602001600115158152506007600083815260200190815260200160002060008201518160000160006101000a81548173ffffffffffffffffffffffffffffffffffffffff021916908373ffffffffffffffffffffffffffffffffffffffff16021790555060208201518160000160146101000a81548160ff0219169083151502179055509050507f3ed01f2c3fc24c6b329d931e35b03e390d23497d22b3f90e15b600343e93df1182868686604051611265949392919061281a565b60405180910390a15050505050565b600083838360405160200161128b93929190612866565b6040516020818303038152906040528051906020012090509392505050565b6112b26118b6565b6112ba6118b6565b6112c383611750565b816000600381106112d7576112d6612613565b5b602002019060ff16908160ff1681525050806000600381106112fc576112fb612613565b5b60200201518160016003811061131557611314612613565b5b602002019060ff16908160ff16815250505b8060006003811061133b5761133a612613565b5b602002015160ff168160016003811061135757611356612613565b5b602002015160ff16036113975761136d83611750565b8160016003811061138157611380612613565b5b602002019060ff16908160ff1681525050611327565b806001600381106113ab576113aa612613565b5b6020020151816002600381106113c4576113c3612613565b5b602002019060ff16908160ff16815250505b806000600381106113ea576113e9612613565b5b602002015160ff168160026003811061140657611405612613565b5b602002015160ff16148061144f57508060016003811061142957611428612613565b5b602002015160ff168160026003811061144557611444612613565b5b602002015160ff16145b156114875761145d83611750565b8160026003811061147157611470612613565b5b602002019060ff16908160ff16815250506113d6565b80915050919050565b60008060405180608001604052808473ffffffffffffffffffffffffffffffffffffffff16815260200160011515815260200160001515815260200160001515815250905080600260008573ffffffffffffffffffffffffffffffffffffffff1673ffffffffffffffffffffffffffffffffffffffff16815260200190815260200160002060008201518160000160006101000a81548173ffffffffffffffffffffffffffffffffffffffff021916908373ffffffffffffffffffffffffffffffffffffffff16021790555060208201518160000160146101000a81548160ff02191690831515021790555060408201518160000160156101000a81548160ff02191690831515021790555060608201518160000160166101000a81548160ff0219169083151502179055509050507ff674fc37aef3b3d1f2edee9f9ded3c8a455aac9170016d0f197775a920f9cd32816040516115ee9190612912565b60405180910390a16001915050919050565b600061160d858585611274565b9050600060ff168260ff1603611623575061174a565b601460ff168260ff16036116bd57600160009054906101000a900473ffffffffffffffffffffffffffffffffffffffff1673ffffffffffffffffffffffffffffffffffffffff1663d157ba27826040518263ffffffff1660e01b815260040161168c919061292d565b60006040518083038186803b1580156116a457600080fd5b505afa1580156116b8573d6000803e3d6000fd5b505050505b600160009054906101000a900473ffffffffffffffffffffffffffffffffffffffff1673ffffffffffffffffffffffffffffffffffffffff1663be6547ae826040518263ffffffff1660e01b8152600401611718919061292d565b60006040518083038186803b15801561173057600080fd5b505afa158015611744573d6000803e3d6000fd5b50505050505b50505050565b600080600a905060008160ff166001601581819054906101000a900460ff168092919061177c90612948565b91906101000a81548160ff021916908360ff16021790555060ff16436117a29190612971565b40856040516020016117b59291906129c6565b6040516020818303038152906040528051906020012060001c6117d891906129f2565b905060fa600160159054906101000a900460ff1660ff161115611812576000600160156101000a81548160ff021916908360ff1602179055505b8092505050919050565b826003601f016020900481019282156118a55791602002820160005b8382111561187657835183826101000a81548160ff021916908360ff1602179055509260200192600101602081600001049283019260010302611838565b80156118a35782816101000a81549060ff0219169055600101602081600001049283019260010302611876565b505b5090506118b29190611962565b5090565b6040518060600160405280600390602082028036833780820191505090505090565b828054828255906000526020600020908101928215611951579160200282015b828111156119505782518260006101000a81548173ffffffffffffffffffffffffffffffffffffffff021916908373ffffffffffffffffffffffffffffffffffffffff160217905550916020019190600101906118f8565b5b50905061195e9190611962565b5090565b5b8082111561197b576000816000905550600101611963565b5090565b6000604051905090565b600080fd5b600080fd5b60008115159050919050565b6119a881611993565b81146119b357600080fd5b50565b6000813590506119c58161199f565b92915050565b6000602082840312156119e1576119e0611989565b5b60006119ef848285016119b6565b91505092915050565b600073ffffffffffffffffffffffffffffffffffffffff82169050919050565b6000611a23826119f8565b9050919050565b611a3381611a18565b8114611a3e57600080fd5b50565b600081359050611a5081611a2a565b92915050565b600080fd5b600080fd5b6000601f19601f8301169050919050565b7f4e487b7100000000000000000000000000000000000000000000000000000000600052604160045260246000fd5b611aa982611a60565b810181811067ffffffffffffffff82111715611ac857611ac7611a71565b5b80604052505050565b6000611adb61197f565b9050611ae78282611aa0565b919050565b600067ffffffffffffffff821115611b0757611b06611a71565b5b611b1082611a60565b9050602081019050919050565b82818337600083830152505050565b6000611b3f611b3a84611aec565b611ad1565b905082815260208101848484011115611b5b57611b5a611a5b565b5b611b66848285611b1d565b509392505050565b600082601f830112611b8357611b82611a56565b5b8135611b93848260208601611b2c565b91505092915050565b6000819050919050565b611baf81611b9c565b8114611bba57600080fd5b50565b600081359050611bcc81611ba6565b92915050565b600080600060608486031215611beb57611bea611989565b5b6000611bf986828701611a41565b935050602084013567ffffffffffffffff811115611c1a57611c1961198e565b5b611c2686828701611b6e565b9250506040611c3786828701611bbd565b9150509250925092565b600060039050919050565b600081905092915050565b6000819050919050565b600060ff82169050919050565b611c7781611c61565b82525050565b6000611c898383611c6e565b60208301905092915050565b6000602082019050919050565b611cab81611c41565b611cb58184611c4c565b9250611cc082611c57565b8060005b83811015611cf1578151611cd88782611c7d565b9650611ce383611c95565b925050600181019050611cc4565b505050505050565b6000606082019050611d0e6000830184611ca2565b92915050565b611d1d81611b9c565b82525050565b6000602082019050611d386000830184611d14565b92915050565b600060208284031215611d5457611d53611989565b5b6000611d6284828501611a41565b91505092915050565b611d7481611993565b82525050565b6000604082019050611d8f6000830185611d6b565b611d9c6020830184611d14565b9392505050565b611dac81611c61565b8114611db757600080fd5b50565b600081359050611dc981611da3565b92915050565b600080600080600060a08688031215611deb57611dea611989565b5b6000611df988828901611dba565b9550506020611e0a88828901611a41565b945050604086013567ffffffffffffffff811115611e2b57611e2a61198e565b5b611e3788828901611b6e565b9350506060611e4888828901611bbd565b9250506080611e5988828901611dba565b9150509295509295909350565b600082825260208201905092915050565b7f43616c6c6572206973206e6f7420636f6e7472616374206f776e657200000000600082015250565b6000611ead601c83611e66565b9150611eb882611e77565b602082019050919050565b60006020820190508181036000830152611edc81611ea0565b9050919050565b7f43616e6e6f7420696e7375726520666f72206d6f7265207468616e206f6e652060008201527f65746865722e0000000000000000000000000000000000000000000000000000602082015250565b6000611f3f602683611e66565b9150611f4a82611ee3565b604082019050919050565b60006020820190508181036000830152611f6e81611f32565b9050919050565b611f7e81611a18565b82525050565b6000819050919050565b611f9781611f84565b82525050565b6000604082019050611fb26000830185611f75565b611fbf6020830184611f8e565b9392505050565b7f526567697374726174696f6e2066656520697320726571756972656400000000600082015250565b6000611ffc601c83611e66565b915061200782611fc6565b602082019050919050565b6000602082019050818103600083015261202b81611fef565b9050919050565b60006020820190506120476000830184611f75565b92915050565b7f54686973204f7261636c65206973206e6f742052454749535445524544000000600082015250565b6000612083601d83611e66565b915061208e8261204d565b602082019050919050565b600060208201905081810360008301526120b281612076565b9050919050565b7f436f6e74726163742069732063757272656e746c79206e6f74206f706572617460008201527f696f6e616c000000000000000000000000000000000000000000000000000000602082015250565b6000612115602583611e66565b9150612120826120b9565b604082019050919050565b6000602082019050818103600083015261214481612108565b9050919050565b7f4169726c696e65206d757374206265205245474953544552454420746f206d6160008201527f6b6520746869732063616c6c2e00000000000000000000000000000000000000602082015250565b60006121a7602d83611e66565b91506121b28261214b565b604082019050919050565b600060208201905081810360008301526121d68161219a565b9050919050565b7f4e487b7100000000000000000000000000000000000000000000000000000000600052601160045260246000fd5b600061221782611b9c565b91507fffffffffffffffffffffffffffffffffffffffffffffffffffffffffffffffff8203612249576122486121dd565b5b600182019050919050565b7f4169726c696e65206d7573742062652041435449564520746f206d616b65207460008201527f6869732063616c6c2e0000000000000000000000000000000000000000000000602082015250565b60006122b0602983611e66565b91506122bb82612254565b604082019050919050565b600060208201905081810360008301526122df816122a3565b9050919050565b7f4169726c696e65206d757374206e6f742079657420626520524547495354455260008201527f45442e0000000000000000000000000000000000000000000000000000000000602082015250565b6000612342602383611e66565b915061234d826122e6565b604082019050919050565b6000602082019050818103600083015261237181612335565b9050919050565b7f4169726c696e6520697320616c726561647920526567697374657265642e0000600082015250565b60006123ae601e83611e66565b91506123b982612378565b602082019050919050565b600060208201905081810360008301526123dd816123a1565b9050919050565b7f4e487b7100000000000000000000000000000000000000000000000000000000600052601260045260246000fd5b600061241e82611b9c565b915061242983611b9c565b925082612439576124386123e4565b5b828204905092915050565b60008160f81b9050919050565b600061245c82612444565b9050919050565b61247461246f82611c61565b612451565b82525050565b60008160601b9050919050565b60006124928261247a565b9050919050565b60006124a482612487565b9050919050565b6124bc6124b782611a18565b612499565b82525050565b600081519050919050565b600081905092915050565b60005b838110156124f65780820151818401526020810190506124db565b83811115612505576000848401525b50505050565b6000612516826124c2565b61252081856124cd565b93506125308185602086016124d8565b80840191505092915050565b6000819050919050565b61255761255282611b9c565b61253c565b82525050565b60006125698287612463565b60018201915061257982866124ab565b601482019150612589828561250b565b91506125958284612546565b60208201915081905095945050505050565b7f4f7261636c6552657175657374206973206e6f74204f50454e00000000000000600082015250565b60006125dd601983611e66565b91506125e8826125a7565b602082019050919050565b6000602082019050818103600083015261260c816125d0565b9050919050565b7f4e487b7100000000000000000000000000000000000000000000000000000000600052603260045260246000fd5b7f4f7261636c6520686173206e6f206d61746368696e6720496e64657820666f7260008201527f2074686973204f7261636c655265717565737400000000000000000000000000602082015250565b600061269e603383611e66565b91506126a982612642565b604082019050919050565b600060208201905081810360008301526126cd81612691565b9050919050565b60006126df826124c2565b6126e98185611e66565b93506126f98185602086016124d8565b61270281611a60565b840191505092915050565b61271681611c61565b82525050565b600060a0820190506127316000830188611f75565b61273e6020830187611f75565b818103604083015261275081866126d4565b905061275f6060830185611d14565b61276c608083018461270d565b9695505050505050565b600060808201905061278b6000830187611f75565b818103602083015261279d81866126d4565b90506127ac6040830185611d14565b6127b9606083018461270d565b95945050505050565b60006127cd826119f8565b9050919050565b6127dd816127c2565b82525050565b60006060820190506127f86000830186611f75565b6128056020830185611f8e565b61281260408301846127d4565b949350505050565b600060808201905061282f600083018761270d565b61283c6020830186611f75565b818103604083015261284e81856126d4565b905061285d6060830184611d14565b95945050505050565b600061287282866124ab565b601482019150612882828561250b565b915061288e8284612546565b602082019150819050949350505050565b6128a881611a18565b82525050565b6128b781611993565b82525050565b6080820160008201516128d3600085018261289f565b5060208201516128e660208501826128ae565b5060408201516128f960408501826128ae565b50606082015161290c60608501826128ae565b50505050565b600060808201905061292760008301846128bd565b92915050565b60006020820190506129426000830184611f8e565b92915050565b600061295382611c61565b915060ff8203612966576129656121dd565b5b600182019050919050565b600061297c82611b9c565b915061298783611b9c565b92508282101561299a576129996121dd565b5b828203905092915050565b6000819050919050565b6129c06129bb82611f84565b6129a5565b82525050565b60006129d282856129af565b6020820191506129e282846124ab565b6014820191508190509392505050565b60006129fd82611b9c565b9150612a0883611b9c565b925082612a1857612a176123e4565b5b82820690509291505056fea2646970667358221220522c6b5aad35823520465ecffbfe024e32dde66d8234f4f535ac8112df4fa05a64736f6c634300080e0033",
  "immutableReferences": {},
  "source": "// SPDX-License-Identifier: MIT\npragma solidity >=0.4.22 <0.9.0;\n\nimport \"../node_modules/@openzeppelin/contracts/utils/math/SafeMath.sol\";\nimport \"./FlightSuretyData.sol\";\n\ncontract FlightSuretyApp {\n    using SafeMath for uint256;\n    address private contractOwner;          // Account used to deploy contract\n    //    address private dataContractAddress;\n    FlightSuretyData private dataContract;\n    bool operational = true;\n\n\n    uint8 private constant STATUS_CODE_UNKNOWN = 0;\n    uint8 private constant STATUS_CODE_ON_TIME = 10;\n    uint8 private constant STATUS_CODE_LATE_AIRLINE = 20; // << This is the only one relevant to payouts\n    uint8 private constant STATUS_CODE_LATE_WEATHER = 30;\n    uint8 private constant STATUS_CODE_LATE_TECHNICAL = 40;\n    uint8 private constant STATUS_CODE_LATE_OTHER = 50;\n    uint8 private nonce = 5;                            // Incremented to add pseudo-randomness at various points\n    uint256 public constant REGISTRATION_FEE = 1 ether; // Fee to be paid when registering oracle\n    uint256 private constant MIN_RESPONSES = 2;         // Number of oracles that must respond for valid status\n\n\n    struct Airline {\n        address airlineAddress;\n        bool isRegistered;\n        bool isFunded;\n        bool isActive; // both isRegisterd and isFunded. Not needed as we can calculate it, but is simple.\n    }\n\n    //Airline[] airlines;\n    mapping(address => Airline) airlines;\n    // easy way for m of n once we have more than 4\n    uint256 activeAirlinesCount;\n\n    struct Flight {\n        bytes32 flightKey;\n        //        bool isRegistered;\n        uint8 statusCode;\n        uint256 timestamp;\n        address airline;\n    }\n\n    mapping(bytes32 => Flight) private flightsByFlightKey;\n\n    struct OracleRegistration {\n        bool isRegistered;\n        uint8[3] indexes;\n    }\n\n    modifier requireIsOperational()     {\n        // used on all state changing functions\n        // Modify to call data contract's status\n        require(operational == true, \"Contract is currently not operational\");\n        _;\n        // All modifiers require an \"_\" which indicates where the function body will be added\n    }\n    modifier requireContractOwner()    {\n        require(msg.sender == contractOwner, \"Caller is not contract owner\");\n        _;\n    }\n    modifier requireNominatedAirlineIsNotYetRegistered(address airlineAddress) {\n        require(!airlines[airlineAddress].isRegistered, \"Airline must not yet be REGISTERED.\");\n        _;\n    }\n    modifier requireAirlineIsFunded(address airlineAddress) {\n        require(airlines[airlineAddress].isFunded, \"Airline must be FUNDED to make this call.\");\n        _;\n    }\n    modifier requireAirlineIsRegistered(address airlineAddress) {\n        require(airlines[airlineAddress].isRegistered, \"Airline must be REGISTERED to make this call.\");\n        _;\n    }\n    // require an airline is active in order to vote on registering an airline\n    modifier requireNominatingAirlineIsActive(address airlineAddress) {\n        require(airlines[airlineAddress].isActive, \"Airline must be ACTIVE to make this call.\");\n        _;\n    }\n    modifier requireLessThanOneEther(uint256 value){\n        require(value <= 1 ether, \"Cannot insure for more than one ether.\");\n        _;\n    }\n\n    /********************************************************************************************/\n    /*                                     SMART CONTRACT FUNCTIONS                             */\n    /********************************************************************************************/\n\n    // implies Data Contract has already been deployed\n    constructor(address dataContractAddress, address firstAirlineAddress){\n        contractOwner = msg.sender;\n        dataContract = FlightSuretyData(dataContractAddress);\n        _registerAirline(firstAirlineAddress);\n    }\n\n    function setOperatingStatus(bool mode) external\n    requireContractOwner {\n        operational = mode;\n    }\n\n    /**\n     * Assuming only one registration at a time\n     * @dev Add an airline to the registration queue\n    *      Can only be called from FlightSuretyApp contract\n    *      M of N Multi-party Consensus is required\n    *        - M is 1/2 of N\n\n    *       NOTE: Will only allowing one airline to be added at a time.\n            Otherwise, would need an M of N for each airline which was\n            being added in parallel. No requirement for that.\n    */\n\n    address[] mofnConsensusToRegisterAnAirline = new address[](0);\n\n    function registerAirline(address airlineAddress)\n    external\n    requireIsOperational\n    requireNominatingAirlineIsActive(msg.sender)\n    requireNominatedAirlineIsNotYetRegistered(airlineAddress)\n    returns (bool success, uint256 votes) {\n\n        require(!airlines[msg.sender].isRegistered, \"Airline is already Registered.\");\n        // check if it is already registered\n\n\n        // no requirement to prevent an airline from voting twice,\n        //but will not do this in the test anyway\n        //        if (bAlreadyVoted == false) {\n\n        //        }\n\n        // only do M of N if N > 4\n        // M by the way is only to be greater than 50%\n        if (activeAirlinesCount < 4) {\n            _registerAirline(airlineAddress);\n        }\n        else {\n            mofnConsensusToRegisterAnAirline.push(msg.sender);\n\n            if (mofnConsensusToRegisterAnAirline.length >= activeAirlinesCount / 2) {\n                // ok, majority has been reached\n                mofnConsensusToRegisterAnAirline = new address[](0);\n\n                _registerAirline(airlineAddress);\n            }\n        }\n        return (success, mofnConsensusToRegisterAnAirline.length);\n\n    }\n\n    event RegisteredAirline(Airline airline);\n\n    function _registerAirline(address newAirlineAddress)\n    private\n        // this requireOperational modifier doesn't feel right as it is an internal call\n        // and should executed because the call has passed a previous modifier\n        // so out it goes\n        // requireIsOperational\n    returns (bool success) {\n        Airline memory newAirline = Airline\n        ({airlineAddress : newAirlineAddress,\n        isActive : false,\n        isFunded : false,\n        isRegistered : true\n        });\n        airlines[newAirlineAddress] = newAirline;\n        emit RegisteredAirline(newAirline);\n\n        return (true);\n    }\n\n    function fund()\n    external\n    payable\n    requireIsOperational\n    requireAirlineIsRegistered(msg.sender)\n    {\n        require(msg.value == 10 ether);\n\n        airlines[msg.sender].isFunded;\n        if (airlines[msg.sender].isRegistered) {\n            airlines[msg.sender].isActive = true;\n            activeAirlinesCount++;\n        }\n\n        dataContract.fund{value : msg.value}(msg.sender);\n    }\n\n    function pay(address airlineAddress, string memory flight, uint256 timestamp) external {\n        bytes32 flightKey = getFlightKey(airlineAddress, flight, timestamp);\n        dataContract.pay(airlineAddress, flightKey, payable(msg.sender));\n    }\n\n    function buyInsurance(address airlineAddress, string memory flight, uint256 timestamp)\n    external payable\n    requireLessThanOneEther(msg.value) {\n        bytes32 flightKey = getFlightKey(airlineAddress, flight, timestamp);\n        dataContract.buyInsurance(airlineAddress, flightKey);\n    }\n\n//    function getInsurancePoliciesForFlight(address airlineAddress, string memory flight, uint256 timestamp)\n//    public view returns (FlightSuretyData.InsurancePolicy[] calldata){\n//        bytes32 flightKey = getFlightKey(airlineAddress, flight, timestamp);\n//        return dataContract.getInsurancePoliciesByFlightKey(flightKey);\n//    }\n\n    function getFlightKey(address airline, string memory flight, uint256 timestamp) pure internal returns (bytes32) {\n        return keccak256(abi.encodePacked(airline, flight, timestamp));\n    }\n\n    // what is the point of this?\n    function registerFlight(address airlineAddress, string memory flightName, uint256 timestamp) external {\n        // do we check to see if the flight has already been registered?\n        // not a requirement and also idempotent\n        bytes32 flightKey = getFlightKey(airlineAddress, flightName, timestamp);\n        Flight memory flight = Flight(\n        {flightKey : flightKey,\n        timestamp : timestamp,\n        airline : airlineAddress,\n        statusCode : STATUS_CODE_UNKNOWN});\n\n        flightsByFlightKey[flightKey] = flight;\n    }\n\n\n    ///////// ORACLE STUFF /////////////\n\n    // Track all registered oracles\n    mapping(address => OracleRegistration) private oracleRegistrationsByAddress;\n\n    // Model for responses from oracles\n    struct ResponseInfo {\n        address requester; // Account that requested status\n        bool isOpen;       // If open, oracle responses are accepted\n    }\n    // Track all oracle responses\n    // Key = hash(index, airline, flight, timestamp)\n    mapping(bytes32 => ResponseInfo) private responseInfoByKey;\n    mapping(bytes32 => mapping(uint8 => address[])) private responseInfoByKeyAndStatusCode;\n\n    // Event fired each time an oracle submits a response\n    event FlightStatusInfo(address airline, string flight, uint256 timestamp, uint8 status);\n    event OracleReport(address oracle, address airline, string flight, uint256 timestamp, uint8 status);\n\n    // Event fired when flight status request is submitted. Oracles track this and if they have a matching index. they fetch data and submit a response\n    event OracleRequest(uint8 index, address airline, string flight, uint256 timestamp);\n\n    // Triggered from the UI\n    function fetchFlightStatus(address airline, string memory flight, uint256 timestamp) external {\n        // Generate a request for oracles to fetch flight information\n        uint8 index = getRandomIndex(msg.sender);\n\n        // Generate a unique key for storing the request\n        bytes32 key = keccak256(abi.encodePacked(index, airline, flight, timestamp));\n        responseInfoByKey[key] = ResponseInfo({requester : msg.sender, isOpen : true});\n        emit OracleRequest(index, airline, flight, timestamp);\n    }\n    /**\n    * @dev Called after oracle has updated flight status\n    *\n    */\n    function processFlightStatus(address airline, string memory flight, uint256 timestamp, uint8 statusCode) internal view {\n        bytes32 flightKey = getFlightKey(airline, flight, timestamp);\n        // if status code is not 20, do nothing\n        if (statusCode == STATUS_CODE_UNKNOWN) {\n            return;\n        } else if (statusCode == STATUS_CODE_LATE_AIRLINE) {\n            // if status code is 20, then pay out all passengers who are insured for this flight\n            dataContract.creditInsureds(flightKey);\n        }\n        // no matter what, close down the policy for this flight\n        dataContract.closeInsurancePolicy(flightKey);\n    }\n\n    function submitOracleResponse(uint8 index, address airline, string memory flight, uint256 timestamp, uint8 statusCode) external {\n\n        bytes32 key = keccak256(abi.encodePacked(index, airline, flight, timestamp));\n        //        require(responseInfoByKey[key].isOpen, \"OracleRequest with index (\" + index + \"), airline (\" + airline + \"), flight (\" + flight + \") and timestamp (\" + timestamp + \") is not OPEN\");\n        require(responseInfoByKey[key].isOpen, \"OracleRequest is not OPEN\");\n        require((oracleRegistrationsByAddress[msg.sender].indexes[0] == index) ||\n        (oracleRegistrationsByAddress[msg.sender].indexes[1] == index) ||\n            (oracleRegistrationsByAddress[msg.sender].indexes[2] == index), \"Oracle has no matching Index for this OracleRequest\");\n\n        responseInfoByKeyAndStatusCode[key][statusCode].push(msg.sender);\n\n        // Information isn't considered verified until at least MIN_RESPONSES\n        // oracles respond with the *** same *** information\n        emit OracleReport(msg.sender, airline, flight, timestamp, statusCode);\n\n        if (responseInfoByKeyAndStatusCode[key][statusCode].length >= MIN_RESPONSES) {\n            // CODE EXERCISE 3: Prevent any more responses since MIN_RESPONSE threshold has been reached\n            /* Enter code here */\n            responseInfoByKey[key].isOpen = false;\n\n            emit FlightStatusInfo(airline, flight, timestamp, statusCode);\n\n            // Handle flight status as appropriate\n            processFlightStatus(airline, flight, timestamp, statusCode);\n        }\n    }\n\n    event    OracleRegistered(address sender);\n\n    function registerOracle() external payable {\n        // Require registration fee\n        require(msg.value >= REGISTRATION_FEE, \"Registration fee is required\");\n\n        uint8[3] memory indexes = generateIndexes(msg.sender);\n\n        oracleRegistrationsByAddress[msg.sender] = OracleRegistration({\n        isRegistered : true,\n        indexes : indexes\n        });\n        emit OracleRegistered(msg.sender);\n\n    }\n\n\n    function generateIndexes(address account) internal returns (uint8[3] memory) {\n        // Returns array of three non-duplicating integers from 0-9\n        uint8[3] memory indexes;\n        indexes[0] = getRandomIndex(account);\n\n        indexes[1] = indexes[0];\n        while (indexes[1] == indexes[0]) {\n            indexes[1] = getRandomIndex(account);\n        }\n\n        indexes[2] = indexes[1];\n        while ((indexes[2] == indexes[0]) || (indexes[2] == indexes[1])) {\n            indexes[2] = getRandomIndex(account);\n        }\n        return indexes;\n    }\n\n    function getMyIndexes() view external returns (uint8[3] memory) {\n        require(oracleRegistrationsByAddress[msg.sender].isRegistered, \"This Oracle is not REGISTERED\");\n        return oracleRegistrationsByAddress[msg.sender].indexes;\n    }\n\n    function getRandomIndex(address account) internal returns (uint8) {\n        uint8 maxValue = 10;\n        // Pseudo random number...the incrementing nonce adds variation\n        uint8 random = uint8(uint256(keccak256(abi.encodePacked(blockhash(block.number - nonce++), account))) % maxValue);\n        if (nonce > 250) {\n            nonce = 0;\n            // Can only fetch blockhashes for last 256 blocks so we adapt\n        }\n        return random;\n    }\n\n\n}\n",
  "sourcePath": "/Users/thomaswhitehill/IdeaProjects/BlockchainProjects/FlightSuretyProjects/FlightSurety/contracts/FlightSuretyApp.sol",
  "compiler": {
    "name": "solc",
    "version": "0.8.14+commit.80d49f37.Emscripten.clang"
  },
  "schemaVersion": "3.4.4",
  "updatedAt": "2022-05-27T11:09:25.857Z",
  "networkType": "ethereum",
  "devdoc": {
    "kind": "dev",
    "methods": {},
    "stateVariables": {
      "mofnConsensusToRegisterAnAirline": {
        "details": "Add an airline to the registration queue      Can only be called from FlightSuretyApp contract      M of N Multi-party Consensus is required        - M is 1/2 of N       NOTE: Will only allowing one airline to be added at a time. Otherwise, would need an M of N for each airline which was being added in parallel. No requirement for that."
      }
    },
    "version": 1
  },
  "userdoc": {
    "kind": "user",
    "methods": {},
    "version": 1
  }
}