{
  "contractName": "FlightSuretyData",
  "abi": [
    {
      "inputs": [],
      "stateMutability": "nonpayable",
      "type": "constructor"
    },
    {
      "anonymous": false,
      "inputs": [
        {
          "indexed": false,
          "internalType": "address",
          "name": "airline",
          "type": "address"
        },
        {
          "indexed": false,
          "internalType": "bytes32",
          "name": "flightKey",
          "type": "bytes32"
        },
        {
          "indexed": false,
          "internalType": "address",
          "name": "buyer",
          "type": "address"
        },
        {
          "indexed": false,
          "internalType": "uint256",
          "name": "amount",
          "type": "uint256"
        }
      ],
      "name": "Data_BuyInsurnce",
      "type": "event"
    },
    {
      "anonymous": false,
      "inputs": [
        {
          "indexed": false,
          "internalType": "bytes32",
          "name": "flightKey",
          "type": "bytes32"
        }
      ],
      "name": "Data_CloseInsurancePolicy",
      "type": "event"
    },
    {
      "anonymous": false,
      "inputs": [
        {
          "indexed": false,
          "internalType": "bytes32",
          "name": "flightKey",
          "type": "bytes32"
        }
      ],
      "name": "Data_CreditInsureds",
      "type": "event"
    },
    {
      "anonymous": false,
      "inputs": [
        {
          "indexed": false,
          "internalType": "address",
          "name": "airline",
          "type": "address"
        },
        {
          "indexed": false,
          "internalType": "uint256",
          "name": "amount",
          "type": "uint256"
        }
      ],
      "name": "Data_FundingReceived",
      "type": "event"
    },
    {
      "anonymous": false,
      "inputs": [
        {
          "indexed": false,
          "internalType": "bool",
          "name": "status",
          "type": "bool"
        }
      ],
      "name": "Data_OperatingStatusSet",
      "type": "event"
    },
    {
      "inputs": [
        {
          "internalType": "address",
          "name": "_airline",
          "type": "address"
        },
        {
          "internalType": "bytes32",
          "name": "_flightKey",
          "type": "bytes32"
        }
      ],
      "name": "buyInsurance",
      "outputs": [],
      "stateMutability": "payable",
      "type": "function",
      "payable": true
    },
    {
      "inputs": [
        {
          "internalType": "bytes32",
          "name": "flightKey",
          "type": "bytes32"
        }
      ],
      "name": "creditInsureds",
      "outputs": [],
      "stateMutability": "nonpayable",
      "type": "function"
    },
    {
      "inputs": [
        {
          "internalType": "address",
          "name": "insuredAddress",
          "type": "address"
        }
      ],
      "name": "getCreditForInsured",
      "outputs": [
        {
          "internalType": "uint256",
          "name": "",
          "type": "uint256"
        }
      ],
      "stateMutability": "view",
      "type": "function",
      "constant": true
    },
    {
      "inputs": [
        {
          "internalType": "bytes32",
          "name": "flightKey",
          "type": "bytes32"
        }
      ],
      "name": "closeInsurancePolicy",
      "outputs": [],
      "stateMutability": "nonpayable",
      "type": "function"
    },
    {
      "inputs": [
        {
          "internalType": "address",
          "name": "airlineAddress",
          "type": "address"
        },
        {
          "internalType": "bytes32",
          "name": "flightKey",
          "type": "bytes32"
        },
        {
          "internalType": "address payable",
          "name": "insuredAddress",
          "type": "address"
        }
      ],
      "name": "pay",
      "outputs": [],
      "stateMutability": "nonpayable",
      "type": "function"
    },
    {
      "inputs": [
        {
          "internalType": "address",
          "name": "airlineAddress",
          "type": "address"
        },
        {
          "internalType": "uint256",
          "name": "amount",
          "type": "uint256"
        }
      ],
      "name": "fund",
      "outputs": [],
      "stateMutability": "payable",
      "type": "function",
      "payable": true
    },
    {
      "inputs": [
        {
          "internalType": "bool",
          "name": "mode",
          "type": "bool"
        }
      ],
      "name": "setOperatingStatus",
      "outputs": [],
      "stateMutability": "nonpayable",
      "type": "function"
    },
    {
      "inputs": [],
      "name": "isOperational",
      "outputs": [
        {
          "internalType": "bool",
          "name": "",
          "type": "bool"
        }
      ],
      "stateMutability": "view",
      "type": "function",
      "constant": true
    }
  ],
  "bytecode": "0x60806040526001600060146101000a81548160ff02191690831515021790555034801561002b57600080fd5b50336000806101000a81548173ffffffffffffffffffffffffffffffffffffffff021916908373ffffffffffffffffffffffffffffffffffffffff1602179055506115b78061007b6000396000f3fe60806040526004361061007b5760003560e01c8063be6547ae1161004e578063be6547ae1461011e578063cd905dff14610147578063d157ba2714610172578063df7a7e2d1461019b5761007b565b8063110466ed146100805780637b1837de146100a957806384e7bb2d146100c5578063adf8ae7a14610102575b600080fd5b34801561008c57600080fd5b506100a760048036038101906100a29190610f2b565b6101c4565b005b6100c360048036038101906100be9190610fec565b610227565b005b3480156100d157600080fd5b506100ec60048036038101906100e7919061102c565b610306565b6040516100f99190611068565b60405180910390f35b61011c600480360381019061011791906110b9565b61039d565b005b34801561012a57600080fd5b50610145600480360381019061014091906110f9565b6105c3565b005b34801561015357600080fd5b5061015c61080b565b6040516101699190611135565b60405180910390f35b34801561017e57600080fd5b50610199600480360381019061019491906110f9565b610821565b005b3480156101a757600080fd5b506101c260048036038101906101bd919061118e565b610b2e565b005b80600060146101000a81548160ff0219169083151502179055507f7bb6c2f8327a5cc6976daa5eae00db6f0854fcf49aa9ab24bc295a486f74cd60600060149054906101000a900460ff1660405161021c9190611135565b60405180910390a150565b600060149054906101000a900460ff16610276576040517f08c379a000000000000000000000000000000000000000000000000000000000815260040161026d90611264565b60405180910390fd5b6102c881600160008573ffffffffffffffffffffffffffffffffffffffff1673ffffffffffffffffffffffffffffffffffffffff16815260200190815260200160002054610ec290919063ffffffff16565b507f8421208b080b228708b3330e4eafc953fd632d2a76f8c2cc8302fe45c42a7d1982826040516102fa929190611293565b60405180910390a15050565b60008060149054906101000a900460ff16610356576040517f08c379a000000000000000000000000000000000000000000000000000000000815260040161034d90611264565b60405180910390fd5b600360008373ffffffffffffffffffffffffffffffffffffffff1673ffffffffffffffffffffffffffffffffffffffff168152602001908152602001600020549050919050565b600060149054906101000a900460ff166103ec576040517f08c379a00000000000000000000000000000000000000000000000000000000081526004016103e390611264565b60405180910390fd5b60006040518060e001604052808381526020018473ffffffffffffffffffffffffffffffffffffffff1681526020013373ffffffffffffffffffffffffffffffffffffffff16815260200134815260200160008152602001600115158152602001600015158152509050600260008381526020019081526020016000208190806001815401808255809150506001900390600052602060002090600602016000909190919091506000820151816000015560208201518160010160006101000a81548173ffffffffffffffffffffffffffffffffffffffff021916908373ffffffffffffffffffffffffffffffffffffffff16021790555060408201518160020160006101000a81548173ffffffffffffffffffffffffffffffffffffffff021916908373ffffffffffffffffffffffffffffffffffffffff160217905550606082015181600301556080820151816004015560a08201518160050160006101000a81548160ff02191690831515021790555060c08201518160050160016101000a81548160ff02191690831515021790555050507f8d3db3cdbcc3d426334e4cd63d3da39f3fda5958fc81e53df2521334f2de67f9838333346040516105b694939291906112cb565b60405180910390a1505050565b600060149054906101000a900460ff16610612576040517f08c379a000000000000000000000000000000000000000000000000000000000815260040161060990611264565b60405180910390fd5b600060026000838152602001908152602001600020805480602002602001604051908101604052809291908181526020016000905b8282101561077957838290600052602060002090600602016040518060e0016040529081600082015481526020016001820160009054906101000a900473ffffffffffffffffffffffffffffffffffffffff1673ffffffffffffffffffffffffffffffffffffffff1673ffffffffffffffffffffffffffffffffffffffff1681526020016002820160009054906101000a900473ffffffffffffffffffffffffffffffffffffffff1673ffffffffffffffffffffffffffffffffffffffff1673ffffffffffffffffffffffffffffffffffffffff16815260200160038201548152602001600482015481526020016005820160009054906101000a900460ff161515151581526020016005820160019054906101000a900460ff16151515158152505081526020019060010190610647565b50505050905060005b81518110156107cf5760008282815181106107a05761079f611310565b5b6020026020010151905060008160a00190151590811515815250505080806107c79061136e565b915050610782565b507f584f3cf1d90d41faeab13d7baa754c4e93d8abc7f7179d5b39e17f511425ea7a826040516107ff91906113b6565b60405180910390a15050565b60008060149054906101000a900460ff16905090565b60008054906101000a900473ffffffffffffffffffffffffffffffffffffffff1673ffffffffffffffffffffffffffffffffffffffff163373ffffffffffffffffffffffffffffffffffffffff16146108af576040517f08c379a00000000000000000000000000000000000000000000000000000000081526004016108a69061141d565b60405180910390fd5b600060149054906101000a900460ff166108fe576040517f08c379a00000000000000000000000000000000000000000000000000000000081526004016108f590611264565b60405180910390fd5b600060026000838152602001908152602001600020805480602002602001604051908101604052809291908181526020016000905b82821015610a6557838290600052602060002090600602016040518060e0016040529081600082015481526020016001820160009054906101000a900473ffffffffffffffffffffffffffffffffffffffff1673ffffffffffffffffffffffffffffffffffffffff1673ffffffffffffffffffffffffffffffffffffffff1681526020016002820160009054906101000a900473ffffffffffffffffffffffffffffffffffffffff1673ffffffffffffffffffffffffffffffffffffffff1673ffffffffffffffffffffffffffffffffffffffff16815260200160038201548152602001600482015481526020016005820160009054906101000a900460ff161515151581526020016005820160019054906101000a900460ff16151515158152505081526020019060010190610933565b50505050905060005b8151811015610af2576000828281518110610a8c57610a8b611310565b5b60200260200101519050600115158160a00151151503610ade57600a8160600151600f610ab9919061143d565b610ac391906114c6565b81608001818152505060008160a00190151590811515815250505b508080610aea9061136e565b915050610a6e565b507f1295c9d0f8a5ddcdf227ff8ee7455f47f279b0c87313ed01782a863c25029bdc82604051610b2291906113b6565b60405180910390a15050565b60008054906101000a900473ffffffffffffffffffffffffffffffffffffffff1673ffffffffffffffffffffffffffffffffffffffff163373ffffffffffffffffffffffffffffffffffffffff1614610bbc576040517f08c379a0000000000000000000000000000000000000000000000000000000008152600401610bb39061141d565b60405180910390fd5b600060149054906101000a900460ff16610c0b576040517f08c379a0000000000000000000000000000000000000000000000000000000008152600401610c0290611264565b60405180910390fd5b600060026000848152602001908152602001600020805480602002602001604051908101604052809291908181526020016000905b82821015610d7257838290600052602060002090600602016040518060e0016040529081600082015481526020016001820160009054906101000a900473ffffffffffffffffffffffffffffffffffffffff1673ffffffffffffffffffffffffffffffffffffffff1673ffffffffffffffffffffffffffffffffffffffff1681526020016002820160009054906101000a900473ffffffffffffffffffffffffffffffffffffffff1673ffffffffffffffffffffffffffffffffffffffff1673ffffffffffffffffffffffffffffffffffffffff16815260200160038201548152602001600482015481526020016005820160009054906101000a900460ff161515151581526020016005820160019054906101000a900460ff16151515158152505081526020019060010190610c40565b50505050905060005b8151811015610eba576000828281518110610d9957610d98611310565b5b602002602001015190508373ffffffffffffffffffffffffffffffffffffffff16816040015173ffffffffffffffffffffffffffffffffffffffff1603610ea657600115158160c00151151503610df257505050610ebd565b60018160c0019015159081151581525050610e598160800151600160008973ffffffffffffffffffffffffffffffffffffffff1673ffffffffffffffffffffffffffffffffffffffff16815260200190815260200160002054610ed890919063ffffffff16565b508373ffffffffffffffffffffffffffffffffffffffff166108fc82608001519081150290604051600060405180830381858888f19350505050158015610ea4573d6000803e3d6000fd5b505b508080610eb29061136e565b915050610d7b565b50505b505050565b60008183610ed091906114f7565b905092915050565b60008183610ee6919061154d565b905092915050565b600080fd5b60008115159050919050565b610f0881610ef3565b8114610f1357600080fd5b50565b600081359050610f2581610eff565b92915050565b600060208284031215610f4157610f40610eee565b5b6000610f4f84828501610f16565b91505092915050565b600073ffffffffffffffffffffffffffffffffffffffff82169050919050565b6000610f8382610f58565b9050919050565b610f9381610f78565b8114610f9e57600080fd5b50565b600081359050610fb081610f8a565b92915050565b6000819050919050565b610fc981610fb6565b8114610fd457600080fd5b50565b600081359050610fe681610fc0565b92915050565b6000806040838503121561100357611002610eee565b5b600061101185828601610fa1565b925050602061102285828601610fd7565b9150509250929050565b60006020828403121561104257611041610eee565b5b600061105084828501610fa1565b91505092915050565b61106281610fb6565b82525050565b600060208201905061107d6000830184611059565b92915050565b6000819050919050565b61109681611083565b81146110a157600080fd5b50565b6000813590506110b38161108d565b92915050565b600080604083850312156110d0576110cf610eee565b5b60006110de85828601610fa1565b92505060206110ef858286016110a4565b9150509250929050565b60006020828403121561110f5761110e610eee565b5b600061111d848285016110a4565b91505092915050565b61112f81610ef3565b82525050565b600060208201905061114a6000830184611126565b92915050565b600061115b82610f58565b9050919050565b61116b81611150565b811461117657600080fd5b50565b60008135905061118881611162565b92915050565b6000806000606084860312156111a7576111a6610eee565b5b60006111b586828701610fa1565b93505060206111c6868287016110a4565b92505060406111d786828701611179565b9150509250925092565b600082825260208201905092915050565b7f436f6e74726163742069732063757272656e746c79206e6f74206f706572617460008201527f696f6e616c000000000000000000000000000000000000000000000000000000602082015250565b600061124e6025836111e1565b9150611259826111f2565b604082019050919050565b6000602082019050818103600083015261127d81611241565b9050919050565b61128d81610f78565b82525050565b60006040820190506112a86000830185611284565b6112b56020830184611059565b9392505050565b6112c581611083565b82525050565b60006080820190506112e06000830187611284565b6112ed60208301866112bc565b6112fa6040830185611284565b6113076060830184611059565b95945050505050565b7f4e487b7100000000000000000000000000000000000000000000000000000000600052603260045260246000fd5b7f4e487b7100000000000000000000000000000000000000000000000000000000600052601160045260246000fd5b600061137982610fb6565b91507fffffffffffffffffffffffffffffffffffffffffffffffffffffffffffffffff82036113ab576113aa61133f565b5b600182019050919050565b60006020820190506113cb60008301846112bc565b92915050565b7f43616c6c6572206973206e6f7420636f6e7472616374206f776e657200000000600082015250565b6000611407601c836111e1565b9150611412826113d1565b602082019050919050565b60006020820190508181036000830152611436816113fa565b9050919050565b600061144882610fb6565b915061145383610fb6565b9250817fffffffffffffffffffffffffffffffffffffffffffffffffffffffffffffffff048311821515161561148c5761148b61133f565b5b828202905092915050565b7f4e487b7100000000000000000000000000000000000000000000000000000000600052601260045260246000fd5b60006114d182610fb6565b91506114dc83610fb6565b9250826114ec576114eb611497565b5b828204905092915050565b600061150282610fb6565b915061150d83610fb6565b9250827fffffffffffffffffffffffffffffffffffffffffffffffffffffffffffffffff038211156115425761154161133f565b5b828201905092915050565b600061155882610fb6565b915061156383610fb6565b9250828210156115765761157561133f565b5b82820390509291505056fea2646970667358221220598182b316e1e9170868e217c3e1b36f250b914e34f68bbd7eb91f5c51b6d82264736f6c634300080e0033",
  "immutableReferences": {},
  "source": "// SPDX-License-Identifier: MIT\npragma solidity >=0.4.22 <0.9.0;\n\nimport \"../node_modules/@openzeppelin/contracts/utils/math/SafeMath.sol\";\n\ncontract FlightSuretyData {\n    using SafeMath for uint256;\n\n    /********************************************************************************************/\n    /*                                       DATA VARIABLES                                     */\n    /********************************************************************************************/\n\n    address private contractOwner;                                      // Account used to deploy contract\n    bool private operational = true;                                    // Blocks all state changes throughout the contract if false\n\n    struct InsurancePolicy {\n        bytes32 flightKey;\n        address airline;\n        address insuredAddress;\n        uint256 amountInsuredFor; // 1 E >= how much is paid by Customer\n        uint256 amountCredited; // 1.5 x amountInsuredFor\n        bool isOpen; // if not open, will no longer issue credits. a bit of a hack.\n        bool isPaid;\n    }\n\n    mapping(address => uint256) private airlineFundingBalances;\n    // map by flightKey to InsurancePolicy array\n    mapping(bytes32 => InsurancePolicy[]) private insurancePoliciesByFlightKey;\n\n    mapping(address => uint256) private insuredCreditGiven;\n\n    /********************************************************************************************/\n    /*                                       EVENT DEFINITIONS                                  */\n    /********************************************************************************************/\n    /**\n    * @dev Constructor\n    *      The deploying account becomes contractOwner\n    */\n    constructor()  {\n        contractOwner = msg.sender;\n    }\n\n    /********************************************************************************************/\n    /*                                     SMART CONTRACT FUNCTIONS                             */\n    /********************************************************************************************/\n    /**\n     * @dev Buy insurance for a flight\n    *\n    */\n    event Data_BuyInsurnce(address airline, bytes32 flightKey, address buyer, uint256 amount);\n\n    function buyInsurance(address _airline, bytes32 _flightKey)\n    external payable\n    requireIsOperational {\n        InsurancePolicy memory ip = InsurancePolicy(\n        {flightKey : _flightKey,\n        airline : _airline,\n        insuredAddress : msg.sender,\n        amountInsuredFor : msg.value,\n        amountCredited : 0 ether,\n        isOpen : true,\n        isPaid : false});\n        insurancePoliciesByFlightKey[_flightKey].push(ip);\n        emit Data_BuyInsurnce(_airline, _flightKey, msg.sender, msg.value);\n    }\n\n    /**\n     *  @dev Credits payouts to insurees\n    */\n    event Data_CreditInsureds(bytes32 flightKey);\n\n    function creditInsureds(bytes32 flightKey) external\n    requireContractOwner\n    requireIsOperational\n    {\n\n        // for each insured in the policies for this flight\n        InsurancePolicy[] memory ipArray = insurancePoliciesByFlightKey[flightKey];\n\n        for (uint i = 0; i < ipArray.length; i++) {\n            InsurancePolicy memory ip = ipArray[i];\n            if (ip.isOpen == true) {\n                // credit them 1.5 x their premium\n                ip.amountCredited = (15 * ip.amountInsuredFor)/10;\n                // close this here, bit of a hack, but better than AppContract controlling our state\n                ip.isOpen = false;\n            }\n        }\n        emit Data_CreditInsureds(flightKey);\n    }\n    function getCreditForInsured(address insuredAddress)\n    external view\n    requireIsOperational\n    returns (uint256){\n        return insuredCreditGiven[insuredAddress];\n    }\n\n    /**\n     *  @dev Close this flights insurance policies one by one\n     Used when the flight has a status which needs not pay out\n        */\n\n    event Data_CloseInsurancePolicy(bytes32 flightKey);\n    function closeInsurancePolicy(bytes32 flightKey) external\n//    requireContractOwner\n    requireIsOperational {\n\n        // close all policies for this flight\n        InsurancePolicy[] memory ipArray = insurancePoliciesByFlightKey[flightKey];\n\n        for (uint i = 0; i < ipArray.length; i++) {\n            InsurancePolicy memory ip = ipArray[i];\n            ip.isOpen = false;\n        }\n    emit Data_CloseInsurancePolicy(flightKey);\n    }\n//    function getInsurancePoliciesByFlightKey(bytes32 flightKey)\n//    public view returns (InsurancePolicy[] calldata){\n\n//        return insurancePoliciesByFlightKey[flightKey];\n//    }\n\n    /**\n     *  @dev Transfers eligible payout funds to insuree\n     *\n    */\n\n    function pay(address airlineAddress, bytes32 flightKey, address payable insuredAddress)\n        external\n        requireContractOwner\n        requireIsOperational\n\n    {\n        // inefficient and gassy but ... whatever, it's a class not a commercial product\n        InsurancePolicy[] memory ipArray = insurancePoliciesByFlightKey[flightKey];\n\n        for (uint i = 0; i < ipArray.length; i++) {\n            InsurancePolicy memory ip = ipArray[i];\n            if (ip.insuredAddress == insuredAddress) {\n                if (ip.isPaid == true) {\n                    // don't pay again\n                    return;\n                }\n                ip.isPaid = true;\n                // is this a requirement? I don't recall it being one.\n                airlineFundingBalances[airlineAddress].sub(ip.amountCredited);\n                insuredAddress.transfer(ip.amountCredited);\n            }\n        }\n    }\n\n    /**\n     * @dev How Airlines fund their participation.\n    */\n    event Data_FundingReceived(address airline, uint256 amount);\n    function fund(address airlineAddress, uint256 amount) public payable\n        requireIsOperational\n    {\n        // 10 eth is required but checked at interface of the App Contract, not here\n        // as business rules may change\n        airlineFundingBalances[airlineAddress].add(amount);\n        emit Data_FundingReceived(airlineAddress, amount);\n    }\n\n//    fallback() external payable {\n//        fund(msg.sender);\n//    }\n\n//    receive() external payable\n//    {\n//        fund(msg.sender);\n//    }\n    /********************************************************************************************/\n    /*                                       FUNCTION MODIFIERS                                 */\n    /********************************************************************************************/\n\n    modifier requireIsOperational()  {\n        require(operational, \"Contract is currently not operational\");\n        _;\n    }\n    modifier requireContractOwner() {\n        require(msg.sender == contractOwner, \"Caller is not contract owner\");\n        _;\n    }\n\n\n    /********************************************************************************************/\n    /*                                       UTILITY FUNCTIONS                                  */\n    /********************************************************************************************/\n\n    /**\n     * @dev Sets contract operations on/off\n    *\n    * When operational mode is disabled, all write transactions except for this one will fail\n    */\n    event Data_OperatingStatusSet(bool status);\n    function setOperatingStatus(bool mode) external //requireContractOwner\n    {\n        // no multi consensus required here\n        operational = mode;\n        emit Data_OperatingStatusSet(operational);\n\n    }\n\n    function isOperational() public view returns (bool)  {\n        return operational;\n    }\n\n\n}\n\n",
  "sourcePath": "/Users/thomaswhitehill/IdeaProjects/BlockchainProjects/FlightSuretyProjects/FlightSurety/contracts/FlightSuretyData.sol",
  "compiler": {
    "name": "solc",
    "version": "0.8.14+commit.80d49f37.Emscripten.clang"
  },
  "schemaVersion": "3.4.4",
  "updatedAt": "2022-06-06T14:40:18.145Z",
  "networkType": "ethereum",
  "devdoc": {
    "events": {
      "Data_BuyInsurnce(address,bytes32,address,uint256)": {
        "details": "Buy insurance for a flight"
      },
      "Data_CloseInsurancePolicy(bytes32)": {
        "details": "Close this flights insurance policies one by one Used when the flight has a status which needs not pay out"
      },
      "Data_CreditInsureds(bytes32)": {
        "details": "Credits payouts to insurees"
      },
      "Data_FundingReceived(address,uint256)": {
        "details": "How Airlines fund their participation."
      },
      "Data_OperatingStatusSet(bool)": {
        "details": "Sets contract operations on/off When operational mode is disabled, all write transactions except for this one will fail"
      }
    },
    "kind": "dev",
    "methods": {
      "constructor": {
        "details": "Constructor      The deploying account becomes contractOwner"
      },
      "pay(address,bytes32,address)": {
        "details": "Transfers eligible payout funds to insuree"
      }
    },
    "version": 1
  },
  "userdoc": {
    "kind": "user",
    "methods": {},
    "version": 1
  }
}