{
  "contractName": "FlightSuretyData",
  "abi": [
    {
      "inputs": [],
      "stateMutability": "nonpayable",
      "type": "constructor"
    },
    {
      "inputs": [
        {
          "internalType": "address",
          "name": "_airline",
          "type": "address"
        },
        {
          "internalType": "bytes32",
          "name": "_flightKey",
          "type": "bytes32"
        }
      ],
      "name": "buyInsurance",
      "outputs": [],
      "stateMutability": "payable",
      "type": "function",
      "payable": true
    },
    {
      "inputs": [
        {
          "internalType": "bytes32",
          "name": "flightKey",
          "type": "bytes32"
        }
      ],
      "name": "creditInsureds",
      "outputs": [],
      "stateMutability": "view",
      "type": "function",
      "constant": true
    },
    {
      "inputs": [
        {
          "internalType": "bytes32",
          "name": "flightKey",
          "type": "bytes32"
        }
      ],
      "name": "closeInsurancePolicy",
      "outputs": [],
      "stateMutability": "view",
      "type": "function",
      "constant": true
    },
    {
      "inputs": [
        {
          "internalType": "address",
          "name": "airlineAddress",
          "type": "address"
        },
        {
          "internalType": "bytes32",
          "name": "flightKey",
          "type": "bytes32"
        },
        {
          "internalType": "address payable",
          "name": "insuredAddress",
          "type": "address"
        }
      ],
      "name": "pay",
      "outputs": [],
      "stateMutability": "nonpayable",
      "type": "function"
    },
    {
      "inputs": [
        {
          "internalType": "address",
          "name": "airlineAddress",
          "type": "address"
        }
      ],
      "name": "fund",
      "outputs": [],
      "stateMutability": "payable",
      "type": "function",
      "payable": true
    },
    {
      "inputs": [
        {
          "internalType": "bool",
          "name": "mode",
          "type": "bool"
        }
      ],
      "name": "setOperatingStatus",
      "outputs": [],
      "stateMutability": "nonpayable",
      "type": "function"
    },
    {
      "inputs": [],
      "name": "isOperational",
      "outputs": [
        {
          "internalType": "bool",
          "name": "",
          "type": "bool"
        }
      ],
      "stateMutability": "view",
      "type": "function",
      "constant": true
    }
  ],
  "bytecode": "0x60806040526001600060146101000a81548160ff02191690831515021790555034801561002b57600080fd5b50336000806101000a81548173ffffffffffffffffffffffffffffffffffffffff021916908373ffffffffffffffffffffffffffffffffffffffff16021790555061138c8061007b6000396000f3fe6080604052600436106100705760003560e01c8063be6547ae1161004e578063be6547ae146100d6578063cd905dff146100ff578063d157ba271461012a578063df7a7e2d1461015357610070565b8063110466ed14610075578063230244081461009e578063adf8ae7a146100ba575b600080fd5b34801561008157600080fd5b5061009c60048036038101906100979190610e3d565b61017c565b005b6100b860048036038101906100b39190610ec8565b610227565b005b6100d460048036038101906100cf9190610f2b565b6102cc565b005b3480156100e257600080fd5b506100fd60048036038101906100f89190610f6b565b6104b5565b005b34801561010b57600080fd5b50610114610754565b6040516101219190610fa7565b60405180910390f35b34801561013657600080fd5b50610151600480360381019061014c9190610f6b565b61076a565b005b34801561015f57600080fd5b5061017a60048036038101906101759190611000565b610a40565b005b60008054906101000a900473ffffffffffffffffffffffffffffffffffffffff1673ffffffffffffffffffffffffffffffffffffffff163373ffffffffffffffffffffffffffffffffffffffff161461020a576040517f08c379a0000000000000000000000000000000000000000000000000000000008152600401610201906110b0565b60405180910390fd5b80600060146101000a81548160ff02191690831515021790555050565b600060149054906101000a900460ff16610276576040517f08c379a000000000000000000000000000000000000000000000000000000000815260040161026d90611142565b60405180910390fd5b6102c834600160008473ffffffffffffffffffffffffffffffffffffffff1673ffffffffffffffffffffffffffffffffffffffff16815260200190815260200160002054610dd490919063ffffffff16565b5050565b600060149054906101000a900460ff1661031b576040517f08c379a000000000000000000000000000000000000000000000000000000000815260040161031290611142565b60405180910390fd5b60006040518060e001604052808381526020018473ffffffffffffffffffffffffffffffffffffffff1681526020013373ffffffffffffffffffffffffffffffffffffffff16815260200134815260200160008152602001600115158152602001600015158152509050600260008381526020019081526020016000208190806001815401808255809150506001900390600052602060002090600602016000909190919091506000820151816000015560208201518160010160006101000a81548173ffffffffffffffffffffffffffffffffffffffff021916908373ffffffffffffffffffffffffffffffffffffffff16021790555060408201518160020160006101000a81548173ffffffffffffffffffffffffffffffffffffffff021916908373ffffffffffffffffffffffffffffffffffffffff160217905550606082015181600301556080820151816004015560a08201518160050160006101000a81548160ff02191690831515021790555060c08201518160050160016101000a81548160ff0219169083151502179055505050505050565b60008054906101000a900473ffffffffffffffffffffffffffffffffffffffff1673ffffffffffffffffffffffffffffffffffffffff163373ffffffffffffffffffffffffffffffffffffffff1614610543576040517f08c379a000000000000000000000000000000000000000000000000000000000815260040161053a906110b0565b60405180910390fd5b600060149054906101000a900460ff16610592576040517f08c379a000000000000000000000000000000000000000000000000000000000815260040161058990611142565b60405180910390fd5b600060026000838152602001908152602001600020805480602002602001604051908101604052809291908181526020016000905b828210156106f957838290600052602060002090600602016040518060e0016040529081600082015481526020016001820160009054906101000a900473ffffffffffffffffffffffffffffffffffffffff1673ffffffffffffffffffffffffffffffffffffffff1673ffffffffffffffffffffffffffffffffffffffff1681526020016002820160009054906101000a900473ffffffffffffffffffffffffffffffffffffffff1673ffffffffffffffffffffffffffffffffffffffff1673ffffffffffffffffffffffffffffffffffffffff16815260200160038201548152602001600482015481526020016005820160009054906101000a900460ff161515151581526020016005820160019054906101000a900460ff161515151581525050815260200190600101906105c7565b50505050905060005b815181101561074f5760008282815181106107205761071f611162565b5b6020026020010151905060008160a0019015159081151581525050508080610747906111ca565b915050610702565b505050565b60008060149054906101000a900460ff16905090565b60008054906101000a900473ffffffffffffffffffffffffffffffffffffffff1673ffffffffffffffffffffffffffffffffffffffff163373ffffffffffffffffffffffffffffffffffffffff16146107f8576040517f08c379a00000000000000000000000000000000000000000000000000000000081526004016107ef906110b0565b60405180910390fd5b600060149054906101000a900460ff16610847576040517f08c379a000000000000000000000000000000000000000000000000000000000815260040161083e90611142565b60405180910390fd5b600060026000838152602001908152602001600020805480602002602001604051908101604052809291908181526020016000905b828210156109ae57838290600052602060002090600602016040518060e0016040529081600082015481526020016001820160009054906101000a900473ffffffffffffffffffffffffffffffffffffffff1673ffffffffffffffffffffffffffffffffffffffff1673ffffffffffffffffffffffffffffffffffffffff1681526020016002820160009054906101000a900473ffffffffffffffffffffffffffffffffffffffff1673ffffffffffffffffffffffffffffffffffffffff1673ffffffffffffffffffffffffffffffffffffffff16815260200160038201548152602001600482015481526020016005820160009054906101000a900460ff161515151581526020016005820160019054906101000a900460ff1615151515815250508152602001906001019061087c565b50505050905060005b8151811015610a3b5760008282815181106109d5576109d4611162565b5b60200260200101519050600115158160a00151151503610a2757600a8160600151600f610a029190611212565b610a0c919061129b565b81608001818152505060008160a00190151590811515815250505b508080610a33906111ca565b9150506109b7565b505050565b60008054906101000a900473ffffffffffffffffffffffffffffffffffffffff1673ffffffffffffffffffffffffffffffffffffffff163373ffffffffffffffffffffffffffffffffffffffff1614610ace576040517f08c379a0000000000000000000000000000000000000000000000000000000008152600401610ac5906110b0565b60405180910390fd5b600060149054906101000a900460ff16610b1d576040517f08c379a0000000000000000000000000000000000000000000000000000000008152600401610b1490611142565b60405180910390fd5b600060026000848152602001908152602001600020805480602002602001604051908101604052809291908181526020016000905b82821015610c8457838290600052602060002090600602016040518060e0016040529081600082015481526020016001820160009054906101000a900473ffffffffffffffffffffffffffffffffffffffff1673ffffffffffffffffffffffffffffffffffffffff1673ffffffffffffffffffffffffffffffffffffffff1681526020016002820160009054906101000a900473ffffffffffffffffffffffffffffffffffffffff1673ffffffffffffffffffffffffffffffffffffffff1673ffffffffffffffffffffffffffffffffffffffff16815260200160038201548152602001600482015481526020016005820160009054906101000a900460ff161515151581526020016005820160019054906101000a900460ff16151515158152505081526020019060010190610b52565b50505050905060005b8151811015610dcc576000828281518110610cab57610caa611162565b5b602002602001015190508373ffffffffffffffffffffffffffffffffffffffff16816040015173ffffffffffffffffffffffffffffffffffffffff1603610db857600115158160c00151151503610d0457505050610dcf565b60018160c0019015159081151581525050610d6b8160800151600160008973ffffffffffffffffffffffffffffffffffffffff1673ffffffffffffffffffffffffffffffffffffffff16815260200190815260200160002054610dea90919063ffffffff16565b508373ffffffffffffffffffffffffffffffffffffffff166108fc82608001519081150290604051600060405180830381858888f19350505050158015610db6573d6000803e3d6000fd5b505b508080610dc4906111ca565b915050610c8d565b50505b505050565b60008183610de291906112cc565b905092915050565b60008183610df89190611322565b905092915050565b600080fd5b60008115159050919050565b610e1a81610e05565b8114610e2557600080fd5b50565b600081359050610e3781610e11565b92915050565b600060208284031215610e5357610e52610e00565b5b6000610e6184828501610e28565b91505092915050565b600073ffffffffffffffffffffffffffffffffffffffff82169050919050565b6000610e9582610e6a565b9050919050565b610ea581610e8a565b8114610eb057600080fd5b50565b600081359050610ec281610e9c565b92915050565b600060208284031215610ede57610edd610e00565b5b6000610eec84828501610eb3565b91505092915050565b6000819050919050565b610f0881610ef5565b8114610f1357600080fd5b50565b600081359050610f2581610eff565b92915050565b60008060408385031215610f4257610f41610e00565b5b6000610f5085828601610eb3565b9250506020610f6185828601610f16565b9150509250929050565b600060208284031215610f8157610f80610e00565b5b6000610f8f84828501610f16565b91505092915050565b610fa181610e05565b82525050565b6000602082019050610fbc6000830184610f98565b92915050565b6000610fcd82610e6a565b9050919050565b610fdd81610fc2565b8114610fe857600080fd5b50565b600081359050610ffa81610fd4565b92915050565b60008060006060848603121561101957611018610e00565b5b600061102786828701610eb3565b935050602061103886828701610f16565b925050604061104986828701610feb565b9150509250925092565b600082825260208201905092915050565b7f43616c6c6572206973206e6f7420636f6e7472616374206f776e657200000000600082015250565b600061109a601c83611053565b91506110a582611064565b602082019050919050565b600060208201905081810360008301526110c98161108d565b9050919050565b7f436f6e74726163742069732063757272656e746c79206e6f74206f706572617460008201527f696f6e616c000000000000000000000000000000000000000000000000000000602082015250565b600061112c602583611053565b9150611137826110d0565b604082019050919050565b6000602082019050818103600083015261115b8161111f565b9050919050565b7f4e487b7100000000000000000000000000000000000000000000000000000000600052603260045260246000fd5b7f4e487b7100000000000000000000000000000000000000000000000000000000600052601160045260246000fd5b6000819050919050565b60006111d5826111c0565b91507fffffffffffffffffffffffffffffffffffffffffffffffffffffffffffffffff820361120757611206611191565b5b600182019050919050565b600061121d826111c0565b9150611228836111c0565b9250817fffffffffffffffffffffffffffffffffffffffffffffffffffffffffffffffff048311821515161561126157611260611191565b5b828202905092915050565b7f4e487b7100000000000000000000000000000000000000000000000000000000600052601260045260246000fd5b60006112a6826111c0565b91506112b1836111c0565b9250826112c1576112c061126c565b5b828204905092915050565b60006112d7826111c0565b91506112e2836111c0565b9250827fffffffffffffffffffffffffffffffffffffffffffffffffffffffffffffffff0382111561131757611316611191565b5b828201905092915050565b600061132d826111c0565b9150611338836111c0565b92508282101561134b5761134a611191565b5b82820390509291505056fea26469706673582212204911b3acf8103a14db85db243067c380ab04c42f15606dd7b8ed2070147ce46064736f6c634300080e0033",
  "immutableReferences": {},
  "source": "// SPDX-License-Identifier: MIT\npragma solidity >=0.4.22 <0.9.0;\n\nimport \"../node_modules/@openzeppelin/contracts/utils/math/SafeMath.sol\";\n\ncontract FlightSuretyData {\n    using SafeMath for uint256;\n\n    /********************************************************************************************/\n    /*                                       DATA VARIABLES                                     */\n    /********************************************************************************************/\n\n    address private contractOwner;                                      // Account used to deploy contract\n    bool private operational = true;                                    // Blocks all state changes throughout the contract if false\n\n    struct InsurancePolicy {\n        bytes32 flightKey;\n        address airline;\n        address insuredAddress;\n        uint256 amountInsuredFor; // 1 E >= how much is paid by Customer\n        uint256 amountCredited; // 1.5 x amountInsuredFor\n        bool isOpen; // if not open, will no longer issue credits. a bit of a hack.\n        bool isPaid;\n    }\n\n    mapping(address => uint256) private airlineFundingBalances;\n    // map by flightKey to InsurancePolicy array\n    mapping(bytes32 => InsurancePolicy[]) private insurancePoliciesByFlightKey;\n\n    /********************************************************************************************/\n    /*                                       EVENT DEFINITIONS                                  */\n    /********************************************************************************************/\n    /**\n    * @dev Constructor\n    *      The deploying account becomes contractOwner\n    */\n    constructor()  {\n        contractOwner = msg.sender;\n    }\n\n    /********************************************************************************************/\n    /*                                     SMART CONTRACT FUNCTIONS                             */\n    /********************************************************************************************/\n    /**\n     * @dev Buy insurance for a flight\n    *\n    */\n    function buyInsurance(address _airline, bytes32 _flightKey)\n    external payable\n    requireIsOperational {\n        InsurancePolicy memory ip = InsurancePolicy(\n        {flightKey : _flightKey,\n        airline : _airline,\n        insuredAddress : msg.sender,\n        amountInsuredFor : msg.value,\n        amountCredited : 0 ether,\n        isOpen : true,\n        isPaid : false});\n        insurancePoliciesByFlightKey[_flightKey].push(ip);\n    }\n\n    /**\n     *  @dev Credits payouts to insurees\n    */\n    function creditInsureds(bytes32 flightKey) external view\n    requireContractOwner\n    requireIsOperational\n    {\n\n        // for each insured in the policies for this flight\n        InsurancePolicy[] memory ipArray = insurancePoliciesByFlightKey[flightKey];\n\n        for (uint i = 0; i < ipArray.length; i++) {\n            InsurancePolicy memory ip = ipArray[i];\n            if (ip.isOpen == true) {\n                // credit them 1.5 x their premium\n                ip.amountCredited = (15 * ip.amountInsuredFor)/10;\n                // close this here, bit of a hack, but better than AppContract controlling our state\n                ip.isOpen = false;\n            }\n        }\n    }\n    /**\n     *  @dev Close this flights insurance policies one by one\n     Used when the flight has a status which needs not pay out\n        */\n    function closeInsurancePolicy(bytes32 flightKey) external view\n    requireContractOwner\n    requireIsOperational {\n\n        // close all policies for this flight\n        InsurancePolicy[] memory ipArray = insurancePoliciesByFlightKey[flightKey];\n\n        for (uint i = 0; i < ipArray.length; i++) {\n            InsurancePolicy memory ip = ipArray[i];\n            ip.isOpen = false;\n        }\n    }\n\n//    function getInsurancePoliciesByFlightKey(bytes32 flightKey)\n//    public view returns (InsurancePolicy[] calldata){\n\n//        return insurancePoliciesByFlightKey[flightKey];\n//    }\n\n    /**\n     *  @dev Transfers eligible payout funds to insuree\n     *\n    */\n    function pay(address airlineAddress, bytes32 flightKey, address payable insuredAddress)\n        external\n        requireContractOwner\n        requireIsOperational\n\n    {\n        // inefficient and gassy but ... whatever, it's a class not a commercial product\n        InsurancePolicy[] memory ipArray = insurancePoliciesByFlightKey[flightKey];\n\n        for (uint i = 0; i < ipArray.length; i++) {\n            InsurancePolicy memory ip = ipArray[i];\n            if (ip.insuredAddress == insuredAddress) {\n                if (ip.isPaid == true) {\n                    // don't pay again\n                    return;\n                }\n                ip.isPaid = true;\n                // is this a requirement? I don't recall it being one.\n                airlineFundingBalances[airlineAddress].sub(ip.amountCredited);\n                insuredAddress.transfer(ip.amountCredited);\n            }\n        }\n    }\n\n    /**\n     * @dev How Airlines fund their participation.\n    */\n    function fund(address airlineAddress) public payable\n    requireIsOperational {\n        // 10 eth is required but checked at interface of the App Contract, not here\n        // as business rules may change\n        airlineFundingBalances[airlineAddress].add(msg.value);\n    }\n\n\n//    fallback() external payable {\n//        fund(msg.sender);\n//    }\n\n//    receive() external payable\n//    {\n//        fund(msg.sender);\n//    }\n    /********************************************************************************************/\n    /*                                       FUNCTION MODIFIERS                                 */\n    /********************************************************************************************/\n\n    modifier requireIsOperational()  {\n        require(operational, \"Contract is currently not operational\");\n        _;\n    }\n    modifier requireContractOwner() {\n        require(msg.sender == contractOwner, \"Caller is not contract owner\");\n        _;\n    }\n\n\n    /********************************************************************************************/\n    /*                                       UTILITY FUNCTIONS                                  */\n    /********************************************************************************************/\n\n    /**\n     * @dev Sets contract operations on/off\n    *\n    * When operational mode is disabled, all write transactions except for this one will fail\n    */\n    function setOperatingStatus(bool mode) external requireContractOwner {\n        // no multi consensus required here\n        operational = mode;\n\n    }\n\n    function isOperational() public view returns (bool)  {\n        return operational;\n    }\n\n\n}\n\n",
  "sourcePath": "/Users/thomaswhitehill/IdeaProjects/BlockchainProjects/FlightSuretyProjects/FlightSurety/contracts/FlightSuretyData.sol",
  "compiler": {
    "name": "solc",
    "version": "0.8.14+commit.80d49f37.Emscripten.clang"
  },
  "schemaVersion": "3.4.4",
  "updatedAt": "2022-05-27T11:09:25.878Z",
  "networkType": "ethereum",
  "devdoc": {
    "kind": "dev",
    "methods": {
      "buyInsurance(address,bytes32)": {
        "details": "Buy insurance for a flight"
      },
      "closeInsurancePolicy(bytes32)": {
        "details": "Close this flights insurance policies one by one Used when the flight has a status which needs not pay out"
      },
      "constructor": {
        "details": "Constructor      The deploying account becomes contractOwner"
      },
      "creditInsureds(bytes32)": {
        "details": "Credits payouts to insurees"
      },
      "fund(address)": {
        "details": "How Airlines fund their participation."
      },
      "pay(address,bytes32,address)": {
        "details": "Transfers eligible payout funds to insuree"
      },
      "setOperatingStatus(bool)": {
        "details": "Sets contract operations on/off When operational mode is disabled, all write transactions except for this one will fail"
      }
    },
    "version": 1
  },
  "userdoc": {
    "kind": "user",
    "methods": {},
    "version": 1
  }
}