{
  "contractName": "FlightSuretyData",
  "abi": [
    {
      "inputs": [],
      "stateMutability": "nonpayable",
      "type": "constructor"
    },
    {
      "anonymous": false,
      "inputs": [
        {
          "indexed": false,
          "internalType": "address",
          "name": "airline",
          "type": "address"
        },
        {
          "indexed": false,
          "internalType": "bytes32",
          "name": "flightKey",
          "type": "bytes32"
        },
        {
          "indexed": false,
          "internalType": "address",
          "name": "buyer",
          "type": "address"
        },
        {
          "indexed": false,
          "internalType": "uint256",
          "name": "amount",
          "type": "uint256"
        }
      ],
      "name": "Data_BuyInsurnce",
      "type": "event"
    },
    {
      "anonymous": false,
      "inputs": [
        {
          "indexed": false,
          "internalType": "bytes32",
          "name": "flightKey",
          "type": "bytes32"
        }
      ],
      "name": "Data_CloseInsurancePolicy",
      "type": "event"
    },
    {
      "anonymous": false,
      "inputs": [
        {
          "indexed": false,
          "internalType": "bytes32",
          "name": "flightKey",
          "type": "bytes32"
        }
      ],
      "name": "Data_CreditInsureds",
      "type": "event"
    },
    {
      "anonymous": false,
      "inputs": [
        {
          "indexed": false,
          "internalType": "address",
          "name": "airline",
          "type": "address"
        },
        {
          "indexed": false,
          "internalType": "uint256",
          "name": "amount",
          "type": "uint256"
        }
      ],
      "name": "Data_FundingReceived",
      "type": "event"
    },
    {
      "anonymous": false,
      "inputs": [
        {
          "indexed": false,
          "internalType": "bool",
          "name": "status",
          "type": "bool"
        }
      ],
      "name": "Data_OperatingStatusSet",
      "type": "event"
    },
    {
      "inputs": [
        {
          "internalType": "address",
          "name": "_airline",
          "type": "address"
        },
        {
          "internalType": "bytes32",
          "name": "_flightKey",
          "type": "bytes32"
        }
      ],
      "name": "buyInsurance",
      "outputs": [],
      "stateMutability": "payable",
      "type": "function",
      "payable": true
    },
    {
      "inputs": [
        {
          "internalType": "bytes32",
          "name": "flightKey",
          "type": "bytes32"
        }
      ],
      "name": "creditInsureds",
      "outputs": [],
      "stateMutability": "nonpayable",
      "type": "function"
    },
    {
      "inputs": [
        {
          "internalType": "address",
          "name": "insuredAddress",
          "type": "address"
        }
      ],
      "name": "getCreditForInsured",
      "outputs": [
        {
          "internalType": "uint256",
          "name": "",
          "type": "uint256"
        }
      ],
      "stateMutability": "view",
      "type": "function",
      "constant": true
    },
    {
      "inputs": [
        {
          "internalType": "bytes32",
          "name": "flightKey",
          "type": "bytes32"
        }
      ],
      "name": "closeInsurancePolicy",
      "outputs": [],
      "stateMutability": "nonpayable",
      "type": "function"
    },
    {
      "inputs": [
        {
          "internalType": "address",
          "name": "airlineAddress",
          "type": "address"
        },
        {
          "internalType": "bytes32",
          "name": "flightKey",
          "type": "bytes32"
        },
        {
          "internalType": "address payable",
          "name": "insuredAddress",
          "type": "address"
        }
      ],
      "name": "pay",
      "outputs": [],
      "stateMutability": "nonpayable",
      "type": "function"
    },
    {
      "inputs": [
        {
          "internalType": "address",
          "name": "airlineAddress",
          "type": "address"
        }
      ],
      "name": "fund",
      "outputs": [],
      "stateMutability": "payable",
      "type": "function",
      "payable": true
    },
    {
      "inputs": [
        {
          "internalType": "bool",
          "name": "mode",
          "type": "bool"
        }
      ],
      "name": "setOperatingStatus",
      "outputs": [],
      "stateMutability": "nonpayable",
      "type": "function"
    },
    {
      "inputs": [],
      "name": "isOperational",
      "outputs": [
        {
          "internalType": "bool",
          "name": "",
          "type": "bool"
        }
      ],
      "stateMutability": "view",
      "type": "function",
      "constant": true
    }
  ],
  "bytecode": "0x60806040526001600060146101000a81548160ff02191690831515021790555034801561002b57600080fd5b50336000806101000a81548173ffffffffffffffffffffffffffffffffffffffff021916908373ffffffffffffffffffffffffffffffffffffffff1602179055506115d88061007b6000396000f3fe60806040526004361061007b5760003560e01c8063be6547ae1161004e578063be6547ae1461011e578063cd905dff14610147578063d157ba2714610172578063df7a7e2d1461019b5761007b565b8063110466ed1461008057806323024408146100a957806384e7bb2d146100c5578063adf8ae7a14610102575b600080fd5b34801561008c57600080fd5b506100a760048036038101906100a29190610fb8565b6101c4565b005b6100c360048036038101906100be9190611043565b610227565b005b3480156100d157600080fd5b506100ec60048036038101906100e79190611043565b610305565b6040516100f99190611089565b60405180910390f35b61011c600480360381019061011791906110da565b61039c565b005b34801561012a57600080fd5b506101456004803603810190610140919061111a565b6105c2565b005b34801561015357600080fd5b5061015c610898565b6040516101699190611156565b60405180910390f35b34801561017e57600080fd5b506101996004803603810190610194919061111a565b6108ae565b005b3480156101a757600080fd5b506101c260048036038101906101bd91906111af565b610bbb565b005b80600060146101000a81548160ff0219169083151502179055507f7bb6c2f8327a5cc6976daa5eae00db6f0854fcf49aa9ab24bc295a486f74cd60600060149054906101000a900460ff1660405161021c9190611156565b60405180910390a150565b600060149054906101000a900460ff16610276576040517f08c379a000000000000000000000000000000000000000000000000000000000815260040161026d90611285565b60405180910390fd5b6102c834600160008473ffffffffffffffffffffffffffffffffffffffff1673ffffffffffffffffffffffffffffffffffffffff16815260200190815260200160002054610f4f90919063ffffffff16565b507f8421208b080b228708b3330e4eafc953fd632d2a76f8c2cc8302fe45c42a7d1981346040516102fa9291906112b4565b60405180910390a150565b60008060149054906101000a900460ff16610355576040517f08c379a000000000000000000000000000000000000000000000000000000000815260040161034c90611285565b60405180910390fd5b600360008373ffffffffffffffffffffffffffffffffffffffff1673ffffffffffffffffffffffffffffffffffffffff168152602001908152602001600020549050919050565b600060149054906101000a900460ff166103eb576040517f08c379a00000000000000000000000000000000000000000000000000000000081526004016103e290611285565b60405180910390fd5b60006040518060e001604052808381526020018473ffffffffffffffffffffffffffffffffffffffff1681526020013373ffffffffffffffffffffffffffffffffffffffff16815260200134815260200160008152602001600115158152602001600015158152509050600260008381526020019081526020016000208190806001815401808255809150506001900390600052602060002090600602016000909190919091506000820151816000015560208201518160010160006101000a81548173ffffffffffffffffffffffffffffffffffffffff021916908373ffffffffffffffffffffffffffffffffffffffff16021790555060408201518160020160006101000a81548173ffffffffffffffffffffffffffffffffffffffff021916908373ffffffffffffffffffffffffffffffffffffffff160217905550606082015181600301556080820151816004015560a08201518160050160006101000a81548160ff02191690831515021790555060c08201518160050160016101000a81548160ff02191690831515021790555050507f8d3db3cdbcc3d426334e4cd63d3da39f3fda5958fc81e53df2521334f2de67f9838333346040516105b594939291906112ec565b60405180910390a1505050565b60008054906101000a900473ffffffffffffffffffffffffffffffffffffffff1673ffffffffffffffffffffffffffffffffffffffff163373ffffffffffffffffffffffffffffffffffffffff1614610650576040517f08c379a00000000000000000000000000000000000000000000000000000000081526004016106479061137d565b60405180910390fd5b600060149054906101000a900460ff1661069f576040517f08c379a000000000000000000000000000000000000000000000000000000000815260040161069690611285565b60405180910390fd5b600060026000838152602001908152602001600020805480602002602001604051908101604052809291908181526020016000905b8282101561080657838290600052602060002090600602016040518060e0016040529081600082015481526020016001820160009054906101000a900473ffffffffffffffffffffffffffffffffffffffff1673ffffffffffffffffffffffffffffffffffffffff1673ffffffffffffffffffffffffffffffffffffffff1681526020016002820160009054906101000a900473ffffffffffffffffffffffffffffffffffffffff1673ffffffffffffffffffffffffffffffffffffffff1673ffffffffffffffffffffffffffffffffffffffff16815260200160038201548152602001600482015481526020016005820160009054906101000a900460ff161515151581526020016005820160019054906101000a900460ff161515151581525050815260200190600101906106d4565b50505050905060005b815181101561085c57600082828151811061082d5761082c61139d565b5b6020026020010151905060008160a0019015159081151581525050508080610854906113fb565b91505061080f565b507f584f3cf1d90d41faeab13d7baa754c4e93d8abc7f7179d5b39e17f511425ea7a8260405161088c9190611443565b60405180910390a15050565b60008060149054906101000a900460ff16905090565b60008054906101000a900473ffffffffffffffffffffffffffffffffffffffff1673ffffffffffffffffffffffffffffffffffffffff163373ffffffffffffffffffffffffffffffffffffffff161461093c576040517f08c379a00000000000000000000000000000000000000000000000000000000081526004016109339061137d565b60405180910390fd5b600060149054906101000a900460ff1661098b576040517f08c379a000000000000000000000000000000000000000000000000000000000815260040161098290611285565b60405180910390fd5b600060026000838152602001908152602001600020805480602002602001604051908101604052809291908181526020016000905b82821015610af257838290600052602060002090600602016040518060e0016040529081600082015481526020016001820160009054906101000a900473ffffffffffffffffffffffffffffffffffffffff1673ffffffffffffffffffffffffffffffffffffffff1673ffffffffffffffffffffffffffffffffffffffff1681526020016002820160009054906101000a900473ffffffffffffffffffffffffffffffffffffffff1673ffffffffffffffffffffffffffffffffffffffff1673ffffffffffffffffffffffffffffffffffffffff16815260200160038201548152602001600482015481526020016005820160009054906101000a900460ff161515151581526020016005820160019054906101000a900460ff161515151581525050815260200190600101906109c0565b50505050905060005b8151811015610b7f576000828281518110610b1957610b1861139d565b5b60200260200101519050600115158160a00151151503610b6b57600a8160600151600f610b46919061145e565b610b5091906114e7565b81608001818152505060008160a00190151590811515815250505b508080610b77906113fb565b915050610afb565b507f1295c9d0f8a5ddcdf227ff8ee7455f47f279b0c87313ed01782a863c25029bdc82604051610baf9190611443565b60405180910390a15050565b60008054906101000a900473ffffffffffffffffffffffffffffffffffffffff1673ffffffffffffffffffffffffffffffffffffffff163373ffffffffffffffffffffffffffffffffffffffff1614610c49576040517f08c379a0000000000000000000000000000000000000000000000000000000008152600401610c409061137d565b60405180910390fd5b600060149054906101000a900460ff16610c98576040517f08c379a0000000000000000000000000000000000000000000000000000000008152600401610c8f90611285565b60405180910390fd5b600060026000848152602001908152602001600020805480602002602001604051908101604052809291908181526020016000905b82821015610dff57838290600052602060002090600602016040518060e0016040529081600082015481526020016001820160009054906101000a900473ffffffffffffffffffffffffffffffffffffffff1673ffffffffffffffffffffffffffffffffffffffff1673ffffffffffffffffffffffffffffffffffffffff1681526020016002820160009054906101000a900473ffffffffffffffffffffffffffffffffffffffff1673ffffffffffffffffffffffffffffffffffffffff1673ffffffffffffffffffffffffffffffffffffffff16815260200160038201548152602001600482015481526020016005820160009054906101000a900460ff161515151581526020016005820160019054906101000a900460ff16151515158152505081526020019060010190610ccd565b50505050905060005b8151811015610f47576000828281518110610e2657610e2561139d565b5b602002602001015190508373ffffffffffffffffffffffffffffffffffffffff16816040015173ffffffffffffffffffffffffffffffffffffffff1603610f3357600115158160c00151151503610e7f57505050610f4a565b60018160c0019015159081151581525050610ee68160800151600160008973ffffffffffffffffffffffffffffffffffffffff1673ffffffffffffffffffffffffffffffffffffffff16815260200190815260200160002054610f6590919063ffffffff16565b508373ffffffffffffffffffffffffffffffffffffffff166108fc82608001519081150290604051600060405180830381858888f19350505050158015610f31573d6000803e3d6000fd5b505b508080610f3f906113fb565b915050610e08565b50505b505050565b60008183610f5d9190611518565b905092915050565b60008183610f73919061156e565b905092915050565b600080fd5b60008115159050919050565b610f9581610f80565b8114610fa057600080fd5b50565b600081359050610fb281610f8c565b92915050565b600060208284031215610fce57610fcd610f7b565b5b6000610fdc84828501610fa3565b91505092915050565b600073ffffffffffffffffffffffffffffffffffffffff82169050919050565b600061101082610fe5565b9050919050565b61102081611005565b811461102b57600080fd5b50565b60008135905061103d81611017565b92915050565b60006020828403121561105957611058610f7b565b5b60006110678482850161102e565b91505092915050565b6000819050919050565b61108381611070565b82525050565b600060208201905061109e600083018461107a565b92915050565b6000819050919050565b6110b7816110a4565b81146110c257600080fd5b50565b6000813590506110d4816110ae565b92915050565b600080604083850312156110f1576110f0610f7b565b5b60006110ff8582860161102e565b9250506020611110858286016110c5565b9150509250929050565b6000602082840312156111305761112f610f7b565b5b600061113e848285016110c5565b91505092915050565b61115081610f80565b82525050565b600060208201905061116b6000830184611147565b92915050565b600061117c82610fe5565b9050919050565b61118c81611171565b811461119757600080fd5b50565b6000813590506111a981611183565b92915050565b6000806000606084860312156111c8576111c7610f7b565b5b60006111d68682870161102e565b93505060206111e7868287016110c5565b92505060406111f88682870161119a565b9150509250925092565b600082825260208201905092915050565b7f436f6e74726163742069732063757272656e746c79206e6f74206f706572617460008201527f696f6e616c000000000000000000000000000000000000000000000000000000602082015250565b600061126f602583611202565b915061127a82611213565b604082019050919050565b6000602082019050818103600083015261129e81611262565b9050919050565b6112ae81611005565b82525050565b60006040820190506112c960008301856112a5565b6112d6602083018461107a565b9392505050565b6112e6816110a4565b82525050565b600060808201905061130160008301876112a5565b61130e60208301866112dd565b61131b60408301856112a5565b611328606083018461107a565b95945050505050565b7f43616c6c6572206973206e6f7420636f6e7472616374206f776e657200000000600082015250565b6000611367601c83611202565b915061137282611331565b602082019050919050565b600060208201905081810360008301526113968161135a565b9050919050565b7f4e487b7100000000000000000000000000000000000000000000000000000000600052603260045260246000fd5b7f4e487b7100000000000000000000000000000000000000000000000000000000600052601160045260246000fd5b600061140682611070565b91507fffffffffffffffffffffffffffffffffffffffffffffffffffffffffffffffff8203611438576114376113cc565b5b600182019050919050565b600060208201905061145860008301846112dd565b92915050565b600061146982611070565b915061147483611070565b9250817fffffffffffffffffffffffffffffffffffffffffffffffffffffffffffffffff04831182151516156114ad576114ac6113cc565b5b828202905092915050565b7f4e487b7100000000000000000000000000000000000000000000000000000000600052601260045260246000fd5b60006114f282611070565b91506114fd83611070565b92508261150d5761150c6114b8565b5b828204905092915050565b600061152382611070565b915061152e83611070565b9250827fffffffffffffffffffffffffffffffffffffffffffffffffffffffffffffffff03821115611563576115626113cc565b5b828201905092915050565b600061157982611070565b915061158483611070565b925082821015611597576115966113cc565b5b82820390509291505056fea2646970667358221220ac4c6c1d724c4b22b0662a411dae81f8d5cb2b076f9304327e9ac017c4d52db764736f6c634300080e0033",
  "immutableReferences": {},
  "source": "// SPDX-License-Identifier: MIT\npragma solidity >=0.4.22 <0.9.0;\n\nimport \"../node_modules/@openzeppelin/contracts/utils/math/SafeMath.sol\";\n\ncontract FlightSuretyData {\n    using SafeMath for uint256;\n\n    /********************************************************************************************/\n    /*                                       DATA VARIABLES                                     */\n    /********************************************************************************************/\n\n    address private contractOwner;                                      // Account used to deploy contract\n    bool private operational = true;                                    // Blocks all state changes throughout the contract if false\n\n    struct InsurancePolicy {\n        bytes32 flightKey;\n        address airline;\n        address insuredAddress;\n        uint256 amountInsuredFor; // 1 E >= how much is paid by Customer\n        uint256 amountCredited; // 1.5 x amountInsuredFor\n        bool isOpen; // if not open, will no longer issue credits. a bit of a hack.\n        bool isPaid;\n    }\n\n    mapping(address => uint256) private airlineFundingBalances;\n    // map by flightKey to InsurancePolicy array\n    mapping(bytes32 => InsurancePolicy[]) private insurancePoliciesByFlightKey;\n\n    mapping(address => uint256) private insuredCreditGiven;\n\n    /********************************************************************************************/\n    /*                                       EVENT DEFINITIONS                                  */\n    /********************************************************************************************/\n    /**\n    * @dev Constructor\n    *      The deploying account becomes contractOwner\n    */\n    constructor()  {\n        contractOwner = msg.sender;\n    }\n\n    /********************************************************************************************/\n    /*                                     SMART CONTRACT FUNCTIONS                             */\n    /********************************************************************************************/\n    /**\n     * @dev Buy insurance for a flight\n    *\n    */\n    event Data_BuyInsurnce(address airline, bytes32 flightKey, address buyer, uint256 amount);\n\n    function buyInsurance(address _airline, bytes32 _flightKey)\n    external payable\n    requireIsOperational {\n        InsurancePolicy memory ip = InsurancePolicy(\n        {flightKey : _flightKey,\n        airline : _airline,\n        insuredAddress : msg.sender,\n        amountInsuredFor : msg.value,\n        amountCredited : 0 ether,\n        isOpen : true,\n        isPaid : false});\n        insurancePoliciesByFlightKey[_flightKey].push(ip);\n        emit Data_BuyInsurnce(_airline, _flightKey, msg.sender, msg.value);\n    }\n\n    /**\n     *  @dev Credits payouts to insurees\n    */\n    event Data_CreditInsureds(bytes32 flightKey);\n\n    function creditInsureds(bytes32 flightKey) external\n    requireContractOwner\n    requireIsOperational\n    {\n\n        // for each insured in the policies for this flight\n        InsurancePolicy[] memory ipArray = insurancePoliciesByFlightKey[flightKey];\n\n        for (uint i = 0; i < ipArray.length; i++) {\n            InsurancePolicy memory ip = ipArray[i];\n            if (ip.isOpen == true) {\n                // credit them 1.5 x their premium\n                ip.amountCredited = (15 * ip.amountInsuredFor)/10;\n                // close this here, bit of a hack, but better than AppContract controlling our state\n                ip.isOpen = false;\n            }\n        }\n        emit Data_CreditInsureds(flightKey);\n    }\n    function getCreditForInsured(address insuredAddress)\n    external view\n    requireIsOperational\n    returns (uint256){\n        return insuredCreditGiven[insuredAddress];\n    }\n\n    /**\n     *  @dev Close this flights insurance policies one by one\n     Used when the flight has a status which needs not pay out\n        */\n\n    event Data_CloseInsurancePolicy(bytes32 flightKey);\n    function closeInsurancePolicy(bytes32 flightKey) external\n    requireContractOwner\n    requireIsOperational {\n\n        // close all policies for this flight\n        InsurancePolicy[] memory ipArray = insurancePoliciesByFlightKey[flightKey];\n\n        for (uint i = 0; i < ipArray.length; i++) {\n            InsurancePolicy memory ip = ipArray[i];\n            ip.isOpen = false;\n        }\n    emit Data_CloseInsurancePolicy(flightKey);\n    }\n//    function getInsurancePoliciesByFlightKey(bytes32 flightKey)\n//    public view returns (InsurancePolicy[] calldata){\n\n//        return insurancePoliciesByFlightKey[flightKey];\n//    }\n\n    /**\n     *  @dev Transfers eligible payout funds to insuree\n     *\n    */\n\n    function pay(address airlineAddress, bytes32 flightKey, address payable insuredAddress)\n        external\n        requireContractOwner\n        requireIsOperational\n\n    {\n        // inefficient and gassy but ... whatever, it's a class not a commercial product\n        InsurancePolicy[] memory ipArray = insurancePoliciesByFlightKey[flightKey];\n\n        for (uint i = 0; i < ipArray.length; i++) {\n            InsurancePolicy memory ip = ipArray[i];\n            if (ip.insuredAddress == insuredAddress) {\n                if (ip.isPaid == true) {\n                    // don't pay again\n                    return;\n                }\n                ip.isPaid = true;\n                // is this a requirement? I don't recall it being one.\n                airlineFundingBalances[airlineAddress].sub(ip.amountCredited);\n                insuredAddress.transfer(ip.amountCredited);\n            }\n        }\n    }\n\n    /**\n     * @dev How Airlines fund their participation.\n    */\n    event Data_FundingReceived(address airline, uint256 amount);\n    function fund(address airlineAddress) public payable\n    requireIsOperational {\n        // 10 eth is required but checked at interface of the App Contract, not here\n        // as business rules may change\n        airlineFundingBalances[airlineAddress].add(msg.value);\n        emit Data_FundingReceived(airlineAddress, msg.value);\n    }\n\n\n//    fallback() external payable {\n//        fund(msg.sender);\n//    }\n\n//    receive() external payable\n//    {\n//        fund(msg.sender);\n//    }\n    /********************************************************************************************/\n    /*                                       FUNCTION MODIFIERS                                 */\n    /********************************************************************************************/\n\n    modifier requireIsOperational()  {\n        require(operational, \"Contract is currently not operational\");\n        _;\n    }\n    modifier requireContractOwner() {\n        require(msg.sender == contractOwner, \"Caller is not contract owner\");\n        _;\n    }\n\n\n    /********************************************************************************************/\n    /*                                       UTILITY FUNCTIONS                                  */\n    /********************************************************************************************/\n\n    /**\n     * @dev Sets contract operations on/off\n    *\n    * When operational mode is disabled, all write transactions except for this one will fail\n    */\n    event Data_OperatingStatusSet(bool status);\n    function setOperatingStatus(bool mode) external //requireContractOwner\n    {\n        // no multi consensus required here\n        operational = mode;\n        emit Data_OperatingStatusSet(operational);\n\n    }\n\n    function isOperational() public view returns (bool)  {\n        return operational;\n    }\n\n\n}\n\n",
  "sourcePath": "/Users/thomaswhitehill/IdeaProjects/BlockchainProjects/FlightSuretyProjects/FlightSurety/contracts/FlightSuretyData.sol",
  "compiler": {
    "name": "solc",
    "version": "0.8.14+commit.80d49f37.Emscripten.clang"
  },
  "schemaVersion": "3.4.4",
  "updatedAt": "2022-06-04T11:33:05.801Z",
  "networkType": "ethereum",
  "devdoc": {
    "events": {
      "Data_BuyInsurnce(address,bytes32,address,uint256)": {
        "details": "Buy insurance for a flight"
      },
      "Data_CloseInsurancePolicy(bytes32)": {
        "details": "Close this flights insurance policies one by one Used when the flight has a status which needs not pay out"
      },
      "Data_CreditInsureds(bytes32)": {
        "details": "Credits payouts to insurees"
      },
      "Data_FundingReceived(address,uint256)": {
        "details": "How Airlines fund their participation."
      },
      "Data_OperatingStatusSet(bool)": {
        "details": "Sets contract operations on/off When operational mode is disabled, all write transactions except for this one will fail"
      }
    },
    "kind": "dev",
    "methods": {
      "constructor": {
        "details": "Constructor      The deploying account becomes contractOwner"
      },
      "pay(address,bytes32,address)": {
        "details": "Transfers eligible payout funds to insuree"
      }
    },
    "version": 1
  },
  "userdoc": {
    "kind": "user",
    "methods": {},
    "version": 1
  }
}