{
  "contractName": "FlightSuretyApp",
  "abi": [
    {
      "inputs": [
        {
          "internalType": "address",
          "name": "_contractOwner",
          "type": "address"
        },
        {
          "internalType": "address",
          "name": "dataContractAddress",
          "type": "address"
        },
        {
          "internalType": "address",
          "name": "firstAirlineAddress",
          "type": "address"
        }
      ],
      "stateMutability": "nonpayable",
      "type": "constructor"
    },
    {
      "anonymous": false,
      "inputs": [
        {
          "indexed": false,
          "internalType": "address",
          "name": "airline",
          "type": "address"
        },
        {
          "indexed": false,
          "internalType": "string",
          "name": "flight",
          "type": "string"
        },
        {
          "indexed": false,
          "internalType": "uint256",
          "name": "timestamp",
          "type": "uint256"
        },
        {
          "indexed": false,
          "internalType": "uint8",
          "name": "status",
          "type": "uint8"
        }
      ],
      "name": "FlightStatusInfo",
      "type": "event"
    },
    {
      "anonymous": false,
      "inputs": [
        {
          "indexed": false,
          "internalType": "address",
          "name": "airlineAddress",
          "type": "address"
        },
        {
          "indexed": false,
          "internalType": "uint256",
          "name": "amount",
          "type": "uint256"
        }
      ],
      "name": "FundedAirline",
      "type": "event"
    },
    {
      "anonymous": false,
      "inputs": [
        {
          "indexed": false,
          "internalType": "address",
          "name": "sender",
          "type": "address"
        }
      ],
      "name": "OracleRegistered",
      "type": "event"
    },
    {
      "anonymous": false,
      "inputs": [
        {
          "indexed": false,
          "internalType": "address",
          "name": "oracle",
          "type": "address"
        },
        {
          "indexed": false,
          "internalType": "address",
          "name": "airline",
          "type": "address"
        },
        {
          "indexed": false,
          "internalType": "string",
          "name": "flight",
          "type": "string"
        },
        {
          "indexed": false,
          "internalType": "uint256",
          "name": "timestamp",
          "type": "uint256"
        },
        {
          "indexed": false,
          "internalType": "uint8",
          "name": "status",
          "type": "uint8"
        }
      ],
      "name": "OracleReport",
      "type": "event"
    },
    {
      "anonymous": false,
      "inputs": [
        {
          "indexed": false,
          "internalType": "uint8",
          "name": "index",
          "type": "uint8"
        },
        {
          "indexed": false,
          "internalType": "address",
          "name": "airline",
          "type": "address"
        },
        {
          "indexed": false,
          "internalType": "string",
          "name": "flight",
          "type": "string"
        },
        {
          "indexed": false,
          "internalType": "uint256",
          "name": "timestamp",
          "type": "uint256"
        }
      ],
      "name": "OracleRequest",
      "type": "event"
    },
    {
      "anonymous": false,
      "inputs": [
        {
          "components": [
            {
              "internalType": "address",
              "name": "airlineAddress",
              "type": "address"
            },
            {
              "internalType": "bool",
              "name": "isRegistered",
              "type": "bool"
            },
            {
              "internalType": "bool",
              "name": "isFunded",
              "type": "bool"
            },
            {
              "internalType": "bool",
              "name": "isActive",
              "type": "bool"
            }
          ],
          "indexed": false,
          "internalType": "struct FlightSuretyApp.Airline",
          "name": "airline",
          "type": "tuple"
        }
      ],
      "name": "RegisteredAirline",
      "type": "event"
    },
    {
      "inputs": [],
      "name": "REGISTRATION_FEE",
      "outputs": [
        {
          "internalType": "uint256",
          "name": "",
          "type": "uint256"
        }
      ],
      "stateMutability": "view",
      "type": "function",
      "constant": true
    },
    {
      "inputs": [
        {
          "internalType": "uint256",
          "name": "mode",
          "type": "uint256"
        }
      ],
      "name": "setOperatingStatus",
      "outputs": [],
      "stateMutability": "nonpayable",
      "type": "function"
    },
    {
      "inputs": [],
      "name": "isOperational",
      "outputs": [
        {
          "internalType": "bool",
          "name": "",
          "type": "bool"
        }
      ],
      "stateMutability": "view",
      "type": "function",
      "constant": true
    },
    {
      "inputs": [],
      "name": "isOperationalTest",
      "outputs": [
        {
          "internalType": "bool",
          "name": "",
          "type": "bool"
        }
      ],
      "stateMutability": "view",
      "type": "function",
      "constant": true
    },
    {
      "inputs": [
        {
          "internalType": "address",
          "name": "airlineAddress",
          "type": "address"
        }
      ],
      "name": "registerAirline",
      "outputs": [
        {
          "internalType": "bool",
          "name": "",
          "type": "bool"
        }
      ],
      "stateMutability": "nonpayable",
      "type": "function"
    },
    {
      "inputs": [],
      "name": "getRegisteredAirlines",
      "outputs": [
        {
          "internalType": "address[]",
          "name": "",
          "type": "address[]"
        }
      ],
      "stateMutability": "view",
      "type": "function",
      "constant": true
    },
    {
      "inputs": [
        {
          "internalType": "address",
          "name": "_airline",
          "type": "address"
        }
      ],
      "name": "isAirlineRegistered",
      "outputs": [
        {
          "internalType": "bool",
          "name": "",
          "type": "bool"
        }
      ],
      "stateMutability": "view",
      "type": "function",
      "constant": true
    },
    {
      "inputs": [],
      "name": "fund",
      "outputs": [],
      "stateMutability": "payable",
      "type": "function",
      "payable": true
    },
    {
      "inputs": [
        {
          "internalType": "address",
          "name": "airlineAddress",
          "type": "address"
        },
        {
          "internalType": "string",
          "name": "flight",
          "type": "string"
        },
        {
          "internalType": "uint256",
          "name": "timestamp",
          "type": "uint256"
        }
      ],
      "name": "pay",
      "outputs": [],
      "stateMutability": "nonpayable",
      "type": "function"
    },
    {
      "inputs": [
        {
          "internalType": "address",
          "name": "airlineAddress",
          "type": "address"
        },
        {
          "internalType": "string",
          "name": "flight",
          "type": "string"
        },
        {
          "internalType": "uint256",
          "name": "timestamp",
          "type": "uint256"
        }
      ],
      "name": "buyInsurance",
      "outputs": [],
      "stateMutability": "payable",
      "type": "function",
      "payable": true
    },
    {
      "inputs": [
        {
          "internalType": "address",
          "name": "insuredAddress",
          "type": "address"
        }
      ],
      "name": "getCreditForInsured",
      "outputs": [
        {
          "internalType": "uint256",
          "name": "",
          "type": "uint256"
        }
      ],
      "stateMutability": "view",
      "type": "function",
      "constant": true
    },
    {
      "inputs": [
        {
          "internalType": "address",
          "name": "airlineAddress",
          "type": "address"
        },
        {
          "internalType": "string",
          "name": "flightName",
          "type": "string"
        },
        {
          "internalType": "uint256",
          "name": "timestamp",
          "type": "uint256"
        }
      ],
      "name": "registerFlight",
      "outputs": [],
      "stateMutability": "nonpayable",
      "type": "function"
    },
    {
      "inputs": [
        {
          "internalType": "address",
          "name": "airline",
          "type": "address"
        },
        {
          "internalType": "string",
          "name": "flight",
          "type": "string"
        },
        {
          "internalType": "uint256",
          "name": "timestamp",
          "type": "uint256"
        }
      ],
      "name": "fetchFlightStatus",
      "outputs": [],
      "stateMutability": "nonpayable",
      "type": "function"
    },
    {
      "inputs": [
        {
          "internalType": "uint8",
          "name": "index",
          "type": "uint8"
        },
        {
          "internalType": "address",
          "name": "airline",
          "type": "address"
        },
        {
          "internalType": "string",
          "name": "flight",
          "type": "string"
        },
        {
          "internalType": "uint256",
          "name": "timestamp",
          "type": "uint256"
        },
        {
          "internalType": "uint8",
          "name": "statusCode",
          "type": "uint8"
        }
      ],
      "name": "submitOracleResponse",
      "outputs": [],
      "stateMutability": "nonpayable",
      "type": "function"
    },
    {
      "inputs": [],
      "name": "registerOracle",
      "outputs": [],
      "stateMutability": "payable",
      "type": "function",
      "payable": true
    },
    {
      "inputs": [],
      "name": "getMyIndexes",
      "outputs": [
        {
          "internalType": "uint8[3]",
          "name": "",
          "type": "uint8[3]"
        }
      ],
      "stateMutability": "view",
      "type": "function",
      "constant": true
    }
  ],
  "bytecode": "0x60806040526000600160146101000a81548160ff0219169083151502179055506005600160156101000a81548160ff021916908360ff160217905550600067ffffffffffffffff811115620000595762000058620003f3565b5b604051908082528060200260200182016040528015620000885781602001602082028036833780820191505090505b5060069080519060200190620000a092919062000345565b50348015620000ae57600080fd5b5060405162003652380380620036528339818101604052810190620000d491906200048c565b826000806101000a81548173ffffffffffffffffffffffffffffffffffffffff021916908373ffffffffffffffffffffffffffffffffffffffff16021790555081600160006101000a81548173ffffffffffffffffffffffffffffffffffffffff021916908373ffffffffffffffffffffffffffffffffffffffff16021790555062000166816200017060201b60201c565b5050505062000590565b60008060405180608001604052808473ffffffffffffffffffffffffffffffffffffffff16815260200160011515815260200160001515815260200160001515815250905080600360008573ffffffffffffffffffffffffffffffffffffffff1673ffffffffffffffffffffffffffffffffffffffff16815260200190815260200160002060008201518160000160006101000a81548173ffffffffffffffffffffffffffffffffffffffff021916908373ffffffffffffffffffffffffffffffffffffffff16021790555060208201518160000160146101000a81548160ff02191690831515021790555060408201518160000160156101000a81548160ff02191690831515021790555060608201518160000160166101000a81548160ff0219169083151502179055509050506002839080600181540180825580915050600190039060005260206000200160009091909190916101000a81548173ffffffffffffffffffffffffffffffffffffffff021916908373ffffffffffffffffffffffffffffffffffffffff1602179055507ff674fc37aef3b3d1f2edee9f9ded3c8a455aac9170016d0f197775a920f9cd328160405162000333919062000573565b60405180910390a16001915050919050565b828054828255906000526020600020908101928215620003c1579160200282015b82811115620003c05782518260006101000a81548173ffffffffffffffffffffffffffffffffffffffff021916908373ffffffffffffffffffffffffffffffffffffffff1602179055509160200191906001019062000366565b5b509050620003d09190620003d4565b5090565b5b80821115620003ef576000816000905550600101620003d5565b5090565b7f4e487b7100000000000000000000000000000000000000000000000000000000600052604160045260246000fd5b600080fd5b600073ffffffffffffffffffffffffffffffffffffffff82169050919050565b6000620004548262000427565b9050919050565b620004668162000447565b81146200047257600080fd5b50565b60008151905062000486816200045b565b92915050565b600080600060608486031215620004a857620004a762000422565b5b6000620004b88682870162000475565b9350506020620004cb8682870162000475565b9250506040620004de8682870162000475565b9150509250925092565b620004f38162000447565b82525050565b60008115159050919050565b6200051081620004f9565b82525050565b6080820160008201516200052e6000850182620004e8565b50602082015162000543602085018262000505565b50604082015162000558604085018262000505565b5060608201516200056d606085018262000505565b50505050565b60006080820190506200058a600083018462000516565b92915050565b6130b280620005a06000396000f3fe6080604052600436106100f35760003560e01c806384e7bb2d1161008a578063c23bcf0911610059578063c23bcf09146102db578063c962d4a214610306578063cd905dff1461032f578063f83f11c01461035a576100f3565b806384e7bb2d1461022e578063b60d42881461026b578063bdfd987714610275578063c10f2700146102b2576100f3565b80633dd19e6a116100c65780633dd19e6a146101845780635741e092146101ad5780635f1cc0e6146101d857806364b4f75114610203576100f3565b8063010c5c97146100f85780632f6721d014610135578063339d2590146101515780633cc0be9c1461015b575b600080fd5b34801561010457600080fd5b5061011f600480360381019061011a9190611fb4565b610383565b60405161012c9190611ffc565b60405180910390f35b61014f600480360381019061014a9190612193565b610431565b005b610159610522565b005b34801561016757600080fd5b50610182600480360381019061017d9190612193565b610646565b005b34801561019057600080fd5b506101ab60048036038101906101a69190612202565b610815565b005b3480156101b957600080fd5b506101c26108f8565b6040516101cf9190611ffc565b60405180910390f35b3480156101e457600080fd5b506101ed61095d565b6040516101fa91906122e7565b60405180910390f35b34801561020f57600080fd5b50610218610a9d565b6040516102259190612311565b60405180910390f35b34801561023a57600080fd5b5061025560048036038101906102509190611fb4565b610aa9565b6040516102629190612311565b60405180910390f35b610273610ba4565b005b34801561028157600080fd5b5061029c60048036038101906102979190611fb4565b610e7f565b6040516102a99190611ffc565b60405180910390f35b3480156102be57600080fd5b506102d960048036038101906102d49190612358565b61119e565b005b3480156102e757600080fd5b506102f0611558565b6040516102fd91906124ad565b60405180910390f35b34801561031257600080fd5b5061032d60048036038101906103289190612193565b6115e6565b005b34801561033b57600080fd5b5061034461168c565b6040516103519190611ffc565b60405180910390f35b34801561036657600080fd5b50610381600480360381019061037c9190612193565b6116a3565b005b600080600090505b600280549050811015610426578273ffffffffffffffffffffffffffffffffffffffff16600282815481106103c3576103c26124cf565b5b9060005260206000200160009054906101000a900473ffffffffffffffffffffffffffffffffffffffff1673ffffffffffffffffffffffffffffffffffffffff160361041357600191505061042c565b808061041e9061252d565b91505061038b565b50600090505b919050565b34670de0b6b3a764000081111561047d576040517f08c379a0000000000000000000000000000000000000000000000000000000008152600401610474906125f8565b60405180910390fd5b600061048a8585856117d0565b9050600160009054906101000a900473ffffffffffffffffffffffffffffffffffffffff1673ffffffffffffffffffffffffffffffffffffffff1663adf8ae7a86836040518363ffffffff1660e01b81526004016104e9929190612640565b600060405180830381600087803b15801561050357600080fd5b505af1158015610517573d6000803e3d6000fd5b505050505050505050565b670de0b6b3a764000034101561056d576040517f08c379a0000000000000000000000000000000000000000000000000000000008152600401610564906126b5565b60405180910390fd5b600061057833611806565b9050604051806040016040528060011515815260200182815250600760003373ffffffffffffffffffffffffffffffffffffffff1673ffffffffffffffffffffffffffffffffffffffff16815260200190815260200160002060008201518160000160006101000a81548160ff021916908315150217905550602082015181600101906003610608929190611ddf565b509050507fd9d9fdcc9f936c76b5aafe54fc3db5dcec0c6583c9ccc4abe91d17575c5145a53360405161063b91906126d5565b60405180910390a150565b60011515600160149054906101000a900460ff1615151461069c576040517f08c379a000000000000000000000000000000000000000000000000000000000815260040161069390612762565b60405180910390fd5b82600360008273ffffffffffffffffffffffffffffffffffffffff1673ffffffffffffffffffffffffffffffffffffffff16815260200190815260200160002060000160149054906101000a900460ff1661072c576040517f08c379a0000000000000000000000000000000000000000000000000000000008152600401610723906127f4565b60405180910390fd5b60006107398585856117d0565b905060006040518060800160405280838152602001600060ff1681526020018581526020018773ffffffffffffffffffffffffffffffffffffffff16815250905080600560008481526020019081526020016000206000820151816000015560208201518160010160006101000a81548160ff021916908360ff1602179055506040820151816002015560608201518160030160006101000a81548173ffffffffffffffffffffffffffffffffffffffff021916908373ffffffffffffffffffffffffffffffffffffffff160217905550905050505050505050565b600081111561083d5760018060146101000a81548160ff021916908315150217905550610859565b6000600160146101000a81548160ff0219169083151502179055505b600160009054906101000a900473ffffffffffffffffffffffffffffffffffffffff1673ffffffffffffffffffffffffffffffffffffffff1663110466ed600160149054906101000a900460ff166040518263ffffffff1660e01b81526004016108c39190611ffc565b600060405180830381600087803b1580156108dd57600080fd5b505af11580156108f1573d6000803e3d6000fd5b5050505050565b600060011515600160149054906101000a900460ff16151514610950576040517f08c379a000000000000000000000000000000000000000000000000000000000815260040161094790612762565b60405180910390fd5b61095861168c565b905090565b610965611e79565b600760003373ffffffffffffffffffffffffffffffffffffffff1673ffffffffffffffffffffffffffffffffffffffff16815260200190815260200160002060000160009054906101000a900460ff166109f4576040517f08c379a00000000000000000000000000000000000000000000000000000000081526004016109eb90612860565b60405180910390fd5b600760003373ffffffffffffffffffffffffffffffffffffffff1673ffffffffffffffffffffffffffffffffffffffff168152602001908152602001600020600101600380602002604051908101604052809291908260038015610a93576020028201916000905b82829054906101000a900460ff1660ff1681526020019060010190602082600001049283019260010382029150808411610a5c5790505b5050505050905090565b670de0b6b3a764000081565b600060011515600160149054906101000a900460ff16151514610b01576040517f08c379a0000000000000000000000000000000000000000000000000000000008152600401610af890612762565b60405180910390fd5b600160009054906101000a900473ffffffffffffffffffffffffffffffffffffffff1673ffffffffffffffffffffffffffffffffffffffff166384e7bb2d836040518263ffffffff1660e01b8152600401610b5c91906126d5565b602060405180830381865afa158015610b79573d6000803e3d6000fd5b505050506040513d601f19601f82011682018060405250810190610b9d9190612895565b9050919050565b60011515600160149054906101000a900460ff16151514610bfa576040517f08c379a0000000000000000000000000000000000000000000000000000000008152600401610bf190612762565b60405180910390fd5b33600360008273ffffffffffffffffffffffffffffffffffffffff1673ffffffffffffffffffffffffffffffffffffffff16815260200190815260200160002060000160149054906101000a900460ff16610c8a576040517f08c379a0000000000000000000000000000000000000000000000000000000008152600401610c81906127f4565b60405180910390fd5b678ac7230489e800003414610c9e57600080fd5b600360003373ffffffffffffffffffffffffffffffffffffffff1673ffffffffffffffffffffffffffffffffffffffff16815260200190815260200160002060000160159054906101000a905050600360003373ffffffffffffffffffffffffffffffffffffffff1673ffffffffffffffffffffffffffffffffffffffff16815260200190815260200160002060000160149054906101000a900460ff1615610db5576001600360003373ffffffffffffffffffffffffffffffffffffffff1673ffffffffffffffffffffffffffffffffffffffff16815260200190815260200160002060000160166101000a81548160ff02191690831515021790555060046000815480929190610daf9061252d565b91905055505b600160009054906101000a900473ffffffffffffffffffffffffffffffffffffffff1673ffffffffffffffffffffffffffffffffffffffff16632302440834336040518363ffffffff1660e01b8152600401610e1191906126d5565b6000604051808303818588803b158015610e2a57600080fd5b505af1158015610e3e573d6000803e3d6000fd5b50505050507fa5aeebe9db6fda66a79ab208cdd8b455a391d279b6e23f4ac7be7d477a2446163334604051610e749291906128c2565b60405180910390a150565b600060011515600160149054906101000a900460ff16151514610ed7576040517f08c379a0000000000000000000000000000000000000000000000000000000008152600401610ece90612762565b60405180910390fd5b33600360008273ffffffffffffffffffffffffffffffffffffffff1673ffffffffffffffffffffffffffffffffffffffff16815260200190815260200160002060000160169054906101000a900460ff16610f67576040517f08c379a0000000000000000000000000000000000000000000000000000000008152600401610f5e9061295d565b60405180910390fd5b82600360008273ffffffffffffffffffffffffffffffffffffffff1673ffffffffffffffffffffffffffffffffffffffff16815260200190815260200160002060000160149054906101000a900460ff1615610ff8576040517f08c379a0000000000000000000000000000000000000000000000000000000008152600401610fef906129ef565b60405180910390fd5b600360003373ffffffffffffffffffffffffffffffffffffffff1673ffffffffffffffffffffffffffffffffffffffff16815260200190815260200160002060000160149054906101000a900460ff1615611088576040517f08c379a000000000000000000000000000000000000000000000000000000000815260040161107f90612a5b565b60405180910390fd5b6004805410156110a15761109b846119ec565b50611192565b6006339080600181540180825580915050600190039060005260206000200160009091909190916101000a81548173ffffffffffffffffffffffffffffffffffffffff021916908373ffffffffffffffffffffffffffffffffffffffff16021790555060026004546111139190612aaa565b6006805490501061119157600067ffffffffffffffff81111561113957611138612032565b5b6040519080825280602002602001820160405280156111675781602001602082028036833780820191505090505b506006908051906020019061117d929190611e9b565b50611187846119ec565b5060019250611197565b5b600092505b5050919050565b6000858585856040516020016111b79493929190612bf4565b6040516020818303038152906040528051906020012090506008600082815260200190815260200160002060000160149054906101000a900460ff16611232576040517f08c379a000000000000000000000000000000000000000000000000000000000815260040161122990612c8a565b60405180910390fd5b8560ff16600760003373ffffffffffffffffffffffffffffffffffffffff1673ffffffffffffffffffffffffffffffffffffffff16815260200190815260200160002060010160006003811061128b5761128a6124cf565b5b602091828204019190069054906101000a900460ff1660ff16148061131f57508560ff16600760003373ffffffffffffffffffffffffffffffffffffffff1673ffffffffffffffffffffffffffffffffffffffff168152602001908152602001600020600101600160038110611304576113036124cf565b5b602091828204019190069054906101000a900460ff1660ff16145b8061139957508560ff16600760003373ffffffffffffffffffffffffffffffffffffffff1673ffffffffffffffffffffffffffffffffffffffff16815260200190815260200160002060010160026003811061137e5761137d6124cf565b5b602091828204019190069054906101000a900460ff1660ff16145b6113d8576040517f08c379a00000000000000000000000000000000000000000000000000000000081526004016113cf90612d1c565b60405180910390fd5b6009600082815260200190815260200160002060008360ff1660ff168152602001908152602001600020339080600181540180825580915050600190039060005260206000200160009091909190916101000a81548173ffffffffffffffffffffffffffffffffffffffff021916908373ffffffffffffffffffffffffffffffffffffffff1602179055507f257dccc1fd472d66cce2826f12a70912f497d3505f06930e7c6f050afece0034338686868660405161149a959493929190612d84565b60405180910390a160026009600083815260200190815260200160002060008460ff1660ff16815260200190815260200160002080549050106115505760006008600083815260200190815260200160002060000160146101000a81548160ff0219169083151502179055507fe23f5229de535c091e3b7bec2665f5d698192d3b31393066e8987b7a05076b6c8585858560405161153b9493929190612dde565b60405180910390a161154f85858585611bbf565b5b505050505050565b606060028054806020026020016040519081016040528092919081815260200182805480156115dc57602002820191906000526020600020905b8160009054906101000a900473ffffffffffffffffffffffffffffffffffffffff1673ffffffffffffffffffffffffffffffffffffffff1681526020019060010190808311611592575b5050505050905090565b60006115f38484846117d0565b9050600160009054906101000a900473ffffffffffffffffffffffffffffffffffffffff1673ffffffffffffffffffffffffffffffffffffffff1663df7a7e2d8583336040518463ffffffff1660e01b815260040161165493929190612e4b565b600060405180830381600087803b15801561166e57600080fd5b505af1158015611682573d6000803e3d6000fd5b5050505050505050565b6000600160149054906101000a900460ff16905090565b60006116ae33611d13565b90506000818585856040516020016116c99493929190612bf4565b60405160208183030381529060405280519060200120905060405180604001604052803373ffffffffffffffffffffffffffffffffffffffff168152602001600115158152506008600083815260200190815260200160002060008201518160000160006101000a81548173ffffffffffffffffffffffffffffffffffffffff021916908373ffffffffffffffffffffffffffffffffffffffff16021790555060208201518160000160146101000a81548160ff0219169083151502179055509050507f3ed01f2c3fc24c6b329d931e35b03e390d23497d22b3f90e15b600343e93df11828686866040516117c19493929190612e82565b60405180910390a15050505050565b60008383836040516020016117e793929190612ece565b6040516020818303038152906040528051906020012090509392505050565b61180e611e79565b611816611e79565b61181f83611d13565b81600060038110611833576118326124cf565b5b602002019060ff16908160ff168152505080600060038110611858576118576124cf565b5b602002015181600160038110611871576118706124cf565b5b602002019060ff16908160ff16815250505b80600060038110611897576118966124cf565b5b602002015160ff16816001600381106118b3576118b26124cf565b5b602002015160ff16036118f3576118c983611d13565b816001600381106118dd576118dc6124cf565b5b602002019060ff16908160ff1681525050611883565b80600160038110611907576119066124cf565b5b6020020151816002600381106119205761191f6124cf565b5b602002019060ff16908160ff16815250505b80600060038110611946576119456124cf565b5b602002015160ff1681600260038110611962576119616124cf565b5b602002015160ff1614806119ab575080600160038110611985576119846124cf565b5b602002015160ff16816002600381106119a1576119a06124cf565b5b602002015160ff16145b156119e3576119b983611d13565b816002600381106119cd576119cc6124cf565b5b602002019060ff16908160ff1681525050611932565b80915050919050565b60008060405180608001604052808473ffffffffffffffffffffffffffffffffffffffff16815260200160011515815260200160001515815260200160001515815250905080600360008573ffffffffffffffffffffffffffffffffffffffff1673ffffffffffffffffffffffffffffffffffffffff16815260200190815260200160002060008201518160000160006101000a81548173ffffffffffffffffffffffffffffffffffffffff021916908373ffffffffffffffffffffffffffffffffffffffff16021790555060208201518160000160146101000a81548160ff02191690831515021790555060408201518160000160156101000a81548160ff02191690831515021790555060608201518160000160166101000a81548160ff0219169083151502179055509050506002839080600181540180825580915050600190039060005260206000200160009091909190916101000a81548173ffffffffffffffffffffffffffffffffffffffff021916908373ffffffffffffffffffffffffffffffffffffffff1602179055507ff674fc37aef3b3d1f2edee9f9ded3c8a455aac9170016d0f197775a920f9cd3281604051611bad9190612f6b565b60405180910390a16001915050919050565b6000611bcc8585856117d0565b9050600060ff168260ff1603611be25750611d0d565b601460ff168260ff1603611c7e57600160009054906101000a900473ffffffffffffffffffffffffffffffffffffffff1673ffffffffffffffffffffffffffffffffffffffff1663d157ba27826040518263ffffffff1660e01b8152600401611c4b9190612f86565b600060405180830381600087803b158015611c6557600080fd5b505af1158015611c79573d6000803e3d6000fd5b505050505b600160009054906101000a900473ffffffffffffffffffffffffffffffffffffffff1673ffffffffffffffffffffffffffffffffffffffff1663be6547ae826040518263ffffffff1660e01b8152600401611cd99190612f86565b600060405180830381600087803b158015611cf357600080fd5b505af1158015611d07573d6000803e3d6000fd5b50505050505b50505050565b600080600a905060008160ff166001601581819054906101000a900460ff1680929190611d3f90612fa1565b91906101000a81548160ff021916908360ff16021790555060ff1643611d659190612fca565b4085604051602001611d7892919061301f565b6040516020818303038152906040528051906020012060001c611d9b919061304b565b905060fa600160159054906101000a900460ff1660ff161115611dd5576000600160156101000a81548160ff021916908360ff1602179055505b8092505050919050565b826003601f01602090048101928215611e685791602002820160005b83821115611e3957835183826101000a81548160ff021916908360ff1602179055509260200192600101602081600001049283019260010302611dfb565b8015611e665782816101000a81549060ff0219169055600101602081600001049283019260010302611e39565b505b509050611e759190611f25565b5090565b6040518060600160405280600390602082028036833780820191505090505090565b828054828255906000526020600020908101928215611f14579160200282015b82811115611f135782518260006101000a81548173ffffffffffffffffffffffffffffffffffffffff021916908373ffffffffffffffffffffffffffffffffffffffff16021790555091602001919060010190611ebb565b5b509050611f219190611f25565b5090565b5b80821115611f3e576000816000905550600101611f26565b5090565b6000604051905090565b600080fd5b600080fd5b600073ffffffffffffffffffffffffffffffffffffffff82169050919050565b6000611f8182611f56565b9050919050565b611f9181611f76565b8114611f9c57600080fd5b50565b600081359050611fae81611f88565b92915050565b600060208284031215611fca57611fc9611f4c565b5b6000611fd884828501611f9f565b91505092915050565b60008115159050919050565b611ff681611fe1565b82525050565b60006020820190506120116000830184611fed565b92915050565b600080fd5b600080fd5b6000601f19601f8301169050919050565b7f4e487b7100000000000000000000000000000000000000000000000000000000600052604160045260246000fd5b61206a82612021565b810181811067ffffffffffffffff8211171561208957612088612032565b5b80604052505050565b600061209c611f42565b90506120a88282612061565b919050565b600067ffffffffffffffff8211156120c8576120c7612032565b5b6120d182612021565b9050602081019050919050565b82818337600083830152505050565b60006121006120fb846120ad565b612092565b90508281526020810184848401111561211c5761211b61201c565b5b6121278482856120de565b509392505050565b600082601f83011261214457612143612017565b5b81356121548482602086016120ed565b91505092915050565b6000819050919050565b6121708161215d565b811461217b57600080fd5b50565b60008135905061218d81612167565b92915050565b6000806000606084860312156121ac576121ab611f4c565b5b60006121ba86828701611f9f565b935050602084013567ffffffffffffffff8111156121db576121da611f51565b5b6121e78682870161212f565b92505060406121f88682870161217e565b9150509250925092565b60006020828403121561221857612217611f4c565b5b60006122268482850161217e565b91505092915050565b600060039050919050565b600081905092915050565b6000819050919050565b600060ff82169050919050565b6122658161224f565b82525050565b6000612277838361225c565b60208301905092915050565b6000602082019050919050565b6122998161222f565b6122a3818461223a565b92506122ae82612245565b8060005b838110156122df5781516122c6878261226b565b96506122d183612283565b9250506001810190506122b2565b505050505050565b60006060820190506122fc6000830184612290565b92915050565b61230b8161215d565b82525050565b60006020820190506123266000830184612302565b92915050565b6123358161224f565b811461234057600080fd5b50565b6000813590506123528161232c565b92915050565b600080600080600060a0868803121561237457612373611f4c565b5b600061238288828901612343565b955050602061239388828901611f9f565b945050604086013567ffffffffffffffff8111156123b4576123b3611f51565b5b6123c08882890161212f565b93505060606123d18882890161217e565b92505060806123e288828901612343565b9150509295509295909350565b600081519050919050565b600082825260208201905092915050565b6000819050602082019050919050565b61242481611f76565b82525050565b6000612436838361241b565b60208301905092915050565b6000602082019050919050565b600061245a826123ef565b61246481856123fa565b935061246f8361240b565b8060005b838110156124a0578151612487888261242a565b975061249283612442565b925050600181019050612473565b5085935050505092915050565b600060208201905081810360008301526124c7818461244f565b905092915050565b7f4e487b7100000000000000000000000000000000000000000000000000000000600052603260045260246000fd5b7f4e487b7100000000000000000000000000000000000000000000000000000000600052601160045260246000fd5b60006125388261215d565b91507fffffffffffffffffffffffffffffffffffffffffffffffffffffffffffffffff820361256a576125696124fe565b5b600182019050919050565b600082825260208201905092915050565b7f43616e6e6f7420696e7375726520666f72206d6f7265207468616e206f6e652060008201527f65746865722e0000000000000000000000000000000000000000000000000000602082015250565b60006125e2602683612575565b91506125ed82612586565b604082019050919050565b60006020820190508181036000830152612611816125d5565b9050919050565b61262181611f76565b82525050565b6000819050919050565b61263a81612627565b82525050565b60006040820190506126556000830185612618565b6126626020830184612631565b9392505050565b7f526567697374726174696f6e2066656520697320726571756972656400000000600082015250565b600061269f601c83612575565b91506126aa82612669565b602082019050919050565b600060208201905081810360008301526126ce81612692565b9050919050565b60006020820190506126ea6000830184612618565b92915050565b7f436f6e74726163742069732063757272656e746c79206e6f74206f706572617460008201527f696f6e616c000000000000000000000000000000000000000000000000000000602082015250565b600061274c602583612575565b9150612757826126f0565b604082019050919050565b6000602082019050818103600083015261277b8161273f565b9050919050565b7f4169726c696e65206d757374206265205245474953544552454420746f206d6160008201527f6b6520746869732063616c6c2e00000000000000000000000000000000000000602082015250565b60006127de602d83612575565b91506127e982612782565b604082019050919050565b6000602082019050818103600083015261280d816127d1565b9050919050565b7f54686973204f7261636c65206973206e6f742052454749535445524544000000600082015250565b600061284a601d83612575565b915061285582612814565b602082019050919050565b600060208201905081810360008301526128798161283d565b9050919050565b60008151905061288f81612167565b92915050565b6000602082840312156128ab576128aa611f4c565b5b60006128b984828501612880565b91505092915050565b60006040820190506128d76000830185612618565b6128e46020830184612302565b9392505050565b7f4169726c696e65206d7573742062652041435449564520746f206d616b65207460008201527f6869732063616c6c2e0000000000000000000000000000000000000000000000602082015250565b6000612947602983612575565b9150612952826128eb565b604082019050919050565b600060208201905081810360008301526129768161293a565b9050919050565b7f4169726c696e65206d757374206e6f742079657420626520524547495354455260008201527f45442e0000000000000000000000000000000000000000000000000000000000602082015250565b60006129d9602383612575565b91506129e48261297d565b604082019050919050565b60006020820190508181036000830152612a08816129cc565b9050919050565b7f4169726c696e6520697320616c726561647920526567697374657265642e0000600082015250565b6000612a45601e83612575565b9150612a5082612a0f565b602082019050919050565b60006020820190508181036000830152612a7481612a38565b9050919050565b7f4e487b7100000000000000000000000000000000000000000000000000000000600052601260045260246000fd5b6000612ab58261215d565b9150612ac08361215d565b925082612ad057612acf612a7b565b5b828204905092915050565b60008160f81b9050919050565b6000612af382612adb565b9050919050565b612b0b612b068261224f565b612ae8565b82525050565b60008160601b9050919050565b6000612b2982612b11565b9050919050565b6000612b3b82612b1e565b9050919050565b612b53612b4e82611f76565b612b30565b82525050565b600081519050919050565b600081905092915050565b60005b83811015612b8d578082015181840152602081019050612b72565b83811115612b9c576000848401525b50505050565b6000612bad82612b59565b612bb78185612b64565b9350612bc7818560208601612b6f565b80840191505092915050565b6000819050919050565b612bee612be98261215d565b612bd3565b82525050565b6000612c008287612afa565b600182019150612c108286612b42565b601482019150612c208285612ba2565b9150612c2c8284612bdd565b60208201915081905095945050505050565b7f4f7261636c6552657175657374206973206e6f74204f50454e00000000000000600082015250565b6000612c74601983612575565b9150612c7f82612c3e565b602082019050919050565b60006020820190508181036000830152612ca381612c67565b9050919050565b7f4f7261636c6520686173206e6f206d61746368696e6720496e64657820666f7260008201527f2074686973204f7261636c655265717565737400000000000000000000000000602082015250565b6000612d06603383612575565b9150612d1182612caa565b604082019050919050565b60006020820190508181036000830152612d3581612cf9565b9050919050565b6000612d4782612b59565b612d518185612575565b9350612d61818560208601612b6f565b612d6a81612021565b840191505092915050565b612d7e8161224f565b82525050565b600060a082019050612d996000830188612618565b612da66020830187612618565b8181036040830152612db88186612d3c565b9050612dc76060830185612302565b612dd46080830184612d75565b9695505050505050565b6000608082019050612df36000830187612618565b8181036020830152612e058186612d3c565b9050612e146040830185612302565b612e216060830184612d75565b95945050505050565b6000612e3582611f56565b9050919050565b612e4581612e2a565b82525050565b6000606082019050612e606000830186612618565b612e6d6020830185612631565b612e7a6040830184612e3c565b949350505050565b6000608082019050612e976000830187612d75565b612ea46020830186612618565b8181036040830152612eb68185612d3c565b9050612ec56060830184612302565b95945050505050565b6000612eda8286612b42565b601482019150612eea8285612ba2565b9150612ef68284612bdd565b602082019150819050949350505050565b612f1081611fe1565b82525050565b608082016000820151612f2c600085018261241b565b506020820151612f3f6020850182612f07565b506040820151612f526040850182612f07565b506060820151612f656060850182612f07565b50505050565b6000608082019050612f806000830184612f16565b92915050565b6000602082019050612f9b6000830184612631565b92915050565b6000612fac8261224f565b915060ff8203612fbf57612fbe6124fe565b5b600182019050919050565b6000612fd58261215d565b9150612fe08361215d565b925082821015612ff357612ff26124fe565b5b828203905092915050565b6000819050919050565b61301961301482612627565b612ffe565b82525050565b600061302b8285613008565b60208201915061303b8284612b42565b6014820191508190509392505050565b60006130568261215d565b91506130618361215d565b92508261307157613070612a7b565b5b82820690509291505056fea26469706673582212208447eb41c53ff43d713365c2dba2874a67ed2cae7b79cad1cbbc13c794d7a70864736f6c634300080e0033",
  "immutableReferences": {},
  "source": "// SPDX-License-Identifier: MIT\npragma solidity >=0.4.22 <0.9.0;\n\nimport \"../node_modules/@openzeppelin/contracts/utils/math/SafeMath.sol\";\nimport \"./FlightSuretyData.sol\";\n\ncontract FlightSuretyApp {\n    using SafeMath for uint256;\n    address private contractOwner;          // Account used to deploy contract\n    //    address private dataContractAddress;\n    FlightSuretyData private dataContract;\n    bool operational = false;\n\n\n    uint8 private constant STATUS_CODE_UNKNOWN = 0;\n    uint8 private constant STATUS_CODE_ON_TIME = 10;\n    uint8 private constant STATUS_CODE_LATE_AIRLINE = 20; // << This is the only one relevant to payouts\n    uint8 private constant STATUS_CODE_LATE_WEATHER = 30;\n    uint8 private constant STATUS_CODE_LATE_TECHNICAL = 40;\n    uint8 private constant STATUS_CODE_LATE_OTHER = 50;\n    uint8 private nonce = 5;                            // Incremented to add pseudo-randomness at various points\n    uint256 public constant REGISTRATION_FEE = 1 ether; // Fee to be paid when registering oracle\n    uint256 private constant MIN_RESPONSES = 2;         // Number of oracles that must respond for valid status\n\n\n    struct Airline {\n        address airlineAddress;\n        bool isRegistered;\n        bool isFunded;\n        bool isActive; // both isRegisterd and isFunded. Not needed as we can calculate it, but is simple.\n    }\n\n    address[] airlineAddresses;\n    mapping(address => Airline) airlines;\n    // easy way for m of n once we have more than 4\n    uint256 activeAirlinesCount;\n\n    struct Flight {\n        bytes32 flightKey;\n        //        bool isRegistered;\n        uint8 statusCode;\n        uint256 timestamp;\n        address airline;\n    }\n\n    mapping(bytes32 => Flight) private flightsByFlightKey;\n\n    struct OracleRegistration {\n        bool isRegistered;\n        uint8[3] indexes;\n    }\n\n    modifier requireIsOperational()     {\n        // used on all state changing functions\n        // Modify to call data contract's status\n        require(operational == true, \"Contract is currently not operational\");\n        _;\n        // All modifiers require an \"_\" which indicates where the function body will be added\n    }\n    modifier requireContractOwner()    {\n        require(msg.sender == contractOwner, \"Caller must be contract owner to make this call.\");\n        _;\n    }\n    modifier requireNominatedAirlineIsNotYetRegistered(address airlineAddress) {\n        require(!airlines[airlineAddress].isRegistered, \"Airline must not yet be REGISTERED.\");\n        _;\n    }\n    modifier requireAirlineIsFunded(address airlineAddress) {\n        require(airlines[airlineAddress].isFunded, \"Airline must be FUNDED to make this call.\");\n        _;\n    }\n    modifier requireAirlineIsRegistered(address airlineAddress) {\n        require(airlines[airlineAddress].isRegistered, \"Airline must be REGISTERED to make this call.\");\n        _;\n    }\n    // require an airline is active in order to vote on registering an airline\n    modifier requireNominatingAirlineIsActive(address airlineAddress) {\n        require(airlines[airlineAddress].isActive, \"Airline must be ACTIVE to make this call.\");\n        _;\n    }\n    modifier requireLessThanOneEther(uint256 value){\n        require(value <= 1 ether, \"Cannot insure for more than one ether.\");\n        _;\n    }\n\n    /********************************************************************************************/\n    /*                                     SMART CONTRACT FUNCTIONS                             */\n    /********************************************************************************************/\n\n    // implies Data Contract has already been deployed\n    constructor(address _contractOwner, address dataContractAddress, address firstAirlineAddress){\n        contractOwner = _contractOwner;\n        dataContract = FlightSuretyData(dataContractAddress);\n        _registerAirline(firstAirlineAddress);\n    }\n\n    function setOperatingStatus(uint256 mode) external\n//    requireContractOwner\n    {\n        if (mode > 0) {\n            operational = true;\n        } else {\n            operational = false;\n        }\n        dataContract.setOperatingStatus(operational);\n    }\n    function isOperational() public view\n    returns (bool)\n    {\n        return operational;\n    }\n    // a simple way to test the isOperational modifier\n    function isOperationalTest() public view\n    requireIsOperational\n    returns (bool)\n    {\n        return isOperational();\n    }\n    /**\n     * Assuming only one registration at a time\n     * @dev Add an airline to the registration queue\n    *      Can only be called from FlightSuretyApp contract\n    *      M of N Multi-party Consensus is required\n    *        - M is 1/2 of N\n\n    *       NOTE: Will only allowing one airline to be added at a time.\n            Otherwise, would need an M of N for each airline which was\n            being added in parallel. No requirement for that.\n    */\n\n    address[] mofnConsensusToRegisterAnAirline = new address[](0);\n\n    function registerAirline(address airlineAddress)\n    external\n    requireIsOperational\n    requireNominatingAirlineIsActive(msg.sender)\n    requireNominatedAirlineIsNotYetRegistered(airlineAddress)\n//    returns (bool success, uint256 votes) {\n    returns (bool) {\n        require(!airlines[msg.sender].isRegistered, \"Airline is already Registered.\");\n        // check if it is already registered\n\n\n        // no requirement to prevent an airline from voting twice,\n        //but will not do this in the test anyway\n        //        if (bAlreadyVoted == false) {\n\n        //        }\n\n        // only do M of N if N > 4\n        // M by the way is only to be greater than 50%\n        if (activeAirlinesCount < 4) {\n            _registerAirline(airlineAddress);\n        }\n        else {\n            mofnConsensusToRegisterAnAirline.push(msg.sender);\n\n            if (mofnConsensusToRegisterAnAirline.length >= activeAirlinesCount / 2) {\n                // ok, majority has been reached\n                mofnConsensusToRegisterAnAirline = new address[](0);\n\n                _registerAirline(airlineAddress);\n                return true;\n            }\n        }\n//        return (success, mofnConsensusToRegisterAnAirline.length);\n        return (false);\n\n    }\n\n    event RegisteredAirline(Airline airline);\n    event FundedAirline(address airlineAddress, uint256 amount);\n\n    function _registerAirline(address newAirlineAddress)\n    private\n        // this requireOperational modifier doesn't feel right as it is an internal call\n        // and should executed because the call has passed a previous modifier\n        // so out it goes\n        // requireIsOperational\n    returns (bool) {\n        Airline memory newAirline = Airline\n        ({airlineAddress : newAirlineAddress,\n        isActive : false,\n        isFunded : false,\n        isRegistered : true\n        });\n        airlines[newAirlineAddress] = newAirline;\n        airlineAddresses.push(newAirlineAddress);\n        emit RegisteredAirline(newAirline);\n\n        return (true);\n    }\n\n    function getRegisteredAirlines() external view returns (address[] memory){\n        return airlineAddresses;\n    }\n\n    function isAirlineRegistered(address _airline) external view\n    returns (bool) {\n        for (uint256 i = 0; i < airlineAddresses.length; i++) {\n            if (airlineAddresses[i] == _airline) {\n                return true;\n            }\n        }\n        return false;\n    }\n\n    function fund()\n    external\n    payable\n    requireIsOperational\n    requireAirlineIsRegistered(msg.sender)\n    {\n        require(msg.value == 10 ether);\n\n        airlines[msg.sender].isFunded;\n        if (airlines[msg.sender].isRegistered) {\n            airlines[msg.sender].isActive = true;\n            activeAirlinesCount++;\n        }\n\n        dataContract.fund{value : msg.value}(msg.sender);\n        emit FundedAirline(msg.sender, msg.value);\n    }\n\n    function pay(address airlineAddress, string memory flight, uint256 timestamp) external {\n        bytes32 flightKey = getFlightKey(airlineAddress, flight, timestamp);\n        dataContract.pay(airlineAddress, flightKey, payable(msg.sender));\n    }\n\n    function buyInsurance(address airlineAddress, string memory flight, uint256 timestamp)\n    external payable\n    requireLessThanOneEther(msg.value) {\n        bytes32 flightKey = getFlightKey(airlineAddress, flight, timestamp);\n        dataContract.buyInsurance(airlineAddress, flightKey);\n    }\n\n//    function getInsurancePoliciesForFlight(address airlineAddress, string memory flight, uint256 timestamp)\n//    public view returns (FlightSuretyData.InsurancePolicy[] calldata){\n//        bytes32 flightKey = getFlightKey(airlineAddress, flight, timestamp);\n//        return dataContract.getInsurancePoliciesByFlightKey(flightKey);\n//    }\n    function getCreditForInsured(address insuredAddress)\n    external view\n    requireIsOperational\n    returns (uint256){\n        return dataContract.getCreditForInsured(insuredAddress);\n    }\n\n    function getFlightKey(address airline, string memory flight, uint256 timestamp) pure internal returns (bytes32) {\n        return keccak256(abi.encodePacked(airline, flight, timestamp));\n    }\n\n    // what is the point of this?\n    // is it required that the airline is registered? Makes sense.\n    function registerFlight(address airlineAddress, string memory flightName, uint256 timestamp) external\n    requireIsOperational\n    requireAirlineIsRegistered(airlineAddress) {\n        // do we check to see if the flight has already been registered?\n        // not a requirement and also idempotent\n        bytes32 flightKey = getFlightKey(airlineAddress, flightName, timestamp);\n        Flight memory flight = Flight(\n        {flightKey : flightKey,\n        timestamp : timestamp,\n        airline : airlineAddress,\n        statusCode : STATUS_CODE_UNKNOWN});\n\n        flightsByFlightKey[flightKey] = flight;\n    }\n\n\n    ///////// ORACLE STUFF /////////////\n\n    // Track all registered oracles\n    mapping(address => OracleRegistration) private oracleRegistrationsByAddress;\n\n    // Model for responses from oracles\n    struct ResponseInfo {\n        address requester; // Account that requested status\n        bool isOpen;       // If open, oracle responses are accepted\n    }\n    // Track all oracle responses\n    // Key = hash(index, airline, flight, timestamp)\n    mapping(bytes32 => ResponseInfo) private responseInfoByKey;\n    mapping(bytes32 => mapping(uint8 => address[])) private responseInfoByKeyAndStatusCode;\n\n    // Event fired each time an oracle submits a response\n    event FlightStatusInfo(address airline, string flight, uint256 timestamp, uint8 status);\n    event OracleReport(address oracle, address airline, string flight, uint256 timestamp, uint8 status);\n\n    // Event fired when flight status request is submitted. Oracles track this and if they have a matching index. they fetch data and submit a response\n    event OracleRequest(uint8 index, address airline, string flight, uint256 timestamp);\n\n    // Triggered from the UI\n    function fetchFlightStatus(address airline, string memory flight, uint256 timestamp) external {\n        // Generate a request for oracles to fetch flight information\n        uint8 index = getRandomIndex(msg.sender);\n\n        // Generate a unique key for storing the request\n        bytes32 key = keccak256(abi.encodePacked(index, airline, flight, timestamp));\n        responseInfoByKey[key] = ResponseInfo({requester : msg.sender, isOpen : true});\n        emit OracleRequest(index, airline, flight, timestamp);\n    }\n    /**\n    * @dev Called after oracle has updated flight status\n    *\n    */\n    function processFlightStatus(address airline, string memory flight, uint256 timestamp, uint8 statusCode) internal  {\n        bytes32 flightKey = getFlightKey(airline, flight, timestamp);\n        // if status code is not 20, do nothing\n        if (statusCode == STATUS_CODE_UNKNOWN) {\n            return;\n        } else if (statusCode == STATUS_CODE_LATE_AIRLINE) {\n            // if status code is 20, then pay out all passengers who are insured for this flight\n            dataContract.creditInsureds(flightKey);\n        }\n        // no matter what, close down the policy for this flight\n        dataContract.closeInsurancePolicy(flightKey);\n    }\n\n    function submitOracleResponse(uint8 index, address airline, string memory flight, uint256 timestamp, uint8 statusCode) external {\n\n        bytes32 key = keccak256(abi.encodePacked(index, airline, flight, timestamp));\n        //        require(responseInfoByKey[key].isOpen, \"OracleRequest with index (\" + index + \"), airline (\" + airline + \"), flight (\" + flight + \") and timestamp (\" + timestamp + \") is not OPEN\");\n        require(responseInfoByKey[key].isOpen, \"OracleRequest is not OPEN\");\n        require((oracleRegistrationsByAddress[msg.sender].indexes[0] == index) ||\n        (oracleRegistrationsByAddress[msg.sender].indexes[1] == index) ||\n            (oracleRegistrationsByAddress[msg.sender].indexes[2] == index), \"Oracle has no matching Index for this OracleRequest\");\n\n        responseInfoByKeyAndStatusCode[key][statusCode].push(msg.sender);\n\n        // Information isn't considered verified until at least MIN_RESPONSES\n        // oracles respond with the *** same *** information\n        emit OracleReport(msg.sender, airline, flight, timestamp, statusCode);\n\n        if (responseInfoByKeyAndStatusCode[key][statusCode].length >= MIN_RESPONSES) {\n            // CODE EXERCISE 3: Prevent any more responses since MIN_RESPONSE threshold has been reached\n            /* Enter code here */\n            responseInfoByKey[key].isOpen = false;\n\n            emit FlightStatusInfo(airline, flight, timestamp, statusCode);\n\n            // Handle flight status as appropriate\n            processFlightStatus(airline, flight, timestamp, statusCode);\n        }\n    }\n\n    event    OracleRegistered(address sender);\n\n    function registerOracle() external payable {\n        // Require registration fee\n        require(msg.value >= REGISTRATION_FEE, \"Registration fee is required\");\n\n        uint8[3] memory indexes = generateIndexes(msg.sender);\n\n        oracleRegistrationsByAddress[msg.sender] = OracleRegistration({\n        isRegistered : true,\n        indexes : indexes\n        });\n        emit OracleRegistered(msg.sender);\n\n    }\n\n\n    function generateIndexes(address account) internal returns (uint8[3] memory) {\n        // Returns array of three non-duplicating integers from 0-9\n        uint8[3] memory indexes;\n        indexes[0] = getRandomIndex(account);\n\n        indexes[1] = indexes[0];\n        while (indexes[1] == indexes[0]) {\n            indexes[1] = getRandomIndex(account);\n        }\n\n        indexes[2] = indexes[1];\n        while ((indexes[2] == indexes[0]) || (indexes[2] == indexes[1])) {\n            indexes[2] = getRandomIndex(account);\n        }\n        return indexes;\n    }\n\n    function getMyIndexes() view external returns (uint8[3] memory) {\n        require(oracleRegistrationsByAddress[msg.sender].isRegistered, \"This Oracle is not REGISTERED\");\n        return oracleRegistrationsByAddress[msg.sender].indexes;\n    }\n\n    function getRandomIndex(address account) internal returns (uint8) {\n        uint8 maxValue = 10;\n        // Pseudo random number...the incrementing nonce adds variation\n        uint8 random = uint8(uint256(keccak256(abi.encodePacked(blockhash(block.number - nonce++), account))) % maxValue);\n        if (nonce > 250) {\n            nonce = 0;\n            // Can only fetch blockhashes for last 256 blocks so we adapt\n        }\n        return random;\n    }\n\n\n}\n",
  "sourcePath": "/Users/thomaswhitehill/IdeaProjects/BlockchainProjects/FlightSuretyProjects/FlightSurety/contracts/FlightSuretyApp.sol",
  "compiler": {
    "name": "solc",
    "version": "0.8.14+commit.80d49f37.Emscripten.clang"
  },
  "schemaVersion": "3.4.4",
  "updatedAt": "2022-06-04T11:33:05.779Z",
  "networkType": "ethereum",
  "devdoc": {
    "kind": "dev",
    "methods": {},
    "stateVariables": {
      "mofnConsensusToRegisterAnAirline": {
        "details": "Add an airline to the registration queue      Can only be called from FlightSuretyApp contract      M of N Multi-party Consensus is required        - M is 1/2 of N       NOTE: Will only allowing one airline to be added at a time. Otherwise, would need an M of N for each airline which was being added in parallel. No requirement for that."
      }
    },
    "version": 1
  },
  "userdoc": {
    "kind": "user",
    "methods": {},
    "version": 1
  }
}