{
  "contractName": "FlightSuretyApp",
  "abi": [
    {
      "inputs": [
        {
          "internalType": "address",
          "name": "_contractOwner",
          "type": "address"
        },
        {
          "internalType": "address",
          "name": "dataContractAddress",
          "type": "address"
        },
        {
          "internalType": "address",
          "name": "firstAirlineAddress",
          "type": "address"
        }
      ],
      "stateMutability": "nonpayable",
      "type": "constructor"
    },
    {
      "anonymous": false,
      "inputs": [
        {
          "indexed": false,
          "internalType": "address",
          "name": "airline",
          "type": "address"
        },
        {
          "indexed": false,
          "internalType": "string",
          "name": "flight",
          "type": "string"
        },
        {
          "indexed": false,
          "internalType": "uint256",
          "name": "timestamp",
          "type": "uint256"
        },
        {
          "indexed": false,
          "internalType": "uint8",
          "name": "status",
          "type": "uint8"
        }
      ],
      "name": "FlightStatusInfo",
      "type": "event"
    },
    {
      "anonymous": false,
      "inputs": [
        {
          "indexed": false,
          "internalType": "address",
          "name": "airlineAddress",
          "type": "address"
        },
        {
          "indexed": false,
          "internalType": "uint256",
          "name": "amount",
          "type": "uint256"
        }
      ],
      "name": "FundedAirline",
      "type": "event"
    },
    {
      "anonymous": false,
      "inputs": [
        {
          "indexed": false,
          "internalType": "address",
          "name": "sender",
          "type": "address"
        }
      ],
      "name": "OracleRegistered",
      "type": "event"
    },
    {
      "anonymous": false,
      "inputs": [
        {
          "indexed": false,
          "internalType": "address",
          "name": "oracle",
          "type": "address"
        },
        {
          "indexed": false,
          "internalType": "address",
          "name": "airline",
          "type": "address"
        },
        {
          "indexed": false,
          "internalType": "string",
          "name": "flight",
          "type": "string"
        },
        {
          "indexed": false,
          "internalType": "uint256",
          "name": "timestamp",
          "type": "uint256"
        },
        {
          "indexed": false,
          "internalType": "uint8",
          "name": "status",
          "type": "uint8"
        }
      ],
      "name": "OracleReport",
      "type": "event"
    },
    {
      "anonymous": false,
      "inputs": [
        {
          "indexed": false,
          "internalType": "uint8",
          "name": "index",
          "type": "uint8"
        },
        {
          "indexed": false,
          "internalType": "address",
          "name": "airline",
          "type": "address"
        },
        {
          "indexed": false,
          "internalType": "string",
          "name": "flight",
          "type": "string"
        },
        {
          "indexed": false,
          "internalType": "uint256",
          "name": "timestamp",
          "type": "uint256"
        }
      ],
      "name": "OracleRequest",
      "type": "event"
    },
    {
      "anonymous": false,
      "inputs": [
        {
          "components": [
            {
              "internalType": "address",
              "name": "airlineAddress",
              "type": "address"
            },
            {
              "internalType": "bool",
              "name": "isRegistered",
              "type": "bool"
            },
            {
              "internalType": "bool",
              "name": "isFunded",
              "type": "bool"
            },
            {
              "internalType": "bool",
              "name": "isActive",
              "type": "bool"
            }
          ],
          "indexed": false,
          "internalType": "struct FlightSuretyApp.Airline",
          "name": "airline",
          "type": "tuple"
        }
      ],
      "name": "RegisteredAirline",
      "type": "event"
    },
    {
      "inputs": [],
      "name": "REGISTRATION_FEE",
      "outputs": [
        {
          "internalType": "uint256",
          "name": "",
          "type": "uint256"
        }
      ],
      "stateMutability": "view",
      "type": "function",
      "constant": true
    },
    {
      "inputs": [
        {
          "internalType": "uint256",
          "name": "mode",
          "type": "uint256"
        }
      ],
      "name": "setOperatingStatus",
      "outputs": [],
      "stateMutability": "nonpayable",
      "type": "function"
    },
    {
      "inputs": [],
      "name": "isOperational",
      "outputs": [
        {
          "internalType": "bool",
          "name": "",
          "type": "bool"
        }
      ],
      "stateMutability": "view",
      "type": "function",
      "constant": true
    },
    {
      "inputs": [],
      "name": "isOperationalTest",
      "outputs": [
        {
          "internalType": "bool",
          "name": "",
          "type": "bool"
        }
      ],
      "stateMutability": "view",
      "type": "function",
      "constant": true
    },
    {
      "inputs": [
        {
          "internalType": "address",
          "name": "airlineAddress",
          "type": "address"
        }
      ],
      "name": "registerAirline",
      "outputs": [
        {
          "internalType": "bool",
          "name": "",
          "type": "bool"
        }
      ],
      "stateMutability": "nonpayable",
      "type": "function"
    },
    {
      "inputs": [],
      "name": "getRegisteredAirlines",
      "outputs": [
        {
          "internalType": "address[]",
          "name": "",
          "type": "address[]"
        }
      ],
      "stateMutability": "view",
      "type": "function",
      "constant": true
    },
    {
      "inputs": [
        {
          "internalType": "address",
          "name": "_airline",
          "type": "address"
        }
      ],
      "name": "isAirlineRegistered",
      "outputs": [
        {
          "internalType": "bool",
          "name": "",
          "type": "bool"
        }
      ],
      "stateMutability": "view",
      "type": "function",
      "constant": true
    },
    {
      "inputs": [
        {
          "internalType": "uint256",
          "name": "value",
          "type": "uint256"
        }
      ],
      "name": "fundAirline",
      "outputs": [],
      "stateMutability": "payable",
      "type": "function",
      "payable": true
    },
    {
      "inputs": [
        {
          "internalType": "address",
          "name": "airline",
          "type": "address"
        }
      ],
      "name": "isAirlineFunded",
      "outputs": [
        {
          "internalType": "bool",
          "name": "",
          "type": "bool"
        }
      ],
      "stateMutability": "view",
      "type": "function",
      "constant": true
    },
    {
      "inputs": [
        {
          "internalType": "address",
          "name": "airlineAddress",
          "type": "address"
        },
        {
          "internalType": "string",
          "name": "flight",
          "type": "string"
        },
        {
          "internalType": "uint256",
          "name": "timestamp",
          "type": "uint256"
        }
      ],
      "name": "pay",
      "outputs": [],
      "stateMutability": "nonpayable",
      "type": "function"
    },
    {
      "inputs": [
        {
          "internalType": "address",
          "name": "airlineAddress",
          "type": "address"
        },
        {
          "internalType": "string",
          "name": "flight",
          "type": "string"
        },
        {
          "internalType": "uint256",
          "name": "timestamp",
          "type": "uint256"
        }
      ],
      "name": "buyInsurance",
      "outputs": [],
      "stateMutability": "payable",
      "type": "function",
      "payable": true
    },
    {
      "inputs": [
        {
          "internalType": "address",
          "name": "insuredAddress",
          "type": "address"
        }
      ],
      "name": "getCreditForInsured",
      "outputs": [
        {
          "internalType": "uint256",
          "name": "",
          "type": "uint256"
        }
      ],
      "stateMutability": "view",
      "type": "function",
      "constant": true
    },
    {
      "inputs": [
        {
          "internalType": "address",
          "name": "airlineAddress",
          "type": "address"
        },
        {
          "internalType": "string",
          "name": "flightName",
          "type": "string"
        },
        {
          "internalType": "uint256",
          "name": "timestamp",
          "type": "uint256"
        }
      ],
      "name": "registerFlight",
      "outputs": [],
      "stateMutability": "nonpayable",
      "type": "function"
    },
    {
      "inputs": [
        {
          "internalType": "address",
          "name": "airline",
          "type": "address"
        },
        {
          "internalType": "string",
          "name": "flight",
          "type": "string"
        },
        {
          "internalType": "uint256",
          "name": "timestamp",
          "type": "uint256"
        }
      ],
      "name": "fetchFlightStatus",
      "outputs": [],
      "stateMutability": "nonpayable",
      "type": "function"
    },
    {
      "inputs": [
        {
          "internalType": "uint8",
          "name": "index",
          "type": "uint8"
        },
        {
          "internalType": "address",
          "name": "airline",
          "type": "address"
        },
        {
          "internalType": "string",
          "name": "flight",
          "type": "string"
        },
        {
          "internalType": "uint256",
          "name": "timestamp",
          "type": "uint256"
        },
        {
          "internalType": "uint8",
          "name": "statusCode",
          "type": "uint8"
        }
      ],
      "name": "submitOracleResponse",
      "outputs": [],
      "stateMutability": "nonpayable",
      "type": "function"
    },
    {
      "inputs": [],
      "name": "registerOracle",
      "outputs": [],
      "stateMutability": "payable",
      "type": "function",
      "payable": true
    },
    {
      "inputs": [],
      "name": "getMyIndexes",
      "outputs": [
        {
          "internalType": "uint8[3]",
          "name": "",
          "type": "uint8[3]"
        }
      ],
      "stateMutability": "view",
      "type": "function",
      "constant": true
    }
  ],
  "bytecode": "0x608060405260018060146101000a81548160ff0219169083151502179055506005600160156101000a81548160ff021916908360ff160217905550600067ffffffffffffffff811115620000585762000057620003f2565b5b604051908082528060200260200182016040528015620000875781602001602082028036833780820191505090505b50600690805190602001906200009f92919062000344565b50348015620000ad57600080fd5b50604051620034d9380380620034d98339818101604052810190620000d391906200048b565b826000806101000a81548173ffffffffffffffffffffffffffffffffffffffff021916908373ffffffffffffffffffffffffffffffffffffffff16021790555081600160006101000a81548173ffffffffffffffffffffffffffffffffffffffff021916908373ffffffffffffffffffffffffffffffffffffffff16021790555062000165816200016f60201b60201c565b505050506200058f565b60008060405180608001604052808473ffffffffffffffffffffffffffffffffffffffff16815260200160011515815260200160001515815260200160001515815250905080600360008573ffffffffffffffffffffffffffffffffffffffff1673ffffffffffffffffffffffffffffffffffffffff16815260200190815260200160002060008201518160000160006101000a81548173ffffffffffffffffffffffffffffffffffffffff021916908373ffffffffffffffffffffffffffffffffffffffff16021790555060208201518160000160146101000a81548160ff02191690831515021790555060408201518160000160156101000a81548160ff02191690831515021790555060608201518160000160166101000a81548160ff0219169083151502179055509050506002839080600181540180825580915050600190039060005260206000200160009091909190916101000a81548173ffffffffffffffffffffffffffffffffffffffff021916908373ffffffffffffffffffffffffffffffffffffffff1602179055507ff674fc37aef3b3d1f2edee9f9ded3c8a455aac9170016d0f197775a920f9cd328160405162000332919062000572565b60405180910390a16001915050919050565b828054828255906000526020600020908101928215620003c0579160200282015b82811115620003bf5782518260006101000a81548173ffffffffffffffffffffffffffffffffffffffff021916908373ffffffffffffffffffffffffffffffffffffffff1602179055509160200191906001019062000365565b5b509050620003cf9190620003d3565b5090565b5b80821115620003ee576000816000905550600101620003d4565b5090565b7f4e487b7100000000000000000000000000000000000000000000000000000000600052604160045260246000fd5b600080fd5b600073ffffffffffffffffffffffffffffffffffffffff82169050919050565b6000620004538262000426565b9050919050565b620004658162000446565b81146200047157600080fd5b50565b60008151905062000485816200045a565b92915050565b600080600060608486031215620004a757620004a662000421565b5b6000620004b78682870162000474565b9350506020620004ca8682870162000474565b9250506040620004dd8682870162000474565b9150509250925092565b620004f28162000446565b82525050565b60008115159050919050565b6200050f81620004f8565b82525050565b6080820160008201516200052d6000850182620004e7565b50602082015162000542602085018262000504565b50604082015162000557604085018262000504565b5060608201516200056c606085018262000504565b50505050565b600060808201905062000589600083018462000515565b92915050565b612f3a806200059f6000396000f3fe6080604052600436106100fe5760003560e01c80637ae64f9b11610095578063c23bcf0911610064578063c23bcf09146102f8578063c962d4a214610323578063cd905dff1461034c578063f53b6d6514610377578063f83f11c0146103b4576100fe565b80637ae64f9b1461023957806384e7bb2d14610255578063bdfd987714610292578063c10f2700146102cf576100fe565b80633dd19e6a116100d15780633dd19e6a1461018f5780635741e092146101b85780635f1cc0e6146101e357806364b4f7511461020e576100fe565b8063010c5c97146101035780632f6721d014610140578063339d25901461015c5780633cc0be9c14610166575b600080fd5b34801561010f57600080fd5b5061012a60048036038101906101259190611f3a565b6103dd565b6040516101379190611f82565b60405180910390f35b61015a60048036038101906101559190612119565b61048b565b005b61016461057c565b005b34801561017257600080fd5b5061018d60048036038101906101889190612119565b6106a0565b005b34801561019b57600080fd5b506101b660048036038101906101b19190612188565b61086f565b005b3480156101c457600080fd5b506101cd610952565b6040516101da9190611f82565b60405180910390f35b3480156101ef57600080fd5b506101f86109b7565b604051610205919061226d565b60405180910390f35b34801561021a57600080fd5b50610223610af7565b6040516102309190612297565b60405180910390f35b610253600480360381019061024e9190612188565b610b03565b005b34801561026157600080fd5b5061027c60048036038101906102779190611f3a565b610d0f565b6040516102899190612297565b60405180910390f35b34801561029e57600080fd5b506102b960048036038101906102b49190611f3a565b610e0a565b6040516102c69190611f82565b60405180910390f35b3480156102db57600080fd5b506102f660048036038101906102f191906122de565b6110cb565b005b34801561030457600080fd5b5061030d611485565b60405161031a9190612433565b60405180910390f35b34801561032f57600080fd5b5061034a60048036038101906103459190612119565b611513565b005b34801561035857600080fd5b506103616115b9565b60405161036e9190611f82565b60405180910390f35b34801561038357600080fd5b5061039e60048036038101906103999190611f3a565b6115d0565b6040516103ab9190611f82565b60405180910390f35b3480156103c057600080fd5b506103db60048036038101906103d69190612119565b611629565b005b600080600090505b600280549050811015610480578273ffffffffffffffffffffffffffffffffffffffff166002828154811061041d5761041c612455565b5b9060005260206000200160009054906101000a900473ffffffffffffffffffffffffffffffffffffffff1673ffffffffffffffffffffffffffffffffffffffff160361046d576001915050610486565b8080610478906124b3565b9150506103e5565b50600090505b919050565b34670de0b6b3a76400008111156104d7576040517f08c379a00000000000000000000000000000000000000000000000000000000081526004016104ce9061257e565b60405180910390fd5b60006104e4858585611756565b9050600160009054906101000a900473ffffffffffffffffffffffffffffffffffffffff1673ffffffffffffffffffffffffffffffffffffffff1663adf8ae7a86836040518363ffffffff1660e01b81526004016105439291906125c6565b600060405180830381600087803b15801561055d57600080fd5b505af1158015610571573d6000803e3d6000fd5b505050505050505050565b670de0b6b3a76400003410156105c7576040517f08c379a00000000000000000000000000000000000000000000000000000000081526004016105be9061263b565b60405180910390fd5b60006105d23361178c565b9050604051806040016040528060011515815260200182815250600760003373ffffffffffffffffffffffffffffffffffffffff1673ffffffffffffffffffffffffffffffffffffffff16815260200190815260200160002060008201518160000160006101000a81548160ff021916908315150217905550602082015181600101906003610662929190611d65565b509050507fd9d9fdcc9f936c76b5aafe54fc3db5dcec0c6583c9ccc4abe91d17575c5145a533604051610695919061265b565b60405180910390a150565b60011515600160149054906101000a900460ff161515146106f6576040517f08c379a00000000000000000000000000000000000000000000000000000000081526004016106ed906126e8565b60405180910390fd5b82600360008273ffffffffffffffffffffffffffffffffffffffff1673ffffffffffffffffffffffffffffffffffffffff16815260200190815260200160002060000160149054906101000a900460ff16610786576040517f08c379a000000000000000000000000000000000000000000000000000000000815260040161077d9061277a565b60405180910390fd5b6000610793858585611756565b905060006040518060800160405280838152602001600060ff1681526020018581526020018773ffffffffffffffffffffffffffffffffffffffff16815250905080600560008481526020019081526020016000206000820151816000015560208201518160010160006101000a81548160ff021916908360ff1602179055506040820151816002015560608201518160030160006101000a81548173ffffffffffffffffffffffffffffffffffffffff021916908373ffffffffffffffffffffffffffffffffffffffff160217905550905050505050505050565b60008111156108975760018060146101000a81548160ff0219169083151502179055506108b3565b6000600160146101000a81548160ff0219169083151502179055505b600160009054906101000a900473ffffffffffffffffffffffffffffffffffffffff1673ffffffffffffffffffffffffffffffffffffffff1663110466ed600160149054906101000a900460ff166040518263ffffffff1660e01b815260040161091d9190611f82565b600060405180830381600087803b15801561093757600080fd5b505af115801561094b573d6000803e3d6000fd5b5050505050565b600060011515600160149054906101000a900460ff161515146109aa576040517f08c379a00000000000000000000000000000000000000000000000000000000081526004016109a1906126e8565b60405180910390fd5b6109b26115b9565b905090565b6109bf611dff565b600760003373ffffffffffffffffffffffffffffffffffffffff1673ffffffffffffffffffffffffffffffffffffffff16815260200190815260200160002060000160009054906101000a900460ff16610a4e576040517f08c379a0000000000000000000000000000000000000000000000000000000008152600401610a45906127e6565b60405180910390fd5b600760003373ffffffffffffffffffffffffffffffffffffffff1673ffffffffffffffffffffffffffffffffffffffff168152602001908152602001600020600101600380602002604051908101604052809291908260038015610aed576020028201916000905b82829054906101000a900460ff1660ff1681526020019060010190602082600001049283019260010382029150808411610ab65790505b5050505050905090565b670de0b6b3a764000081565b60011515600160149054906101000a900460ff16151514610b59576040517f08c379a0000000000000000000000000000000000000000000000000000000008152600401610b50906126e8565b60405180910390fd5b600160009054906101000a900473ffffffffffffffffffffffffffffffffffffffff1673ffffffffffffffffffffffffffffffffffffffff16637b1837de33836040518363ffffffff1660e01b8152600401610bb6929190612806565b600060405180830381600087803b158015610bd057600080fd5b505af1158015610be4573d6000803e3d6000fd5b50505050600360003373ffffffffffffffffffffffffffffffffffffffff1673ffffffffffffffffffffffffffffffffffffffff16815260200190815260200160002060000160149054906101000a900460ff1615610d0c576001600360003373ffffffffffffffffffffffffffffffffffffffff1673ffffffffffffffffffffffffffffffffffffffff16815260200190815260200160002060000160166101000a81548160ff0219169083151502179055506001600360003373ffffffffffffffffffffffffffffffffffffffff1673ffffffffffffffffffffffffffffffffffffffff16815260200190815260200160002060000160156101000a81548160ff02191690831515021790555060046000815480929190610d06906124b3565b91905055505b50565b600060011515600160149054906101000a900460ff16151514610d67576040517f08c379a0000000000000000000000000000000000000000000000000000000008152600401610d5e906126e8565b60405180910390fd5b600160009054906101000a900473ffffffffffffffffffffffffffffffffffffffff1673ffffffffffffffffffffffffffffffffffffffff166384e7bb2d836040518263ffffffff1660e01b8152600401610dc2919061265b565b602060405180830381865afa158015610ddf573d6000803e3d6000fd5b505050506040513d601f19601f82011682018060405250810190610e039190612844565b9050919050565b600060011515600160149054906101000a900460ff16151514610e62576040517f08c379a0000000000000000000000000000000000000000000000000000000008152600401610e59906126e8565b60405180910390fd5b33600360008273ffffffffffffffffffffffffffffffffffffffff1673ffffffffffffffffffffffffffffffffffffffff16815260200190815260200160002060000160169054906101000a900460ff16610ef2576040517f08c379a0000000000000000000000000000000000000000000000000000000008152600401610ee9906128e3565b60405180910390fd5b60011515600360003373ffffffffffffffffffffffffffffffffffffffff1673ffffffffffffffffffffffffffffffffffffffff16815260200190815260200160002060000160169054906101000a900460ff16151514610f5657600091506110c5565b60011515600360003373ffffffffffffffffffffffffffffffffffffffff1673ffffffffffffffffffffffffffffffffffffffff16815260200190815260200160002060000160149054906101000a900460ff16151514610fba57600091506110c5565b6000600480541015610fd657610fcf84611972565b90506110c0565b6006339080600181540180825580915050600190039060005260206000200160009091909190916101000a81548173ffffffffffffffffffffffffffffffffffffffff021916908373ffffffffffffffffffffffffffffffffffffffff16021790555060026004546110489190612932565b600680549050106110bf57600067ffffffffffffffff81111561106e5761106d611fb8565b5b60405190808252806020026020018201604052801561109c5781602001602082028036833780820191505090505b50600690805190602001906110b2929190611e21565b506110bc84611972565b90505b5b809250505b50919050565b6000858585856040516020016110e49493929190612a7c565b6040516020818303038152906040528051906020012090506008600082815260200190815260200160002060000160149054906101000a900460ff1661115f576040517f08c379a000000000000000000000000000000000000000000000000000000000815260040161115690612b12565b60405180910390fd5b8560ff16600760003373ffffffffffffffffffffffffffffffffffffffff1673ffffffffffffffffffffffffffffffffffffffff1681526020019081526020016000206001016000600381106111b8576111b7612455565b5b602091828204019190069054906101000a900460ff1660ff16148061124c57508560ff16600760003373ffffffffffffffffffffffffffffffffffffffff1673ffffffffffffffffffffffffffffffffffffffff16815260200190815260200160002060010160016003811061123157611230612455565b5b602091828204019190069054906101000a900460ff1660ff16145b806112c657508560ff16600760003373ffffffffffffffffffffffffffffffffffffffff1673ffffffffffffffffffffffffffffffffffffffff1681526020019081526020016000206001016002600381106112ab576112aa612455565b5b602091828204019190069054906101000a900460ff1660ff16145b611305576040517f08c379a00000000000000000000000000000000000000000000000000000000081526004016112fc90612ba4565b60405180910390fd5b6009600082815260200190815260200160002060008360ff1660ff168152602001908152602001600020339080600181540180825580915050600190039060005260206000200160009091909190916101000a81548173ffffffffffffffffffffffffffffffffffffffff021916908373ffffffffffffffffffffffffffffffffffffffff1602179055507f257dccc1fd472d66cce2826f12a70912f497d3505f06930e7c6f050afece003433868686866040516113c7959493929190612c0c565b60405180910390a160026009600083815260200190815260200160002060008460ff1660ff168152602001908152602001600020805490501061147d5760006008600083815260200190815260200160002060000160146101000a81548160ff0219169083151502179055507fe23f5229de535c091e3b7bec2665f5d698192d3b31393066e8987b7a05076b6c858585856040516114689493929190612c66565b60405180910390a161147c85858585611b45565b5b505050505050565b6060600280548060200260200160405190810160405280929190818152602001828054801561150957602002820191906000526020600020905b8160009054906101000a900473ffffffffffffffffffffffffffffffffffffffff1673ffffffffffffffffffffffffffffffffffffffff16815260200190600101908083116114bf575b5050505050905090565b6000611520848484611756565b9050600160009054906101000a900473ffffffffffffffffffffffffffffffffffffffff1673ffffffffffffffffffffffffffffffffffffffff1663df7a7e2d8583336040518463ffffffff1660e01b815260040161158193929190612cd3565b600060405180830381600087803b15801561159b57600080fd5b505af11580156115af573d6000803e3d6000fd5b5050505050505050565b6000600160149054906101000a900460ff16905090565b6000600360008373ffffffffffffffffffffffffffffffffffffffff1673ffffffffffffffffffffffffffffffffffffffff16815260200190815260200160002060000160159054906101000a900460ff169050919050565b600061163433611c99565b905060008185858560405160200161164f9493929190612a7c565b60405160208183030381529060405280519060200120905060405180604001604052803373ffffffffffffffffffffffffffffffffffffffff168152602001600115158152506008600083815260200190815260200160002060008201518160000160006101000a81548173ffffffffffffffffffffffffffffffffffffffff021916908373ffffffffffffffffffffffffffffffffffffffff16021790555060208201518160000160146101000a81548160ff0219169083151502179055509050507f3ed01f2c3fc24c6b329d931e35b03e390d23497d22b3f90e15b600343e93df11828686866040516117479493929190612d0a565b60405180910390a15050505050565b600083838360405160200161176d93929190612d56565b6040516020818303038152906040528051906020012090509392505050565b611794611dff565b61179c611dff565b6117a583611c99565b816000600381106117b9576117b8612455565b5b602002019060ff16908160ff1681525050806000600381106117de576117dd612455565b5b6020020151816001600381106117f7576117f6612455565b5b602002019060ff16908160ff16815250505b8060006003811061181d5761181c612455565b5b602002015160ff168160016003811061183957611838612455565b5b602002015160ff16036118795761184f83611c99565b8160016003811061186357611862612455565b5b602002019060ff16908160ff1681525050611809565b8060016003811061188d5761188c612455565b5b6020020151816002600381106118a6576118a5612455565b5b602002019060ff16908160ff16815250505b806000600381106118cc576118cb612455565b5b602002015160ff16816002600381106118e8576118e7612455565b5b602002015160ff16148061193157508060016003811061190b5761190a612455565b5b602002015160ff168160026003811061192757611926612455565b5b602002015160ff16145b156119695761193f83611c99565b8160026003811061195357611952612455565b5b602002019060ff16908160ff16815250506118b8565b80915050919050565b60008060405180608001604052808473ffffffffffffffffffffffffffffffffffffffff16815260200160011515815260200160001515815260200160001515815250905080600360008573ffffffffffffffffffffffffffffffffffffffff1673ffffffffffffffffffffffffffffffffffffffff16815260200190815260200160002060008201518160000160006101000a81548173ffffffffffffffffffffffffffffffffffffffff021916908373ffffffffffffffffffffffffffffffffffffffff16021790555060208201518160000160146101000a81548160ff02191690831515021790555060408201518160000160156101000a81548160ff02191690831515021790555060608201518160000160166101000a81548160ff0219169083151502179055509050506002839080600181540180825580915050600190039060005260206000200160009091909190916101000a81548173ffffffffffffffffffffffffffffffffffffffff021916908373ffffffffffffffffffffffffffffffffffffffff1602179055507ff674fc37aef3b3d1f2edee9f9ded3c8a455aac9170016d0f197775a920f9cd3281604051611b339190612df3565b60405180910390a16001915050919050565b6000611b52858585611756565b9050600060ff168260ff1603611b685750611c93565b601460ff168260ff1603611c0457600160009054906101000a900473ffffffffffffffffffffffffffffffffffffffff1673ffffffffffffffffffffffffffffffffffffffff1663d157ba27826040518263ffffffff1660e01b8152600401611bd19190612e0e565b600060405180830381600087803b158015611beb57600080fd5b505af1158015611bff573d6000803e3d6000fd5b505050505b600160009054906101000a900473ffffffffffffffffffffffffffffffffffffffff1673ffffffffffffffffffffffffffffffffffffffff1663be6547ae826040518263ffffffff1660e01b8152600401611c5f9190612e0e565b600060405180830381600087803b158015611c7957600080fd5b505af1158015611c8d573d6000803e3d6000fd5b50505050505b50505050565b600080600a905060008160ff166001601581819054906101000a900460ff1680929190611cc590612e29565b91906101000a81548160ff021916908360ff16021790555060ff1643611ceb9190612e52565b4085604051602001611cfe929190612ea7565b6040516020818303038152906040528051906020012060001c611d219190612ed3565b905060fa600160159054906101000a900460ff1660ff161115611d5b576000600160156101000a81548160ff021916908360ff1602179055505b8092505050919050565b826003601f01602090048101928215611dee5791602002820160005b83821115611dbf57835183826101000a81548160ff021916908360ff1602179055509260200192600101602081600001049283019260010302611d81565b8015611dec5782816101000a81549060ff0219169055600101602081600001049283019260010302611dbf565b505b509050611dfb9190611eab565b5090565b6040518060600160405280600390602082028036833780820191505090505090565b828054828255906000526020600020908101928215611e9a579160200282015b82811115611e995782518260006101000a81548173ffffffffffffffffffffffffffffffffffffffff021916908373ffffffffffffffffffffffffffffffffffffffff16021790555091602001919060010190611e41565b5b509050611ea79190611eab565b5090565b5b80821115611ec4576000816000905550600101611eac565b5090565b6000604051905090565b600080fd5b600080fd5b600073ffffffffffffffffffffffffffffffffffffffff82169050919050565b6000611f0782611edc565b9050919050565b611f1781611efc565b8114611f2257600080fd5b50565b600081359050611f3481611f0e565b92915050565b600060208284031215611f5057611f4f611ed2565b5b6000611f5e84828501611f25565b91505092915050565b60008115159050919050565b611f7c81611f67565b82525050565b6000602082019050611f976000830184611f73565b92915050565b600080fd5b600080fd5b6000601f19601f8301169050919050565b7f4e487b7100000000000000000000000000000000000000000000000000000000600052604160045260246000fd5b611ff082611fa7565b810181811067ffffffffffffffff8211171561200f5761200e611fb8565b5b80604052505050565b6000612022611ec8565b905061202e8282611fe7565b919050565b600067ffffffffffffffff82111561204e5761204d611fb8565b5b61205782611fa7565b9050602081019050919050565b82818337600083830152505050565b600061208661208184612033565b612018565b9050828152602081018484840111156120a2576120a1611fa2565b5b6120ad848285612064565b509392505050565b600082601f8301126120ca576120c9611f9d565b5b81356120da848260208601612073565b91505092915050565b6000819050919050565b6120f6816120e3565b811461210157600080fd5b50565b600081359050612113816120ed565b92915050565b60008060006060848603121561213257612131611ed2565b5b600061214086828701611f25565b935050602084013567ffffffffffffffff81111561216157612160611ed7565b5b61216d868287016120b5565b925050604061217e86828701612104565b9150509250925092565b60006020828403121561219e5761219d611ed2565b5b60006121ac84828501612104565b91505092915050565b600060039050919050565b600081905092915050565b6000819050919050565b600060ff82169050919050565b6121eb816121d5565b82525050565b60006121fd83836121e2565b60208301905092915050565b6000602082019050919050565b61221f816121b5565b61222981846121c0565b9250612234826121cb565b8060005b8381101561226557815161224c87826121f1565b965061225783612209565b925050600181019050612238565b505050505050565b60006060820190506122826000830184612216565b92915050565b612291816120e3565b82525050565b60006020820190506122ac6000830184612288565b92915050565b6122bb816121d5565b81146122c657600080fd5b50565b6000813590506122d8816122b2565b92915050565b600080600080600060a086880312156122fa576122f9611ed2565b5b6000612308888289016122c9565b955050602061231988828901611f25565b945050604086013567ffffffffffffffff81111561233a57612339611ed7565b5b612346888289016120b5565b935050606061235788828901612104565b9250506080612368888289016122c9565b9150509295509295909350565b600081519050919050565b600082825260208201905092915050565b6000819050602082019050919050565b6123aa81611efc565b82525050565b60006123bc83836123a1565b60208301905092915050565b6000602082019050919050565b60006123e082612375565b6123ea8185612380565b93506123f583612391565b8060005b8381101561242657815161240d88826123b0565b9750612418836123c8565b9250506001810190506123f9565b5085935050505092915050565b6000602082019050818103600083015261244d81846123d5565b905092915050565b7f4e487b7100000000000000000000000000000000000000000000000000000000600052603260045260246000fd5b7f4e487b7100000000000000000000000000000000000000000000000000000000600052601160045260246000fd5b60006124be826120e3565b91507fffffffffffffffffffffffffffffffffffffffffffffffffffffffffffffffff82036124f0576124ef612484565b5b600182019050919050565b600082825260208201905092915050565b7f43616e6e6f7420696e7375726520666f72206d6f7265207468616e206f6e652060008201527f65746865722e0000000000000000000000000000000000000000000000000000602082015250565b60006125686026836124fb565b91506125738261250c565b604082019050919050565b600060208201905081810360008301526125978161255b565b9050919050565b6125a781611efc565b82525050565b6000819050919050565b6125c0816125ad565b82525050565b60006040820190506125db600083018561259e565b6125e860208301846125b7565b9392505050565b7f526567697374726174696f6e2066656520697320726571756972656400000000600082015250565b6000612625601c836124fb565b9150612630826125ef565b602082019050919050565b6000602082019050818103600083015261265481612618565b9050919050565b6000602082019050612670600083018461259e565b92915050565b7f436f6e74726163742069732063757272656e746c79206e6f74206f706572617460008201527f696f6e616c000000000000000000000000000000000000000000000000000000602082015250565b60006126d26025836124fb565b91506126dd82612676565b604082019050919050565b60006020820190508181036000830152612701816126c5565b9050919050565b7f4169726c696e65206d757374206265205245474953544552454420746f20524560008201527f474953544552206120464c494748542e00000000000000000000000000000000602082015250565b60006127646030836124fb565b915061276f82612708565b604082019050919050565b6000602082019050818103600083015261279381612757565b9050919050565b7f54686973204f7261636c65206973206e6f742052454749535445524544000000600082015250565b60006127d0601d836124fb565b91506127db8261279a565b602082019050919050565b600060208201905081810360008301526127ff816127c3565b9050919050565b600060408201905061281b600083018561259e565b6128286020830184612288565b9392505050565b60008151905061283e816120ed565b92915050565b60006020828403121561285a57612859611ed2565b5b60006128688482850161282f565b91505092915050565b7f4169726c696e65206d7573742062652041435449564520746f206d616b65207460008201527f6869732063616c6c2e0000000000000000000000000000000000000000000000602082015250565b60006128cd6029836124fb565b91506128d882612871565b604082019050919050565b600060208201905081810360008301526128fc816128c0565b9050919050565b7f4e487b7100000000000000000000000000000000000000000000000000000000600052601260045260246000fd5b600061293d826120e3565b9150612948836120e3565b92508261295857612957612903565b5b828204905092915050565b60008160f81b9050919050565b600061297b82612963565b9050919050565b61299361298e826121d5565b612970565b82525050565b60008160601b9050919050565b60006129b182612999565b9050919050565b60006129c3826129a6565b9050919050565b6129db6129d682611efc565b6129b8565b82525050565b600081519050919050565b600081905092915050565b60005b83811015612a155780820151818401526020810190506129fa565b83811115612a24576000848401525b50505050565b6000612a35826129e1565b612a3f81856129ec565b9350612a4f8185602086016129f7565b80840191505092915050565b6000819050919050565b612a76612a71826120e3565b612a5b565b82525050565b6000612a888287612982565b600182019150612a9882866129ca565b601482019150612aa88285612a2a565b9150612ab48284612a65565b60208201915081905095945050505050565b7f4f7261636c6552657175657374206973206e6f74204f50454e00000000000000600082015250565b6000612afc6019836124fb565b9150612b0782612ac6565b602082019050919050565b60006020820190508181036000830152612b2b81612aef565b9050919050565b7f4f7261636c6520686173206e6f206d61746368696e6720496e64657820666f7260008201527f2074686973204f7261636c655265717565737400000000000000000000000000602082015250565b6000612b8e6033836124fb565b9150612b9982612b32565b604082019050919050565b60006020820190508181036000830152612bbd81612b81565b9050919050565b6000612bcf826129e1565b612bd981856124fb565b9350612be98185602086016129f7565b612bf281611fa7565b840191505092915050565b612c06816121d5565b82525050565b600060a082019050612c21600083018861259e565b612c2e602083018761259e565b8181036040830152612c408186612bc4565b9050612c4f6060830185612288565b612c5c6080830184612bfd565b9695505050505050565b6000608082019050612c7b600083018761259e565b8181036020830152612c8d8186612bc4565b9050612c9c6040830185612288565b612ca96060830184612bfd565b95945050505050565b6000612cbd82611edc565b9050919050565b612ccd81612cb2565b82525050565b6000606082019050612ce8600083018661259e565b612cf560208301856125b7565b612d026040830184612cc4565b949350505050565b6000608082019050612d1f6000830187612bfd565b612d2c602083018661259e565b8181036040830152612d3e8185612bc4565b9050612d4d6060830184612288565b95945050505050565b6000612d6282866129ca565b601482019150612d728285612a2a565b9150612d7e8284612a65565b602082019150819050949350505050565b612d9881611f67565b82525050565b608082016000820151612db460008501826123a1565b506020820151612dc76020850182612d8f565b506040820151612dda6040850182612d8f565b506060820151612ded6060850182612d8f565b50505050565b6000608082019050612e086000830184612d9e565b92915050565b6000602082019050612e2360008301846125b7565b92915050565b6000612e34826121d5565b915060ff8203612e4757612e46612484565b5b600182019050919050565b6000612e5d826120e3565b9150612e68836120e3565b925082821015612e7b57612e7a612484565b5b828203905092915050565b6000819050919050565b612ea1612e9c826125ad565b612e86565b82525050565b6000612eb38285612e90565b602082019150612ec382846129ca565b6014820191508190509392505050565b6000612ede826120e3565b9150612ee9836120e3565b925082612ef957612ef8612903565b5b82820690509291505056fea26469706673582212207750ff6fbedc69cdfcd91b18b5c90850caa826e8acf8c14bc2fd304fae097b0464736f6c634300080e0033",
  "immutableReferences": {},
  "source": "// SPDX-License-Identifier: MIT\npragma solidity >=0.4.22 <0.9.0;\n\nimport \"../node_modules/@openzeppelin/contracts/utils/math/SafeMath.sol\";\nimport \"./FlightSuretyData.sol\";\n\ncontract FlightSuretyApp {\n    using SafeMath for uint256;\n    address private contractOwner;          // Account used to deploy contract\n    //    address private dataContractAddress;\n    FlightSuretyData private dataContract;\n    bool operational = true;\n\n\n    uint8 private constant STATUS_CODE_UNKNOWN = 0;\n    uint8 private constant STATUS_CODE_ON_TIME = 10;\n    uint8 private constant STATUS_CODE_LATE_AIRLINE = 20; // << This is the only one relevant to payouts\n    uint8 private constant STATUS_CODE_LATE_WEATHER = 30;\n    uint8 private constant STATUS_CODE_LATE_TECHNICAL = 40;\n    uint8 private constant STATUS_CODE_LATE_OTHER = 50;\n    uint8 private nonce = 5;                            // Incremented to add pseudo-randomness at various points\n    uint256 public constant REGISTRATION_FEE = 1 ether; // Fee to be paid when registering oracle\n    uint256 private constant MIN_RESPONSES = 2;         // Number of oracles that must respond for valid status\n\n\n    struct Airline {\n        address airlineAddress;\n        bool isRegistered;\n        bool isFunded;\n        bool isActive; // both isRegisterd and isFunded. Not needed as we can calculate it, but is simple.\n    }\n\n    address[] airlineAddresses;\n    mapping(address => Airline) airlines;\n    // easy way for m of n once we have more than 4\n    uint256 activeAirlinesCount;\n\n    struct Flight {\n        bytes32 flightKey;\n        //        bool isRegistered;\n        uint8 statusCode;\n        uint256 timestamp;\n        address airline;\n    }\n\n    mapping(bytes32 => Flight) private flightsByFlightKey;\n\n    struct OracleRegistration {\n        bool isRegistered;\n        uint8[3] indexes;\n    }\n\n\n\n    /********************************************************************************************/\n    /*                                     SMART CONTRACT FUNCTIONS                             */\n    /********************************************************************************************/\n\n    // implies Data Contract has already been deployed\n    constructor(address _contractOwner, address dataContractAddress, address firstAirlineAddress){\n        contractOwner = _contractOwner;\n        dataContract = FlightSuretyData(dataContractAddress);\n        _registerAirline(firstAirlineAddress);\n    }\n\n    function setOperatingStatus(uint256 mode) external\n//    requireContractOwner\n    {\n        if (mode > 0) {\n            operational = true;\n        } else {\n            operational = false;\n        }\n        dataContract.setOperatingStatus(operational);\n    }\n    function isOperational() public view\n    returns (bool)\n    {\n        return operational;\n    }\n    // a simple way to test the isOperational modifier\n    function isOperationalTest() public view\n    requireIsOperational\n    returns (bool)\n    {\n        return isOperational();\n    }\n    /**\n     * Assuming only one registration at a time\n     * @dev Add an airline to the registration queue\n    *      Can only be called from FlightSuretyApp contract\n    *      M of N Multi-party Consensus is required\n    *        - M is 1/2 of N\n\n    *       NOTE: Will only allowing one airline to be added at a time.\n            Otherwise, would need an M of N for each airline which was\n            being added in parallel. No requirement for that.\n    */\n\n    address[] mofnConsensusToRegisterAnAirline = new address[](0);\n\n    function registerAirline(address airlineAddress)\n    external\n    requireIsOperational\n    requireNominatingAirlineIsActive(msg.sender)\n//    requireNominatedAirlineIsNotYetRegistered(airlineAddress)\n//    returns (bool success, uint256 votes) {\n    returns (bool) {\n        if (airlines[msg.sender].isActive != true){\n            return false;\n        }\n        if (airlines[msg.sender].isRegistered!= true){\n            return false;\n        }\n        // check if it is already registered\n        // no requirement to prevent an airline from voting twice,\n        //but will not do this in the test anyway\n        //        if (bAlreadyVoted == false) {\n\n        //        }\n\n        bool bRegistered = false;\n        // only do M of N if N > 4\n        // M by the way is only to be greater than 50%\n        if (activeAirlinesCount < 4) {\n            bRegistered = _registerAirline(airlineAddress);\n        }\n        else {\n            // am assuming only one airline is being registered at a time\n            // yes, this is a hack so I can finish this, and so is a hack not having\n            // multisig built into a ethereum's core contract class definition\n\n            mofnConsensusToRegisterAnAirline.push(msg.sender);\n\n            if (mofnConsensusToRegisterAnAirline.length >= activeAirlinesCount / 2) {\n                // ok, majority has been reached\n                mofnConsensusToRegisterAnAirline = new address[](0);\n                bRegistered = _registerAirline(airlineAddress);\n            }\n        }\n        return bRegistered;\n    }\n\n    event RegisteredAirline(Airline airline);\n    event FundedAirline(address airlineAddress, uint256 amount);\n\n    function _registerAirline(address newAirlineAddress)\n    private\n        // this requireOperational modifier doesn't feel right as it is an internal call\n        // and should executed because the call has passed a previous modifier\n        // so out it goes\n        // requireIsOperational\n    returns (bool) {\n        Airline memory newAirline = Airline\n        ({airlineAddress : newAirlineAddress,\n        isActive : false,\n        isFunded : false,\n        isRegistered : true\n        });\n        airlines[newAirlineAddress] = newAirline;\n        airlineAddresses.push(newAirlineAddress);\n        emit RegisteredAirline(newAirline);\n        return true;\n    }\n\n    function getRegisteredAirlines() external view returns (address[] memory){\n        return airlineAddresses;\n    }\n\n    function isAirlineRegistered(address _airline) external view\n    returns (bool) {\n        for (uint256 i = 0; i < airlineAddresses.length; i++) {\n            if (airlineAddresses[i] == _airline) {\n                return true;\n            }\n        }\n        return false;\n    }\n\n    function fundAirline(uint256 value)\n    public\n    payable\n    requireIsOperational\n//    requireAirlineIsRegistered\n    {\n//        require(msg.value >= 10 ether);\n        dataContract.fund(msg.sender, value);\n\n        if (airlines[msg.sender].isRegistered) {\n            airlines[msg.sender].isActive = true;\n            airlines[msg.sender].isFunded = true;\n            activeAirlinesCount++;\n        }\n\n//        emit FundedAirline(msg.sender, msg.value);\n    }\n    function isAirlineFunded(address airline) external view returns (bool){\n        return airlines[airline].isFunded;\n    }\n\n    function pay(address airlineAddress, string memory flight, uint256 timestamp) external {\n        bytes32 flightKey = getFlightKey(airlineAddress, flight, timestamp);\n        dataContract.pay(airlineAddress, flightKey, payable(msg.sender));\n    }\n\n    function buyInsurance(address airlineAddress, string memory flight, uint256 timestamp)\n    external payable\n    requireLessThanOrEqualToOneEther(msg.value) {\n        bytes32 flightKey = getFlightKey(airlineAddress, flight, timestamp);\n        dataContract.buyInsurance(airlineAddress, flightKey);\n    }\n\n//    function getInsurancePoliciesForFlight(address airlineAddress, string memory flight, uint256 timestamp)\n//    public view returns (FlightSuretyData.InsurancePolicy[] calldata){\n//        bytes32 flightKey = getFlightKey(airlineAddress, flight, timestamp);\n//        return dataContract.getInsurancePoliciesByFlightKey(flightKey);\n//    }\n    function getCreditForInsured(address insuredAddress)\n    external view\n    requireIsOperational\n    returns (uint256){\n        return dataContract.getCreditForInsured(insuredAddress);\n    }\n\n    function getFlightKey(address airline, string memory flight, uint256 timestamp) pure internal returns (bytes32) {\n        return keccak256(abi.encodePacked(airline, flight, timestamp));\n    }\n\n    // what is the point of this?\n    // is it required that the airline is registered? Makes sense.\n    function registerFlight(address airlineAddress, string memory flightName, uint256 timestamp) external\n    requireIsOperational\n    requireAirlineIsRegisteredToRegisterAFlight(airlineAddress) {\n        // do we check to see if the flight has already been registered?\n        // not a requirement and also idempotent\n        bytes32 flightKey = getFlightKey(airlineAddress, flightName, timestamp);\n        Flight memory flight = Flight(\n        {flightKey : flightKey,\n        timestamp : timestamp,\n        airline : airlineAddress,\n        statusCode : STATUS_CODE_UNKNOWN});\n\n        flightsByFlightKey[flightKey] = flight;\n    }\n\n\n    ///////// ORACLE STUFF /////////////\n\n    // Track all registered oracles\n    mapping(address => OracleRegistration) private oracleRegistrationsByAddress;\n\n    // Model for responses from oracles\n    struct ResponseInfo {\n        address requester; // Account that requested status\n        bool isOpen;       // If open, oracle responses are accepted\n    }\n    // Track all oracle responses\n    // Key = hash(index, airline, flight, timestamp)\n    mapping(bytes32 => ResponseInfo) private responseInfoByKey;\n    mapping(bytes32 => mapping(uint8 => address[])) private responseInfoByKeyAndStatusCode;\n\n    // Event fired each time an oracle submits a response\n    event FlightStatusInfo(address airline, string flight, uint256 timestamp, uint8 status);\n    event OracleReport(address oracle, address airline, string flight, uint256 timestamp, uint8 status);\n\n    // Event fired when flight status request is submitted. Oracles track this and if they have a matching index. they fetch data and submit a response\n    event OracleRequest(uint8 index, address airline, string flight, uint256 timestamp);\n\n    // Triggered from the UI\n    function fetchFlightStatus(address airline, string memory flight, uint256 timestamp) external {\n        // Generate a request for oracles to fetch flight information\n        uint8 index = getRandomIndex(msg.sender);\n\n        // Generate a unique key for storing the request\n        bytes32 key = keccak256(abi.encodePacked(index, airline, flight, timestamp));\n        responseInfoByKey[key] = ResponseInfo({requester : msg.sender, isOpen : true});\n        emit OracleRequest(index, airline, flight, timestamp);\n    }\n    /**\n    * @dev Called after oracle has updated flight status\n    *\n    */\n    function processFlightStatus(address airline, string memory flight, uint256 timestamp, uint8 statusCode) internal  {\n        bytes32 flightKey = getFlightKey(airline, flight, timestamp);\n        // if status code is not 20, do nothing\n        if (statusCode == STATUS_CODE_UNKNOWN) {\n            return;\n        } else if (statusCode == STATUS_CODE_LATE_AIRLINE) {\n            // if status code is 20, then pay out all passengers who are insured for this flight\n            dataContract.creditInsureds(flightKey);\n        }\n        // no matter what, close down the policy for this flight\n        dataContract.closeInsurancePolicy(flightKey);\n    }\n\n    function submitOracleResponse(uint8 index, address airline, string memory flight, uint256 timestamp, uint8 statusCode) external {\n\n        bytes32 key = keccak256(abi.encodePacked(index, airline, flight, timestamp));\n        //        require(responseInfoByKey[key].isOpen, \"OracleRequest with index (\" + index + \"), airline (\" + airline + \"), flight (\" + flight + \") and timestamp (\" + timestamp + \") is not OPEN\");\n        require(responseInfoByKey[key].isOpen, \"OracleRequest is not OPEN\");\n        require((oracleRegistrationsByAddress[msg.sender].indexes[0] == index) ||\n        (oracleRegistrationsByAddress[msg.sender].indexes[1] == index) ||\n            (oracleRegistrationsByAddress[msg.sender].indexes[2] == index), \"Oracle has no matching Index for this OracleRequest\");\n\n        responseInfoByKeyAndStatusCode[key][statusCode].push(msg.sender);\n\n        // Information isn't considered verified until at least MIN_RESPONSES\n        // oracles respond with the *** same *** information\n        emit OracleReport(msg.sender, airline, flight, timestamp, statusCode);\n\n        if (responseInfoByKeyAndStatusCode[key][statusCode].length >= MIN_RESPONSES) {\n            // CODE EXERCISE 3: Prevent any more responses since MIN_RESPONSE threshold has been reached\n            /* Enter code here */\n            responseInfoByKey[key].isOpen = false;\n\n            emit FlightStatusInfo(airline, flight, timestamp, statusCode);\n\n            // Handle flight status as appropriate\n            processFlightStatus(airline, flight, timestamp, statusCode);\n        }\n    }\n\n    event    OracleRegistered(address sender);\n\n    function registerOracle() external payable {\n        // Require registration fee\n        require(msg.value >= REGISTRATION_FEE, \"Registration fee is required\");\n\n        uint8[3] memory indexes = generateIndexes(msg.sender);\n\n        oracleRegistrationsByAddress[msg.sender] = OracleRegistration({\n        isRegistered : true,\n        indexes : indexes\n        });\n        emit OracleRegistered(msg.sender);\n\n    }\n\n\n    function generateIndexes(address account) internal returns (uint8[3] memory) {\n        // Returns array of three non-duplicating integers from 0-9\n        uint8[3] memory indexes;\n        indexes[0] = getRandomIndex(account);\n\n        indexes[1] = indexes[0];\n        while (indexes[1] == indexes[0]) {\n            indexes[1] = getRandomIndex(account);\n        }\n\n        indexes[2] = indexes[1];\n        while ((indexes[2] == indexes[0]) || (indexes[2] == indexes[1])) {\n            indexes[2] = getRandomIndex(account);\n        }\n        return indexes;\n    }\n\n    function getMyIndexes() view external returns (uint8[3] memory) {\n        require(oracleRegistrationsByAddress[msg.sender].isRegistered, \"This Oracle is not REGISTERED\");\n        return oracleRegistrationsByAddress[msg.sender].indexes;\n    }\n\n    function getRandomIndex(address account) internal returns (uint8) {\n        uint8 maxValue = 10;\n        // Pseudo random number...the incrementing nonce adds variation\n        uint8 random = uint8(uint256(keccak256(abi.encodePacked(blockhash(block.number - nonce++), account))) % maxValue);\n        if (nonce > 250) {\n            nonce = 0;\n            // Can only fetch blockhashes for last 256 blocks so we adapt\n        }\n        return random;\n    }\n\n    modifier requireIsOperational()     {\n        // used on all state changing functions\n        // Modify to call data contract's status\n        require(operational == true, \"Contract is currently not operational\");\n        _;\n        // All modifiers require an \"_\" which indicates where the function body will be added\n    }\n    modifier requireContractOwner()    {\n        require(msg.sender == contractOwner, \"Caller must be contract owner to make this call.\");\n        _;\n    }\n    modifier requireNominatedAirlineIsNotYetRegistered(address airlineAddress) {\n        require(!airlines[airlineAddress].isRegistered, \"Airline must not yet be REGISTERED.\");\n        _;\n    }\n    modifier requireAirlineIsFunded(address airlineAddress) {\n        require(airlines[airlineAddress].isFunded, \"Airline must be FUNDED to make this call.\");\n        _;\n    }\n    modifier requireAirlineIsRegisteredToRegisterAFlight(address airlineAddress) {\n        require(airlines[airlineAddress].isRegistered, \"Airline must be REGISTERED to REGISTER a FLIGHT.\");\n        _;\n    }\n    modifier requireAirlineIsRegisteredToFund(address airlineAddress) {\n        require(airlines[airlineAddress].isRegistered, \"Airline must be REGISTERED to FUND.\");\n        _;\n    }\n    // require an airline is active in order to vote on registering an airline\n    modifier requireNominatingAirlineIsActive(address airlineAddress) {\n        require(airlines[airlineAddress].isActive, \"Airline must be ACTIVE to make this call.\");\n        _;\n    }\n    modifier requireLessThanOrEqualToOneEther(uint256 value){\n        require(value <= 1 ether, \"Cannot insure for more than one ether.\");\n        _;\n    }\n}\n",
  "sourcePath": "/Users/thomaswhitehill/IdeaProjects/BlockchainProjects/FlightSuretyProjects/FlightSurety/contracts/FlightSuretyApp.sol",
  "compiler": {
    "name": "solc",
    "version": "0.8.14+commit.80d49f37.Emscripten.clang"
  },
  "schemaVersion": "3.4.4",
  "updatedAt": "2022-06-06T14:40:18.097Z",
  "networkType": "ethereum",
  "devdoc": {
    "kind": "dev",
    "methods": {},
    "stateVariables": {
      "mofnConsensusToRegisterAnAirline": {
        "details": "Add an airline to the registration queue      Can only be called from FlightSuretyApp contract      M of N Multi-party Consensus is required        - M is 1/2 of N       NOTE: Will only allowing one airline to be added at a time. Otherwise, would need an M of N for each airline which was being added in parallel. No requirement for that."
      }
    },
    "version": 1
  },
  "userdoc": {
    "kind": "user",
    "methods": {},
    "version": 1
  }
}