{
  "contractName": "FlightSuretyApp",
  "abi": [
    {
      "inputs": [
        {
          "internalType": "address",
          "name": "_contractOwner",
          "type": "address"
        },
        {
          "internalType": "address",
          "name": "dataContractAddress",
          "type": "address"
        },
        {
          "internalType": "address",
          "name": "firstAirlineAddress",
          "type": "address"
        }
      ],
      "stateMutability": "nonpayable",
      "type": "constructor"
    },
    {
      "anonymous": false,
      "inputs": [
        {
          "indexed": false,
          "internalType": "address",
          "name": "airline",
          "type": "address"
        },
        {
          "indexed": false,
          "internalType": "string",
          "name": "flight",
          "type": "string"
        },
        {
          "indexed": false,
          "internalType": "uint256",
          "name": "timestamp",
          "type": "uint256"
        },
        {
          "indexed": false,
          "internalType": "uint8",
          "name": "status",
          "type": "uint8"
        }
      ],
      "name": "FlightStatusInfo",
      "type": "event"
    },
    {
      "anonymous": false,
      "inputs": [
        {
          "indexed": false,
          "internalType": "address",
          "name": "airlineAddress",
          "type": "address"
        },
        {
          "indexed": false,
          "internalType": "uint256",
          "name": "amount",
          "type": "uint256"
        }
      ],
      "name": "FundedAirline",
      "type": "event"
    },
    {
      "anonymous": false,
      "inputs": [
        {
          "indexed": false,
          "internalType": "address",
          "name": "sender",
          "type": "address"
        }
      ],
      "name": "OracleRegistered",
      "type": "event"
    },
    {
      "anonymous": false,
      "inputs": [
        {
          "indexed": false,
          "internalType": "address",
          "name": "oracle",
          "type": "address"
        },
        {
          "indexed": false,
          "internalType": "address",
          "name": "airline",
          "type": "address"
        },
        {
          "indexed": false,
          "internalType": "string",
          "name": "flight",
          "type": "string"
        },
        {
          "indexed": false,
          "internalType": "uint256",
          "name": "timestamp",
          "type": "uint256"
        },
        {
          "indexed": false,
          "internalType": "uint8",
          "name": "status",
          "type": "uint8"
        }
      ],
      "name": "OracleReport",
      "type": "event"
    },
    {
      "anonymous": false,
      "inputs": [
        {
          "indexed": false,
          "internalType": "uint8",
          "name": "index",
          "type": "uint8"
        },
        {
          "indexed": false,
          "internalType": "address",
          "name": "airline",
          "type": "address"
        },
        {
          "indexed": false,
          "internalType": "string",
          "name": "flight",
          "type": "string"
        },
        {
          "indexed": false,
          "internalType": "uint256",
          "name": "timestamp",
          "type": "uint256"
        }
      ],
      "name": "OracleRequest",
      "type": "event"
    },
    {
      "anonymous": false,
      "inputs": [
        {
          "components": [
            {
              "internalType": "address",
              "name": "airlineAddress",
              "type": "address"
            },
            {
              "internalType": "bool",
              "name": "isRegistered",
              "type": "bool"
            },
            {
              "internalType": "bool",
              "name": "isFunded",
              "type": "bool"
            },
            {
              "internalType": "bool",
              "name": "isActive",
              "type": "bool"
            }
          ],
          "indexed": false,
          "internalType": "struct FlightSuretyApp.Airline",
          "name": "airline",
          "type": "tuple"
        }
      ],
      "name": "RegisteredAirline",
      "type": "event"
    },
    {
      "inputs": [],
      "name": "REGISTRATION_FEE",
      "outputs": [
        {
          "internalType": "uint256",
          "name": "",
          "type": "uint256"
        }
      ],
      "stateMutability": "view",
      "type": "function",
      "constant": true
    },
    {
      "inputs": [
        {
          "internalType": "uint256",
          "name": "mode",
          "type": "uint256"
        }
      ],
      "name": "setOperatingStatus",
      "outputs": [],
      "stateMutability": "nonpayable",
      "type": "function"
    },
    {
      "inputs": [],
      "name": "isOperational",
      "outputs": [
        {
          "internalType": "bool",
          "name": "",
          "type": "bool"
        }
      ],
      "stateMutability": "view",
      "type": "function",
      "constant": true
    },
    {
      "inputs": [],
      "name": "isOperationalTest",
      "outputs": [
        {
          "internalType": "bool",
          "name": "",
          "type": "bool"
        }
      ],
      "stateMutability": "view",
      "type": "function",
      "constant": true
    },
    {
      "inputs": [
        {
          "internalType": "address",
          "name": "airlineAddress",
          "type": "address"
        }
      ],
      "name": "registerAirline",
      "outputs": [
        {
          "internalType": "bool",
          "name": "",
          "type": "bool"
        }
      ],
      "stateMutability": "nonpayable",
      "type": "function"
    },
    {
      "inputs": [],
      "name": "getRegisteredAirlines",
      "outputs": [
        {
          "internalType": "address[]",
          "name": "",
          "type": "address[]"
        }
      ],
      "stateMutability": "view",
      "type": "function",
      "constant": true
    },
    {
      "inputs": [
        {
          "internalType": "address",
          "name": "_airline",
          "type": "address"
        }
      ],
      "name": "isAirlineRegistered",
      "outputs": [
        {
          "internalType": "bool",
          "name": "",
          "type": "bool"
        }
      ],
      "stateMutability": "view",
      "type": "function",
      "constant": true
    },
    {
      "inputs": [],
      "name": "fundAirline",
      "outputs": [],
      "stateMutability": "payable",
      "type": "function",
      "payable": true
    },
    {
      "inputs": [
        {
          "internalType": "address",
          "name": "airline",
          "type": "address"
        }
      ],
      "name": "isAirlineFunded",
      "outputs": [
        {
          "internalType": "bool",
          "name": "",
          "type": "bool"
        }
      ],
      "stateMutability": "view",
      "type": "function",
      "constant": true
    },
    {
      "inputs": [
        {
          "internalType": "address",
          "name": "airlineAddress",
          "type": "address"
        }
      ],
      "name": "getAirlineFundLevel",
      "outputs": [
        {
          "internalType": "uint256",
          "name": "",
          "type": "uint256"
        }
      ],
      "stateMutability": "view",
      "type": "function",
      "constant": true
    },
    {
      "inputs": [
        {
          "internalType": "address",
          "name": "airlineAddress",
          "type": "address"
        },
        {
          "internalType": "string",
          "name": "flight",
          "type": "string"
        },
        {
          "internalType": "uint256",
          "name": "timestamp",
          "type": "uint256"
        }
      ],
      "name": "pay",
      "outputs": [],
      "stateMutability": "nonpayable",
      "type": "function"
    },
    {
      "inputs": [
        {
          "internalType": "address",
          "name": "airlineAddress",
          "type": "address"
        },
        {
          "internalType": "string",
          "name": "flight",
          "type": "string"
        },
        {
          "internalType": "uint256",
          "name": "timestamp",
          "type": "uint256"
        }
      ],
      "name": "buyInsurance",
      "outputs": [],
      "stateMutability": "payable",
      "type": "function",
      "payable": true
    },
    {
      "inputs": [
        {
          "internalType": "address",
          "name": "insuredAddress",
          "type": "address"
        }
      ],
      "name": "getCreditForInsured",
      "outputs": [
        {
          "internalType": "uint256",
          "name": "",
          "type": "uint256"
        }
      ],
      "stateMutability": "view",
      "type": "function",
      "constant": true
    },
    {
      "inputs": [
        {
          "internalType": "address",
          "name": "airlineAddress",
          "type": "address"
        },
        {
          "internalType": "string",
          "name": "flightName",
          "type": "string"
        },
        {
          "internalType": "uint256",
          "name": "timestamp",
          "type": "uint256"
        }
      ],
      "name": "registerFlight",
      "outputs": [],
      "stateMutability": "nonpayable",
      "type": "function"
    },
    {
      "inputs": [
        {
          "internalType": "address",
          "name": "airline",
          "type": "address"
        },
        {
          "internalType": "string",
          "name": "flight",
          "type": "string"
        },
        {
          "internalType": "uint256",
          "name": "timestamp",
          "type": "uint256"
        }
      ],
      "name": "fetchFlightStatus",
      "outputs": [],
      "stateMutability": "nonpayable",
      "type": "function"
    },
    {
      "inputs": [
        {
          "internalType": "uint8",
          "name": "index",
          "type": "uint8"
        },
        {
          "internalType": "address",
          "name": "airline",
          "type": "address"
        },
        {
          "internalType": "string",
          "name": "flight",
          "type": "string"
        },
        {
          "internalType": "uint256",
          "name": "timestamp",
          "type": "uint256"
        },
        {
          "internalType": "uint8",
          "name": "statusCode",
          "type": "uint8"
        }
      ],
      "name": "submitOracleResponse",
      "outputs": [],
      "stateMutability": "nonpayable",
      "type": "function"
    },
    {
      "inputs": [],
      "name": "registerOracle",
      "outputs": [],
      "stateMutability": "payable",
      "type": "function",
      "payable": true
    },
    {
      "inputs": [],
      "name": "getMyIndexes",
      "outputs": [
        {
          "internalType": "uint8[3]",
          "name": "",
          "type": "uint8[3]"
        }
      ],
      "stateMutability": "view",
      "type": "function",
      "constant": true
    }
  ],
  "bytecode": "0x608060405260018060146101000a81548160ff0219169083151502179055506005600160156101000a81548160ff021916908360ff160217905550600067ffffffffffffffff8111156200005857620000576200044c565b5b604051908082528060200260200182016040528015620000875781602001602082028036833780820191505090505b50600690805190602001906200009f9291906200039e565b50348015620000ad57600080fd5b506040516200387a3803806200387a8339818101604052810190620000d39190620004e5565b826000806101000a81548173ffffffffffffffffffffffffffffffffffffffff021916908373ffffffffffffffffffffffffffffffffffffffff16021790555081600160006101000a81548173ffffffffffffffffffffffffffffffffffffffff021916908373ffffffffffffffffffffffffffffffffffffffff16021790555062000165816200016f60201b60201c565b5050505062000692565b600060011515600160149054906101000a900460ff16151514620001ca576040517f08c379a0000000000000000000000000000000000000000000000000000000008152600401620001c190620005c8565b60405180910390fd5b600060405180608001604052808473ffffffffffffffffffffffffffffffffffffffff16815260200160011515815260200160001515815260200160001515815250905080600360008573ffffffffffffffffffffffffffffffffffffffff1673ffffffffffffffffffffffffffffffffffffffff16815260200190815260200160002060008201518160000160006101000a81548173ffffffffffffffffffffffffffffffffffffffff021916908373ffffffffffffffffffffffffffffffffffffffff16021790555060208201518160000160146101000a81548160ff02191690831515021790555060408201518160000160156101000a81548160ff02191690831515021790555060608201518160000160166101000a81548160ff0219169083151502179055509050506002839080600181540180825580915050600190039060005260206000200160009091909190916101000a81548173ffffffffffffffffffffffffffffffffffffffff021916908373ffffffffffffffffffffffffffffffffffffffff1602179055507ff674fc37aef3b3d1f2edee9f9ded3c8a455aac9170016d0f197775a920f9cd32816040516200038c919062000675565b60405180910390a16001915050919050565b8280548282559060005260206000209081019282156200041a579160200282015b82811115620004195782518260006101000a81548173ffffffffffffffffffffffffffffffffffffffff021916908373ffffffffffffffffffffffffffffffffffffffff16021790555091602001919060010190620003bf565b5b5090506200042991906200042d565b5090565b5b80821115620004485760008160009055506001016200042e565b5090565b7f4e487b7100000000000000000000000000000000000000000000000000000000600052604160045260246000fd5b600080fd5b600073ffffffffffffffffffffffffffffffffffffffff82169050919050565b6000620004ad8262000480565b9050919050565b620004bf81620004a0565b8114620004cb57600080fd5b50565b600081519050620004df81620004b4565b92915050565b6000806000606084860312156200050157620005006200047b565b5b60006200051186828701620004ce565b93505060206200052486828701620004ce565b92505060406200053786828701620004ce565b9150509250925092565b600082825260208201905092915050565b7f436f6e74726163742069732063757272656e746c79206e6f74206f706572617460008201527f696f6e616c000000000000000000000000000000000000000000000000000000602082015250565b6000620005b060258362000541565b9150620005bd8262000552565b604082019050919050565b60006020820190508181036000830152620005e381620005a1565b9050919050565b620005f581620004a0565b82525050565b60008115159050919050565b6200061281620005fb565b82525050565b608082016000820151620006306000850182620005ea565b50602082015162000645602085018262000607565b5060408201516200065a604085018262000607565b5060608201516200066f606085018262000607565b50505050565b60006080820190506200068c600083018462000618565b92915050565b6131d880620006a26000396000f3fe6080604052600436106101095760003560e01c806384e7bb2d11610095578063c23bcf0911610064578063c23bcf091461032e578063c962d4a214610359578063cd905dff14610382578063f53b6d65146103ad578063f83f11c0146103ea57610109565b806384e7bb2d146102815780639ed18927146102be578063bdfd9877146102c8578063c10f27001461030557610109565b80633dd19e6a116100dc5780633dd19e6a1461019a5780634cfb378a146101c35780635741e092146102005780635f1cc0e61461022b57806364b4f7511461025657610109565b8063010c5c971461010e5780632f6721d01461014b578063339d2590146101675780633cc0be9c14610171575b600080fd5b34801561011a57600080fd5b5061013560048036038101906101309190612146565b610413565b604051610142919061218e565b60405180910390f35b61016560048036038101906101609190612325565b6104c1565b005b61016f6105b2565b005b34801561017d57600080fd5b5061019860048036038101906101939190612325565b6106d6565b005b3480156101a657600080fd5b506101c160048036038101906101bc9190612394565b6108a5565b005b3480156101cf57600080fd5b506101ea60048036038101906101e59190612146565b610988565b6040516101f791906123d0565b60405180910390f35b34801561020c57600080fd5b50610215610a2d565b604051610222919061218e565b60405180910390f35b34801561023757600080fd5b50610240610a92565b60405161024d91906124a3565b60405180910390f35b34801561026257600080fd5b5061026b610bd2565b60405161027891906123d0565b60405180910390f35b34801561028d57600080fd5b506102a860048036038101906102a39190612146565b610bde565b6040516102b591906123d0565b60405180910390f35b6102c6610cd9565b005b3480156102d457600080fd5b506102ef60048036038101906102ea9190612146565b610fae565b6040516102fc919061218e565b60405180910390f35b34801561031157600080fd5b5061032c600480360381019061032791906124ea565b61126f565b005b34801561033a57600080fd5b50610343611629565b604051610350919061263f565b60405180910390f35b34801561036557600080fd5b50610380600480360381019061037b9190612325565b6116b7565b005b34801561038e57600080fd5b5061039761175d565b6040516103a4919061218e565b60405180910390f35b3480156103b957600080fd5b506103d460048036038101906103cf9190612146565b611774565b6040516103e1919061218e565b60405180910390f35b3480156103f657600080fd5b50610411600480360381019061040c9190612325565b6117de565b005b600080600090505b6002805490508110156104b6578273ffffffffffffffffffffffffffffffffffffffff166002828154811061045357610452612661565b5b9060005260206000200160009054906101000a900473ffffffffffffffffffffffffffffffffffffffff1673ffffffffffffffffffffffffffffffffffffffff16036104a35760019150506104bc565b80806104ae906126bf565b91505061041b565b50600090505b919050565b34670de0b6b3a764000081111561050d576040517f08c379a00000000000000000000000000000000000000000000000000000000081526004016105049061278a565b60405180910390fd5b600061051a85858561190b565b9050600160009054906101000a900473ffffffffffffffffffffffffffffffffffffffff1673ffffffffffffffffffffffffffffffffffffffff1663adf8ae7a86836040518363ffffffff1660e01b81526004016105799291906127d2565b600060405180830381600087803b15801561059357600080fd5b505af11580156105a7573d6000803e3d6000fd5b505050505050505050565b670de0b6b3a76400003410156105fd576040517f08c379a00000000000000000000000000000000000000000000000000000000081526004016105f490612847565b60405180910390fd5b600061060833611941565b9050604051806040016040528060011515815260200182815250600760003373ffffffffffffffffffffffffffffffffffffffff1673ffffffffffffffffffffffffffffffffffffffff16815260200190815260200160002060008201518160000160006101000a81548160ff021916908315150217905550602082015181600101906003610698929190611f71565b509050507fd9d9fdcc9f936c76b5aafe54fc3db5dcec0c6583c9ccc4abe91d17575c5145a5336040516106cb9190612867565b60405180910390a150565b60011515600160149054906101000a900460ff1615151461072c576040517f08c379a0000000000000000000000000000000000000000000000000000000008152600401610723906128f4565b60405180910390fd5b82600360008273ffffffffffffffffffffffffffffffffffffffff1673ffffffffffffffffffffffffffffffffffffffff16815260200190815260200160002060000160149054906101000a900460ff166107bc576040517f08c379a00000000000000000000000000000000000000000000000000000000081526004016107b390612986565b60405180910390fd5b60006107c985858561190b565b905060006040518060800160405280838152602001600060ff1681526020018581526020018773ffffffffffffffffffffffffffffffffffffffff16815250905080600560008481526020019081526020016000206000820151816000015560208201518160010160006101000a81548160ff021916908360ff1602179055506040820151816002015560608201518160030160006101000a81548173ffffffffffffffffffffffffffffffffffffffff021916908373ffffffffffffffffffffffffffffffffffffffff160217905550905050505050505050565b60008111156108cd5760018060146101000a81548160ff0219169083151502179055506108e9565b6000600160146101000a81548160ff0219169083151502179055505b600160009054906101000a900473ffffffffffffffffffffffffffffffffffffffff1673ffffffffffffffffffffffffffffffffffffffff1663110466ed600160149054906101000a900460ff166040518263ffffffff1660e01b8152600401610953919061218e565b600060405180830381600087803b15801561096d57600080fd5b505af1158015610981573d6000803e3d6000fd5b5050505050565b6000600160009054906101000a900473ffffffffffffffffffffffffffffffffffffffff1673ffffffffffffffffffffffffffffffffffffffff16634cfb378a836040518263ffffffff1660e01b81526004016109e59190612867565b602060405180830381865afa158015610a02573d6000803e3d6000fd5b505050506040513d601f19601f82011682018060405250810190610a2691906129bb565b9050919050565b600060011515600160149054906101000a900460ff16151514610a85576040517f08c379a0000000000000000000000000000000000000000000000000000000008152600401610a7c906128f4565b60405180910390fd5b610a8d61175d565b905090565b610a9a61200b565b600760003373ffffffffffffffffffffffffffffffffffffffff1673ffffffffffffffffffffffffffffffffffffffff16815260200190815260200160002060000160009054906101000a900460ff16610b29576040517f08c379a0000000000000000000000000000000000000000000000000000000008152600401610b2090612a34565b60405180910390fd5b600760003373ffffffffffffffffffffffffffffffffffffffff1673ffffffffffffffffffffffffffffffffffffffff168152602001908152602001600020600101600380602002604051908101604052809291908260038015610bc8576020028201916000905b82829054906101000a900460ff1660ff1681526020019060010190602082600001049283019260010382029150808411610b915790505b5050505050905090565b670de0b6b3a764000081565b600060011515600160149054906101000a900460ff16151514610c36576040517f08c379a0000000000000000000000000000000000000000000000000000000008152600401610c2d906128f4565b60405180910390fd5b600160009054906101000a900473ffffffffffffffffffffffffffffffffffffffff1673ffffffffffffffffffffffffffffffffffffffff166384e7bb2d836040518263ffffffff1660e01b8152600401610c919190612867565b602060405180830381865afa158015610cae573d6000803e3d6000fd5b505050506040513d601f19601f82011682018060405250810190610cd291906129bb565b9050919050565b60011515600160149054906101000a900460ff16151514610d2f576040517f08c379a0000000000000000000000000000000000000000000000000000000008152600401610d26906128f4565b60405180910390fd5b33600360008273ffffffffffffffffffffffffffffffffffffffff1673ffffffffffffffffffffffffffffffffffffffff16815260200190815260200160002060000160149054906101000a900460ff16610dbf576040517f08c379a0000000000000000000000000000000000000000000000000000000008152600401610db690612ac6565b60405180910390fd5b600160009054906101000a900473ffffffffffffffffffffffffffffffffffffffff1673ffffffffffffffffffffffffffffffffffffffff16637b1837de33346040518363ffffffff1660e01b8152600401610e1c929190612ae6565b600060405180830381600087803b158015610e3657600080fd5b505af1158015610e4a573d6000803e3d6000fd5b50505050600360003373ffffffffffffffffffffffffffffffffffffffff1673ffffffffffffffffffffffffffffffffffffffff16815260200190815260200160002060000160149054906101000a900460ff1615610f72576001600360003373ffffffffffffffffffffffffffffffffffffffff1673ffffffffffffffffffffffffffffffffffffffff16815260200190815260200160002060000160166101000a81548160ff0219169083151502179055506001600360003373ffffffffffffffffffffffffffffffffffffffff1673ffffffffffffffffffffffffffffffffffffffff16815260200190815260200160002060000160156101000a81548160ff02191690831515021790555060046000815480929190610f6c906126bf565b91905055505b7fa5aeebe9db6fda66a79ab208cdd8b455a391d279b6e23f4ac7be7d477a2446163334604051610fa3929190612ae6565b60405180910390a150565b600060011515600160149054906101000a900460ff16151514611006576040517f08c379a0000000000000000000000000000000000000000000000000000000008152600401610ffd906128f4565b60405180910390fd5b33600360008273ffffffffffffffffffffffffffffffffffffffff1673ffffffffffffffffffffffffffffffffffffffff16815260200190815260200160002060000160169054906101000a900460ff16611096576040517f08c379a000000000000000000000000000000000000000000000000000000000815260040161108d90612b81565b60405180910390fd5b60011515600360003373ffffffffffffffffffffffffffffffffffffffff1673ffffffffffffffffffffffffffffffffffffffff16815260200190815260200160002060000160169054906101000a900460ff161515146110fa5760009150611269565b60011515600360003373ffffffffffffffffffffffffffffffffffffffff1673ffffffffffffffffffffffffffffffffffffffff16815260200190815260200160002060000160149054906101000a900460ff1615151461115e5760009150611269565b600060048054101561117a5761117384611b27565b9050611264565b6006339080600181540180825580915050600190039060005260206000200160009091909190916101000a81548173ffffffffffffffffffffffffffffffffffffffff021916908373ffffffffffffffffffffffffffffffffffffffff16021790555060026004546111ec9190612bd0565b6006805490501061126357600067ffffffffffffffff811115611212576112116121c4565b5b6040519080825280602002602001820160405280156112405781602001602082028036833780820191505090505b506006908051906020019061125692919061202d565b5061126084611b27565b90505b5b809250505b50919050565b6000858585856040516020016112889493929190612d1a565b6040516020818303038152906040528051906020012090506008600082815260200190815260200160002060000160149054906101000a900460ff16611303576040517f08c379a00000000000000000000000000000000000000000000000000000000081526004016112fa90612db0565b60405180910390fd5b8560ff16600760003373ffffffffffffffffffffffffffffffffffffffff1673ffffffffffffffffffffffffffffffffffffffff16815260200190815260200160002060010160006003811061135c5761135b612661565b5b602091828204019190069054906101000a900460ff1660ff1614806113f057508560ff16600760003373ffffffffffffffffffffffffffffffffffffffff1673ffffffffffffffffffffffffffffffffffffffff1681526020019081526020016000206001016001600381106113d5576113d4612661565b5b602091828204019190069054906101000a900460ff1660ff16145b8061146a57508560ff16600760003373ffffffffffffffffffffffffffffffffffffffff1673ffffffffffffffffffffffffffffffffffffffff16815260200190815260200160002060010160026003811061144f5761144e612661565b5b602091828204019190069054906101000a900460ff1660ff16145b6114a9576040517f08c379a00000000000000000000000000000000000000000000000000000000081526004016114a090612e42565b60405180910390fd5b6009600082815260200190815260200160002060008360ff1660ff168152602001908152602001600020339080600181540180825580915050600190039060005260206000200160009091909190916101000a81548173ffffffffffffffffffffffffffffffffffffffff021916908373ffffffffffffffffffffffffffffffffffffffff1602179055507f257dccc1fd472d66cce2826f12a70912f497d3505f06930e7c6f050afece0034338686868660405161156b959493929190612eaa565b60405180910390a160026009600083815260200190815260200160002060008460ff1660ff16815260200190815260200160002080549050106116215760006008600083815260200190815260200160002060000160146101000a81548160ff0219169083151502179055507fe23f5229de535c091e3b7bec2665f5d698192d3b31393066e8987b7a05076b6c8585858560405161160c9493929190612f04565b60405180910390a161162085858585611d51565b5b505050505050565b606060028054806020026020016040519081016040528092919081815260200182805480156116ad57602002820191906000526020600020905b8160009054906101000a900473ffffffffffffffffffffffffffffffffffffffff1673ffffffffffffffffffffffffffffffffffffffff1681526020019060010190808311611663575b5050505050905090565b60006116c484848461190b565b9050600160009054906101000a900473ffffffffffffffffffffffffffffffffffffffff1673ffffffffffffffffffffffffffffffffffffffff1663df7a7e2d8583336040518463ffffffff1660e01b815260040161172593929190612f71565b600060405180830381600087803b15801561173f57600080fd5b505af1158015611753573d6000803e3d6000fd5b5050505050505050565b6000600160149054906101000a900460ff16905090565b6000600360008373ffffffffffffffffffffffffffffffffffffffff1673ffffffffffffffffffffffffffffffffffffffff16815260200190815260200160002060000160159054906101000a900460ff16156117d457600190506117d9565b600090505b919050565b60006117e933611ea5565b90506000818585856040516020016118049493929190612d1a565b60405160208183030381529060405280519060200120905060405180604001604052803373ffffffffffffffffffffffffffffffffffffffff168152602001600115158152506008600083815260200190815260200160002060008201518160000160006101000a81548173ffffffffffffffffffffffffffffffffffffffff021916908373ffffffffffffffffffffffffffffffffffffffff16021790555060208201518160000160146101000a81548160ff0219169083151502179055509050507f3ed01f2c3fc24c6b329d931e35b03e390d23497d22b3f90e15b600343e93df11828686866040516118fc9493929190612fa8565b60405180910390a15050505050565b600083838360405160200161192293929190612ff4565b6040516020818303038152906040528051906020012090509392505050565b61194961200b565b61195161200b565b61195a83611ea5565b8160006003811061196e5761196d612661565b5b602002019060ff16908160ff16815250508060006003811061199357611992612661565b5b6020020151816001600381106119ac576119ab612661565b5b602002019060ff16908160ff16815250505b806000600381106119d2576119d1612661565b5b602002015160ff16816001600381106119ee576119ed612661565b5b602002015160ff1603611a2e57611a0483611ea5565b81600160038110611a1857611a17612661565b5b602002019060ff16908160ff16815250506119be565b80600160038110611a4257611a41612661565b5b602002015181600260038110611a5b57611a5a612661565b5b602002019060ff16908160ff16815250505b80600060038110611a8157611a80612661565b5b602002015160ff1681600260038110611a9d57611a9c612661565b5b602002015160ff161480611ae6575080600160038110611ac057611abf612661565b5b602002015160ff1681600260038110611adc57611adb612661565b5b602002015160ff16145b15611b1e57611af483611ea5565b81600260038110611b0857611b07612661565b5b602002019060ff16908160ff1681525050611a6d565b80915050919050565b600060011515600160149054906101000a900460ff16151514611b7f576040517f08c379a0000000000000000000000000000000000000000000000000000000008152600401611b76906128f4565b60405180910390fd5b600060405180608001604052808473ffffffffffffffffffffffffffffffffffffffff16815260200160011515815260200160001515815260200160001515815250905080600360008573ffffffffffffffffffffffffffffffffffffffff1673ffffffffffffffffffffffffffffffffffffffff16815260200190815260200160002060008201518160000160006101000a81548173ffffffffffffffffffffffffffffffffffffffff021916908373ffffffffffffffffffffffffffffffffffffffff16021790555060208201518160000160146101000a81548160ff02191690831515021790555060408201518160000160156101000a81548160ff02191690831515021790555060608201518160000160166101000a81548160ff0219169083151502179055509050506002839080600181540180825580915050600190039060005260206000200160009091909190916101000a81548173ffffffffffffffffffffffffffffffffffffffff021916908373ffffffffffffffffffffffffffffffffffffffff1602179055507ff674fc37aef3b3d1f2edee9f9ded3c8a455aac9170016d0f197775a920f9cd3281604051611d3f9190613091565b60405180910390a16001915050919050565b6000611d5e85858561190b565b9050600060ff168260ff1603611d745750611e9f565b601460ff168260ff1603611e1057600160009054906101000a900473ffffffffffffffffffffffffffffffffffffffff1673ffffffffffffffffffffffffffffffffffffffff1663d157ba27826040518263ffffffff1660e01b8152600401611ddd91906130ac565b600060405180830381600087803b158015611df757600080fd5b505af1158015611e0b573d6000803e3d6000fd5b505050505b600160009054906101000a900473ffffffffffffffffffffffffffffffffffffffff1673ffffffffffffffffffffffffffffffffffffffff1663be6547ae826040518263ffffffff1660e01b8152600401611e6b91906130ac565b600060405180830381600087803b158015611e8557600080fd5b505af1158015611e99573d6000803e3d6000fd5b50505050505b50505050565b600080600a905060008160ff166001601581819054906101000a900460ff1680929190611ed1906130c7565b91906101000a81548160ff021916908360ff16021790555060ff1643611ef791906130f0565b4085604051602001611f0a929190613145565b6040516020818303038152906040528051906020012060001c611f2d9190613171565b905060fa600160159054906101000a900460ff1660ff161115611f67576000600160156101000a81548160ff021916908360ff1602179055505b8092505050919050565b826003601f01602090048101928215611ffa5791602002820160005b83821115611fcb57835183826101000a81548160ff021916908360ff1602179055509260200192600101602081600001049283019260010302611f8d565b8015611ff85782816101000a81549060ff0219169055600101602081600001049283019260010302611fcb565b505b50905061200791906120b7565b5090565b6040518060600160405280600390602082028036833780820191505090505090565b8280548282559060005260206000209081019282156120a6579160200282015b828111156120a55782518260006101000a81548173ffffffffffffffffffffffffffffffffffffffff021916908373ffffffffffffffffffffffffffffffffffffffff1602179055509160200191906001019061204d565b5b5090506120b391906120b7565b5090565b5b808211156120d05760008160009055506001016120b8565b5090565b6000604051905090565b600080fd5b600080fd5b600073ffffffffffffffffffffffffffffffffffffffff82169050919050565b6000612113826120e8565b9050919050565b61212381612108565b811461212e57600080fd5b50565b6000813590506121408161211a565b92915050565b60006020828403121561215c5761215b6120de565b5b600061216a84828501612131565b91505092915050565b60008115159050919050565b61218881612173565b82525050565b60006020820190506121a3600083018461217f565b92915050565b600080fd5b600080fd5b6000601f19601f8301169050919050565b7f4e487b7100000000000000000000000000000000000000000000000000000000600052604160045260246000fd5b6121fc826121b3565b810181811067ffffffffffffffff8211171561221b5761221a6121c4565b5b80604052505050565b600061222e6120d4565b905061223a82826121f3565b919050565b600067ffffffffffffffff82111561225a576122596121c4565b5b612263826121b3565b9050602081019050919050565b82818337600083830152505050565b600061229261228d8461223f565b612224565b9050828152602081018484840111156122ae576122ad6121ae565b5b6122b9848285612270565b509392505050565b600082601f8301126122d6576122d56121a9565b5b81356122e684826020860161227f565b91505092915050565b6000819050919050565b612302816122ef565b811461230d57600080fd5b50565b60008135905061231f816122f9565b92915050565b60008060006060848603121561233e5761233d6120de565b5b600061234c86828701612131565b935050602084013567ffffffffffffffff81111561236d5761236c6120e3565b5b612379868287016122c1565b925050604061238a86828701612310565b9150509250925092565b6000602082840312156123aa576123a96120de565b5b60006123b884828501612310565b91505092915050565b6123ca816122ef565b82525050565b60006020820190506123e560008301846123c1565b92915050565b600060039050919050565b600081905092915050565b6000819050919050565b600060ff82169050919050565b6124218161240b565b82525050565b60006124338383612418565b60208301905092915050565b6000602082019050919050565b612455816123eb565b61245f81846123f6565b925061246a82612401565b8060005b8381101561249b5781516124828782612427565b965061248d8361243f565b92505060018101905061246e565b505050505050565b60006060820190506124b8600083018461244c565b92915050565b6124c78161240b565b81146124d257600080fd5b50565b6000813590506124e4816124be565b92915050565b600080600080600060a08688031215612506576125056120de565b5b6000612514888289016124d5565b955050602061252588828901612131565b945050604086013567ffffffffffffffff811115612546576125456120e3565b5b612552888289016122c1565b935050606061256388828901612310565b9250506080612574888289016124d5565b9150509295509295909350565b600081519050919050565b600082825260208201905092915050565b6000819050602082019050919050565b6125b681612108565b82525050565b60006125c883836125ad565b60208301905092915050565b6000602082019050919050565b60006125ec82612581565b6125f6818561258c565b93506126018361259d565b8060005b8381101561263257815161261988826125bc565b9750612624836125d4565b925050600181019050612605565b5085935050505092915050565b6000602082019050818103600083015261265981846125e1565b905092915050565b7f4e487b7100000000000000000000000000000000000000000000000000000000600052603260045260246000fd5b7f4e487b7100000000000000000000000000000000000000000000000000000000600052601160045260246000fd5b60006126ca826122ef565b91507fffffffffffffffffffffffffffffffffffffffffffffffffffffffffffffffff82036126fc576126fb612690565b5b600182019050919050565b600082825260208201905092915050565b7f43616e6e6f7420696e7375726520666f72206d6f7265207468616e206f6e652060008201527f65746865722e0000000000000000000000000000000000000000000000000000602082015250565b6000612774602683612707565b915061277f82612718565b604082019050919050565b600060208201905081810360008301526127a381612767565b9050919050565b6127b381612108565b82525050565b6000819050919050565b6127cc816127b9565b82525050565b60006040820190506127e760008301856127aa565b6127f460208301846127c3565b9392505050565b7f526567697374726174696f6e2066656520697320726571756972656400000000600082015250565b6000612831601c83612707565b915061283c826127fb565b602082019050919050565b6000602082019050818103600083015261286081612824565b9050919050565b600060208201905061287c60008301846127aa565b92915050565b7f436f6e74726163742069732063757272656e746c79206e6f74206f706572617460008201527f696f6e616c000000000000000000000000000000000000000000000000000000602082015250565b60006128de602583612707565b91506128e982612882565b604082019050919050565b6000602082019050818103600083015261290d816128d1565b9050919050565b7f4169726c696e65206d757374206265205245474953544552454420746f20524560008201527f474953544552206120464c494748542e00000000000000000000000000000000602082015250565b6000612970603083612707565b915061297b82612914565b604082019050919050565b6000602082019050818103600083015261299f81612963565b9050919050565b6000815190506129b5816122f9565b92915050565b6000602082840312156129d1576129d06120de565b5b60006129df848285016129a6565b91505092915050565b7f54686973204f7261636c65206973206e6f742052454749535445524544000000600082015250565b6000612a1e601d83612707565b9150612a29826129e8565b602082019050919050565b60006020820190508181036000830152612a4d81612a11565b9050919050565b7f4169726c696e65206d757374206265205245474953544552454420746f20465560008201527f4e442e0000000000000000000000000000000000000000000000000000000000602082015250565b6000612ab0602383612707565b9150612abb82612a54565b604082019050919050565b60006020820190508181036000830152612adf81612aa3565b9050919050565b6000604082019050612afb60008301856127aa565b612b0860208301846123c1565b9392505050565b7f4169726c696e65206d7573742062652041435449564520746f206d616b65207460008201527f6869732063616c6c2e0000000000000000000000000000000000000000000000602082015250565b6000612b6b602983612707565b9150612b7682612b0f565b604082019050919050565b60006020820190508181036000830152612b9a81612b5e565b9050919050565b7f4e487b7100000000000000000000000000000000000000000000000000000000600052601260045260246000fd5b6000612bdb826122ef565b9150612be6836122ef565b925082612bf657612bf5612ba1565b5b828204905092915050565b60008160f81b9050919050565b6000612c1982612c01565b9050919050565b612c31612c2c8261240b565b612c0e565b82525050565b60008160601b9050919050565b6000612c4f82612c37565b9050919050565b6000612c6182612c44565b9050919050565b612c79612c7482612108565b612c56565b82525050565b600081519050919050565b600081905092915050565b60005b83811015612cb3578082015181840152602081019050612c98565b83811115612cc2576000848401525b50505050565b6000612cd382612c7f565b612cdd8185612c8a565b9350612ced818560208601612c95565b80840191505092915050565b6000819050919050565b612d14612d0f826122ef565b612cf9565b82525050565b6000612d268287612c20565b600182019150612d368286612c68565b601482019150612d468285612cc8565b9150612d528284612d03565b60208201915081905095945050505050565b7f4f7261636c6552657175657374206973206e6f74204f50454e00000000000000600082015250565b6000612d9a601983612707565b9150612da582612d64565b602082019050919050565b60006020820190508181036000830152612dc981612d8d565b9050919050565b7f4f7261636c6520686173206e6f206d61746368696e6720496e64657820666f7260008201527f2074686973204f7261636c655265717565737400000000000000000000000000602082015250565b6000612e2c603383612707565b9150612e3782612dd0565b604082019050919050565b60006020820190508181036000830152612e5b81612e1f565b9050919050565b6000612e6d82612c7f565b612e778185612707565b9350612e87818560208601612c95565b612e90816121b3565b840191505092915050565b612ea48161240b565b82525050565b600060a082019050612ebf60008301886127aa565b612ecc60208301876127aa565b8181036040830152612ede8186612e62565b9050612eed60608301856123c1565b612efa6080830184612e9b565b9695505050505050565b6000608082019050612f1960008301876127aa565b8181036020830152612f2b8186612e62565b9050612f3a60408301856123c1565b612f476060830184612e9b565b95945050505050565b6000612f5b826120e8565b9050919050565b612f6b81612f50565b82525050565b6000606082019050612f8660008301866127aa565b612f9360208301856127c3565b612fa06040830184612f62565b949350505050565b6000608082019050612fbd6000830187612e9b565b612fca60208301866127aa565b8181036040830152612fdc8185612e62565b9050612feb60608301846123c1565b95945050505050565b60006130008286612c68565b6014820191506130108285612cc8565b915061301c8284612d03565b602082019150819050949350505050565b61303681612173565b82525050565b60808201600082015161305260008501826125ad565b506020820151613065602085018261302d565b506040820151613078604085018261302d565b50606082015161308b606085018261302d565b50505050565b60006080820190506130a6600083018461303c565b92915050565b60006020820190506130c160008301846127c3565b92915050565b60006130d28261240b565b915060ff82036130e5576130e4612690565b5b600182019050919050565b60006130fb826122ef565b9150613106836122ef565b92508282101561311957613118612690565b5b828203905092915050565b6000819050919050565b61313f61313a826127b9565b613124565b82525050565b6000613151828561312e565b6020820191506131618284612c68565b6014820191508190509392505050565b600061317c826122ef565b9150613187836122ef565b92508261319757613196612ba1565b5b82820690509291505056fea2646970667358221220d7e1f090422dbfa74ff7c5ca6c4bc7424ddfcce4f06f8f2d672c236b6eee2ff464736f6c634300080e0033",
  "immutableReferences": {},
  "source": "// SPDX-License-Identifier: MIT\npragma solidity >=0.4.22 <0.9.0;\n\nimport \"../node_modules/@openzeppelin/contracts/utils/math/SafeMath.sol\";\nimport \"./FlightSuretyData.sol\";\n\ncontract FlightSuretyApp {\n    using SafeMath for uint256;\n    address private contractOwner;          // Account used to deploy contract\n    //    address private dataContractAddress;\n    FlightSuretyData private dataContract;\n    bool operational = true;\n\n\n    uint8 private constant STATUS_CODE_UNKNOWN = 0;\n    uint8 private constant STATUS_CODE_ON_TIME = 10;\n    uint8 private constant STATUS_CODE_LATE_AIRLINE = 20; // << This is the only one relevant to payouts\n    uint8 private constant STATUS_CODE_LATE_WEATHER = 30;\n    uint8 private constant STATUS_CODE_LATE_TECHNICAL = 40;\n    uint8 private constant STATUS_CODE_LATE_OTHER = 50;\n    uint8 private nonce = 5;                            // Incremented to add pseudo-randomness at various points\n    uint256 public constant REGISTRATION_FEE = 1 ether; // Fee to be paid when registering oracle\n    uint256 private constant MIN_RESPONSES = 2;         // Number of oracles that must respond for valid status\n\n\n    struct Airline {\n        address airlineAddress;\n        bool isRegistered;\n        bool isFunded;\n        bool isActive; // both isRegisterd and isFunded. Not needed as we can calculate it, but is simple.\n    }\n\n    address[] airlineAddresses;\n    mapping(address => Airline) airlines;\n    // easy way for m of n once we have more than 4\n    uint256 activeAirlinesCount;\n\n    struct Flight {\n        bytes32 flightKey;\n        //        bool isRegistered;\n        uint8 statusCode;\n        uint256 timestamp;\n        address airline;\n    }\n\n    mapping(bytes32 => Flight) private flightsByFlightKey;\n\n    struct OracleRegistration {\n        bool isRegistered;\n        uint8[3] indexes;\n    }\n\n\n\n    /********************************************************************************************/\n    /*                                     SMART CONTRACT FUNCTIONS                             */\n    /********************************************************************************************/\n\n    // implies Data Contract has already been deployed\n    constructor(address _contractOwner, address dataContractAddress, address firstAirlineAddress){\n        contractOwner = _contractOwner;\n        dataContract = FlightSuretyData(dataContractAddress);\n        _registerAirline(firstAirlineAddress);\n    }\n\n    function setOperatingStatus(uint256 mode) external\n//    requireContractOwner\n    {\n        if (mode > 0) {\n            operational = true;\n        } else {\n            operational = false;\n        }\n        dataContract.setOperatingStatus(operational);\n    }\n    function isOperational() public view\n    returns (bool)\n    {\n        return operational;\n    }\n    // a simple way to test the isOperational modifier\n    function isOperationalTest() public view\n    requireIsOperational\n    returns (bool)\n    {\n        return isOperational();\n    }\n    /**\n     * Assuming only one registration at a time\n     * @dev Add an airline to the registration queue\n    *      Can only be called from FlightSuretyApp contract\n    *      M of N Multi-party Consensus is required\n    *        - M is 1/2 of N\n\n    *       NOTE: Will only allowing one airline to be added at a time.\n            Otherwise, would need an M of N for each airline which was\n            being added in parallel. No requirement for that.\n    */\n\n    address[] mofnConsensusToRegisterAnAirline = new address[](0);\n\n    function registerAirline(address airlineAddress)\n    external\n    requireIsOperational\n    requireNominatingAirlineIsActive(msg.sender)\n//    requireNominatedAirlineIsNotYetRegistered(airlineAddress)\n//    returns (bool success, uint256 votes) {\n    returns (bool) {\n        if (airlines[msg.sender].isActive != true){\n            return false;\n        }\n        if (airlines[msg.sender].isRegistered!= true){\n            return false;\n        }\n        // check if it is already registered\n        // no requirement to prevent an airline from voting twice,\n        //but will not do this in the test anyway\n        //        if (bAlreadyVoted == false) {\n\n        //        }\n\n        bool bRegistered = false;\n        // only do M of N if N > 4\n        // M by the way is only to be greater than 50%\n        if (activeAirlinesCount < 4) {\n            bRegistered = _registerAirline(airlineAddress);\n        }\n        else {\n            // am assuming only one airline is being registered at a time\n            // yes, this is a hack so I can finish this, and so is a hack not having\n            // multisig built into a ethereum's core contract class definition\n\n            mofnConsensusToRegisterAnAirline.push(msg.sender);\n\n            if (mofnConsensusToRegisterAnAirline.length >= activeAirlinesCount / 2) {\n                // ok, majority has been reached\n                mofnConsensusToRegisterAnAirline = new address[](0);\n                bRegistered = _registerAirline(airlineAddress);\n            }\n        }\n        return bRegistered;\n    }\n\n    event RegisteredAirline(Airline airline);\n    event FundedAirline(address airlineAddress, uint256 amount);\n\n    function _registerAirline(address newAirlineAddress)\n    private\n        // this requireOperational modifier doesn't feel right as it is an internal call\n        // and should executed because the call has passed a previous modifier\n        // so out it goes\n        requireIsOperational\n    returns (bool) {\n        Airline memory newAirline = Airline\n        ({airlineAddress : newAirlineAddress,\n        isActive : false,\n        isFunded : false,\n        isRegistered : true\n        });\n        airlines[newAirlineAddress] = newAirline;\n        airlineAddresses.push(newAirlineAddress);\n        emit RegisteredAirline(newAirline);\n        return true;\n    }\n\n    function getRegisteredAirlines() external view returns (address[] memory){\n        return airlineAddresses;\n    }\n\n    function isAirlineRegistered(address _airline) external view\n    returns (bool) {\n        for (uint256 i = 0; i < airlineAddresses.length; i++) {\n            if (airlineAddresses[i] == _airline) {\n                return true;\n            }\n        }\n        return false;\n    }\n\n    function fundAirline()\n    public\n    payable\n    requireIsOperational\n    requireAirlineIsRegisteredToFund(msg.sender)\n    {\n\n        dataContract.fund(msg.sender, msg.value);\n\n        if (airlines[msg.sender].isRegistered) {\n            airlines[msg.sender].isActive = true;\n            airlines[msg.sender].isFunded = true;\n            activeAirlinesCount++;\n        }\n\n        emit FundedAirline(msg.sender, msg.value);\n    }\n    function isAirlineFunded(address airline) external view returns (bool){\n        if(airlines[airline].isFunded){\n            return true;\n        } else {\n            return false;\n        }\n    }\n    function getAirlineFundLevel(address airlineAddress) public view returns (uint256){\n        return dataContract.getAirlineFundLevel(airlineAddress);\n    }\n\n    function pay(address airlineAddress, string memory flight, uint256 timestamp) external {\n        bytes32 flightKey = getFlightKey(airlineAddress, flight, timestamp);\n        dataContract.pay(airlineAddress, flightKey, payable(msg.sender));\n    }\n\n    function buyInsurance(address airlineAddress, string memory flight, uint256 timestamp)\n    external payable\n    requireLessThanOrEqualToOneEther(msg.value) {\n        bytes32 flightKey = getFlightKey(airlineAddress, flight, timestamp);\n        dataContract.buyInsurance(airlineAddress, flightKey);\n    }\n\n//    function getInsurancePoliciesForFlight(address airlineAddress, string memory flight, uint256 timestamp)\n//    public view returns (FlightSuretyData.InsurancePolicy[] calldata){\n//        bytes32 flightKey = getFlightKey(airlineAddress, flight, timestamp);\n//        return dataContract.getInsurancePoliciesByFlightKey(flightKey);\n//    }\n    function getCreditForInsured(address insuredAddress)\n    external view\n    requireIsOperational\n    returns (uint256){\n        return dataContract.getCreditForInsured(insuredAddress);\n    }\n\n    function getFlightKey(address airline, string memory flight, uint256 timestamp) pure internal returns (bytes32) {\n        return keccak256(abi.encodePacked(airline, flight, timestamp));\n    }\n\n    // what is the point of this?\n    // is it required that the airline is registered? Makes sense.\n    function registerFlight(address airlineAddress, string memory flightName, uint256 timestamp) external\n    requireIsOperational\n    requireAirlineIsRegisteredToRegisterAFlight(airlineAddress) {\n        // do we check to see if the flight has already been registered?\n        // not a requirement and also idempotent\n        bytes32 flightKey = getFlightKey(airlineAddress, flightName, timestamp);\n        Flight memory flight = Flight(\n        {flightKey : flightKey,\n        timestamp : timestamp,\n        airline : airlineAddress,\n        statusCode : STATUS_CODE_UNKNOWN});\n\n        flightsByFlightKey[flightKey] = flight;\n    }\n\n\n    ///////// ORACLE STUFF /////////////\n\n    // Track all registered oracles\n    mapping(address => OracleRegistration) private oracleRegistrationsByAddress;\n\n    // Model for responses from oracles\n    struct ResponseInfo {\n        address requester; // Account that requested status\n        bool isOpen;       // If open, oracle responses are accepted\n    }\n    // Track all oracle responses\n    // Key = hash(index, airline, flight, timestamp)\n    mapping(bytes32 => ResponseInfo) private responseInfoByKey;\n    mapping(bytes32 => mapping(uint8 => address[])) private responseInfoByKeyAndStatusCode;\n\n    // Event fired each time an oracle submits a response\n    event FlightStatusInfo(address airline, string flight, uint256 timestamp, uint8 status);\n    event OracleReport(address oracle, address airline, string flight, uint256 timestamp, uint8 status);\n\n    // Event fired when flight status request is submitted. Oracles track this and if they have a matching index. they fetch data and submit a response\n    event OracleRequest(uint8 index, address airline, string flight, uint256 timestamp);\n\n    // Triggered from the UI\n    function fetchFlightStatus(address airline, string memory flight, uint256 timestamp) external {\n        // Generate a request for oracles to fetch flight information\n        uint8 index = getRandomIndex(msg.sender);\n\n        // Generate a unique key for storing the request\n        bytes32 key = keccak256(abi.encodePacked(index, airline, flight, timestamp));\n        responseInfoByKey[key] = ResponseInfo({requester : msg.sender, isOpen : true});\n        emit OracleRequest(index, airline, flight, timestamp);\n    }\n    /**\n    * @dev Called after oracle has updated flight status\n    *\n    */\n    function processFlightStatus(address airline, string memory flight, uint256 timestamp, uint8 statusCode) internal  {\n        bytes32 flightKey = getFlightKey(airline, flight, timestamp);\n        // if status code is not 20, do nothing\n        if (statusCode == STATUS_CODE_UNKNOWN) {\n            return;\n        } else if (statusCode == STATUS_CODE_LATE_AIRLINE) {\n            // if status code is 20, then pay out all passengers who are insured for this flight\n            dataContract.creditInsureds(flightKey);\n        }\n        // no matter what, close down the policy for this flight\n        dataContract.closeInsurancePolicy(flightKey);\n    }\n\n    function submitOracleResponse(uint8 index, address airline, string memory flight, uint256 timestamp, uint8 statusCode) external {\n\n        bytes32 key = keccak256(abi.encodePacked(index, airline, flight, timestamp));\n        //        require(responseInfoByKey[key].isOpen, \"OracleRequest with index (\" + index + \"), airline (\" + airline + \"), flight (\" + flight + \") and timestamp (\" + timestamp + \") is not OPEN\");\n        require(responseInfoByKey[key].isOpen, \"OracleRequest is not OPEN\");\n        require((oracleRegistrationsByAddress[msg.sender].indexes[0] == index) ||\n        (oracleRegistrationsByAddress[msg.sender].indexes[1] == index) ||\n            (oracleRegistrationsByAddress[msg.sender].indexes[2] == index), \"Oracle has no matching Index for this OracleRequest\");\n\n        responseInfoByKeyAndStatusCode[key][statusCode].push(msg.sender);\n\n        // Information isn't considered verified until at least MIN_RESPONSES\n        // oracles respond with the *** same *** information\n        emit OracleReport(msg.sender, airline, flight, timestamp, statusCode);\n\n        if (responseInfoByKeyAndStatusCode[key][statusCode].length >= MIN_RESPONSES) {\n            // CODE EXERCISE 3: Prevent any more responses since MIN_RESPONSE threshold has been reached\n            /* Enter code here */\n            responseInfoByKey[key].isOpen = false;\n\n            emit FlightStatusInfo(airline, flight, timestamp, statusCode);\n\n            // Handle flight status as appropriate\n            processFlightStatus(airline, flight, timestamp, statusCode);\n        }\n    }\n\n    event    OracleRegistered(address sender);\n\n    function registerOracle() external payable {\n        // Require registration fee\n        require(msg.value >= REGISTRATION_FEE, \"Registration fee is required\");\n\n        uint8[3] memory indexes = generateIndexes(msg.sender);\n\n        oracleRegistrationsByAddress[msg.sender] = OracleRegistration({\n        isRegistered : true,\n        indexes : indexes\n        });\n        emit OracleRegistered(msg.sender);\n\n    }\n\n\n    function generateIndexes(address account) internal returns (uint8[3] memory) {\n        // Returns array of three non-duplicating integers from 0-9\n        uint8[3] memory indexes;\n        indexes[0] = getRandomIndex(account);\n\n        indexes[1] = indexes[0];\n        while (indexes[1] == indexes[0]) {\n            indexes[1] = getRandomIndex(account);\n        }\n\n        indexes[2] = indexes[1];\n        while ((indexes[2] == indexes[0]) || (indexes[2] == indexes[1])) {\n            indexes[2] = getRandomIndex(account);\n        }\n        return indexes;\n    }\n\n    function getMyIndexes() view external returns (uint8[3] memory) {\n        require(oracleRegistrationsByAddress[msg.sender].isRegistered, \"This Oracle is not REGISTERED\");\n        return oracleRegistrationsByAddress[msg.sender].indexes;\n    }\n\n    function getRandomIndex(address account) internal returns (uint8) {\n        uint8 maxValue = 10;\n        // Pseudo random number...the incrementing nonce adds variation\n        uint8 random = uint8(uint256(keccak256(abi.encodePacked(blockhash(block.number - nonce++), account))) % maxValue);\n        if (nonce > 250) {\n            nonce = 0;\n            // Can only fetch blockhashes for last 256 blocks so we adapt\n        }\n        return random;\n    }\n\n    modifier requireIsOperational()     {\n        // used on all state changing functions\n        // Modify to call data contract's status\n        require(operational == true, \"Contract is currently not operational\");\n        _;\n    }\n    modifier requireContractOwner()    {\n        require(msg.sender == contractOwner, \"Caller must be contract owner to make this call.\");\n        _;\n    }\n    modifier requireNominatedAirlineIsNotYetRegistered(address airlineAddress) {\n        require(!airlines[airlineAddress].isRegistered, \"Airline must not yet be REGISTERED.\");\n        _;\n    }\n    modifier requireAirlineIsFunded(address airlineAddress) {\n        require(airlines[airlineAddress].isFunded, \"Airline must be FUNDED to make this call.\");\n        _;\n    }\n    modifier requireAirlineIsRegisteredToRegisterAFlight(address airlineAddress) {\n        require(airlines[airlineAddress].isRegistered, \"Airline must be REGISTERED to REGISTER a FLIGHT.\");\n        _;\n    }\n    modifier requireAirlineIsRegisteredToFund(address airlineAddress) {\n        require(airlines[airlineAddress].isRegistered, \"Airline must be REGISTERED to FUND.\");\n        _;\n    }\n    // require an airline is active in order to vote on registering an airline\n    modifier requireNominatingAirlineIsActive(address airlineAddress) {\n        require(airlines[airlineAddress].isActive, \"Airline must be ACTIVE to make this call.\");\n        _;\n    }\n    modifier requireLessThanOrEqualToOneEther(uint256 value){\n        require(value <= 1 ether, \"Cannot insure for more than one ether.\");\n        _;\n    }\n}\n",
  "sourcePath": "/Users/thomaswhitehill/IdeaProjects/BlockchainProjects/FlightSuretyProjects/FlightSurety/contracts/FlightSuretyApp.sol",
  "compiler": {
    "name": "solc",
    "version": "0.8.14+commit.80d49f37.Emscripten.clang"
  },
  "schemaVersion": "3.4.4",
  "updatedAt": "2022-06-06T16:09:48.816Z",
  "networkType": "ethereum",
  "devdoc": {
    "kind": "dev",
    "methods": {},
    "stateVariables": {
      "mofnConsensusToRegisterAnAirline": {
        "details": "Add an airline to the registration queue      Can only be called from FlightSuretyApp contract      M of N Multi-party Consensus is required        - M is 1/2 of N       NOTE: Will only allowing one airline to be added at a time. Otherwise, would need an M of N for each airline which was being added in parallel. No requirement for that."
      }
    },
    "version": 1
  },
  "userdoc": {
    "kind": "user",
    "methods": {},
    "version": 1
  }
}