{
  "contractName": "FlightSuretyData",
  "abi": [
    {
      "inputs": [],
      "stateMutability": "nonpayable",
      "type": "constructor"
    },
    {
      "anonymous": false,
      "inputs": [
        {
          "indexed": false,
          "internalType": "address",
          "name": "airline",
          "type": "address"
        },
        {
          "indexed": false,
          "internalType": "bytes32",
          "name": "flightKey",
          "type": "bytes32"
        },
        {
          "indexed": false,
          "internalType": "address",
          "name": "buyer",
          "type": "address"
        },
        {
          "indexed": false,
          "internalType": "uint256",
          "name": "amount",
          "type": "uint256"
        }
      ],
      "name": "Data_BuyInsurnce",
      "type": "event"
    },
    {
      "anonymous": false,
      "inputs": [
        {
          "indexed": false,
          "internalType": "bytes32",
          "name": "flightKey",
          "type": "bytes32"
        }
      ],
      "name": "Data_CloseInsurancePolicy",
      "type": "event"
    },
    {
      "anonymous": false,
      "inputs": [
        {
          "indexed": false,
          "internalType": "bytes32",
          "name": "flightKey",
          "type": "bytes32"
        }
      ],
      "name": "Data_CreditInsureds",
      "type": "event"
    },
    {
      "anonymous": false,
      "inputs": [
        {
          "indexed": false,
          "internalType": "address",
          "name": "airline",
          "type": "address"
        },
        {
          "indexed": false,
          "internalType": "uint256",
          "name": "amount",
          "type": "uint256"
        }
      ],
      "name": "Data_FundingReceived",
      "type": "event"
    },
    {
      "anonymous": false,
      "inputs": [
        {
          "indexed": false,
          "internalType": "bool",
          "name": "status",
          "type": "bool"
        }
      ],
      "name": "Data_OperatingStatusSet",
      "type": "event"
    },
    {
      "inputs": [
        {
          "internalType": "address",
          "name": "_airline",
          "type": "address"
        },
        {
          "internalType": "bytes32",
          "name": "_flightKey",
          "type": "bytes32"
        }
      ],
      "name": "buyInsurance",
      "outputs": [],
      "stateMutability": "payable",
      "type": "function",
      "payable": true
    },
    {
      "inputs": [
        {
          "internalType": "bytes32",
          "name": "flightKey",
          "type": "bytes32"
        }
      ],
      "name": "creditInsureds",
      "outputs": [],
      "stateMutability": "nonpayable",
      "type": "function"
    },
    {
      "inputs": [
        {
          "internalType": "address",
          "name": "insuredAddress",
          "type": "address"
        }
      ],
      "name": "getCreditForInsured",
      "outputs": [
        {
          "internalType": "uint256",
          "name": "",
          "type": "uint256"
        }
      ],
      "stateMutability": "view",
      "type": "function",
      "constant": true
    },
    {
      "inputs": [
        {
          "internalType": "bytes32",
          "name": "flightKey",
          "type": "bytes32"
        }
      ],
      "name": "closeInsurancePolicy",
      "outputs": [],
      "stateMutability": "nonpayable",
      "type": "function"
    },
    {
      "inputs": [
        {
          "internalType": "address",
          "name": "airlineAddress",
          "type": "address"
        },
        {
          "internalType": "bytes32",
          "name": "flightKey",
          "type": "bytes32"
        },
        {
          "internalType": "address payable",
          "name": "insuredAddress",
          "type": "address"
        }
      ],
      "name": "pay",
      "outputs": [],
      "stateMutability": "nonpayable",
      "type": "function"
    },
    {
      "inputs": [
        {
          "internalType": "address",
          "name": "airlineAddress",
          "type": "address"
        },
        {
          "internalType": "uint256",
          "name": "amount",
          "type": "uint256"
        }
      ],
      "name": "fund",
      "outputs": [],
      "stateMutability": "payable",
      "type": "function",
      "payable": true
    },
    {
      "inputs": [
        {
          "internalType": "address",
          "name": "airlineAddress",
          "type": "address"
        }
      ],
      "name": "getAirlineFundLevel",
      "outputs": [
        {
          "internalType": "uint256",
          "name": "",
          "type": "uint256"
        }
      ],
      "stateMutability": "view",
      "type": "function",
      "constant": true
    },
    {
      "inputs": [
        {
          "internalType": "bool",
          "name": "mode",
          "type": "bool"
        }
      ],
      "name": "setOperatingStatus",
      "outputs": [],
      "stateMutability": "nonpayable",
      "type": "function"
    },
    {
      "inputs": [],
      "name": "isOperational",
      "outputs": [
        {
          "internalType": "bool",
          "name": "",
          "type": "bool"
        }
      ],
      "stateMutability": "view",
      "type": "function",
      "constant": true
    }
  ],
  "bytecode": "0x60806040526001600060146101000a81548160ff02191690831515021790555034801561002b57600080fd5b50336000806101000a81548173ffffffffffffffffffffffffffffffffffffffff021916908373ffffffffffffffffffffffffffffffffffffffff1602179055506116488061007b6000396000f3fe6080604052600436106100865760003560e01c8063adf8ae7a11610059578063adf8ae7a1461014a578063be6547ae14610166578063cd905dff1461018f578063d157ba27146101ba578063df7a7e2d146101e357610086565b8063110466ed1461008b5780634cfb378a146100b45780637b1837de146100f157806384e7bb2d1461010d575b600080fd5b34801561009757600080fd5b506100b260048036038101906100ad9190610fbc565b61020c565b005b3480156100c057600080fd5b506100db60048036038101906100d69190611047565b61026f565b6040516100e8919061108d565b60405180910390f35b61010b600480360381019061010691906110d4565b6102b8565b005b34801561011957600080fd5b50610134600480360381019061012f9190611047565b610397565b604051610141919061108d565b60405180910390f35b610164600480360381019061015f919061114a565b61042e565b005b34801561017257600080fd5b5061018d6004803603810190610188919061118a565b610654565b005b34801561019b57600080fd5b506101a461089c565b6040516101b191906111c6565b60405180910390f35b3480156101c657600080fd5b506101e160048036038101906101dc919061118a565b6108b2565b005b3480156101ef57600080fd5b5061020a6004803603810190610205919061121f565b610bbf565b005b80600060146101000a81548160ff0219169083151502179055507f7bb6c2f8327a5cc6976daa5eae00db6f0854fcf49aa9ab24bc295a486f74cd60600060149054906101000a900460ff1660405161026491906111c6565b60405180910390a150565b6000600160008373ffffffffffffffffffffffffffffffffffffffff1673ffffffffffffffffffffffffffffffffffffffff168152602001908152602001600020549050919050565b600060149054906101000a900460ff16610307576040517f08c379a00000000000000000000000000000000000000000000000000000000081526004016102fe906112f5565b60405180910390fd5b61035981600160008573ffffffffffffffffffffffffffffffffffffffff1673ffffffffffffffffffffffffffffffffffffffff16815260200190815260200160002054610f5390919063ffffffff16565b507f8421208b080b228708b3330e4eafc953fd632d2a76f8c2cc8302fe45c42a7d19828260405161038b929190611324565b60405180910390a15050565b60008060149054906101000a900460ff166103e7576040517f08c379a00000000000000000000000000000000000000000000000000000000081526004016103de906112f5565b60405180910390fd5b600360008373ffffffffffffffffffffffffffffffffffffffff1673ffffffffffffffffffffffffffffffffffffffff168152602001908152602001600020549050919050565b600060149054906101000a900460ff1661047d576040517f08c379a0000000000000000000000000000000000000000000000000000000008152600401610474906112f5565b60405180910390fd5b60006040518060e001604052808381526020018473ffffffffffffffffffffffffffffffffffffffff1681526020013373ffffffffffffffffffffffffffffffffffffffff16815260200134815260200160008152602001600115158152602001600015158152509050600260008381526020019081526020016000208190806001815401808255809150506001900390600052602060002090600602016000909190919091506000820151816000015560208201518160010160006101000a81548173ffffffffffffffffffffffffffffffffffffffff021916908373ffffffffffffffffffffffffffffffffffffffff16021790555060408201518160020160006101000a81548173ffffffffffffffffffffffffffffffffffffffff021916908373ffffffffffffffffffffffffffffffffffffffff160217905550606082015181600301556080820151816004015560a08201518160050160006101000a81548160ff02191690831515021790555060c08201518160050160016101000a81548160ff02191690831515021790555050507f8d3db3cdbcc3d426334e4cd63d3da39f3fda5958fc81e53df2521334f2de67f983833334604051610647949392919061135c565b60405180910390a1505050565b600060149054906101000a900460ff166106a3576040517f08c379a000000000000000000000000000000000000000000000000000000000815260040161069a906112f5565b60405180910390fd5b600060026000838152602001908152602001600020805480602002602001604051908101604052809291908181526020016000905b8282101561080a57838290600052602060002090600602016040518060e0016040529081600082015481526020016001820160009054906101000a900473ffffffffffffffffffffffffffffffffffffffff1673ffffffffffffffffffffffffffffffffffffffff1673ffffffffffffffffffffffffffffffffffffffff1681526020016002820160009054906101000a900473ffffffffffffffffffffffffffffffffffffffff1673ffffffffffffffffffffffffffffffffffffffff1673ffffffffffffffffffffffffffffffffffffffff16815260200160038201548152602001600482015481526020016005820160009054906101000a900460ff161515151581526020016005820160019054906101000a900460ff161515151581525050815260200190600101906106d8565b50505050905060005b8151811015610860576000828281518110610831576108306113a1565b5b6020026020010151905060008160a0019015159081151581525050508080610858906113ff565b915050610813565b507f584f3cf1d90d41faeab13d7baa754c4e93d8abc7f7179d5b39e17f511425ea7a826040516108909190611447565b60405180910390a15050565b60008060149054906101000a900460ff16905090565b60008054906101000a900473ffffffffffffffffffffffffffffffffffffffff1673ffffffffffffffffffffffffffffffffffffffff163373ffffffffffffffffffffffffffffffffffffffff1614610940576040517f08c379a0000000000000000000000000000000000000000000000000000000008152600401610937906114ae565b60405180910390fd5b600060149054906101000a900460ff1661098f576040517f08c379a0000000000000000000000000000000000000000000000000000000008152600401610986906112f5565b60405180910390fd5b600060026000838152602001908152602001600020805480602002602001604051908101604052809291908181526020016000905b82821015610af657838290600052602060002090600602016040518060e0016040529081600082015481526020016001820160009054906101000a900473ffffffffffffffffffffffffffffffffffffffff1673ffffffffffffffffffffffffffffffffffffffff1673ffffffffffffffffffffffffffffffffffffffff1681526020016002820160009054906101000a900473ffffffffffffffffffffffffffffffffffffffff1673ffffffffffffffffffffffffffffffffffffffff1673ffffffffffffffffffffffffffffffffffffffff16815260200160038201548152602001600482015481526020016005820160009054906101000a900460ff161515151581526020016005820160019054906101000a900460ff161515151581525050815260200190600101906109c4565b50505050905060005b8151811015610b83576000828281518110610b1d57610b1c6113a1565b5b60200260200101519050600115158160a00151151503610b6f57600a8160600151600f610b4a91906114ce565b610b549190611557565b81608001818152505060008160a00190151590811515815250505b508080610b7b906113ff565b915050610aff565b507f1295c9d0f8a5ddcdf227ff8ee7455f47f279b0c87313ed01782a863c25029bdc82604051610bb39190611447565b60405180910390a15050565b60008054906101000a900473ffffffffffffffffffffffffffffffffffffffff1673ffffffffffffffffffffffffffffffffffffffff163373ffffffffffffffffffffffffffffffffffffffff1614610c4d576040517f08c379a0000000000000000000000000000000000000000000000000000000008152600401610c44906114ae565b60405180910390fd5b600060149054906101000a900460ff16610c9c576040517f08c379a0000000000000000000000000000000000000000000000000000000008152600401610c93906112f5565b60405180910390fd5b600060026000848152602001908152602001600020805480602002602001604051908101604052809291908181526020016000905b82821015610e0357838290600052602060002090600602016040518060e0016040529081600082015481526020016001820160009054906101000a900473ffffffffffffffffffffffffffffffffffffffff1673ffffffffffffffffffffffffffffffffffffffff1673ffffffffffffffffffffffffffffffffffffffff1681526020016002820160009054906101000a900473ffffffffffffffffffffffffffffffffffffffff1673ffffffffffffffffffffffffffffffffffffffff1673ffffffffffffffffffffffffffffffffffffffff16815260200160038201548152602001600482015481526020016005820160009054906101000a900460ff161515151581526020016005820160019054906101000a900460ff16151515158152505081526020019060010190610cd1565b50505050905060005b8151811015610f4b576000828281518110610e2a57610e296113a1565b5b602002602001015190508373ffffffffffffffffffffffffffffffffffffffff16816040015173ffffffffffffffffffffffffffffffffffffffff1603610f3757600115158160c00151151503610e8357505050610f4e565b60018160c0019015159081151581525050610eea8160800151600160008973ffffffffffffffffffffffffffffffffffffffff1673ffffffffffffffffffffffffffffffffffffffff16815260200190815260200160002054610f6990919063ffffffff16565b508373ffffffffffffffffffffffffffffffffffffffff166108fc82608001519081150290604051600060405180830381858888f19350505050158015610f35573d6000803e3d6000fd5b505b508080610f43906113ff565b915050610e0c565b50505b505050565b60008183610f619190611588565b905092915050565b60008183610f7791906115de565b905092915050565b600080fd5b60008115159050919050565b610f9981610f84565b8114610fa457600080fd5b50565b600081359050610fb681610f90565b92915050565b600060208284031215610fd257610fd1610f7f565b5b6000610fe084828501610fa7565b91505092915050565b600073ffffffffffffffffffffffffffffffffffffffff82169050919050565b600061101482610fe9565b9050919050565b61102481611009565b811461102f57600080fd5b50565b6000813590506110418161101b565b92915050565b60006020828403121561105d5761105c610f7f565b5b600061106b84828501611032565b91505092915050565b6000819050919050565b61108781611074565b82525050565b60006020820190506110a2600083018461107e565b92915050565b6110b181611074565b81146110bc57600080fd5b50565b6000813590506110ce816110a8565b92915050565b600080604083850312156110eb576110ea610f7f565b5b60006110f985828601611032565b925050602061110a858286016110bf565b9150509250929050565b6000819050919050565b61112781611114565b811461113257600080fd5b50565b6000813590506111448161111e565b92915050565b6000806040838503121561116157611160610f7f565b5b600061116f85828601611032565b925050602061118085828601611135565b9150509250929050565b6000602082840312156111a05761119f610f7f565b5b60006111ae84828501611135565b91505092915050565b6111c081610f84565b82525050565b60006020820190506111db60008301846111b7565b92915050565b60006111ec82610fe9565b9050919050565b6111fc816111e1565b811461120757600080fd5b50565b600081359050611219816111f3565b92915050565b60008060006060848603121561123857611237610f7f565b5b600061124686828701611032565b935050602061125786828701611135565b92505060406112688682870161120a565b9150509250925092565b600082825260208201905092915050565b7f436f6e74726163742069732063757272656e746c79206e6f74206f706572617460008201527f696f6e616c000000000000000000000000000000000000000000000000000000602082015250565b60006112df602583611272565b91506112ea82611283565b604082019050919050565b6000602082019050818103600083015261130e816112d2565b9050919050565b61131e81611009565b82525050565b60006040820190506113396000830185611315565b611346602083018461107e565b9392505050565b61135681611114565b82525050565b60006080820190506113716000830187611315565b61137e602083018661134d565b61138b6040830185611315565b611398606083018461107e565b95945050505050565b7f4e487b7100000000000000000000000000000000000000000000000000000000600052603260045260246000fd5b7f4e487b7100000000000000000000000000000000000000000000000000000000600052601160045260246000fd5b600061140a82611074565b91507fffffffffffffffffffffffffffffffffffffffffffffffffffffffffffffffff820361143c5761143b6113d0565b5b600182019050919050565b600060208201905061145c600083018461134d565b92915050565b7f43616c6c6572206973206e6f7420636f6e7472616374206f776e657200000000600082015250565b6000611498601c83611272565b91506114a382611462565b602082019050919050565b600060208201905081810360008301526114c78161148b565b9050919050565b60006114d982611074565b91506114e483611074565b9250817fffffffffffffffffffffffffffffffffffffffffffffffffffffffffffffffff048311821515161561151d5761151c6113d0565b5b828202905092915050565b7f4e487b7100000000000000000000000000000000000000000000000000000000600052601260045260246000fd5b600061156282611074565b915061156d83611074565b92508261157d5761157c611528565b5b828204905092915050565b600061159382611074565b915061159e83611074565b9250827fffffffffffffffffffffffffffffffffffffffffffffffffffffffffffffffff038211156115d3576115d26113d0565b5b828201905092915050565b60006115e982611074565b91506115f483611074565b925082821015611607576116066113d0565b5b82820390509291505056fea2646970667358221220ac9cba9c3f9b7afaa99ba9e6df8e3695256874f144c53f3a147f3eb4926a346164736f6c634300080e0033",
  "immutableReferences": {},
  "source": "// SPDX-License-Identifier: MIT\npragma solidity >=0.4.22 <0.9.0;\n\nimport \"../node_modules/@openzeppelin/contracts/utils/math/SafeMath.sol\";\n\ncontract FlightSuretyData {\n    using SafeMath for uint256;\n\n    /********************************************************************************************/\n    /*                                       DATA VARIABLES                                     */\n    /********************************************************************************************/\n\n    address private contractOwner;                                      // Account used to deploy contract\n    bool private operational = true;                                    // Blocks all state changes throughout the contract if false\n\n    struct InsurancePolicy {\n        bytes32 flightKey;\n        address airline;\n        address insuredAddress;\n        uint256 amountInsuredFor; // 1 E >= how much is paid by Customer\n        uint256 amountCredited; // 1.5 x amountInsuredFor\n        bool isOpen; // if not open, will no longer issue credits. a bit of a hack.\n        bool isPaid;\n    }\n\n    mapping(address => uint256) private airlineFundingBalances;\n    // map by flightKey to InsurancePolicy array\n    mapping(bytes32 => InsurancePolicy[]) private insurancePoliciesByFlightKey;\n\n    mapping(address => uint256) private insuredCreditGiven;\n\n    /********************************************************************************************/\n    /*                                       EVENT DEFINITIONS                                  */\n    /********************************************************************************************/\n    /**\n    * @dev Constructor\n    *      The deploying account becomes contractOwner\n    */\n    constructor()  {\n        contractOwner = msg.sender;\n    }\n\n    /********************************************************************************************/\n    /*                                     SMART CONTRACT FUNCTIONS                             */\n    /********************************************************************************************/\n    /**\n     * @dev Buy insurance for a flight\n    *\n    */\n    event Data_BuyInsurnce(address airline, bytes32 flightKey, address buyer, uint256 amount);\n\n    function buyInsurance(address _airline, bytes32 _flightKey)\n    external payable\n    requireIsOperational {\n        InsurancePolicy memory ip = InsurancePolicy(\n        {flightKey : _flightKey,\n        airline : _airline,\n        insuredAddress : msg.sender,\n        amountInsuredFor : msg.value,\n        amountCredited : 0 ether,\n        isOpen : true,\n        isPaid : false});\n        insurancePoliciesByFlightKey[_flightKey].push(ip);\n        emit Data_BuyInsurnce(_airline, _flightKey, msg.sender, msg.value);\n    }\n\n    /**\n     *  @dev Credits payouts to insurees\n    */\n    event Data_CreditInsureds(bytes32 flightKey);\n\n    function creditInsureds(bytes32 flightKey) external\n    requireContractOwner\n    requireIsOperational\n    {\n\n        // for each insured in the policies for this flight\n        InsurancePolicy[] memory ipArray = insurancePoliciesByFlightKey[flightKey];\n\n        for (uint i = 0; i < ipArray.length; i++) {\n            InsurancePolicy memory ip = ipArray[i];\n            if (ip.isOpen == true) {\n                // credit them 1.5 x their premium\n                ip.amountCredited = (15 * ip.amountInsuredFor)/10;\n                // close this here, bit of a hack, but better than AppContract controlling our state\n                ip.isOpen = false;\n            }\n        }\n        emit Data_CreditInsureds(flightKey);\n    }\n    function getCreditForInsured(address insuredAddress)\n    external view\n    requireIsOperational\n    returns (uint256){\n        return insuredCreditGiven[insuredAddress];\n    }\n\n    /**\n     *  @dev Close this flights insurance policies one by one\n     Used when the flight has a status which needs not pay out\n        */\n\n    event Data_CloseInsurancePolicy(bytes32 flightKey);\n    function closeInsurancePolicy(bytes32 flightKey) external\n//    requireContractOwner\n    requireIsOperational {\n\n        // close all policies for this flight\n        InsurancePolicy[] memory ipArray = insurancePoliciesByFlightKey[flightKey];\n\n        for (uint i = 0; i < ipArray.length; i++) {\n            InsurancePolicy memory ip = ipArray[i];\n            ip.isOpen = false;\n        }\n    emit Data_CloseInsurancePolicy(flightKey);\n    }\n//    function getInsurancePoliciesByFlightKey(bytes32 flightKey)\n//    public view returns (InsurancePolicy[] calldata){\n\n//        return insurancePoliciesByFlightKey[flightKey];\n//    }\n\n    /**\n     *  @dev Transfers eligible payout funds to insuree\n     *\n    */\n\n    function pay(address airlineAddress, bytes32 flightKey, address payable insuredAddress)\n        external\n        requireContractOwner\n        requireIsOperational\n\n    {\n        // inefficient and gassy but ... whatever, it's a class not a commercial product\n        InsurancePolicy[] memory ipArray = insurancePoliciesByFlightKey[flightKey];\n\n        for (uint i = 0; i < ipArray.length; i++) {\n            InsurancePolicy memory ip = ipArray[i];\n            if (ip.insuredAddress == insuredAddress) {\n                if (ip.isPaid == true) {\n                    // don't pay again\n                    return;\n                }\n                ip.isPaid = true;\n                // is this a requirement? I don't recall it being one.\n                airlineFundingBalances[airlineAddress].sub(ip.amountCredited);\n                insuredAddress.transfer(ip.amountCredited);\n            }\n        }\n    }\n\n    /**\n     * @dev How Airlines fund their participation.\n    */\n    event Data_FundingReceived(address airline, uint256 amount);\n    function fund(address airlineAddress, uint256 amount) public payable\n        requireIsOperational\n    {\n        // 10 eth is required but checked at interface of the App Contract, not here\n        // as business rules may change\n        airlineFundingBalances[airlineAddress].add(amount);\n        emit Data_FundingReceived(airlineAddress, amount);\n    }\n    function getAirlineFundLevel(address airlineAddress) public view returns (uint256){\n        return airlineFundingBalances[airlineAddress];\n    }\n\n//    fallback() external payable {\n//        fund(msg.sender);\n//    }\n\n//    receive() external payable\n//    {\n//        fund(msg.sender);\n//    }\n    /********************************************************************************************/\n    /*                                       FUNCTION MODIFIERS                                 */\n    /********************************************************************************************/\n\n    modifier requireIsOperational()  {\n        require(operational, \"Contract is currently not operational\");\n        _;\n    }\n    modifier requireContractOwner() {\n        require(msg.sender == contractOwner, \"Caller is not contract owner\");\n        _;\n    }\n\n\n    /********************************************************************************************/\n    /*                                       UTILITY FUNCTIONS                                  */\n    /********************************************************************************************/\n\n    /**\n     * @dev Sets contract operations on/off\n    *\n    * When operational mode is disabled, all write transactions except for this one will fail\n    */\n    event Data_OperatingStatusSet(bool status);\n    function setOperatingStatus(bool mode) external //requireContractOwner\n    {\n        // no multi consensus required here\n        operational = mode;\n        emit Data_OperatingStatusSet(operational);\n\n    }\n\n    function isOperational() public view returns (bool)  {\n        return operational;\n    }\n\n\n}\n\n",
  "sourcePath": "/Users/thomaswhitehill/IdeaProjects/BlockchainProjects/FlightSuretyProjects/FlightSurety/contracts/FlightSuretyData.sol",
  "compiler": {
    "name": "solc",
    "version": "0.8.14+commit.80d49f37.Emscripten.clang"
  },
  "schemaVersion": "3.4.4",
  "updatedAt": "2022-06-06T16:09:48.839Z",
  "networkType": "ethereum",
  "devdoc": {
    "events": {
      "Data_BuyInsurnce(address,bytes32,address,uint256)": {
        "details": "Buy insurance for a flight"
      },
      "Data_CloseInsurancePolicy(bytes32)": {
        "details": "Close this flights insurance policies one by one Used when the flight has a status which needs not pay out"
      },
      "Data_CreditInsureds(bytes32)": {
        "details": "Credits payouts to insurees"
      },
      "Data_FundingReceived(address,uint256)": {
        "details": "How Airlines fund their participation."
      },
      "Data_OperatingStatusSet(bool)": {
        "details": "Sets contract operations on/off When operational mode is disabled, all write transactions except for this one will fail"
      }
    },
    "kind": "dev",
    "methods": {
      "constructor": {
        "details": "Constructor      The deploying account becomes contractOwner"
      },
      "pay(address,bytes32,address)": {
        "details": "Transfers eligible payout funds to insuree"
      }
    },
    "version": 1
  },
  "userdoc": {
    "kind": "user",
    "methods": {},
    "version": 1
  }
}