{
  "contractName": "FlightSuretyApp",
  "abi": [
    {
      "inputs": [
        {
          "internalType": "address",
          "name": "_contractOwner",
          "type": "address"
        },
        {
          "internalType": "address",
          "name": "dataContractAddress",
          "type": "address"
        },
        {
          "internalType": "address",
          "name": "firstAirlineAddress",
          "type": "address"
        }
      ],
      "stateMutability": "nonpayable",
      "type": "constructor"
    },
    {
      "anonymous": false,
      "inputs": [
        {
          "indexed": false,
          "internalType": "address",
          "name": "airline",
          "type": "address"
        },
        {
          "indexed": false,
          "internalType": "string",
          "name": "flight",
          "type": "string"
        },
        {
          "indexed": false,
          "internalType": "uint256",
          "name": "timestamp",
          "type": "uint256"
        },
        {
          "indexed": false,
          "internalType": "uint8",
          "name": "status",
          "type": "uint8"
        }
      ],
      "name": "FlightStatusInfo",
      "type": "event"
    },
    {
      "anonymous": false,
      "inputs": [
        {
          "indexed": false,
          "internalType": "address",
          "name": "sender",
          "type": "address"
        }
      ],
      "name": "OracleRegistered",
      "type": "event"
    },
    {
      "anonymous": false,
      "inputs": [
        {
          "indexed": false,
          "internalType": "address",
          "name": "oracle",
          "type": "address"
        },
        {
          "indexed": false,
          "internalType": "address",
          "name": "airline",
          "type": "address"
        },
        {
          "indexed": false,
          "internalType": "string",
          "name": "flight",
          "type": "string"
        },
        {
          "indexed": false,
          "internalType": "uint256",
          "name": "timestamp",
          "type": "uint256"
        },
        {
          "indexed": false,
          "internalType": "uint8",
          "name": "status",
          "type": "uint8"
        }
      ],
      "name": "OracleReport",
      "type": "event"
    },
    {
      "anonymous": false,
      "inputs": [
        {
          "indexed": false,
          "internalType": "uint8",
          "name": "index",
          "type": "uint8"
        },
        {
          "indexed": false,
          "internalType": "address",
          "name": "airline",
          "type": "address"
        },
        {
          "indexed": false,
          "internalType": "string",
          "name": "flight",
          "type": "string"
        },
        {
          "indexed": false,
          "internalType": "uint256",
          "name": "timestamp",
          "type": "uint256"
        }
      ],
      "name": "OracleRequest",
      "type": "event"
    },
    {
      "anonymous": false,
      "inputs": [
        {
          "components": [
            {
              "internalType": "address",
              "name": "airlineAddress",
              "type": "address"
            },
            {
              "internalType": "bool",
              "name": "isRegistered",
              "type": "bool"
            },
            {
              "internalType": "bool",
              "name": "isFunded",
              "type": "bool"
            },
            {
              "internalType": "bool",
              "name": "isActive",
              "type": "bool"
            }
          ],
          "indexed": false,
          "internalType": "struct FlightSuretyApp.Airline",
          "name": "airline",
          "type": "tuple"
        }
      ],
      "name": "RegisteredAirline",
      "type": "event"
    },
    {
      "inputs": [],
      "name": "REGISTRATION_FEE",
      "outputs": [
        {
          "internalType": "uint256",
          "name": "",
          "type": "uint256"
        }
      ],
      "stateMutability": "view",
      "type": "function"
    },
    {
      "inputs": [
        {
          "internalType": "bool",
          "name": "mode",
          "type": "bool"
        }
      ],
      "name": "setOperatingStatus",
      "outputs": [],
      "stateMutability": "nonpayable",
      "type": "function"
    },
    {
      "inputs": [],
      "name": "isOperational",
      "outputs": [
        {
          "internalType": "bool",
          "name": "operatingMode",
          "type": "bool"
        }
      ],
      "stateMutability": "view",
      "type": "function"
    },
    {
      "inputs": [],
      "name": "isOperationalTest",
      "outputs": [
        {
          "internalType": "bool",
          "name": "operatingMode",
          "type": "bool"
        }
      ],
      "stateMutability": "view",
      "type": "function"
    },
    {
      "inputs": [
        {
          "internalType": "address",
          "name": "airlineAddress",
          "type": "address"
        }
      ],
      "name": "registerAirline",
      "outputs": [
        {
          "internalType": "bool",
          "name": "success",
          "type": "bool"
        },
        {
          "internalType": "uint256",
          "name": "votes",
          "type": "uint256"
        }
      ],
      "stateMutability": "nonpayable",
      "type": "function"
    },
    {
      "inputs": [
        {
          "internalType": "address",
          "name": "_airline",
          "type": "address"
        }
      ],
      "name": "isAirlineRegistered",
      "outputs": [
        {
          "internalType": "bool",
          "name": "bAirlineIsRegistered",
          "type": "bool"
        }
      ],
      "stateMutability": "view",
      "type": "function"
    },
    {
      "inputs": [],
      "name": "fund",
      "outputs": [],
      "stateMutability": "payable",
      "type": "function"
    },
    {
      "inputs": [
        {
          "internalType": "address",
          "name": "airlineAddress",
          "type": "address"
        },
        {
          "internalType": "string",
          "name": "flight",
          "type": "string"
        },
        {
          "internalType": "uint256",
          "name": "timestamp",
          "type": "uint256"
        }
      ],
      "name": "pay",
      "outputs": [],
      "stateMutability": "nonpayable",
      "type": "function"
    },
    {
      "inputs": [
        {
          "internalType": "address",
          "name": "airlineAddress",
          "type": "address"
        },
        {
          "internalType": "string",
          "name": "flight",
          "type": "string"
        },
        {
          "internalType": "uint256",
          "name": "timestamp",
          "type": "uint256"
        }
      ],
      "name": "buyInsurance",
      "outputs": [],
      "stateMutability": "payable",
      "type": "function"
    },
    {
      "inputs": [
        {
          "internalType": "address",
          "name": "airlineAddress",
          "type": "address"
        },
        {
          "internalType": "string",
          "name": "flightName",
          "type": "string"
        },
        {
          "internalType": "uint256",
          "name": "timestamp",
          "type": "uint256"
        }
      ],
      "name": "registerFlight",
      "outputs": [],
      "stateMutability": "nonpayable",
      "type": "function"
    },
    {
      "inputs": [
        {
          "internalType": "address",
          "name": "airline",
          "type": "address"
        },
        {
          "internalType": "string",
          "name": "flight",
          "type": "string"
        },
        {
          "internalType": "uint256",
          "name": "timestamp",
          "type": "uint256"
        }
      ],
      "name": "fetchFlightStatus",
      "outputs": [],
      "stateMutability": "nonpayable",
      "type": "function"
    },
    {
      "inputs": [
        {
          "internalType": "uint8",
          "name": "index",
          "type": "uint8"
        },
        {
          "internalType": "address",
          "name": "airline",
          "type": "address"
        },
        {
          "internalType": "string",
          "name": "flight",
          "type": "string"
        },
        {
          "internalType": "uint256",
          "name": "timestamp",
          "type": "uint256"
        },
        {
          "internalType": "uint8",
          "name": "statusCode",
          "type": "uint8"
        }
      ],
      "name": "submitOracleResponse",
      "outputs": [],
      "stateMutability": "nonpayable",
      "type": "function"
    },
    {
      "inputs": [],
      "name": "registerOracle",
      "outputs": [],
      "stateMutability": "payable",
      "type": "function"
    },
    {
      "inputs": [],
      "name": "getMyIndexes",
      "outputs": [
        {
          "internalType": "uint8[3]",
          "name": "",
          "type": "uint8[3]"
        }
      ],
      "stateMutability": "view",
      "type": "function"
    }
  ],
  "bytecode": "0x608060405260018060146101000a81548160ff0219169083151502179055506005600160156101000a81548160ff021916908360ff160217905550600067ffffffffffffffff811115620000585762000057620003f3565b5b604051908082528060200260200182016040528015620000875781602001602082028036833780820191505090505b50600690805190602001906200009f92919062000345565b50348015620000ad57600080fd5b506040516200332a3803806200332a8339818101604052810190620000d391906200048c565b826000806101000a81548173ffffffffffffffffffffffffffffffffffffffff021916908373ffffffffffffffffffffffffffffffffffffffff16021790555081600160006101000a81548173ffffffffffffffffffffffffffffffffffffffff021916908373ffffffffffffffffffffffffffffffffffffffff16021790555062000165816200016f60201b60201c565b50505050620005bf565b60008060405180608001604052808473ffffffffffffffffffffffffffffffffffffffff16815260200160011515815260200160001515815260200160001515815250905080600360008573ffffffffffffffffffffffffffffffffffffffff1673ffffffffffffffffffffffffffffffffffffffff16815260200190815260200160002060008201518160000160006101000a81548173ffffffffffffffffffffffffffffffffffffffff021916908373ffffffffffffffffffffffffffffffffffffffff16021790555060208201518160000160146101000a81548160ff02191690831515021790555060408201518160000160156101000a81548160ff02191690831515021790555060608201518160000160166101000a81548160ff021916908315150217905550905050826002808054905081548110620002ba57620002b9620004e8565b5b9060005260206000200160006101000a81548173ffffffffffffffffffffffffffffffffffffffff021916908373ffffffffffffffffffffffffffffffffffffffff1602179055507ff674fc37aef3b3d1f2edee9f9ded3c8a455aac9170016d0f197775a920f9cd3281604051620003339190620005a2565b60405180910390a16001915050919050565b828054828255906000526020600020908101928215620003c1579160200282015b82811115620003c05782518260006101000a81548173ffffffffffffffffffffffffffffffffffffffff021916908373ffffffffffffffffffffffffffffffffffffffff1602179055509160200191906001019062000366565b5b509050620003d09190620003d4565b5090565b5b80821115620003ef576000816000905550600101620003d5565b5090565b7f4e487b7100000000000000000000000000000000000000000000000000000000600052604160045260246000fd5b600080fd5b600073ffffffffffffffffffffffffffffffffffffffff82169050919050565b6000620004548262000427565b9050919050565b620004668162000447565b81146200047257600080fd5b50565b60008151905062000486816200045b565b92915050565b600080600060608486031215620004a857620004a762000422565b5b6000620004b88682870162000475565b9350506020620004cb8682870162000475565b9250506040620004de8682870162000475565b9150509250925092565b7f4e487b7100000000000000000000000000000000000000000000000000000000600052603260045260246000fd5b620005228162000447565b82525050565b60008115159050919050565b6200053f8162000528565b82525050565b6080820160008201516200055d600085018262000517565b50602082015162000572602085018262000534565b50604082015162000587604085018262000534565b5060608201516200059c606085018262000534565b50505050565b6000608082019050620005b9600083018462000545565b92915050565b612d5b80620005cf6000396000f3fe6080604052600436106100dd5760003560e01c806364b4f7511161007f578063c10f270011610059578063c10f270014610260578063c962d4a214610289578063cd905dff146102b2578063f83f11c0146102dd576100dd565b806364b4f751146101ed578063b60d428814610218578063bdfd987714610222576100dd565b8063339d2590116100bb578063339d2590146101645780633cc0be9c1461016e5780635741e092146101975780635f1cc0e6146101c2576100dd565b8063010c5c97146100e2578063110466ed1461011f5780632f6721d014610148575b600080fd5b3480156100ee57600080fd5b5061010960048036038101906101049190611d44565b610306565b6040516101169190611d8c565b60405180910390f35b34801561012b57600080fd5b5061014660048036038101906101419190611dd3565b6103b4565b005b610162600480360381019061015d9190611f7c565b61046d565b005b61016c61055e565b005b34801561017a57600080fd5b5061019560048036038101906101909190611f7c565b610682565b005b3480156101a357600080fd5b506101ac610851565b6040516101b99190611d8c565b60405180910390f35b3480156101ce57600080fd5b506101d76108b6565b6040516101e491906120a3565b60405180910390f35b3480156101f957600080fd5b506102026109f6565b60405161020f91906120cd565b60405180910390f35b610220610a02565b005b34801561022e57600080fd5b5061024960048036038101906102449190611d44565b610ca4565b6040516102579291906120e8565b60405180910390f35b34801561026c57600080fd5b506102876004803603810190610282919061213d565b610fc2565b005b34801561029557600080fd5b506102b060048036038101906102ab9190611f7c565b61137c565b005b3480156102be57600080fd5b506102c7611422565b6040516102d49190611d8c565b60405180910390f35b3480156102e957600080fd5b5061030460048036038101906102ff9190611f7c565b611439565b005b600080600090505b6002805490508110156103a9578273ffffffffffffffffffffffffffffffffffffffff1660028281548110610346576103456121d4565b5b9060005260206000200160009054906101000a900473ffffffffffffffffffffffffffffffffffffffff1673ffffffffffffffffffffffffffffffffffffffff16036103965760019150506103af565b80806103a190612232565b91505061030e565b50600090505b919050565b80600160146101000a81548160ff021916908315150217905550600160009054906101000a900473ffffffffffffffffffffffffffffffffffffffff1673ffffffffffffffffffffffffffffffffffffffff1663110466ed600160149054906101000a900460ff166040518263ffffffff1660e01b81526004016104389190611d8c565b600060405180830381600087803b15801561045257600080fd5b505af1158015610466573d6000803e3d6000fd5b5050505050565b34670de0b6b3a76400008111156104b9576040517f08c379a00000000000000000000000000000000000000000000000000000000081526004016104b0906122fd565b60405180910390fd5b60006104c6858585611566565b9050600160009054906101000a900473ffffffffffffffffffffffffffffffffffffffff1673ffffffffffffffffffffffffffffffffffffffff1663adf8ae7a86836040518363ffffffff1660e01b8152600401610525929190612345565b600060405180830381600087803b15801561053f57600080fd5b505af1158015610553573d6000803e3d6000fd5b505050505050505050565b670de0b6b3a76400003410156105a9576040517f08c379a00000000000000000000000000000000000000000000000000000000081526004016105a0906123ba565b60405180910390fd5b60006105b43361159c565b9050604051806040016040528060011515815260200182815250600760003373ffffffffffffffffffffffffffffffffffffffff1673ffffffffffffffffffffffffffffffffffffffff16815260200190815260200160002060008201518160000160006101000a81548160ff021916908315150217905550602082015181600101906003610644929190611b6f565b509050507fd9d9fdcc9f936c76b5aafe54fc3db5dcec0c6583c9ccc4abe91d17575c5145a53360405161067791906123da565b60405180910390a150565b60011515600160149054906101000a900460ff161515146106d8576040517f08c379a00000000000000000000000000000000000000000000000000000000081526004016106cf90612467565b60405180910390fd5b82600360008273ffffffffffffffffffffffffffffffffffffffff1673ffffffffffffffffffffffffffffffffffffffff16815260200190815260200160002060000160149054906101000a900460ff16610768576040517f08c379a000000000000000000000000000000000000000000000000000000000815260040161075f906124f9565b60405180910390fd5b6000610775858585611566565b905060006040518060800160405280838152602001600060ff1681526020018581526020018773ffffffffffffffffffffffffffffffffffffffff16815250905080600560008481526020019081526020016000206000820151816000015560208201518160010160006101000a81548160ff021916908360ff1602179055506040820151816002015560608201518160030160006101000a81548173ffffffffffffffffffffffffffffffffffffffff021916908373ffffffffffffffffffffffffffffffffffffffff160217905550905050505050505050565b600060011515600160149054906101000a900460ff161515146108a9576040517f08c379a00000000000000000000000000000000000000000000000000000000081526004016108a090612467565b60405180910390fd5b6108b1611422565b905090565b6108be611c09565b600760003373ffffffffffffffffffffffffffffffffffffffff1673ffffffffffffffffffffffffffffffffffffffff16815260200190815260200160002060000160009054906101000a900460ff1661094d576040517f08c379a000000000000000000000000000000000000000000000000000000000815260040161094490612565565b60405180910390fd5b600760003373ffffffffffffffffffffffffffffffffffffffff1673ffffffffffffffffffffffffffffffffffffffff1681526020019081526020016000206001016003806020026040519081016040528092919082600380156109ec576020028201916000905b82829054906101000a900460ff1660ff16815260200190600101906020826000010492830192600103820291508084116109b55790505b5050505050905090565b670de0b6b3a764000081565b60011515600160149054906101000a900460ff16151514610a58576040517f08c379a0000000000000000000000000000000000000000000000000000000008152600401610a4f90612467565b60405180910390fd5b33600360008273ffffffffffffffffffffffffffffffffffffffff1673ffffffffffffffffffffffffffffffffffffffff16815260200190815260200160002060000160149054906101000a900460ff16610ae8576040517f08c379a0000000000000000000000000000000000000000000000000000000008152600401610adf906124f9565b60405180910390fd5b678ac7230489e800003414610afc57600080fd5b600360003373ffffffffffffffffffffffffffffffffffffffff1673ffffffffffffffffffffffffffffffffffffffff16815260200190815260200160002060000160159054906101000a905050600360003373ffffffffffffffffffffffffffffffffffffffff1673ffffffffffffffffffffffffffffffffffffffff16815260200190815260200160002060000160149054906101000a900460ff1615610c13576001600360003373ffffffffffffffffffffffffffffffffffffffff1673ffffffffffffffffffffffffffffffffffffffff16815260200190815260200160002060000160166101000a81548160ff02191690831515021790555060046000815480929190610c0d90612232565b91905055505b600160009054906101000a900473ffffffffffffffffffffffffffffffffffffffff1673ffffffffffffffffffffffffffffffffffffffff16632302440834336040518363ffffffff1660e01b8152600401610c6f91906123da565b6000604051808303818588803b158015610c8857600080fd5b505af1158015610c9c573d6000803e3d6000fd5b505050505050565b60008060011515600160149054906101000a900460ff16151514610cfd576040517f08c379a0000000000000000000000000000000000000000000000000000000008152600401610cf490612467565b60405180910390fd5b33600360008273ffffffffffffffffffffffffffffffffffffffff1673ffffffffffffffffffffffffffffffffffffffff16815260200190815260200160002060000160169054906101000a900460ff16610d8d576040517f08c379a0000000000000000000000000000000000000000000000000000000008152600401610d84906125f7565b60405180910390fd5b83600360008273ffffffffffffffffffffffffffffffffffffffff1673ffffffffffffffffffffffffffffffffffffffff16815260200190815260200160002060000160149054906101000a900460ff1615610e1e576040517f08c379a0000000000000000000000000000000000000000000000000000000008152600401610e1590612689565b60405180910390fd5b600360003373ffffffffffffffffffffffffffffffffffffffff1673ffffffffffffffffffffffffffffffffffffffff16815260200190815260200160002060000160149054906101000a900460ff1615610eae576040517f08c379a0000000000000000000000000000000000000000000000000000000008152600401610ea5906126f5565b60405180910390fd5b600480541015610ec757610ec185611782565b50610fb0565b6006339080600181540180825580915050600190039060005260206000200160009091909190916101000a81548173ffffffffffffffffffffffffffffffffffffffff021916908373ffffffffffffffffffffffffffffffffffffffff1602179055506002600454610f399190612744565b60068054905010610faf57600067ffffffffffffffff811115610f5f57610f5e611e1b565b5b604051908082528060200260200182016040528015610f8d5781602001602082028036833780820191505090505b5060069080519060200190610fa3929190611c2b565b50610fad85611782565b505b5b83600680549050935093505050915091565b600085858585604051602001610fdb949392919061288e565b6040516020818303038152906040528051906020012090506008600082815260200190815260200160002060000160149054906101000a900460ff16611056576040517f08c379a000000000000000000000000000000000000000000000000000000000815260040161104d90612924565b60405180910390fd5b8560ff16600760003373ffffffffffffffffffffffffffffffffffffffff1673ffffffffffffffffffffffffffffffffffffffff1681526020019081526020016000206001016000600381106110af576110ae6121d4565b5b602091828204019190069054906101000a900460ff1660ff16148061114357508560ff16600760003373ffffffffffffffffffffffffffffffffffffffff1673ffffffffffffffffffffffffffffffffffffffff168152602001908152602001600020600101600160038110611128576111276121d4565b5b602091828204019190069054906101000a900460ff1660ff16145b806111bd57508560ff16600760003373ffffffffffffffffffffffffffffffffffffffff1673ffffffffffffffffffffffffffffffffffffffff1681526020019081526020016000206001016002600381106111a2576111a16121d4565b5b602091828204019190069054906101000a900460ff1660ff16145b6111fc576040517f08c379a00000000000000000000000000000000000000000000000000000000081526004016111f3906129b6565b60405180910390fd5b6009600082815260200190815260200160002060008360ff1660ff168152602001908152602001600020339080600181540180825580915050600190039060005260206000200160009091909190916101000a81548173ffffffffffffffffffffffffffffffffffffffff021916908373ffffffffffffffffffffffffffffffffffffffff1602179055507f257dccc1fd472d66cce2826f12a70912f497d3505f06930e7c6f050afece003433868686866040516112be959493929190612a1e565b60405180910390a160026009600083815260200190815260200160002060008460ff1660ff16815260200190815260200160002080549050106113745760006008600083815260200190815260200160002060000160146101000a81548160ff0219169083151502179055507fe23f5229de535c091e3b7bec2665f5d698192d3b31393066e8987b7a05076b6c8585858560405161135f9493929190612a78565b60405180910390a161137385858585611953565b5b505050505050565b6000611389848484611566565b9050600160009054906101000a900473ffffffffffffffffffffffffffffffffffffffff1673ffffffffffffffffffffffffffffffffffffffff1663df7a7e2d8583336040518463ffffffff1660e01b81526004016113ea93929190612ae5565b600060405180830381600087803b15801561140457600080fd5b505af1158015611418573d6000803e3d6000fd5b5050505050505050565b6000600160149054906101000a900460ff16905090565b600061144433611aa3565b905060008185858560405160200161145f949392919061288e565b60405160208183030381529060405280519060200120905060405180604001604052803373ffffffffffffffffffffffffffffffffffffffff168152602001600115158152506008600083815260200190815260200160002060008201518160000160006101000a81548173ffffffffffffffffffffffffffffffffffffffff021916908373ffffffffffffffffffffffffffffffffffffffff16021790555060208201518160000160146101000a81548160ff0219169083151502179055509050507f3ed01f2c3fc24c6b329d931e35b03e390d23497d22b3f90e15b600343e93df11828686866040516115579493929190612b1c565b60405180910390a15050505050565b600083838360405160200161157d93929190612b68565b6040516020818303038152906040528051906020012090509392505050565b6115a4611c09565b6115ac611c09565b6115b583611aa3565b816000600381106115c9576115c86121d4565b5b602002019060ff16908160ff1681525050806000600381106115ee576115ed6121d4565b5b602002015181600160038110611607576116066121d4565b5b602002019060ff16908160ff16815250505b8060006003811061162d5761162c6121d4565b5b602002015160ff1681600160038110611649576116486121d4565b5b602002015160ff16036116895761165f83611aa3565b81600160038110611673576116726121d4565b5b602002019060ff16908160ff1681525050611619565b8060016003811061169d5761169c6121d4565b5b6020020151816002600381106116b6576116b56121d4565b5b602002019060ff16908160ff16815250505b806000600381106116dc576116db6121d4565b5b602002015160ff16816002600381106116f8576116f76121d4565b5b602002015160ff16148061174157508060016003811061171b5761171a6121d4565b5b602002015160ff1681600260038110611737576117366121d4565b5b602002015160ff16145b156117795761174f83611aa3565b81600260038110611763576117626121d4565b5b602002019060ff16908160ff16815250506116c8565b80915050919050565b60008060405180608001604052808473ffffffffffffffffffffffffffffffffffffffff16815260200160011515815260200160001515815260200160001515815250905080600360008573ffffffffffffffffffffffffffffffffffffffff1673ffffffffffffffffffffffffffffffffffffffff16815260200190815260200160002060008201518160000160006101000a81548173ffffffffffffffffffffffffffffffffffffffff021916908373ffffffffffffffffffffffffffffffffffffffff16021790555060208201518160000160146101000a81548160ff02191690831515021790555060408201518160000160156101000a81548160ff02191690831515021790555060608201518160000160166101000a81548160ff0219169083151502179055509050508260028080549050815481106118ca576118c96121d4565b5b9060005260206000200160006101000a81548173ffffffffffffffffffffffffffffffffffffffff021916908373ffffffffffffffffffffffffffffffffffffffff1602179055507ff674fc37aef3b3d1f2edee9f9ded3c8a455aac9170016d0f197775a920f9cd32816040516119419190612c14565b60405180910390a16001915050919050565b6000611960858585611566565b9050600060ff168260ff16036119765750611a9d565b601460ff168260ff1603611a1057600160009054906101000a900473ffffffffffffffffffffffffffffffffffffffff1673ffffffffffffffffffffffffffffffffffffffff1663d157ba27826040518263ffffffff1660e01b81526004016119df9190612c2f565b60006040518083038186803b1580156119f757600080fd5b505afa158015611a0b573d6000803e3d6000fd5b505050505b600160009054906101000a900473ffffffffffffffffffffffffffffffffffffffff1673ffffffffffffffffffffffffffffffffffffffff1663be6547ae826040518263ffffffff1660e01b8152600401611a6b9190612c2f565b60006040518083038186803b158015611a8357600080fd5b505afa158015611a97573d6000803e3d6000fd5b50505050505b50505050565b600080600a905060008160ff166001601581819054906101000a900460ff1680929190611acf90612c4a565b91906101000a81548160ff021916908360ff16021790555060ff1643611af59190612c73565b4085604051602001611b08929190612cc8565b6040516020818303038152906040528051906020012060001c611b2b9190612cf4565b905060fa600160159054906101000a900460ff1660ff161115611b65576000600160156101000a81548160ff021916908360ff1602179055505b8092505050919050565b826003601f01602090048101928215611bf85791602002820160005b83821115611bc957835183826101000a81548160ff021916908360ff1602179055509260200192600101602081600001049283019260010302611b8b565b8015611bf65782816101000a81549060ff0219169055600101602081600001049283019260010302611bc9565b505b509050611c059190611cb5565b5090565b6040518060600160405280600390602082028036833780820191505090505090565b828054828255906000526020600020908101928215611ca4579160200282015b82811115611ca35782518260006101000a81548173ffffffffffffffffffffffffffffffffffffffff021916908373ffffffffffffffffffffffffffffffffffffffff16021790555091602001919060010190611c4b565b5b509050611cb19190611cb5565b5090565b5b80821115611cce576000816000905550600101611cb6565b5090565b6000604051905090565b600080fd5b600080fd5b600073ffffffffffffffffffffffffffffffffffffffff82169050919050565b6000611d1182611ce6565b9050919050565b611d2181611d06565b8114611d2c57600080fd5b50565b600081359050611d3e81611d18565b92915050565b600060208284031215611d5a57611d59611cdc565b5b6000611d6884828501611d2f565b91505092915050565b60008115159050919050565b611d8681611d71565b82525050565b6000602082019050611da16000830184611d7d565b92915050565b611db081611d71565b8114611dbb57600080fd5b50565b600081359050611dcd81611da7565b92915050565b600060208284031215611de957611de8611cdc565b5b6000611df784828501611dbe565b91505092915050565b600080fd5b600080fd5b6000601f19601f8301169050919050565b7f4e487b7100000000000000000000000000000000000000000000000000000000600052604160045260246000fd5b611e5382611e0a565b810181811067ffffffffffffffff82111715611e7257611e71611e1b565b5b80604052505050565b6000611e85611cd2565b9050611e918282611e4a565b919050565b600067ffffffffffffffff821115611eb157611eb0611e1b565b5b611eba82611e0a565b9050602081019050919050565b82818337600083830152505050565b6000611ee9611ee484611e96565b611e7b565b905082815260208101848484011115611f0557611f04611e05565b5b611f10848285611ec7565b509392505050565b600082601f830112611f2d57611f2c611e00565b5b8135611f3d848260208601611ed6565b91505092915050565b6000819050919050565b611f5981611f46565b8114611f6457600080fd5b50565b600081359050611f7681611f50565b92915050565b600080600060608486031215611f9557611f94611cdc565b5b6000611fa386828701611d2f565b935050602084013567ffffffffffffffff811115611fc457611fc3611ce1565b5b611fd086828701611f18565b9250506040611fe186828701611f67565b9150509250925092565b600060039050919050565b600081905092915050565b6000819050919050565b600060ff82169050919050565b6120218161200b565b82525050565b60006120338383612018565b60208301905092915050565b6000602082019050919050565b61205581611feb565b61205f8184611ff6565b925061206a82612001565b8060005b8381101561209b5781516120828782612027565b965061208d8361203f565b92505060018101905061206e565b505050505050565b60006060820190506120b8600083018461204c565b92915050565b6120c781611f46565b82525050565b60006020820190506120e260008301846120be565b92915050565b60006040820190506120fd6000830185611d7d565b61210a60208301846120be565b9392505050565b61211a8161200b565b811461212557600080fd5b50565b60008135905061213781612111565b92915050565b600080600080600060a0868803121561215957612158611cdc565b5b600061216788828901612128565b955050602061217888828901611d2f565b945050604086013567ffffffffffffffff81111561219957612198611ce1565b5b6121a588828901611f18565b93505060606121b688828901611f67565b92505060806121c788828901612128565b9150509295509295909350565b7f4e487b7100000000000000000000000000000000000000000000000000000000600052603260045260246000fd5b7f4e487b7100000000000000000000000000000000000000000000000000000000600052601160045260246000fd5b600061223d82611f46565b91507fffffffffffffffffffffffffffffffffffffffffffffffffffffffffffffffff820361226f5761226e612203565b5b600182019050919050565b600082825260208201905092915050565b7f43616e6e6f7420696e7375726520666f72206d6f7265207468616e206f6e652060008201527f65746865722e0000000000000000000000000000000000000000000000000000602082015250565b60006122e760268361227a565b91506122f28261228b565b604082019050919050565b60006020820190508181036000830152612316816122da565b9050919050565b61232681611d06565b82525050565b6000819050919050565b61233f8161232c565b82525050565b600060408201905061235a600083018561231d565b6123676020830184612336565b9392505050565b7f526567697374726174696f6e2066656520697320726571756972656400000000600082015250565b60006123a4601c8361227a565b91506123af8261236e565b602082019050919050565b600060208201905081810360008301526123d381612397565b9050919050565b60006020820190506123ef600083018461231d565b92915050565b7f436f6e74726163742069732063757272656e746c79206e6f74206f706572617460008201527f696f6e616c000000000000000000000000000000000000000000000000000000602082015250565b600061245160258361227a565b915061245c826123f5565b604082019050919050565b6000602082019050818103600083015261248081612444565b9050919050565b7f4169726c696e65206d757374206265205245474953544552454420746f206d6160008201527f6b6520746869732063616c6c2e00000000000000000000000000000000000000602082015250565b60006124e3602d8361227a565b91506124ee82612487565b604082019050919050565b60006020820190508181036000830152612512816124d6565b9050919050565b7f54686973204f7261636c65206973206e6f742052454749535445524544000000600082015250565b600061254f601d8361227a565b915061255a82612519565b602082019050919050565b6000602082019050818103600083015261257e81612542565b9050919050565b7f4169726c696e65206d7573742062652041435449564520746f206d616b65207460008201527f6869732063616c6c2e0000000000000000000000000000000000000000000000602082015250565b60006125e160298361227a565b91506125ec82612585565b604082019050919050565b60006020820190508181036000830152612610816125d4565b9050919050565b7f4169726c696e65206d757374206e6f742079657420626520524547495354455260008201527f45442e0000000000000000000000000000000000000000000000000000000000602082015250565b600061267360238361227a565b915061267e82612617565b604082019050919050565b600060208201905081810360008301526126a281612666565b9050919050565b7f4169726c696e6520697320616c726561647920526567697374657265642e0000600082015250565b60006126df601e8361227a565b91506126ea826126a9565b602082019050919050565b6000602082019050818103600083015261270e816126d2565b9050919050565b7f4e487b7100000000000000000000000000000000000000000000000000000000600052601260045260246000fd5b600061274f82611f46565b915061275a83611f46565b92508261276a57612769612715565b5b828204905092915050565b60008160f81b9050919050565b600061278d82612775565b9050919050565b6127a56127a08261200b565b612782565b82525050565b60008160601b9050919050565b60006127c3826127ab565b9050919050565b60006127d5826127b8565b9050919050565b6127ed6127e882611d06565b6127ca565b82525050565b600081519050919050565b600081905092915050565b60005b8381101561282757808201518184015260208101905061280c565b83811115612836576000848401525b50505050565b6000612847826127f3565b61285181856127fe565b9350612861818560208601612809565b80840191505092915050565b6000819050919050565b61288861288382611f46565b61286d565b82525050565b600061289a8287612794565b6001820191506128aa82866127dc565b6014820191506128ba828561283c565b91506128c68284612877565b60208201915081905095945050505050565b7f4f7261636c6552657175657374206973206e6f74204f50454e00000000000000600082015250565b600061290e60198361227a565b9150612919826128d8565b602082019050919050565b6000602082019050818103600083015261293d81612901565b9050919050565b7f4f7261636c6520686173206e6f206d61746368696e6720496e64657820666f7260008201527f2074686973204f7261636c655265717565737400000000000000000000000000602082015250565b60006129a060338361227a565b91506129ab82612944565b604082019050919050565b600060208201905081810360008301526129cf81612993565b9050919050565b60006129e1826127f3565b6129eb818561227a565b93506129fb818560208601612809565b612a0481611e0a565b840191505092915050565b612a188161200b565b82525050565b600060a082019050612a33600083018861231d565b612a40602083018761231d565b8181036040830152612a5281866129d6565b9050612a6160608301856120be565b612a6e6080830184612a0f565b9695505050505050565b6000608082019050612a8d600083018761231d565b8181036020830152612a9f81866129d6565b9050612aae60408301856120be565b612abb6060830184612a0f565b95945050505050565b6000612acf82611ce6565b9050919050565b612adf81612ac4565b82525050565b6000606082019050612afa600083018661231d565b612b076020830185612336565b612b146040830184612ad6565b949350505050565b6000608082019050612b316000830187612a0f565b612b3e602083018661231d565b8181036040830152612b5081856129d6565b9050612b5f60608301846120be565b95945050505050565b6000612b7482866127dc565b601482019150612b84828561283c565b9150612b908284612877565b602082019150819050949350505050565b612baa81611d06565b82525050565b612bb981611d71565b82525050565b608082016000820151612bd56000850182612ba1565b506020820151612be86020850182612bb0565b506040820151612bfb6040850182612bb0565b506060820151612c0e6060850182612bb0565b50505050565b6000608082019050612c296000830184612bbf565b92915050565b6000602082019050612c446000830184612336565b92915050565b6000612c558261200b565b915060ff8203612c6857612c67612203565b5b600182019050919050565b6000612c7e82611f46565b9150612c8983611f46565b925082821015612c9c57612c9b612203565b5b828203905092915050565b6000819050919050565b612cc2612cbd8261232c565b612ca7565b82525050565b6000612cd48285612cb1565b602082019150612ce482846127dc565b6014820191508190509392505050565b6000612cff82611f46565b9150612d0a83611f46565b925082612d1a57612d19612715565b5b82820690509291505056fea2646970667358221220d4cfd52eb41bd818a76b416235cfac5a1912d1c270b234ac7b367e8f18a063d464736f6c634300080e0033",
  "immutableReferences": {},
  "source": "// SPDX-License-Identifier: MIT\npragma solidity >=0.4.22 <0.9.0;\n\nimport \"../node_modules/@openzeppelin/contracts/utils/math/SafeMath.sol\";\nimport \"./FlightSuretyData.sol\";\n\ncontract FlightSuretyApp {\n    using SafeMath for uint256;\n    address private contractOwner;          // Account used to deploy contract\n    //    address private dataContractAddress;\n    FlightSuretyData private dataContract;\n    bool operational = true;\n\n\n    uint8 private constant STATUS_CODE_UNKNOWN = 0;\n    uint8 private constant STATUS_CODE_ON_TIME = 10;\n    uint8 private constant STATUS_CODE_LATE_AIRLINE = 20; // << This is the only one relevant to payouts\n    uint8 private constant STATUS_CODE_LATE_WEATHER = 30;\n    uint8 private constant STATUS_CODE_LATE_TECHNICAL = 40;\n    uint8 private constant STATUS_CODE_LATE_OTHER = 50;\n    uint8 private nonce = 5;                            // Incremented to add pseudo-randomness at various points\n    uint256 public constant REGISTRATION_FEE = 1 ether; // Fee to be paid when registering oracle\n    uint256 private constant MIN_RESPONSES = 2;         // Number of oracles that must respond for valid status\n\n\n    struct Airline {\n        address airlineAddress;\n        bool isRegistered;\n        bool isFunded;\n        bool isActive; // both isRegisterd and isFunded. Not needed as we can calculate it, but is simple.\n    }\n\n    address[] airlineAddresses;\n    mapping(address => Airline) airlines;\n    // easy way for m of n once we have more than 4\n    uint256 activeAirlinesCount;\n\n    struct Flight {\n        bytes32 flightKey;\n        //        bool isRegistered;\n        uint8 statusCode;\n        uint256 timestamp;\n        address airline;\n    }\n\n    mapping(bytes32 => Flight) private flightsByFlightKey;\n\n    struct OracleRegistration {\n        bool isRegistered;\n        uint8[3] indexes;\n    }\n\n    modifier requireIsOperational()     {\n        // used on all state changing functions\n        // Modify to call data contract's status\n        require(operational == true, \"Contract is currently not operational\");\n        _;\n        // All modifiers require an \"_\" which indicates where the function body will be added\n    }\n    modifier requireContractOwner()    {\n        require(msg.sender == contractOwner, \"Caller must be contract owner to make this call.\");\n        _;\n    }\n    modifier requireNominatedAirlineIsNotYetRegistered(address airlineAddress) {\n        require(!airlines[airlineAddress].isRegistered, \"Airline must not yet be REGISTERED.\");\n        _;\n    }\n    modifier requireAirlineIsFunded(address airlineAddress) {\n        require(airlines[airlineAddress].isFunded, \"Airline must be FUNDED to make this call.\");\n        _;\n    }\n    modifier requireAirlineIsRegistered(address airlineAddress) {\n        require(airlines[airlineAddress].isRegistered, \"Airline must be REGISTERED to make this call.\");\n        _;\n    }\n    // require an airline is active in order to vote on registering an airline\n    modifier requireNominatingAirlineIsActive(address airlineAddress) {\n        require(airlines[airlineAddress].isActive, \"Airline must be ACTIVE to make this call.\");\n        _;\n    }\n    modifier requireLessThanOneEther(uint256 value){\n        require(value <= 1 ether, \"Cannot insure for more than one ether.\");\n        _;\n    }\n\n    /********************************************************************************************/\n    /*                                     SMART CONTRACT FUNCTIONS                             */\n    /********************************************************************************************/\n\n    // implies Data Contract has already been deployed\n    constructor(address _contractOwner, address dataContractAddress, address firstAirlineAddress){\n        contractOwner = _contractOwner;\n        dataContract = FlightSuretyData(dataContractAddress);\n        _registerAirline(firstAirlineAddress);\n    }\n\n    function setOperatingStatus(bool mode) external\n//    requireContractOwner\n    {\n        operational = mode;\n        dataContract.setOperatingStatus(operational);\n    }\n    function isOperational() public view\n    returns (bool operatingMode)\n    {\n        return operational;\n    }\n    // a simple way to test the isOperational modifier\n    function isOperationalTest() public view\n    requireIsOperational\n    returns (bool operatingMode)\n    {\n        return isOperational();\n    }\n    /**\n     * Assuming only one registration at a time\n     * @dev Add an airline to the registration queue\n    *      Can only be called from FlightSuretyApp contract\n    *      M of N Multi-party Consensus is required\n    *        - M is 1/2 of N\n\n    *       NOTE: Will only allowing one airline to be added at a time.\n            Otherwise, would need an M of N for each airline which was\n            being added in parallel. No requirement for that.\n    */\n\n    address[] mofnConsensusToRegisterAnAirline = new address[](0);\n\n    function registerAirline(address airlineAddress)\n    external\n    requireIsOperational\n    requireNominatingAirlineIsActive(msg.sender)\n    requireNominatedAirlineIsNotYetRegistered(airlineAddress)\n    returns (bool success, uint256 votes) {\n\n        require(!airlines[msg.sender].isRegistered, \"Airline is already Registered.\");\n        // check if it is already registered\n\n\n        // no requirement to prevent an airline from voting twice,\n        //but will not do this in the test anyway\n        //        if (bAlreadyVoted == false) {\n\n        //        }\n\n        // only do M of N if N > 4\n        // M by the way is only to be greater than 50%\n        if (activeAirlinesCount < 4) {\n            _registerAirline(airlineAddress);\n        }\n        else {\n            mofnConsensusToRegisterAnAirline.push(msg.sender);\n\n            if (mofnConsensusToRegisterAnAirline.length >= activeAirlinesCount / 2) {\n                // ok, majority has been reached\n                mofnConsensusToRegisterAnAirline = new address[](0);\n\n                _registerAirline(airlineAddress);\n            }\n        }\n        return (success, mofnConsensusToRegisterAnAirline.length);\n\n    }\n\n    event RegisteredAirline(Airline airline);\n\n    function _registerAirline(address newAirlineAddress)\n    private\n        // this requireOperational modifier doesn't feel right as it is an internal call\n        // and should executed because the call has passed a previous modifier\n        // so out it goes\n        // requireIsOperational\n    returns (bool success) {\n        Airline memory newAirline = Airline\n        ({airlineAddress : newAirlineAddress,\n        isActive : false,\n        isFunded : false,\n        isRegistered : true\n        });\n        airlines[newAirlineAddress] = newAirline;\n        airlineAddresses[airlineAddresses.length] = newAirlineAddress;\n        emit RegisteredAirline(newAirline);\n\n        return (true);\n    }\n    function isAirlineRegistered(address _airline) public view\n    returns (bool bAirlineIsRegistered) {\n        for (uint256 i = 0; i < airlineAddresses.length; i++){\n            if (airlineAddresses[i] == _airline){\n                return true;\n            }\n        }\n        return false;\n    }\n\n    function fund()\n    external\n    payable\n    requireIsOperational\n    requireAirlineIsRegistered(msg.sender)\n    {\n        require(msg.value == 10 ether);\n\n        airlines[msg.sender].isFunded;\n        if (airlines[msg.sender].isRegistered) {\n            airlines[msg.sender].isActive = true;\n            activeAirlinesCount++;\n        }\n\n        dataContract.fund{value : msg.value}(msg.sender);\n    }\n\n    function pay(address airlineAddress, string memory flight, uint256 timestamp) external {\n        bytes32 flightKey = getFlightKey(airlineAddress, flight, timestamp);\n        dataContract.pay(airlineAddress, flightKey, payable(msg.sender));\n    }\n\n    function buyInsurance(address airlineAddress, string memory flight, uint256 timestamp)\n    external payable\n    requireLessThanOneEther(msg.value) {\n        bytes32 flightKey = getFlightKey(airlineAddress, flight, timestamp);\n        dataContract.buyInsurance(airlineAddress, flightKey);\n    }\n\n//    function getInsurancePoliciesForFlight(address airlineAddress, string memory flight, uint256 timestamp)\n//    public view returns (FlightSuretyData.InsurancePolicy[] calldata){\n//        bytes32 flightKey = getFlightKey(airlineAddress, flight, timestamp);\n//        return dataContract.getInsurancePoliciesByFlightKey(flightKey);\n//    }\n\n    function getFlightKey(address airline, string memory flight, uint256 timestamp) pure internal returns (bytes32) {\n        return keccak256(abi.encodePacked(airline, flight, timestamp));\n    }\n\n    // what is the point of this?\n    // is it required that the airline is registered? Makes sense.\n    function registerFlight(address airlineAddress, string memory flightName, uint256 timestamp) external\n    requireIsOperational\n    requireAirlineIsRegistered(airlineAddress) {\n        // do we check to see if the flight has already been registered?\n        // not a requirement and also idempotent\n        bytes32 flightKey = getFlightKey(airlineAddress, flightName, timestamp);\n        Flight memory flight = Flight(\n        {flightKey : flightKey,\n        timestamp : timestamp,\n        airline : airlineAddress,\n        statusCode : STATUS_CODE_UNKNOWN});\n\n        flightsByFlightKey[flightKey] = flight;\n    }\n\n\n    ///////// ORACLE STUFF /////////////\n\n    // Track all registered oracles\n    mapping(address => OracleRegistration) private oracleRegistrationsByAddress;\n\n    // Model for responses from oracles\n    struct ResponseInfo {\n        address requester; // Account that requested status\n        bool isOpen;       // If open, oracle responses are accepted\n    }\n    // Track all oracle responses\n    // Key = hash(index, airline, flight, timestamp)\n    mapping(bytes32 => ResponseInfo) private responseInfoByKey;\n    mapping(bytes32 => mapping(uint8 => address[])) private responseInfoByKeyAndStatusCode;\n\n    // Event fired each time an oracle submits a response\n    event FlightStatusInfo(address airline, string flight, uint256 timestamp, uint8 status);\n    event OracleReport(address oracle, address airline, string flight, uint256 timestamp, uint8 status);\n\n    // Event fired when flight status request is submitted. Oracles track this and if they have a matching index. they fetch data and submit a response\n    event OracleRequest(uint8 index, address airline, string flight, uint256 timestamp);\n\n    // Triggered from the UI\n    function fetchFlightStatus(address airline, string memory flight, uint256 timestamp) external {\n        // Generate a request for oracles to fetch flight information\n        uint8 index = getRandomIndex(msg.sender);\n\n        // Generate a unique key for storing the request\n        bytes32 key = keccak256(abi.encodePacked(index, airline, flight, timestamp));\n        responseInfoByKey[key] = ResponseInfo({requester : msg.sender, isOpen : true});\n        emit OracleRequest(index, airline, flight, timestamp);\n    }\n    /**\n    * @dev Called after oracle has updated flight status\n    *\n    */\n    function processFlightStatus(address airline, string memory flight, uint256 timestamp, uint8 statusCode) internal view {\n        bytes32 flightKey = getFlightKey(airline, flight, timestamp);\n        // if status code is not 20, do nothing\n        if (statusCode == STATUS_CODE_UNKNOWN) {\n            return;\n        } else if (statusCode == STATUS_CODE_LATE_AIRLINE) {\n            // if status code is 20, then pay out all passengers who are insured for this flight\n            dataContract.creditInsureds(flightKey);\n        }\n        // no matter what, close down the policy for this flight\n        dataContract.closeInsurancePolicy(flightKey);\n    }\n\n    function submitOracleResponse(uint8 index, address airline, string memory flight, uint256 timestamp, uint8 statusCode) external {\n\n        bytes32 key = keccak256(abi.encodePacked(index, airline, flight, timestamp));\n        //        require(responseInfoByKey[key].isOpen, \"OracleRequest with index (\" + index + \"), airline (\" + airline + \"), flight (\" + flight + \") and timestamp (\" + timestamp + \") is not OPEN\");\n        require(responseInfoByKey[key].isOpen, \"OracleRequest is not OPEN\");\n        require((oracleRegistrationsByAddress[msg.sender].indexes[0] == index) ||\n        (oracleRegistrationsByAddress[msg.sender].indexes[1] == index) ||\n            (oracleRegistrationsByAddress[msg.sender].indexes[2] == index), \"Oracle has no matching Index for this OracleRequest\");\n\n        responseInfoByKeyAndStatusCode[key][statusCode].push(msg.sender);\n\n        // Information isn't considered verified until at least MIN_RESPONSES\n        // oracles respond with the *** same *** information\n        emit OracleReport(msg.sender, airline, flight, timestamp, statusCode);\n\n        if (responseInfoByKeyAndStatusCode[key][statusCode].length >= MIN_RESPONSES) {\n            // CODE EXERCISE 3: Prevent any more responses since MIN_RESPONSE threshold has been reached\n            /* Enter code here */\n            responseInfoByKey[key].isOpen = false;\n\n            emit FlightStatusInfo(airline, flight, timestamp, statusCode);\n\n            // Handle flight status as appropriate\n            processFlightStatus(airline, flight, timestamp, statusCode);\n        }\n    }\n\n    event    OracleRegistered(address sender);\n\n    function registerOracle() external payable {\n        // Require registration fee\n        require(msg.value >= REGISTRATION_FEE, \"Registration fee is required\");\n\n        uint8[3] memory indexes = generateIndexes(msg.sender);\n\n        oracleRegistrationsByAddress[msg.sender] = OracleRegistration({\n        isRegistered : true,\n        indexes : indexes\n        });\n        emit OracleRegistered(msg.sender);\n\n    }\n\n\n    function generateIndexes(address account) internal returns (uint8[3] memory) {\n        // Returns array of three non-duplicating integers from 0-9\n        uint8[3] memory indexes;\n        indexes[0] = getRandomIndex(account);\n\n        indexes[1] = indexes[0];\n        while (indexes[1] == indexes[0]) {\n            indexes[1] = getRandomIndex(account);\n        }\n\n        indexes[2] = indexes[1];\n        while ((indexes[2] == indexes[0]) || (indexes[2] == indexes[1])) {\n            indexes[2] = getRandomIndex(account);\n        }\n        return indexes;\n    }\n\n    function getMyIndexes() view external returns (uint8[3] memory) {\n        require(oracleRegistrationsByAddress[msg.sender].isRegistered, \"This Oracle is not REGISTERED\");\n        return oracleRegistrationsByAddress[msg.sender].indexes;\n    }\n\n    function getRandomIndex(address account) internal returns (uint8) {\n        uint8 maxValue = 10;\n        // Pseudo random number...the incrementing nonce adds variation\n        uint8 random = uint8(uint256(keccak256(abi.encodePacked(blockhash(block.number - nonce++), account))) % maxValue);\n        if (nonce > 250) {\n            nonce = 0;\n            // Can only fetch blockhashes for last 256 blocks so we adapt\n        }\n        return random;\n    }\n\n\n}\n",
  "sourcePath": "/Users/thomaswhitehill/IdeaProjects/BlockchainProjects/FlightSuretyProjects/FlightSurety/contracts/FlightSuretyApp.sol",
  "compiler": {
    "name": "solc",
    "version": "0.8.14+commit.80d49f37.Emscripten.clang"
  },
  "schemaVersion": "3.4.4",
  "updatedAt": "2022-05-29T11:46:09.731Z",
  "devdoc": {
    "kind": "dev",
    "methods": {},
    "stateVariables": {
      "mofnConsensusToRegisterAnAirline": {
        "details": "Add an airline to the registration queue      Can only be called from FlightSuretyApp contract      M of N Multi-party Consensus is required        - M is 1/2 of N       NOTE: Will only allowing one airline to be added at a time. Otherwise, would need an M of N for each airline which was being added in parallel. No requirement for that."
      }
    },
    "version": 1
  },
  "userdoc": {
    "kind": "user",
    "methods": {},
    "version": 1
  }
}